{
  "_format": "hh-sol-artifact-1",
  "contractName": "BullsCallPrediction",
  "sourceName": "src/contracts/BullsCall.sol",
  "abi": [
    {
      "anonymous": false,
      "inputs": [
        {
          "indexed": true,
          "internalType": "address",
          "name": "sender",
          "type": "address"
        },
        {
          "indexed": true,
          "internalType": "uint256",
          "name": "epoch",
          "type": "uint256"
        },
        {
          "indexed": false,
          "internalType": "uint256",
          "name": "amount",
          "type": "uint256"
        }
      ],
      "name": "BearBet",
      "type": "event"
    },
    {
      "anonymous": false,
      "inputs": [
        {
          "indexed": true,
          "internalType": "address",
          "name": "sender",
          "type": "address"
        },
        {
          "indexed": true,
          "internalType": "uint256",
          "name": "epoch",
          "type": "uint256"
        },
        {
          "indexed": false,
          "internalType": "uint256",
          "name": "amount",
          "type": "uint256"
        }
      ],
      "name": "BullBet",
      "type": "event"
    },
    {
      "anonymous": false,
      "inputs": [
        {
          "indexed": true,
          "internalType": "address",
          "name": "sender",
          "type": "address"
        },
        {
          "indexed": true,
          "internalType": "uint256",
          "name": "epoch",
          "type": "uint256"
        },
        {
          "indexed": false,
          "internalType": "uint256",
          "name": "amount",
          "type": "uint256"
        }
      ],
      "name": "Claimed",
      "type": "event"
    },
    {
      "anonymous": false,
      "inputs": [
        {
          "indexed": true,
          "internalType": "address",
          "name": "sender",
          "type": "address"
        },
        {
          "indexed": true,
          "internalType": "uint256",
          "name": "epoch",
          "type": "uint256"
        },
        {
          "indexed": false,
          "internalType": "uint256",
          "name": "bullAmount",
          "type": "uint256"
        },
        {
          "indexed": false,
          "internalType": "uint256",
          "name": "bearAmount",
          "type": "uint256"
        }
      ],
      "name": "HouseBet",
      "type": "event"
    },
    {
      "anonymous": false,
      "inputs": [
        {
          "indexed": true,
          "internalType": "uint256",
          "name": "epoch",
          "type": "uint256"
        },
        {
          "indexed": false,
          "internalType": "uint256",
          "name": "minBetAmount",
          "type": "uint256"
        }
      ],
      "name": "MinBetAmountUpdated",
      "type": "event"
    },
    {
      "anonymous": false,
      "inputs": [
        {
          "indexed": true,
          "internalType": "address",
          "name": "previousOwner",
          "type": "address"
        },
        {
          "indexed": true,
          "internalType": "address",
          "name": "newOwner",
          "type": "address"
        }
      ],
      "name": "OwnershipTransferred",
      "type": "event"
    },
    {
      "anonymous": false,
      "inputs": [
        {
          "indexed": true,
          "internalType": "uint256",
          "name": "epoch",
          "type": "uint256"
        }
      ],
      "name": "Paused",
      "type": "event"
    },
    {
      "anonymous": false,
      "inputs": [
        {
          "indexed": true,
          "internalType": "address",
          "name": "sender",
          "type": "address"
        },
        {
          "indexed": true,
          "internalType": "uint256",
          "name": "epoch",
          "type": "uint256"
        },
        {
          "indexed": false,
          "internalType": "uint256",
          "name": "amount",
          "type": "uint256"
        }
      ],
      "name": "Refunded",
      "type": "event"
    },
    {
      "anonymous": false,
      "inputs": [
        {
          "indexed": false,
          "internalType": "uint256",
          "name": "roundDuration",
          "type": "uint256"
        }
      ],
      "name": "RoundDuratioUpdated",
      "type": "event"
    },
    {
      "anonymous": false,
      "inputs": [
        {
          "indexed": true,
          "internalType": "uint256",
          "name": "epoch",
          "type": "uint256"
        },
        {
          "indexed": false,
          "internalType": "uint256",
          "name": "price",
          "type": "uint256"
        }
      ],
      "name": "RoundEnded",
      "type": "event"
    },
    {
      "anonymous": false,
      "inputs": [
        {
          "indexed": true,
          "internalType": "uint256",
          "name": "epoch",
          "type": "uint256"
        },
        {
          "indexed": false,
          "internalType": "uint256",
          "name": "price",
          "type": "uint256"
        }
      ],
      "name": "RoundLocked",
      "type": "event"
    },
    {
      "anonymous": false,
      "inputs": [
        {
          "indexed": true,
          "internalType": "uint256",
          "name": "epoch",
          "type": "uint256"
        }
      ],
      "name": "RoundStarted",
      "type": "event"
    },
    {
      "anonymous": false,
      "inputs": [
        {
          "indexed": true,
          "internalType": "uint256",
          "name": "epoch",
          "type": "uint256"
        }
      ],
      "name": "Unpaused",
      "type": "event"
    },
    {
      "inputs": [
        {
          "internalType": "uint256",
          "name": "epoch",
          "type": "uint256"
        }
      ],
      "name": "BetBear",
      "outputs": [],
      "stateMutability": "payable",
      "type": "function"
    },
    {
      "inputs": [
        {
          "internalType": "uint256",
          "name": "epoch",
          "type": "uint256"
        }
      ],
      "name": "BetBull",
      "outputs": [],
      "stateMutability": "payable",
      "type": "function"
    },
    {
      "inputs": [
        {
          "internalType": "uint256",
          "name": "bullAmount",
          "type": "uint256"
        },
        {
          "internalType": "uint256",
          "name": "bearAmount",
          "type": "uint256"
        }
      ],
      "name": "BetHouse",
      "outputs": [],
      "stateMutability": "nonpayable",
      "type": "function"
    },
    {
      "inputs": [
        {
          "internalType": "uint256",
          "name": "",
          "type": "uint256"
        },
        {
          "internalType": "address",
          "name": "",
          "type": "address"
        }
      ],
      "name": "Bets",
      "outputs": [
        {
          "internalType": "enum BullsCallPrediction.Position",
          "name": "position",
          "type": "uint8"
        },
        {
          "internalType": "uint256",
          "name": "betTimestamp",
          "type": "uint256"
        },
        {
          "internalType": "uint256",
          "name": "claimTimestamp",
          "type": "uint256"
        },
        {
          "internalType": "uint256",
          "name": "amount",
          "type": "uint256"
        },
        {
          "internalType": "bool",
          "name": "claimed",
          "type": "bool"
        }
      ],
      "stateMutability": "view",
      "type": "function"
    },
    {
      "inputs": [
        {
          "internalType": "uint256[]",
          "name": "epochs",
          "type": "uint256[]"
        }
      ],
      "name": "Claim",
      "outputs": [],
      "stateMutability": "payable",
      "type": "function"
    },
    {
      "inputs": [],
      "name": "OwnershipRenounce",
      "outputs": [],
      "stateMutability": "nonpayable",
      "type": "function"
    },
    {
      "inputs": [
        {
          "internalType": "address",
          "name": "newOwner",
          "type": "address"
        }
      ],
      "name": "OwnershipTransfer",
      "outputs": [],
      "stateMutability": "nonpayable",
      "type": "function"
    },
    {
      "inputs": [],
      "name": "Pause",
      "outputs": [],
      "stateMutability": "nonpayable",
      "type": "function"
    },
    {
      "inputs": [],
      "name": "Resume",
      "outputs": [],
      "stateMutability": "nonpayable",
      "type": "function"
    },
    {
      "inputs": [],
      "name": "RoundExecute",
      "outputs": [],
      "stateMutability": "nonpayable",
      "type": "function"
    },
    {
      "inputs": [],
      "name": "RoundLock",
      "outputs": [],
      "stateMutability": "nonpayable",
      "type": "function"
    },
    {
      "inputs": [],
      "name": "RoundStart",
      "outputs": [],
      "stateMutability": "nonpayable",
      "type": "function"
    },
    {
      "inputs": [
        {
          "internalType": "uint256",
          "name": "",
          "type": "uint256"
        }
      ],
      "name": "Rounds",
      "outputs": [
        {
          "internalType": "uint256",
          "name": "epoch",
          "type": "uint256"
        },
        {
          "internalType": "uint256",
          "name": "bullAmount",
          "type": "uint256"
        },
        {
          "internalType": "uint256",
          "name": "bearAmount",
          "type": "uint256"
        },
        {
          "internalType": "uint256",
          "name": "rewardBaseCalAmount",
          "type": "uint256"
        },
        {
          "internalType": "uint256",
          "name": "rewardAmount",
          "type": "uint256"
        },
        {
          "internalType": "uint256",
          "name": "bullBet",
          "type": "uint256"
        },
        {
          "internalType": "uint256",
          "name": "bearBet",
          "type": "uint256"
        },
        {
          "internalType": "uint256",
          "name": "lockPrice",
          "type": "uint256"
        },
        {
          "internalType": "uint256",
          "name": "closePrice",
          "type": "uint256"
        },
        {
          "internalType": "uint32",
          "name": "startTimestamp",
          "type": "uint32"
        },
        {
          "internalType": "uint32",
          "name": "lockTimestamp",
          "type": "uint32"
        },
        {
          "internalType": "uint32",
          "name": "closeTimestamp",
          "type": "uint32"
        },
        {
          "internalType": "bool",
          "name": "started",
          "type": "bool"
        },
        {
          "internalType": "bool",
          "name": "locked",
          "type": "bool"
        },
        {
          "internalType": "bool",
          "name": "closed",
          "type": "bool"
        },
        {
          "internalType": "uint256",
          "name": "roundUpPayout",
          "type": "uint256"
        },
        {
          "internalType": "uint256",
          "name": "roundDownPayout",
          "type": "uint256"
        },
        {
          "internalType": "bool",
          "name": "cancelled",
          "type": "bool"
        }
      ],
      "stateMutability": "view",
      "type": "function"
    },
    {
      "inputs": [
        {
          "internalType": "uint256",
          "name": "_minBetAmount",
          "type": "uint256"
        }
      ],
      "name": "SetMinBetAmount",
      "outputs": [],
      "stateMutability": "nonpayable",
      "type": "function"
    },
    {
      "inputs": [
        {
          "internalType": "uint256",
          "name": "_priceSource",
          "type": "uint256"
        }
      ],
      "name": "SetPriceSource",
      "outputs": [],
      "stateMutability": "nonpayable",
      "type": "function"
    },
    {
      "inputs": [
        {
          "internalType": "uint256",
          "name": "_rewardRate",
          "type": "uint256"
        }
      ],
      "name": "SetRewardRate",
      "outputs": [],
      "stateMutability": "nonpayable",
      "type": "function"
    },
    {
      "inputs": [
        {
          "internalType": "uint256",
          "name": "_roundDuration",
          "type": "uint256"
        }
      ],
      "name": "SetRoundDuration",
      "outputs": [],
      "stateMutability": "nonpayable",
      "type": "function"
    },
    {
      "inputs": [
        {
          "internalType": "address",
          "name": "",
          "type": "address"
        },
        {
          "internalType": "uint256",
          "name": "",
          "type": "uint256"
        }
      ],
      "name": "UserBets",
      "outputs": [
        {
          "internalType": "uint256",
          "name": "",
          "type": "uint256"
        }
      ],
      "stateMutability": "view",
      "type": "function"
    },
    {
      "inputs": [
        {
          "internalType": "address",
          "name": "",
          "type": "address"
        }
      ],
      "name": "Users",
      "outputs": [
        {
          "internalType": "address",
          "name": "wallet",
          "type": "address"
        },
        {
          "internalType": "uint256",
          "name": "latestEpoch",
          "type": "uint256"
        },
        {
          "internalType": "uint256",
          "name": "bullBetsCount",
          "type": "uint256"
        },
        {
          "internalType": "uint256",
          "name": "bullBetsTotal",
          "type": "uint256"
        },
        {
          "internalType": "uint256",
          "name": "bearBetsCount",
          "type": "uint256"
        },
        {
          "internalType": "uint256",
          "name": "bearBetsTotal",
          "type": "uint256"
        },
        {
          "internalType": "uint256",
          "name": "paidBetsCount",
          "type": "uint256"
        },
        {
          "internalType": "uint256",
          "name": "paidBetsTotal",
          "type": "uint256"
        }
      ],
      "stateMutability": "view",
      "type": "function"
    },
    {
      "inputs": [
        {
          "internalType": "uint256",
          "name": "epoch",
          "type": "uint256"
        }
      ],
      "name": "_bettable",
      "outputs": [
        {
          "internalType": "bool",
          "name": "",
          "type": "bool"
        }
      ],
      "stateMutability": "view",
      "type": "function"
    },
    {
      "inputs": [],
      "name": "_paused",
      "outputs": [
        {
          "internalType": "bool",
          "name": "",
          "type": "bool"
        }
      ],
      "stateMutability": "view",
      "type": "function"
    },
    {
      "inputs": [
        {
          "internalType": "address",
          "name": "_address",
          "type": "address"
        }
      ],
      "name": "addOwnerAccess",
      "outputs": [],
      "stateMutability": "nonpayable",
      "type": "function"
    },
    {
      "inputs": [
        {
          "internalType": "uint256",
          "name": "",
          "type": "uint256"
        }
      ],
      "name": "adminEntityAccess",
      "outputs": [
        {
          "internalType": "address",
          "name": "",
          "type": "address"
        }
      ],
      "stateMutability": "view",
      "type": "function"
    },
    {
      "inputs": [],
      "name": "bullBetsCount",
      "outputs": [
        {
          "internalType": "uint256",
          "name": "",
          "type": "uint256"
        }
      ],
      "stateMutability": "view",
      "type": "function"
    },
    {
      "inputs": [
        {
          "internalType": "address",
          "name": "_address",
          "type": "address"
        }
      ],
      "name": "changeCurrentAdminEntity",
      "outputs": [],
      "stateMutability": "nonpayable",
      "type": "function"
    },
    {
      "inputs": [
        {
          "internalType": "address",
          "name": "",
          "type": "address"
        }
      ],
      "name": "checkAdminEntityAccess",
      "outputs": [
        {
          "internalType": "bool",
          "name": "",
          "type": "bool"
        }
      ],
      "stateMutability": "view",
      "type": "function"
    },
    {
      "inputs": [
        {
          "internalType": "uint256",
          "name": "epoch",
          "type": "uint256"
        },
        {
          "internalType": "address",
          "name": "user",
          "type": "address"
        }
      ],
      "name": "claimable",
      "outputs": [
        {
          "internalType": "bool",
          "name": "",
          "type": "bool"
        }
      ],
      "stateMutability": "view",
      "type": "function"
    },
    {
      "inputs": [],
      "name": "currentEpoch",
      "outputs": [
        {
          "internalType": "uint256",
          "name": "",
          "type": "uint256"
        }
      ],
      "stateMutability": "view",
      "type": "function"
    },
    {
      "inputs": [],
      "name": "getAllAdminEntity",
      "outputs": [
        {
          "internalType": "address[]",
          "name": "",
          "type": "address[]"
        }
      ],
      "stateMutability": "view",
      "type": "function"
    },
    {
      "inputs": [],
      "name": "getBalance",
      "outputs": [
        {
          "internalType": "uint256",
          "name": "",
          "type": "uint256"
        }
      ],
      "stateMutability": "view",
      "type": "function"
    },
    {
      "inputs": [],
      "name": "getCurrentAdminEntity",
      "outputs": [
        {
          "internalType": "address",
          "name": "",
          "type": "address"
        }
      ],
      "stateMutability": "view",
      "type": "function"
    },
    {
      "inputs": [],
      "name": "getPriceSource",
      "outputs": [
        {
          "internalType": "uint256",
          "name": "",
          "type": "uint256"
        }
      ],
      "stateMutability": "view",
      "type": "function"
    },
    {
      "inputs": [
        {
          "internalType": "uint256",
          "name": "epoch",
          "type": "uint256"
        }
      ],
      "name": "getRoundPlayers",
      "outputs": [
        {
          "components": [
            {
              "internalType": "address",
              "name": "user",
              "type": "address"
            },
            {
              "internalType": "enum BullsCallPrediction.Position",
              "name": "position",
              "type": "uint8"
            },
            {
              "internalType": "uint256",
              "name": "amount",
              "type": "uint256"
            },
            {
              "internalType": "uint256",
              "name": "timestamp",
              "type": "uint256"
            }
          ],
          "internalType": "struct BullsCallPrediction.Player[]",
          "name": "",
          "type": "tuple[]"
        }
      ],
      "stateMutability": "view",
      "type": "function"
    },
    {
      "inputs": [],
      "name": "getStats",
      "outputs": [
        {
          "internalType": "uint256",
          "name": "",
          "type": "uint256"
        },
        {
          "internalType": "uint256",
          "name": "",
          "type": "uint256"
        },
        {
          "internalType": "uint256",
          "name": "",
          "type": "uint256"
        },
        {
          "internalType": "uint256",
          "name": "",
          "type": "uint256"
        },
        {
          "internalType": "uint256",
          "name": "",
          "type": "uint256"
        },
        {
          "internalType": "uint256",
          "name": "",
          "type": "uint256"
        }
      ],
      "stateMutability": "view",
      "type": "function"
    },
    {
      "inputs": [
        {
          "internalType": "address",
          "name": "user",
          "type": "address"
        }
      ],
      "name": "getUserParticipatedRounds",
      "outputs": [
        {
          "internalType": "uint256[]",
          "name": "",
          "type": "uint256[]"
        }
      ],
      "stateMutability": "view",
      "type": "function"
    },
    {
      "inputs": [
        {
          "internalType": "address",
          "name": "user",
          "type": "address"
        },
        {
          "internalType": "uint256",
          "name": "cursor",
          "type": "uint256"
        },
        {
          "internalType": "uint256",
          "name": "size",
          "type": "uint256"
        }
      ],
      "name": "getUserRounds",
      "outputs": [
        {
          "internalType": "uint256[]",
          "name": "",
          "type": "uint256[]"
        },
        {
          "components": [
            {
              "internalType": "enum BullsCallPrediction.Position",
              "name": "position",
              "type": "uint8"
            },
            {
              "internalType": "uint256",
              "name": "betTimestamp",
              "type": "uint256"
            },
            {
              "internalType": "uint256",
              "name": "claimTimestamp",
              "type": "uint256"
            },
            {
              "internalType": "uint256",
              "name": "amount",
              "type": "uint256"
            },
            {
              "internalType": "bool",
              "name": "claimed",
              "type": "bool"
            }
          ],
          "internalType": "struct BullsCallPrediction.Bet[]",
          "name": "",
          "type": "tuple[]"
        },
        {
          "internalType": "uint256",
          "name": "",
          "type": "uint256"
        }
      ],
      "stateMutability": "view",
      "type": "function"
    },
    {
      "inputs": [
        {
          "internalType": "address",
          "name": "user",
          "type": "address"
        }
      ],
      "name": "getUserRoundsLength",
      "outputs": [
        {
          "internalType": "uint256",
          "name": "",
          "type": "uint256"
        }
      ],
      "stateMutability": "view",
      "type": "function"
    },
    {
      "inputs": [],
      "name": "lockOnce",
      "outputs": [
        {
          "internalType": "bool",
          "name": "",
          "type": "bool"
        }
      ],
      "stateMutability": "view",
      "type": "function"
    },
    {
      "inputs": [],
      "name": "minBetAmount",
      "outputs": [
        {
          "internalType": "uint256",
          "name": "",
          "type": "uint256"
        }
      ],
      "stateMutability": "view",
      "type": "function"
    },
    {
      "inputs": [],
      "name": "owner",
      "outputs": [
        {
          "internalType": "address",
          "name": "",
          "type": "address"
        }
      ],
      "stateMutability": "view",
      "type": "function"
    },
    {
      "inputs": [],
      "name": "paused",
      "outputs": [
        {
          "internalType": "bool",
          "name": "",
          "type": "bool"
        }
      ],
      "stateMutability": "view",
      "type": "function"
    },
    {
      "inputs": [],
      "name": "priceSource",
      "outputs": [
        {
          "internalType": "uint256",
          "name": "",
          "type": "uint256"
        }
      ],
      "stateMutability": "view",
      "type": "function"
    },
    {
      "inputs": [
        {
          "internalType": "uint256",
          "name": "epoch",
          "type": "uint256"
        },
        {
          "internalType": "address",
          "name": "user",
          "type": "address"
        }
      ],
      "name": "refundable",
      "outputs": [
        {
          "internalType": "bool",
          "name": "",
          "type": "bool"
        }
      ],
      "stateMutability": "view",
      "type": "function"
    },
    {
      "inputs": [
        {
          "internalType": "address",
          "name": "_address",
          "type": "address"
        }
      ],
      "name": "removeOwnerAccess",
      "outputs": [],
      "stateMutability": "nonpayable",
      "type": "function"
    },
    {
      "inputs": [],
      "name": "rewardRate",
      "outputs": [
        {
          "internalType": "uint256",
          "name": "",
          "type": "uint256"
        }
      ],
      "stateMutability": "view",
      "type": "function"
    },
    {
      "inputs": [],
      "name": "roundDuration",
      "outputs": [
        {
          "internalType": "uint256",
          "name": "",
          "type": "uint256"
        }
      ],
      "stateMutability": "view",
      "type": "function"
    },
    {
      "inputs": [],
      "name": "startOnce",
      "outputs": [
        {
          "internalType": "bool",
          "name": "",
          "type": "bool"
        }
      ],
      "stateMutability": "view",
      "type": "function"
    },
    {
      "stateMutability": "payable",
      "type": "receive"
    }
  ],
  "bytecode": "0x6080806040523461008e5760018060a01b031933816000541617600055339060015416176001553360007f8be0079c531659141344cd1fd0a4f28419497f9722a3daafe3b4186f6b6457e08180a360ff19600454166004556001600555605f600c5561012c600d556611c37937e08000600e556005600f5561ffff1960105416601055612fb990816100948239f35b600080fdfe608080604052600436101561001d575b50361561001b57600080fd5b005b60003560e01c908163048de3811461215c575080630629b2ae146121335780630e7db6bc1461203857806312065fe01461201c5780631349344414611ffe57806313b622fb14611f3157806316c61ccc146119cd5780631946fb7814611f035780631f713cae14611d945780631fa52d9114611c1e57806320531bc914611c00578063273867d414611bc657806336f56ba014611b6d578063381a547814611b4a5780633977b38114611ac757806348894f0d14611a6a578063490d6d11146119f05780635c975abb146119cd5780635dcd0d1c1461186c5780636985a022146117f95780636a42c87b146117d357806376671808146117b5578063776e11dd146117195780637b0a47ee146116fb5780637bf412541461152f5780638843013b146114a05780638da5cb5b146114775780638f9fa51b1461103c578063951fd60014610dde57806399b956a014610d545780639a69ea2d14610d15578063a0c7f71c14610cef578063b3e560eb14610b74578063ba4f673714610b4c578063bb434f2814610995578063bd776d8a146107d2578063c59d48471461078a578063cf48098e14610732578063cf627d53146106f0578063d5df9d23146105f0578063dfc396911461052a578063edeeb28f146104b1578063f7cb789a14610493578063f8e4808a146103aa578063f93a466b146102b0578063fa968eea146102925763fd5bab231461022f573861000f565b3461028d57600036600319011261028d5760008054906001600160a01b03821661025a33821461225f565b7f8be0079c531659141344cd1fd0a4f28419497f9722a3daafe3b4186f6b6457e08280a36001600160a01b031916600055005b600080fd5b3461028d57600036600319011261028d576020600e54604051908152f35b3461028d57602036600319011261028d576102c9612177565b6000546001600160a01b039182916102e4908316331461225f565b16806000526003602052600160ff60406000205416151514610365578060005260036020526040600020600160ff19825416179055600254600160401b81101561034f5780600161033892016002556121fa565b909283549160031b92831b921b1916179055600080f35b634e487b7160e01b600052604160045260246000fd5b60405162461bcd60e51b815260206004820152601e60248201527f4164647265737320616c726561647920657869737420696e20636861696e00006044820152606490fd5b3461028d57602036600319011261028d576103c3612177565b6000546001600160a01b0391906103dd908316331461225f565b16806000526003602052600160ff60406000205416151503610411576000908152600360205260409020805460ff19169055005b60405162461bcd60e51b815260206004820152604e60248201527f54686520616464726573732073686f756c6420626520617661696c61626c652060448201527f696e20636861696e20696e6f7264657220746f2072656d6f76652041646d696e60648201526d20456e746974792041636365737360901b608482015260a490fd5b3461028d57600036600319011261028d576020600d54604051908152f35b3461028d57602036600319011261028d576004356104da60018060a01b0360005416331461225f565b80156104e557600b55005b60405162461bcd60e51b815260206004820152601d60248201527f507269636520736f757263652063616e206e6f7420626520656d7074790000006044820152606490fd5b3461028d57602036600319011261028d57610543612177565b6000546001600160a01b038082169261055d33851461225f565b1691821561059c5782907f8be0079c531659141344cd1fd0a4f28419497f9722a3daafe3b4186f6b6457e0600080a36001600160a01b03191617600055005b60405162461bcd60e51b815260206004820152602660248201527f4f776e61626c653a206e6577206f776e657220697320746865207a65726f206160448201526564647265737360d01b6064820152608490fd5b3461028d57602036600319011261028d5760043560005260066020526102406040600020805490600181015490600281015460ff6003830154600484015460058501546006860154600787015491600888015493600989015495600a8a01549888600c600b8d01549c0154169b60206040519e8f908152015260408d015260608c015260808b015260a08a015260c089015260e088015261010087015263ffffffff808216610120880152808260201c166101408801528160401c16610160870152818160601c161515610180870152818160681c1615156101a087015260701c1615156101c08501526101e08401526102008301521515610220820152f35b3461028d57602036600319011261028d5760043560025481101561028d576107196020916121fa565b905460405160039290921b1c6001600160a01b03168152f35b3461028d57604036600319011261028d5761074b612177565b6001600160a01b031660009081526009602052604090208054602435919082101561028d5760209161077c91612247565b90546040519160031b1c8152f35b3461028d57600036600319011261028d5760c06011546012546013546014546015549160165493604051958652602086015260408501526060840152608083015260a0820152f35b60208060031936011261028d57600435906107f260ff600454161561237b565b610801600260055414156129f4565b6002600555610811333b156128ee565b61081c323314612932565b610829600a548314612a40565b61083a61083583612321565b61297e565b610848600e54341015612a84565b8160005260078152604060002033600052815261086d60036040600020015415612ae7565b816000526006815261093a60406000206002810161088c34825461240c565b9055346006820155836000526007835260406000203360005283526040600020600160ff198254161781553460038201556001429101556008835260046040600020856001820155016108df81546123fd565b9055336000526008835260056040600020016108fc34825461240c565b905533600052600983526109148460406000206129bf565b600d61091e612b33565b9133835260018584015234604084015242606084015201612b64565b6109456013546123fd565b6013556109543460145461240c565b6014557f93349b5cb1cdd80ea47c8a040b8c0e31e219e0665c1eb33d9a7b2d3fad11e224604051913483523392a361098e33600a54612c41565b6001600555005b60208060031936011261028d5761098e90610af86004356109bb60ff600454161561237b565b6109ca600260055414156129f4565b60026005556109da333b156128ee565b6109e5323314612932565b6109f2600a548214612a40565b6109fe61083582612321565b610a0c600e54341015612a84565b80600052600783526040600020336000528352610a3160036040600020015415612ae7565b8060005260068352610ad260406000209160018301610a5134825461240c565b905534600584015580600052600785526040600020336000528552604060002060ff198154168155346003820155600142910155600885526002604060002082600182015501610aa181546123fd565b905533600052600885526003604060002001610abe34825461240c565b9055336000526009855260406000206129bf565b600d610adc612b33565b9133835260008584015234604084015242606084015201612b64565b610b036011546123fd565b601155610b123460125461240c565b601255600a5480917f49237630b34a73a6a12f9d3d4a305ddd6e3a359cc147ffb7a5f18c08f736bc25604051913483523392a33390612bdf565b3461028d57602036600319011261028d576020610b6a600435612321565b6040519015158152f35b3461028d57600036600319011261028d57610b9a60018060a01b0360005416331461225f565b60ff6010541615610cb657610bb4600a54600b5490612443565b610bbf600a546123fd565b80600a5560ff600454161580610bd157005b610bda9061237b565b806000526006602052604060002063ffffffff421660098201918254918063ffffffff19841617845567ffffffff00000000610c18600d544261240c565b60201b1690818167ffffffffffffffff19861617178555600d5460018060ff1b0381168103610ca05763ffffffff60401b610c57889260011b4261240c565b60401b169355600160601b936cffffffffffffffffffffffffff19161717171790557f33a701182892fd888ed152ca2ac23771a32e814469b7cd255965471e1af3a659600080a2005b634e487b7160e01b600052601160045260246000fd5b60405162461bcd60e51b8152602060048201526011602482015270149bdd5b99081b9bdd081cdd185c9d1959607a1b6044820152606490fd5b3461028d57604036600319011261028d576020610b6a610d0d61218d565b600435612d52565b3461028d57602036600319011261028d576001600160a01b03610d36612177565b166000526003602052602060ff604060002054166040519015158152f35b3461028d57602036600319011261028d576101006001600160a01b0380610d79612177565b16600052600860205260406000209081541690600181015490600281015460038201546004830154906005840154926007600686015495015495604051978852602088015260408701526060860152608085015260a084015260c083015260e0820152f35b3461028d5760608060031936011261028d57610df8612177565b6024356044359160018060a01b03169081600052600992602091848352610e2481604060002054612600565b821161101e575b610e3482612c96565b94610e4260405196876122ff565b828652601f199485610e5385612c96565b013686890137610e6284612c96565b95610e7060405197886122ff565b848752610e7c85612c96565b018560005b828110610fe65750505060005b848110610f295750505090610ea29161240c565b90610eb660405194868652868601906121c6565b8481038286015281808551928381520194019160005b828110610ee0578680878760408301520390f35b909192948260a06001928851610ef78282516121a3565b8084015182850152604080820151908301528b8101518c83015260809081015115159082015201960193929101610ecc565b610fe19082600052838752610f4c6040600020610f46838861240c565b90612247565b9054600391821b1c610f5e838c612d3e565b52610f69828b612d3e565b51600052600788526040600020846000528852604060002090600460405192610f91846122aa565b8d60ff93610fa28584541687612b58565b60018301548d870152600283015460408701528201549085015201541615156080820152610fd0828a612d3e565b52610fdb8189612d3e565b506123fd565b610e8e565b604051610ff2816122aa565b600081526000838201526000604082015260008c8201526000608082015282828b010152018690610e81565b90508260005283825261103681604060002054612600565b90610e2b565b602036600319011261028d5767ffffffffffffffff806004351161028d5736602360043501121561028d57600435600401359080821161028d57602490600592368382861b60043501011161028d576110996002855414156129f4565b600284556110a8333b156128ee565b6110b3323314612932565b60009060005b8181106111c7575050801561117757600080808093335af1903d15611171573d90811161115c57604051906110f8601f8201601f1916602001836122ff565b8152600060203d92013e5b1561110e5760018255005b60849060216040519162461bcd60e51b8352602060048401528201527f424e42207472616e7366657220746f206d73672e73656e646572206661696c656044820152601960fa1b6064820152fd5b82634e487b7160e01b60005260416004526000fd5b50611103565b60405162461bcd60e51b8152602060048201526023818501527f4e6f7420666f756e6420616e7920656c696769626c65207265776172642066756044820152626e647360e81b6064820152608490fd5b8481871b60043501013560005260066020526040600020604051906111eb826122c6565b80548252600181015460208301526002810154604083015260038101546060830152600481015460808301528781015460a0830152600681015460c0830152600781015460e083015260088101546101008301526112c6600d60098301549263ffffffff808516610120870152808560201c166101408701528460401c1661016086015260ff808560601c161515610180870152808560681c1615156101a0870152806101c087019560701c1615158552600a8201546101e0870152600b820154610200870152600c82015416151561022086015201612cae565b6102408301528683891b600435010135600052600760205260406000203360005260205260406000209060018060a01b03600154169051611313575b50505061130e906123fd565b6110b9565b6113263389868c1b600435010135612d52565b156113025761134c611341602085015160408601519061240c565b608085015190612600565b9060038301936113718554916060611368608083015185612430565b9101519061274b565b9360048101600160ff19825416179055600242910155831060001461143b57505050906113a361130e9254809561240c565b9333600052600860205260066040600020016113bf81546123fd565b905533600052600860205260076040600020016113dd82825461240c565b905560156113eb81546123fd565b905560166113fa82825461240c565b90556040519081528682891b600435010135907f987d620f307ff6b94d58743cb7a7509f24071586a77759b77c2d4e29f75a2f9a60203392a3908780611302565b60008093979594508092819282821561146e575bf115611462576113a38461130e9361240c565b6040513d6000823e3d90fd5b506108fc61144f565b3461028d57600036600319011261028d576000546040516001600160a01b039091168152602090f35b3461028d5760208060031936011261028d576001600160a01b036114c2612177565b1660005260098152604060002090604051808383829554938481520190600052836000209260005b8582821061151957505050611501925003836122ff565b6115156040519282849384528301906121c6565b0390f35b85548452600195860195889550930192016114ea565b3461028d57604036600319011261028d5760043561154b61218d565b90806000526020916007835260406000209060018060a01b0316600052825260406000206040519161157c836122aa565b60ff9061158c8284541685612b58565b6001830154858501526002830154604085015260808260046003860154956060880196875201541694019315158452600052600684526040600020906040516115d4816122c6565b82548152600183015486820152600283015460408201526003830154606082015260048301546080820152600583015460a0820152600683015460c0820152600783015460e082015260088301546101008201526009830154906102406116b3600d63ffffffff9687861661012086015287868c1c16610140860152610160850196888760401c168852808760601c161515610180870152808760681c1615156101a0870152806101c087019760701c1615158752600a8201546101e0870152600b820154610200870152600c82015416151561022086015201612cae565b910152511593846116f1575b50836116e4575b5050816116d9575b506040519015158152f35b9050511515826116ce565b51164211915083806116c6565b51159350856116bf565b3461028d57600036600319011261028d576020600c54604051908152f35b3461028d5760208060031936011261028d5760043560005260068152611745600d604060002001612cae565b604051908282018383528151809152836040840192019360005b82811061176c5784840385f35b9091928260806001928851848060a01b03815116825261179284820151858401906121a3565b60408101516040830152606080910151908201520196019101949291909461175f565b3461028d57600036600319011261028d576020600a54604051908152f35b3461028d57600036600319011261028d57602060ff60105460081c166040519015158152f35b3461028d57600036600319011261028d5761181f60018060a01b0360005416331461225f565b600160045461183a60ff8216156118358161237b565b61237b565b60ff191617600455600a547f32fb7c9891bc4f963c7de9f1186d2a7755c7d6e9f4604dabe1d8bb3027c2f49e600080a2005b3461028d57602036600319011261028d57611885612177565b6000546001600160a01b03919061189f908316331461225f565b816001549116809282161461197c57816000526003602052600160ff604060002054161515036118d9576001600160a01b03191617600155005b60405162461bcd60e51b815260206004820152606960248201527f54686973206164647265737320686173206265656e2072656d6f76656420667260448201527f6f6d206f776e6572206163636573732c204b696e646c7920616464207468652060648201527f6f776e6572206164647265737320746f2061646d696e20656e7469747920746f60848201526820636f6e74696e756560b81b60a482015260c490fd5b60405162461bcd60e51b8152602060048201526024808201527f50726f7669646564206164647265737320697320616c726561647920616e20416044820152633236b4b760e11b6064820152608490fd5b3461028d57600036600319011261028d57602060ff600454166040519015158152f35b3461028d57600036600319011261028d57611a1660018060a01b0360005416331461225f565b600454611a3960ff8216611a29816123ba565b61ffff19601054166010556123ba565b60ff1916600455600a547f9dd715fed52c25e642f97653bb4c4339ad98fe6d6e130348be82ae5d86383a8c600080a2005b3461028d57602036600319011261028d57600435611a9360018060a01b0360005416331461225f565b80600e557f82480e97991520549ac4b5d0e1d97edb3bfac2666202923b6903d2a953dc76086020600a5492604051908152a2005b3461028d57604036600319011261028d57611ae061218d565b600435600052600760205260406000209060018060a01b031660005260205260a0604060002060ff81541690600181015490600281015460ff600460038401549301541692611b3260405180966121a3565b60208501526040840152606083015215156080820152f35b3461028d57600036600319011261028d57602060ff601054166040519015158152f35b3461028d57602036600319011261028d577f696fab4a25d5a0f71f21ee59aa7512cd96fe20b7a28f4e2663099566b4639d896020600435611bb960018060a01b0360005416331461225f565b80600d55604051908152a1005b3461028d57602036600319011261028d576001600160a01b03611be7612177565b1660005260096020526020604060002054604051908152f35b3461028d57600036600319011261028d576020600b54604051908152f35b3461028d57604036600319011261028d5760043560243590611c4b60018060a01b0360005416331461225f565b611c5a60ff600454161561237b565b611c65333b156128ee565b611c70323314612932565b600a8054611c8061083582612321565b82611d2d575b5082611cc2575b549160405191825260208201527fe3b9e415c1ec5664bac5576f8ac4b84cacf237c6e9635809c8bc6d3fb6fd0a8460403092a3005b805460005260066020526002604060002001611cdf84825461240c565b9055805460005260076020526040600020306000526020526040600020600160ff198254161781558360038201556001429101556009602052611d2860406000208254906129bf565b611c8d565b60005260066020526001604060002001611d4883825461240c565b905580546000526007602052604060002030600052602052604060002060ff1981541681558260038201556001429101556009602052611d8e60406000208254906129bf565b83611c86565b3461028d57600036600319011261028d57611dba60018060a01b0360005416331461225f565b60ff6004541615611dca8161237b565b60ff60105416611ebf57611dec611de2600a546123fd565b9182600a5561237b565b806000526006602052604060002063ffffffff421660098201918254918063ffffffff19841617845567ffffffff00000000611e2a600d544261240c565b60201b1690818167ffffffffffffffff19861617178555600d5460018060ff1b0381168103610ca05763ffffffff60401b611e69889260011b4261240c565b60401b169355600160601b936cffffffffffffffffffffffffff19161717171790557f33a701182892fd888ed152ca2ac23771a32e814469b7cd255965471e1af3a659600080a26010805460ff19166001179055005b606460405162461bcd60e51b815260206004820152602060248201527f53746172742066756e6374696f6e2063616e206f6e6c792072756e206f6e63656044820152fd5b3461028d57602036600319011261028d57611f2960018060a01b0360005416331461225f565b600435600c55005b3461028d57600036600319011261028d576000546001600160a01b0390611f5b908216331461225f565b60405180600254908181526020809101809260026000527f405787fa12a823e0f2b7631cc41b3ba8828b3321ca811111fa75cd3aa3bb5ace9060005b818110611fe85750505083611fad9103846122ff565b60405192818401908285525180915260408401929160005b828110611fd25785850386f35b8351871685529381019392810192600101611fc5565b8254881684529284019260019283019201611f97565b3461028d57600036600319011261028d576020601154604051908152f35b3461028d57600036600319011261028d57602047604051908152f35b3461028d57600036600319011261028d5760045460ff166120b357612062600a54600b5490612443565b600a5460001990818101908111610ca057600b5461207f9161260d565b600a54908101908111610ca0576120959061276b565b6120a0600a546123fd565b80600a55610bda60ff600454161561237b565b6120c2600a54600b5490612443565b600a5460001990818101818111610ca057600052600660205260ff60096040600020015460701c16156000146121225750600a54818101908111610ca057600b5461210c9161260d565b600a54908101908111610ca05761001b9061276b565b600b5461212e9161260d565b61210c565b3461028d57600036600319011261028d576001546040516001600160a01b039091168152602090f35b3461028d57600036600319011261028d57602090600b548152f35b600435906001600160a01b038216820361028d57565b602435906001600160a01b038216820361028d57565b9060028210156121b05752565b634e487b7160e01b600052602160045260246000fd5b90815180825260208080930193019160005b8281106121e6575050505090565b8351855293810193928101926001016121d8565b6002548110156122315760026000527f405787fa12a823e0f2b7631cc41b3ba8828b3321ca811111fa75cd3aa3bb5ace0190600090565b634e487b7160e01b600052603260045260246000fd5b80548210156122315760005260206000200190600090565b1561226657565b606460405162461bcd60e51b815260206004820152602060248201527f4f776e61626c653a2063616c6c6572206973206e6f7420746865206f776e65726044820152fd5b60a0810190811067ffffffffffffffff82111761034f57604052565b610260810190811067ffffffffffffffff82111761034f57604052565b6080810190811067ffffffffffffffff82111761034f57604052565b90601f8019910116810190811067ffffffffffffffff82111761034f57604052565b600052600660205260096040600020015463ffffffff80821691821515928361236b575b83612361575b508261235657505090565b60201c164210919050565b421192503861234b565b9250818160201c16151592612345565b1561238257565b60405162461bcd60e51b815260206004820152601060248201526f14185d5cd8589b194e881c185d5cd95960821b6044820152606490fd5b156123c157565b60405162461bcd60e51b815260206004820152601460248201527314185d5cd8589b194e881b9bdd081c185d5cd95960621b6044820152606490fd5b6000198114610ca05760010190565b91908201809211610ca057565b906103e891828102928184041490151715610ca057565b81810292918115918404141715610ca057565b919091600092818452602090600682526040946009868220015460ff8160681c16156000146125f75763ffffffff8091161561259f57848252600684528060098884200154851c16421061254a578482526006845260098783200154871c1642116124fb578381526006835285902060078101829055600901805460ff60681b1916600160681b1790559351938452919290917f1baa8618187c16370c93561b721a291ed3182b22390099d67e81167f97fbdd3a91a2565b855162461bcd60e51b815260048101849052602260248201527f43616e206f6e6c79206c6f636b206265666f726520656e642074696d6573746160448201526106d760f41b6064820152608490fd5b865162461bcd60e51b815260048101859052602860248201527f43616e206f6e6c79206c6f636b20726f756e64206166746572206c6f636b20746044820152670696d657374616d760c41b6064820152608490fd5b865162461bcd60e51b815260048101859052602b60248201527f43616e206f6e6c79206c6f636b20726f756e6420616674657220726f756e642060448201526a1a185cc81cdd185c9d195960aa1b6064820152608490fd5b50505050509050565b91908203918211610ca057565b9190916000928184526020906006825263ffffffff946040958060098884200154851c16156126f5578482526006845260098783200154871c1642106126a0578381526006835285902060088101829055600901805460ff60701b1916600160701b1790559351938452919290917f8868888cc18628a149bc88cc32a91976ab30e2cd9aececb0cfe184a73fe551f991a2565b855162461bcd60e51b815260048101849052602860248201527f43616e206f6e6c7920656e6420726f756e6420616674657220636c6f736520746044820152670696d657374616d760c41b6064820152608490fd5b865162461bcd60e51b815260048101859052602960248201527f43616e206f6e6c7920656e6420726f756e6420616674657220726f756e642068604482015268185cc81b1bd8dad95960ba1b6064820152608490fd5b8115612755570490565b634e487b7160e01b600052601260045260246000fd5b60018060a01b036001541660009180835260066020526040832060038101541590816128e1575b501561289c5782526006602052604082209082809160018401805493600286019687546127bf818861240c565b600889015460078a015491989111806128345750505050506127e86064915494600c5490612430565b04948315612802575b505050906004915b60038201550155565b828080938193549082821561282b575bf11561281f5780806127f1565b604051903d90823e3d90fd5b506108fc612812565b9196945092985095939095612852575b5050505050906004916127f9565b9193965091935060646128698795600c5490612430565b049515612878575b8080612844565b828080938193828215612893575bf11561281f578080612871565b506108fc612886565b60405162461bcd60e51b815260206004820152601a60248201527f526577617264732063616c63756c6174656420616c72656164790000000000006044820152606490fd5b6004915001541538612792565b156128f557565b60405162461bcd60e51b815260206004820152601560248201527410dbdb9d1c9858dd1cc81b9bdd08185b1b1bddd959605a1b6044820152606490fd5b1561293957565b60405162461bcd60e51b815260206004820152601b60248201527f50726f787920636f6e747261637473206e6f7420616c6c6f77656400000000006044820152606490fd5b1561298557565b60405162461bcd60e51b8152602060048201526012602482015271526f756e64206e6f74206265747461626c6560701b6044820152606490fd5b8054600160401b81101561034f576129dc91600182018155612247565b819291549060031b91821b91600019901b1916179055565b156129fb57565b60405162461bcd60e51b815260206004820152601f60248201527f5265656e7472616e637947756172643a207265656e7472616e742063616c6c006044820152606490fd5b15612a4757565b60405162461bcd60e51b815260206004820152601560248201527442657420697320746f6f206561726c792f6c61746560581b6044820152606490fd5b15612a8b57565b60405162461bcd60e51b815260206004820152602e60248201527f42657420616d6f756e74206d7573742062652067726561746572207468616e2060448201526d1b5a5b9a5b5d5b48185b5bdd5b9d60921b6064820152608490fd5b15612aee57565b60405162461bcd60e51b815260206004820152601b60248201527f43616e206f6e6c7920626574206f6e63652070657220726f756e6400000000006044820152606490fd5b60405190612b40826122e3565b60006060838281528260208201528260408201520152565b60028210156121b05752565b805490600160401b82101561034f576001820180825582101561223157600052600360206000209102019060018060a01b038151169082549060208101519160028310156121b0576001600160a81b03191690921760a09190911b60ff60a01b16178255604081015160018301556060015160029190910155565b90816000526006602052600b6040600020612c27612c226002830154612c1d612c0d6001860154809361240c565b91612c1d60058701549384612430565b61274b565b612419565b600a8201550154612c36575050565b612c3f91612c41565b565b90816000526006602052600a6040600020612c7e612c226002830154612c1d612c6e60018601548361240c565b91612c1d60068701549384612430565b600b8201550154612c8d575050565b612c3f91612bdf565b67ffffffffffffffff811161034f5760051b60200190565b908154612cba81612c96565b92604093612cca855191826122ff565b828152809460208092019260005281600020906000935b858510612cf057505050505050565b6003846001928451612d01816122e3565b612d1e60ff8854878060a01b038116845260a01c16848301612b58565b848701548682015260028701546060820152815201930194019391612ce1565b80518210156122315760209160051b010190565b90600090828252602091600783526040918282209060018060a01b031682528352600482822092805193612d85856122aa565b60ff9281612d97858094541688612b58565b6001810154888801526002810154848801526003810154606088015201541695608085019615158752835260068552808320610240612eb5600d845193612ddd856122c6565b8054855260018101548a8601526002810154868601526003810154606086015260048101546080860152600581015460a0860152600681015460c086015260078101549660e0860197885260088201549a61010087019b8c5260098301548098819263ffffffff9384918282166101208d01521c166101408a01521c16610160870152808760601c161515610180870152808760681c1615156101a0870152806101c087019760701c1615158752600a8201546101e0870152600b820154610200870152600c82015416151561022086015201612cae565b910152815190855190818314612f78575115159687612f6e575b5086612edf575b50505050505090565b119450919290919084612f46575b8415612f03575b50505050388080808080612ed6565b5190511192509082612f1b575b505038808080612ef4565b5191506002821015612f3257506001143880612f10565b634e487b7160e01b81526021600452602490fd5b935082516002811015612f5a571593612eed565b634e487b7160e01b83526021600452602483fd5b5115965038612ecf565b50505050925050509056fea2646970667358221220df37853e96e12f409df82a67faa4cca9dca40701a9e5d4733c06c51763bc1a9264736f6c63430008130033",
  "linkReferences": {},
  "deployedLinkReferences": {}
}