{"src/contracts/BullsCall.sol":{"BullsCallPrediction":{"abi":[{"anonymous":false,"inputs":[{"indexed":true,"internalType":"address","name":"sender","type":"address"},{"indexed":true,"internalType":"uint256","name":"epoch","type":"uint256"},{"indexed":false,"internalType":"uint256","name":"amount","type":"uint256"}],"name":"BearBet","type":"event"},{"anonymous":false,"inputs":[{"indexed":true,"internalType":"address","name":"sender","type":"address"},{"indexed":true,"internalType":"uint256","name":"epoch","type":"uint256"},{"indexed":false,"internalType":"uint256","name":"amount","type":"uint256"}],"name":"BullBet","type":"event"},{"anonymous":false,"inputs":[{"indexed":true,"internalType":"address","name":"sender","type":"address"},{"indexed":true,"internalType":"uint256","name":"epoch","type":"uint256"},{"indexed":false,"internalType":"uint256","name":"amount","type":"uint256"}],"name":"Claimed","type":"event"},{"anonymous":false,"inputs":[{"indexed":true,"internalType":"address","name":"sender","type":"address"},{"indexed":true,"internalType":"uint256","name":"epoch","type":"uint256"},{"indexed":false,"internalType":"uint256","name":"bullAmount","type":"uint256"},{"indexed":false,"internalType":"uint256","name":"bearAmount","type":"uint256"}],"name":"HouseBet","type":"event"},{"anonymous":false,"inputs":[{"indexed":true,"internalType":"uint256","name":"epoch","type":"uint256"},{"indexed":false,"internalType":"uint256","name":"minBetAmount","type":"uint256"}],"name":"MinBetAmountUpdated","type":"event"},{"anonymous":false,"inputs":[{"indexed":true,"internalType":"address","name":"previousOwner","type":"address"},{"indexed":true,"internalType":"address","name":"newOwner","type":"address"}],"name":"OwnershipTransferred","type":"event"},{"anonymous":false,"inputs":[{"indexed":true,"internalType":"uint256","name":"epoch","type":"uint256"}],"name":"Paused","type":"event"},{"anonymous":false,"inputs":[{"indexed":true,"internalType":"address","name":"sender","type":"address"},{"indexed":true,"internalType":"uint256","name":"epoch","type":"uint256"},{"indexed":false,"internalType":"uint256","name":"amount","type":"uint256"}],"name":"Refunded","type":"event"},{"anonymous":false,"inputs":[{"indexed":false,"internalType":"uint256","name":"roundDuration","type":"uint256"}],"name":"RoundDuratioUpdated","type":"event"},{"anonymous":false,"inputs":[{"indexed":true,"internalType":"uint256","name":"epoch","type":"uint256"},{"indexed":false,"internalType":"uint256","name":"price","type":"uint256"}],"name":"RoundEnded","type":"event"},{"anonymous":false,"inputs":[{"indexed":true,"internalType":"uint256","name":"epoch","type":"uint256"},{"indexed":false,"internalType":"uint256","name":"price","type":"uint256"}],"name":"RoundLocked","type":"event"},{"anonymous":false,"inputs":[{"indexed":true,"internalType":"uint256","name":"epoch","type":"uint256"}],"name":"RoundStarted","type":"event"},{"anonymous":false,"inputs":[{"indexed":true,"internalType":"uint256","name":"epoch","type":"uint256"}],"name":"Unpaused","type":"event"},{"inputs":[{"internalType":"uint256","name":"epoch","type":"uint256"}],"name":"BetBear","outputs":[],"stateMutability":"payable","type":"function"},{"inputs":[{"internalType":"uint256","name":"epoch","type":"uint256"}],"name":"BetBull","outputs":[],"stateMutability":"payable","type":"function"},{"inputs":[{"internalType":"uint256","name":"bullAmount","type":"uint256"},{"internalType":"uint256","name":"bearAmount","type":"uint256"}],"name":"BetHouse","outputs":[],"stateMutability":"nonpayable","type":"function"},{"inputs":[{"internalType":"uint256","name":"","type":"uint256"},{"internalType":"address","name":"","type":"address"}],"name":"Bets","outputs":[{"internalType":"enum BullsCallPrediction.Position","name":"position","type":"uint8"},{"internalType":"uint256","name":"betTimestamp","type":"uint256"},{"internalType":"uint256","name":"claimTimestamp","type":"uint256"},{"internalType":"uint256","name":"amount","type":"uint256"},{"internalType":"bool","name":"claimed","type":"bool"}],"stateMutability":"view","type":"function"},{"inputs":[{"internalType":"uint256[]","name":"epochs","type":"uint256[]"}],"name":"Claim","outputs":[],"stateMutability":"payable","type":"function"},{"inputs":[],"name":"OwnershipRenounce","outputs":[],"stateMutability":"nonpayable","type":"function"},{"inputs":[{"internalType":"address","name":"newOwner","type":"address"}],"name":"OwnershipTransfer","outputs":[],"stateMutability":"nonpayable","type":"function"},{"inputs":[],"name":"Pause","outputs":[],"stateMutability":"nonpayable","type":"function"},{"inputs":[],"name":"Resume","outputs":[],"stateMutability":"nonpayable","type":"function"},{"inputs":[],"name":"RoundExecute","outputs":[],"stateMutability":"nonpayable","type":"function"},{"inputs":[],"name":"RoundLock","outputs":[],"stateMutability":"nonpayable","type":"function"},{"inputs":[],"name":"RoundStart","outputs":[],"stateMutability":"nonpayable","type":"function"},{"inputs":[{"internalType":"uint256","name":"","type":"uint256"}],"name":"Rounds","outputs":[{"internalType":"uint256","name":"epoch","type":"uint256"},{"internalType":"uint256","name":"bullAmount","type":"uint256"},{"internalType":"uint256","name":"bearAmount","type":"uint256"},{"internalType":"uint256","name":"rewardBaseCalAmount","type":"uint256"},{"internalType":"uint256","name":"rewardAmount","type":"uint256"},{"internalType":"uint256","name":"bullBet","type":"uint256"},{"internalType":"uint256","name":"bearBet","type":"uint256"},{"internalType":"uint256","name":"lockPrice","type":"uint256"},{"internalType":"uint256","name":"closePrice","type":"uint256"},{"internalType":"uint32","name":"startTimestamp","type":"uint32"},{"internalType":"uint32","name":"lockTimestamp","type":"uint32"},{"internalType":"uint32","name":"closeTimestamp","type":"uint32"},{"internalType":"bool","name":"started","type":"bool"},{"internalType":"bool","name":"locked","type":"bool"},{"internalType":"bool","name":"closed","type":"bool"},{"internalType":"uint256","name":"roundUpPayout","type":"uint256"},{"internalType":"uint256","name":"roundDownPayout","type":"uint256"},{"internalType":"bool","name":"cancelled","type":"bool"}],"stateMutability":"view","type":"function"},{"inputs":[{"internalType":"uint256","name":"_minBetAmount","type":"uint256"}],"name":"SetMinBetAmount","outputs":[],"stateMutability":"nonpayable","type":"function"},{"inputs":[{"internalType":"uint256","name":"_priceSource","type":"uint256"}],"name":"SetPriceSource","outputs":[],"stateMutability":"nonpayable","type":"function"},{"inputs":[{"internalType":"uint256","name":"_rewardRate","type":"uint256"}],"name":"SetRewardRate","outputs":[],"stateMutability":"nonpayable","type":"function"},{"inputs":[{"internalType":"uint256","name":"_roundDuration","type":"uint256"}],"name":"SetRoundDuration","outputs":[],"stateMutability":"nonpayable","type":"function"},{"inputs":[{"internalType":"address","name":"","type":"address"},{"internalType":"uint256","name":"","type":"uint256"}],"name":"UserBets","outputs":[{"internalType":"uint256","name":"","type":"uint256"}],"stateMutability":"view","type":"function"},{"inputs":[{"internalType":"address","name":"","type":"address"}],"name":"Users","outputs":[{"internalType":"address","name":"wallet","type":"address"},{"internalType":"uint256","name":"latestEpoch","type":"uint256"},{"internalType":"uint256","name":"bullBetsCount","type":"uint256"},{"internalType":"uint256","name":"bullBetsTotal","type":"uint256"},{"internalType":"uint256","name":"bearBetsCount","type":"uint256"},{"internalType":"uint256","name":"bearBetsTotal","type":"uint256"},{"internalType":"uint256","name":"paidBetsCount","type":"uint256"},{"internalType":"uint256","name":"paidBetsTotal","type":"uint256"}],"stateMutability":"view","type":"function"},{"inputs":[{"internalType":"uint256","name":"epoch","type":"uint256"}],"name":"_bettable","outputs":[{"internalType":"bool","name":"","type":"bool"}],"stateMutability":"view","type":"function"},{"inputs":[],"name":"_paused","outputs":[{"internalType":"bool","name":"","type":"bool"}],"stateMutability":"view","type":"function"},{"inputs":[{"internalType":"address","name":"_address","type":"address"}],"name":"addOwnerAccess","outputs":[],"stateMutability":"nonpayable","type":"function"},{"inputs":[],"name":"bullBetsCount","outputs":[{"internalType":"uint256","name":"","type":"uint256"}],"stateMutability":"view","type":"function"},{"inputs":[{"internalType":"address","name":"_address","type":"address"}],"name":"changeCurrentAdminEntity","outputs":[],"stateMutability":"nonpayable","type":"function"},{"inputs":[{"internalType":"address","name":"","type":"address"}],"name":"checkAdminEntityAccess","outputs":[{"internalType":"bool","name":"","type":"bool"}],"stateMutability":"view","type":"function"},{"inputs":[{"internalType":"uint256","name":"epoch","type":"uint256"},{"internalType":"address","name":"user","type":"address"}],"name":"claimable","outputs":[{"internalType":"bool","name":"","type":"bool"}],"stateMutability":"view","type":"function"},{"inputs":[],"name":"currentEpoch","outputs":[{"internalType":"uint256","name":"","type":"uint256"}],"stateMutability":"view","type":"function"},{"inputs":[],"name":"getBalance","outputs":[{"internalType":"uint256","name":"","type":"uint256"}],"stateMutability":"view","type":"function"},{"inputs":[],"name":"getCurrentAdminEntity","outputs":[{"internalType":"address","name":"","type":"address"}],"stateMutability":"view","type":"function"},{"inputs":[],"name":"getPriceSource","outputs":[{"internalType":"uint256","name":"","type":"uint256"}],"stateMutability":"view","type":"function"},{"inputs":[{"internalType":"uint256","name":"epoch","type":"uint256"}],"name":"getRoundPlayers","outputs":[{"components":[{"internalType":"address","name":"user","type":"address"},{"internalType":"enum BullsCallPrediction.Position","name":"position","type":"uint8"},{"internalType":"uint256","name":"amount","type":"uint256"},{"internalType":"uint256","name":"timestamp","type":"uint256"}],"internalType":"struct BullsCallPrediction.Player[]","name":"","type":"tuple[]"}],"stateMutability":"view","type":"function"},{"inputs":[],"name":"getStats","outputs":[{"internalType":"uint256","name":"","type":"uint256"},{"internalType":"uint256","name":"","type":"uint256"},{"internalType":"uint256","name":"","type":"uint256"},{"internalType":"uint256","name":"","type":"uint256"},{"internalType":"uint256","name":"","type":"uint256"},{"internalType":"uint256","name":"","type":"uint256"}],"stateMutability":"view","type":"function"},{"inputs":[{"internalType":"address","name":"user","type":"address"}],"name":"getUserParticipatedRounds","outputs":[{"internalType":"uint256[]","name":"","type":"uint256[]"}],"stateMutability":"view","type":"function"},{"inputs":[{"internalType":"address","name":"user","type":"address"},{"internalType":"uint256","name":"cursor","type":"uint256"},{"internalType":"uint256","name":"size","type":"uint256"}],"name":"getUserRounds","outputs":[{"internalType":"uint256[]","name":"","type":"uint256[]"},{"components":[{"internalType":"enum BullsCallPrediction.Position","name":"position","type":"uint8"},{"internalType":"uint256","name":"betTimestamp","type":"uint256"},{"internalType":"uint256","name":"claimTimestamp","type":"uint256"},{"internalType":"uint256","name":"amount","type":"uint256"},{"internalType":"bool","name":"claimed","type":"bool"}],"internalType":"struct BullsCallPrediction.Bet[]","name":"","type":"tuple[]"},{"internalType":"uint256","name":"","type":"uint256"}],"stateMutability":"view","type":"function"},{"inputs":[{"internalType":"address","name":"user","type":"address"}],"name":"getUserRoundsLength","outputs":[{"internalType":"uint256","name":"","type":"uint256"}],"stateMutability":"view","type":"function"},{"inputs":[],"name":"lockOnce","outputs":[{"internalType":"bool","name":"","type":"bool"}],"stateMutability":"view","type":"function"},{"inputs":[],"name":"minBetAmount","outputs":[{"internalType":"uint256","name":"","type":"uint256"}],"stateMutability":"view","type":"function"},{"inputs":[],"name":"owner","outputs":[{"internalType":"address","name":"","type":"address"}],"stateMutability":"view","type":"function"},{"inputs":[],"name":"paused","outputs":[{"internalType":"bool","name":"","type":"bool"}],"stateMutability":"view","type":"function"},{"inputs":[],"name":"priceSource","outputs":[{"internalType":"uint256","name":"","type":"uint256"}],"stateMutability":"view","type":"function"},{"inputs":[{"internalType":"uint256","name":"epoch","type":"uint256"},{"internalType":"address","name":"user","type":"address"}],"name":"refundable","outputs":[{"internalType":"bool","name":"","type":"bool"}],"stateMutability":"view","type":"function"},{"inputs":[{"internalType":"address","name":"_address","type":"address"}],"name":"removeOwnerAccess","outputs":[],"stateMutability":"nonpayable","type":"function"},{"inputs":[],"name":"rewardRate","outputs":[{"internalType":"uint256","name":"","type":"uint256"}],"stateMutability":"view","type":"function"},{"inputs":[],"name":"roundDuration","outputs":[{"internalType":"uint256","name":"","type":"uint256"}],"stateMutability":"view","type":"function"},{"inputs":[],"name":"startOnce","outputs":[{"internalType":"bool","name":"","type":"bool"}],"stateMutability":"view","type":"function"},{"stateMutability":"payable","type":"receive"}],"evm":{"bytecode":{"linkReferences":{},"object":"6080806040523461008e5760018060a01b031933816000541617600055339060015416176001553360007f8be0079c531659141344cd1fd0a4f28419497f9722a3daafe3b4186f6b6457e08180a360ff19600354166003556001600455605f600b5561012c600c556611c37937e08000600d556005600e5561ffff19600f5416600f55612ca590816100948239f35b600080fdfe608080604052600436101561001d575b50361561001b57600080fd5b005b60003560e01c908163048de38114611e69575080630629b2ae14611e405780630e7db6bc14611d0957806312065fe014611ced5780631349344414611ccf57806316c61ccc1461176b5780631946fb7814611ca15780631f713cae14611b325780631fa52d91146119bc57806320531bc91461199e578063273867d41461196457806336f56ba01461190b578063381a5478146118e85780633977b3811461186557806348894f0d14611808578063490d6d111461178e5780635c975abb1461176b5780635dcd0d1c146116da5780636985a022146116675780636a42c87b146116415780637667180814611623578063776e11dd146115875780637b0a47ee146115695780637bf412541461139d5780638843013b1461130e5780638da5cb5b146112e55780638f9fa51b14610e9c578063951fd60014610c3e57806399b956a014610bb45780639a69ea2d14610b75578063a0c7f71c14610b4f578063b3e560eb146109d4578063ba4f6737146109ac578063bb434f28146107f5578063bd776d8a14610632578063c59d4847146105ea578063cf48098e14610592578063d5df9d2314610492578063dfc39691146103cc578063edeeb28f14610353578063f7cb789a14610335578063f8e4808a146102e9578063f93a466b1461029a578063fa968eea1461027c5763fd5bab2314610219573861000f565b346102775760003660031901126102775760008054906001600160a01b038216610244338214611f35565b7f8be0079c531659141344cd1fd0a4f28419497f9722a3daafe3b4186f6b6457e08280a36001600160a01b031916600055005b600080fd5b34610277576000366003190112610277576020600d54604051908152f35b34610277576020366003190112610277576102b3611e84565b6000546001600160a01b0391906102cd9083163314611f35565b166000908152600260205260409020805460ff19166001179055005b3461027757602036600319011261027757610302611e84565b6000546001600160a01b03919061031c9083163314611f35565b166000908152600260205260409020805460ff19169055005b34610277576000366003190112610277576020600c54604051908152f35b346102775760203660031901126102775760043561037c60018060a01b03600054163314611f35565b801561038757600a55005b60405162461bcd60e51b815260206004820152601d60248201527f507269636520736f757263652063616e206e6f7420626520656d7074790000006044820152606490fd5b34610277576020366003190112610277576103e5611e84565b6000546001600160a01b03808216926103ff338514611f35565b1691821561043e5782907f8be0079c531659141344cd1fd0a4f28419497f9722a3daafe3b4186f6b6457e0600080a36001600160a01b03191617600055005b60405162461bcd60e51b815260206004820152602660248201527f4f776e61626c653a206e6577206f776e657220697320746865207a65726f206160448201526564647265737360d01b6064820152608490fd5b346102775760203660031901126102775760043560005260056020526102406040600020805490600181015490600281015460ff6003830154600484015460058501546006860154600787015491600888015493600989015495600a8a01549888600c600b8d01549c0154169b60206040519e8f908152015260408d015260608c015260808b015260a08a015260c089015260e088015261010087015263ffffffff808216610120880152808260201c166101408801528160401c16610160870152818160601c161515610180870152818160681c1615156101a087015260701c1615156101c08501526101e08401526102008301521515610220820152f35b34610277576040366003190112610277576105ab611e84565b6001600160a01b0316600090815260086020526040902080546024359190821015610277576020916105dc91611f07565b90546040519160031b1c8152f35b346102775760003660031901126102775760c06010546011546012546013546014549160155493604051958652602086015260408501526060840152608083015260a0820152f35b602080600319360112610277576004359061065260ff6003541615611fda565b61066160026004541415612669565b6002600455610671333b1561254d565b61067c323314612591565b61068960095483146126b5565b61069a61069583611f80565b6125dd565b6106a8600d543410156126f9565b816000526006815260406000203360005281526106cd6003604060002001541561275c565b816000526005815261079a6040600020600281016106ec34825461206b565b9055346006820155836000526006835260406000203360005283526040600020600160ff1982541617815534600382015560014291015560078352600460406000208560018201550161073f815461205c565b90553360005260078352600560406000200161075c34825461206b565b9055336000526008835261077484604060002061261e565b600d61077e61281f565b9133835260018584015234604084015242606084015201612850565b6107a560125461205c565b6012556107b43460135461206b565b6013557f93349b5cb1cdd80ea47c8a040b8c0e31e219e0665c1eb33d9a7b2d3fad11e224604051913483523392a36107ee3360095461292d565b6001600455005b602080600319360112610277576107ee9061095860043561081b60ff6003541615611fda565b61082a60026004541415612669565b600260045561083a333b1561254d565b610845323314612591565b61085260095482146126b5565b61085e61069582611f80565b61086c600d543410156126f9565b806000526006835260406000203360005283526108916003604060002001541561275c565b8060005260058352610932604060002091600183016108b134825461206b565b905534600584015580600052600685526040600020336000528552604060002060ff198154168155346003820155600142910155600785526002604060002082600182015501610901815461205c565b90553360005260078552600360406000200161091e34825461206b565b90553360005260088552604060002061261e565b600d61093c61281f565b9133835260008584015234604084015242606084015201612850565b61096360105461205c565b6010556109723460115461206b565b60115560095480917f49237630b34a73a6a12f9d3d4a305ddd6e3a359cc147ffb7a5f18c08f736bc25604051913483523392a333906128cb565b346102775760203660031901126102775760206109ca600435611f80565b6040519015158152f35b34610277576000366003190112610277576109fa60018060a01b03600054163314611f35565b60ff600f541615610b1657610a14600954600a54906120a2565b610a1f60095461205c565b8060095560ff600354161580610a3157005b610a3a90611fda565b806000526005602052604060002063ffffffff421660098201918254918063ffffffff19841617845567ffffffff00000000610a78600c544261206b565b60201b1690818167ffffffffffffffff19861617178555600c5460018060ff1b0381168103610b005763ffffffff60401b610ab7889260011b4261206b565b60401b169355600160601b936cffffffffffffffffffffffffff19161717171790557f33a701182892fd888ed152ca2ac23771a32e814469b7cd255965471e1af3a659600080a2005b634e487b7160e01b600052601160045260246000fd5b60405162461bcd60e51b8152602060048201526011602482015270149bdd5b99081b9bdd081cdd185c9d1959607a1b6044820152606490fd5b346102775760403660031901126102775760206109ca610b6d611e9a565b600435612a3e565b34610277576020366003190112610277576001600160a01b03610b96611e84565b166000526002602052602060ff604060002054166040519015158152f35b34610277576020366003190112610277576101006001600160a01b0380610bd9611e84565b16600052600760205260406000209081541690600181015490600281015460038201546004830154906005840154926007600686015495015495604051978852602088015260408701526060860152608085015260a084015260c083015260e0820152f35b346102775760608060031936011261027757610c58611e84565b6024356044359160018060a01b03169081600052600892602091848352610c848160406000205461225f565b8211610e7e575b610c9482612982565b94610ca260405196876127fd565b828652601f199485610cb385612982565b013686890137610cc284612982565b95610cd060405197886127fd565b848752610cdc85612982565b018560005b828110610e465750505060005b848110610d895750505090610d029161206b565b90610d166040519486865286860190611ed3565b8481038286015281808551928381520194019160005b828110610d40578680878760408301520390f35b909192948260a06001928851610d57828251611eb0565b8084015182850152604080820151908301528b8101518c83015260809081015115159082015201960193929101610d2c565b610e419082600052838752610dac6040600020610da6838861206b565b90611f07565b9054600391821b1c610dbe838c612a2a565b52610dc9828b612a2a565b51600052600688526040600020846000528852604060002090600460405192610df1846127a8565b8d60ff93610e028584541687612844565b60018301548d870152600283015460408701528201549085015201541615156080820152610e30828a612a2a565b52610e3b8189612a2a565b5061205c565b610cee565b604051610e52816127a8565b600081526000838201526000604082015260008c8201526000608082015282828b010152018690610ce1565b905082600052838252610e968160406000205461225f565b90610c8b565b60203660031901126102775767ffffffffffffffff806004351161027757366023600435011215610277578060043560040135116102775760249036826004356004013560051b60043501011161027757610efc60026004541415612669565b6002600455610f0c333b1561254d565b610f17323314612591565b6000805b60043560040135811061102f57508015610fdf57600080808093335af1903d15610fd9573d908111610fc45760405190610f5f601f8201601f1916602001836127fd565b8152600060203d92013e5b15610f76576001600455005b60849060216040519162461bcd60e51b8352602060048401528201527f424e42207472616e7366657220746f206d73672e73656e646572206661696c656044820152601960fa1b6064820152fd5b82634e487b7160e01b60005260416004526000fd5b50610f6a565b60405162461bcd60e51b8152602060048201526023818501527f4e6f7420666f756e6420616e7920656c696769626c65207265776172642066756044820152626e647360e81b6064820152608490fd5b90838260051b600435010135600052600560205260406000209160405192611056846127c4565b8054845260018101546020850152600281015460408501526003810154606085015260048101546080850152600581015460a0850152600681015460c0850152600781015460e08501526008810154610100850152611132600d60098301549263ffffffff808516610120890152808560201c166101408901528460401c1661016088015260ff808560601c161515610180890152808560681c1615156101a0890152806101c089019560701c1615158552600a8201546101e0890152600b820154610200890152600c8201541615156102208801520161299a565b610240850152858260051b600435010135600052600660205260406000203360005260205260406000209060018060a01b03600054169051611181575b505061117c91925061205c565b610f1b565b61119533888560051b600435010135612a3e565b1561116f576111bb6111b0602087015160408801519061206b565b60808701519061225f565b9060038301956111e087549160606111d760808301518561208f565b910151906123aa565b9360048101600160ff1982541617905560024291015583106000146112ab5750505061121261117c929354809461206b565b92336000526007602052600660406000200161122e815461205c565b9055336000526007602052600760406000200161124c82825461206b565b9055601461125a815461205c565b9055601561126982825461206b565b9055604051908152858260051b600435010135907f987d620f307ff6b94d58743cb7a7509f24071586a77759b77c2d4e29f75a2f9a60203392a382918661116f565b600080939650809281928282156112dc575bf1156112d0576112128361117c9361206b565b6040513d6000823e3d90fd5b506108fc6112bd565b34610277576000366003190112610277576000546040516001600160a01b039091168152602090f35b3461027757602080600319360112610277576001600160a01b03611330611e84565b1660005260088152604060002090604051808383829554938481520190600052836000209260005b858282106113875750505061136f925003836127fd565b611383604051928284938452830190611ed3565b0390f35b8554845260019586019588955093019201611358565b34610277576040366003190112610277576004356113b9611e9a565b90806000526020916006835260406000209060018060a01b031660005282526040600020604051916113ea836127a8565b60ff906113fa8284541685612844565b600183015485850152600283015460408501526080826004600386015495606088019687520154169401931515845260005260058452604060002090604051611442816127c4565b82548152600183015486820152600283015460408201526003830154606082015260048301546080820152600583015460a0820152600683015460c0820152600783015460e08201526008830154610100820152600983015490610240611521600d63ffffffff9687861661012086015287868c1c16610140860152610160850196888760401c168852808760601c161515610180870152808760681c1615156101a0870152806101c087019760701c1615158752600a8201546101e0870152600b820154610200870152600c8201541615156102208601520161299a565b9101525115938461155f575b5083611552575b505081611547575b506040519015158152f35b90505115158261153c565b5116421191508380611534565b511593508561152d565b34610277576000366003190112610277576020600b54604051908152f35b346102775760208060031936011261027757600435600052600581526115b3600d60406000200161299a565b604051908282018383528151809152836040840192019360005b8281106115da5784840385f35b9091928260806001928851848060a01b0381511682526116008482015185840190611eb0565b6040810151604083015260608091015190820152019601910194929190946115cd565b34610277576000366003190112610277576020600954604051908152f35b3461027757600036600319011261027757602060ff600f5460081c166040519015158152f35b346102775760003660031901126102775761168d60018060a01b03600054163314611f35565b60016003546116a860ff8216156116a381611fda565b611fda565b60ff1916176003556009547f32fb7c9891bc4f963c7de9f1186d2a7755c7d6e9f4604dabe1d8bb3027c2f49e600080a2005b34610277576020366003190112610277576116f3611e84565b6000546001600160a01b039061170c9082163314611f35565b806001541691161461171a57005b60405162461bcd60e51b8152602060048201526024808201527f50726f7669646564206164647265737320697320616c726561647920616e20416044820152633236b4b760e11b6064820152608490fd5b3461027757600036600319011261027757602060ff600354166040519015158152f35b34610277576000366003190112610277576117b460018060a01b03600054163314611f35565b6003546117d760ff82166117c781612019565b61ffff19600f5416600f55612019565b60ff19166003556009547f9dd715fed52c25e642f97653bb4c4339ad98fe6d6e130348be82ae5d86383a8c600080a2005b346102775760203660031901126102775760043561183160018060a01b03600054163314611f35565b80600d557f82480e97991520549ac4b5d0e1d97edb3bfac2666202923b6903d2a953dc7608602060095492604051908152a2005b346102775760403660031901126102775761187e611e9a565b600435600052600660205260406000209060018060a01b031660005260205260a0604060002060ff81541690600181015490600281015460ff6004600384015493015416926118d06040518096611eb0565b60208501526040840152606083015215156080820152f35b3461027757600036600319011261027757602060ff600f54166040519015158152f35b34610277576020366003190112610277577f696fab4a25d5a0f71f21ee59aa7512cd96fe20b7a28f4e2663099566b4639d89602060043561195760018060a01b03600054163314611f35565b80600c55604051908152a1005b34610277576020366003190112610277576001600160a01b03611985611e84565b1660005260086020526020604060002054604051908152f35b34610277576000366003190112610277576020600a54604051908152f35b3461027757604036600319011261027757600435602435906119e960018060a01b03600054163314611f35565b6119f860ff6003541615611fda565b611a03333b1561254d565b611a0e323314612591565b60098054611a1e61069582611f80565b82611acb575b5082611a60575b549160405191825260208201527fe3b9e415c1ec5664bac5576f8ac4b84cacf237c6e9635809c8bc6d3fb6fd0a8460403092a3005b805460005260056020526002604060002001611a7d84825461206b565b9055805460005260066020526040600020306000526020526040600020600160ff198254161781558360038201556001429101556008602052611ac6604060002082549061261e565b611a2b565b60005260056020526001604060002001611ae683825461206b565b905580546000526006602052604060002030600052602052604060002060ff1981541681558260038201556001429101556008602052611b2c604060002082549061261e565b83611a24565b3461027757600036600319011261027757611b5860018060a01b03600054163314611f35565b60ff6003541615611b6881611fda565b60ff600f5416611c5d57611b8a611b8060095461205c565b9182600955611fda565b806000526005602052604060002063ffffffff421660098201918254918063ffffffff19841617845567ffffffff00000000611bc8600c544261206b565b60201b1690818167ffffffffffffffff19861617178555600c5460018060ff1b0381168103610b005763ffffffff60401b611c07889260011b4261206b565b60401b169355600160601b936cffffffffffffffffffffffffff19161717171790557f33a701182892fd888ed152ca2ac23771a32e814469b7cd255965471e1af3a659600080a2600f805460ff19166001179055005b606460405162461bcd60e51b815260206004820152602060248201527f53746172742066756e6374696f6e2063616e206f6e6c792072756e206f6e63656044820152fd5b3461027757602036600319011261027757611cc760018060a01b03600054163314611f35565b600435600b55005b34610277576000366003190112610277576020601054604051908152f35b3461027757600036600319011261027757602047604051908152f35b346102775760003660031901126102775760035460ff16611dc0576009611d348154600a54906120a2565b805460001990818101908111610b0057600a54611d509161226c565b8154908101908111610b0057611d65906123ca565b611d6f815461205c565b90818155611d8260ff6003541615611fda565b81600052600560205260406000209063ffffffff4216908201918254918063ffffffff19841617845567ffffffff00000000610a78600c544261206b565b611dcf600954600a54906120a2565b60095460001990818101818111610b0057600052600560205260ff60096040600020015460701c1615600014611e2f5750600954818101908111610b0057600a54611e199161226c565b600954908101908111610b005761001b906123ca565b600a54611e3b9161226c565b611e19565b34610277576000366003190112610277576001546040516001600160a01b039091168152602090f35b3461027757600036600319011261027757602090600a548152f35b600435906001600160a01b038216820361027757565b602435906001600160a01b038216820361027757565b906002821015611ebd5752565b634e487b7160e01b600052602160045260246000fd5b90815180825260208080930193019160005b828110611ef3575050505090565b835185529381019392810192600101611ee5565b8054821015611f1f5760005260206000200190600090565b634e487b7160e01b600052603260045260246000fd5b15611f3c57565b606460405162461bcd60e51b815260206004820152602060248201527f4f776e61626c653a2063616c6c6572206973206e6f7420746865206f776e65726044820152fd5b600052600560205260096040600020015463ffffffff808216918215159283611fca575b83611fc0575b5082611fb557505090565b60201c164210919050565b4211925038611faa565b9250818160201c16151592611fa4565b15611fe157565b60405162461bcd60e51b815260206004820152601060248201526f14185d5cd8589b194e881c185d5cd95960821b6044820152606490fd5b1561202057565b60405162461bcd60e51b815260206004820152601460248201527314185d5cd8589b194e881b9bdd081c185d5cd95960621b6044820152606490fd5b6000198114610b005760010190565b91908201809211610b0057565b906103e891828102928184041490151715610b0057565b81810292918115918404141715610b0057565b919091600092818452602090600582526040946009868220015460ff8160681c16156000146122565763ffffffff809116156121fe57848252600584528060098884200154851c1642106121a9578482526005845260098783200154871c16421161215a578381526005835285902060078101829055600901805460ff60681b1916600160681b1790559351938452919290917f1baa8618187c16370c93561b721a291ed3182b22390099d67e81167f97fbdd3a91a2565b855162461bcd60e51b815260048101849052602260248201527f43616e206f6e6c79206c6f636b206265666f726520656e642074696d6573746160448201526106d760f41b6064820152608490fd5b865162461bcd60e51b815260048101859052602860248201527f43616e206f6e6c79206c6f636b20726f756e64206166746572206c6f636b20746044820152670696d657374616d760c41b6064820152608490fd5b865162461bcd60e51b815260048101859052602b60248201527f43616e206f6e6c79206c6f636b20726f756e6420616674657220726f756e642060448201526a1a185cc81cdd185c9d195960aa1b6064820152608490fd5b50505050509050565b91908203918211610b0057565b9190916000928184526020906005825263ffffffff946040958060098884200154851c1615612354578482526005845260098783200154871c1642106122ff578381526005835285902060088101829055600901805460ff60701b1916600160701b1790559351938452919290917f8868888cc18628a149bc88cc32a91976ab30e2cd9aececb0cfe184a73fe551f991a2565b855162461bcd60e51b815260048101849052602860248201527f43616e206f6e6c7920656e6420726f756e6420616674657220636c6f736520746044820152670696d657374616d760c41b6064820152608490fd5b865162461bcd60e51b815260048101859052602960248201527f43616e206f6e6c7920656e6420726f756e6420616674657220726f756e642068604482015268185cc81b1bd8dad95960ba1b6064820152608490fd5b81156123b4570490565b634e487b7160e01b600052601260045260246000fd5b60018060a01b03600154166000918083526005602052604083206003810154159081612540575b50156124fb57825260056020526040822090828091600184018054936002860196875461241e818861206b565b600889015460078a015491989111806124935750505050506124476064915494600b549061208f565b04948315612461575b505050906004915b60038201550155565b828080938193549082821561248a575bf11561247e578080612450565b604051903d90823e3d90fd5b506108fc612471565b91969450929850959390956124b1575b505050505090600491612458565b9193965091935060646124c88795600b549061208f565b0495156124d7575b80806124a3565b8280809381938282156124f2575bf11561247e5780806124d0565b506108fc6124e5565b60405162461bcd60e51b815260206004820152601a60248201527f526577617264732063616c63756c6174656420616c72656164790000000000006044820152606490fd5b60049150015415386123f1565b1561255457565b60405162461bcd60e51b815260206004820152601560248201527410dbdb9d1c9858dd1cc81b9bdd08185b1b1bddd959605a1b6044820152606490fd5b1561259857565b60405162461bcd60e51b815260206004820152601b60248201527f50726f787920636f6e747261637473206e6f7420616c6c6f77656400000000006044820152606490fd5b156125e457565b60405162461bcd60e51b8152602060048201526012602482015271526f756e64206e6f74206265747461626c6560701b6044820152606490fd5b8054600160401b8110156126535761263b91600182018155611f07565b819291549060031b91821b91600019901b1916179055565b634e487b7160e01b600052604160045260246000fd5b1561267057565b60405162461bcd60e51b815260206004820152601f60248201527f5265656e7472616e637947756172643a207265656e7472616e742063616c6c006044820152606490fd5b156126bc57565b60405162461bcd60e51b815260206004820152601560248201527442657420697320746f6f206561726c792f6c61746560581b6044820152606490fd5b1561270057565b60405162461bcd60e51b815260206004820152602e60248201527f42657420616d6f756e74206d7573742062652067726561746572207468616e2060448201526d1b5a5b9a5b5d5b48185b5bdd5b9d60921b6064820152608490fd5b1561276357565b60405162461bcd60e51b815260206004820152601b60248201527f43616e206f6e6c7920626574206f6e63652070657220726f756e6400000000006044820152606490fd5b60a0810190811067ffffffffffffffff82111761265357604052565b610260810190811067ffffffffffffffff82111761265357604052565b6080810190811067ffffffffffffffff82111761265357604052565b90601f8019910116810190811067ffffffffffffffff82111761265357604052565b6040519061282c826127e1565b60006060838281528260208201528260408201520152565b6002821015611ebd5752565b805490600160401b8210156126535760018201808255821015611f1f57600052600360206000209102019060018060a01b03815116908254906020810151916002831015611ebd576001600160a81b03191690921760a09190911b60ff60a01b16178255604081015160018301556060015160029190910155565b90816000526005602052600b604060002061291361290e60028301546129096128f96001860154809361206b565b916129096005870154938461208f565b6123aa565b612078565b600a8201550154612922575050565b61292b9161292d565b565b90816000526005602052600a604060002061296a61290e600283015461290961295a60018601548361206b565b916129096006870154938461208f565b600b8201550154612979575050565b61292b916128cb565b67ffffffffffffffff81116126535760051b60200190565b9081546129a681612982565b926040936129b6855191826127fd565b828152809460208092019260005281600020906000935b8585106129dc57505050505050565b60038460019284516129ed816127e1565b612a0a60ff8854878060a01b038116845260a01c16848301612844565b8487015486820152600287015460608201528152019301940193916129cd565b8051821015611f1f5760209160051b010190565b90600090828252602091600683526040918282209060018060a01b031682528352600482822092805193612a71856127a8565b60ff9281612a83858094541688612844565b6001810154888801526002810154848801526003810154606088015201541695608085019615158752835260058552808320610240612ba1600d845193612ac9856127c4565b8054855260018101548a8601526002810154868601526003810154606086015260048101546080860152600581015460a0860152600681015460c086015260078101549660e0860197885260088201549a61010087019b8c5260098301548098819263ffffffff9384918282166101208d01521c166101408a01521c16610160870152808760601c161515610180870152808760681c1615156101a0870152806101c087019760701c1615158752600a8201546101e0870152600b820154610200870152600c8201541615156102208601520161299a565b910152815190855190818314612c64575115159687612c5a575b5086612bcb575b50505050505090565b119450919290919084612c32575b8415612bef575b50505050388080808080612bc2565b5190511192509082612c07575b505038808080612be0565b5191506002821015612c1e57506001143880612bfc565b634e487b7160e01b81526021600452602490fd5b935082516002811015612c46571593612bd9565b634e487b7160e01b83526021600452602483fd5b5115965038612bbb565b50505050925050509056fea2646970667358221220ecbf9acb7e3fcae32d7131989d8a02757f8ef1ed8f7f7a28f9ae4bcb9feeb7f264736f6c63430008130033","opcodes":"PUSH1 0x80 DUP1 PUSH1 0x40 MSTORE CALLVALUE PUSH2 0x8E JUMPI PUSH1 0x1 DUP1 PUSH1 0xA0 SHL SUB NOT CALLER DUP2 PUSH1 0x0 SLOAD AND OR PUSH1 0x0 SSTORE CALLER SWAP1 PUSH1 0x1 SLOAD AND OR PUSH1 0x1 SSTORE CALLER PUSH1 0x0 PUSH32 0x8BE0079C531659141344CD1FD0A4F28419497F9722A3DAAFE3B4186F6B6457E0 DUP2 DUP1 LOG3 PUSH1 0xFF NOT PUSH1 0x3 SLOAD AND PUSH1 0x3 SSTORE PUSH1 0x1 PUSH1 0x4 SSTORE PUSH1 0x5F PUSH1 0xB SSTORE PUSH2 0x12C PUSH1 0xC SSTORE PUSH7 0x11C37937E08000 PUSH1 0xD SSTORE PUSH1 0x5 PUSH1 0xE SSTORE PUSH2 0xFFFF NOT PUSH1 0xF SLOAD AND PUSH1 0xF SSTORE PUSH2 0x2CA5 SWAP1 DUP2 PUSH2 0x94 DUP3 CODECOPY RETURN JUMPDEST PUSH1 0x0 DUP1 REVERT INVALID PUSH1 0x80 DUP1 PUSH1 0x40 MSTORE PUSH1 0x4 CALLDATASIZE LT ISZERO PUSH2 0x1D JUMPI JUMPDEST POP CALLDATASIZE ISZERO PUSH2 0x1B JUMPI PUSH1 0x0 DUP1 REVERT JUMPDEST STOP JUMPDEST PUSH1 0x0 CALLDATALOAD PUSH1 0xE0 SHR SWAP1 DUP2 PUSH4 0x48DE381 EQ PUSH2 0x1E69 JUMPI POP DUP1 PUSH4 0x629B2AE EQ PUSH2 0x1E40 JUMPI DUP1 PUSH4 0xE7DB6BC EQ PUSH2 0x1D09 JUMPI DUP1 PUSH4 0x12065FE0 EQ PUSH2 0x1CED JUMPI DUP1 PUSH4 0x13493444 EQ PUSH2 0x1CCF JUMPI DUP1 PUSH4 0x16C61CCC EQ PUSH2 0x176B JUMPI DUP1 PUSH4 0x1946FB78 EQ PUSH2 0x1CA1 JUMPI DUP1 PUSH4 0x1F713CAE EQ PUSH2 0x1B32 JUMPI DUP1 PUSH4 0x1FA52D91 EQ PUSH2 0x19BC JUMPI DUP1 PUSH4 0x20531BC9 EQ PUSH2 0x199E JUMPI DUP1 PUSH4 0x273867D4 EQ PUSH2 0x1964 JUMPI DUP1 PUSH4 0x36F56BA0 EQ PUSH2 0x190B JUMPI DUP1 PUSH4 0x381A5478 EQ PUSH2 0x18E8 JUMPI DUP1 PUSH4 0x3977B381 EQ PUSH2 0x1865 JUMPI DUP1 PUSH4 0x48894F0D EQ PUSH2 0x1808 JUMPI DUP1 PUSH4 0x490D6D11 EQ PUSH2 0x178E JUMPI DUP1 PUSH4 0x5C975ABB EQ PUSH2 0x176B JUMPI DUP1 PUSH4 0x5DCD0D1C EQ PUSH2 0x16DA JUMPI DUP1 PUSH4 0x6985A022 EQ PUSH2 0x1667 JUMPI DUP1 PUSH4 0x6A42C87B EQ PUSH2 0x1641 JUMPI DUP1 PUSH4 0x76671808 EQ PUSH2 0x1623 JUMPI DUP1 PUSH4 0x776E11DD EQ PUSH2 0x1587 JUMPI DUP1 PUSH4 0x7B0A47EE EQ PUSH2 0x1569 JUMPI DUP1 PUSH4 0x7BF41254 EQ PUSH2 0x139D JUMPI DUP1 PUSH4 0x8843013B EQ PUSH2 0x130E JUMPI DUP1 PUSH4 0x8DA5CB5B EQ PUSH2 0x12E5 JUMPI DUP1 PUSH4 0x8F9FA51B EQ PUSH2 0xE9C JUMPI DUP1 PUSH4 0x951FD600 EQ PUSH2 0xC3E JUMPI DUP1 PUSH4 0x99B956A0 EQ PUSH2 0xBB4 JUMPI DUP1 PUSH4 0x9A69EA2D EQ PUSH2 0xB75 JUMPI DUP1 PUSH4 0xA0C7F71C EQ PUSH2 0xB4F JUMPI DUP1 PUSH4 0xB3E560EB EQ PUSH2 0x9D4 JUMPI DUP1 PUSH4 0xBA4F6737 EQ PUSH2 0x9AC JUMPI DUP1 PUSH4 0xBB434F28 EQ PUSH2 0x7F5 JUMPI DUP1 PUSH4 0xBD776D8A EQ PUSH2 0x632 JUMPI DUP1 PUSH4 0xC59D4847 EQ PUSH2 0x5EA JUMPI DUP1 PUSH4 0xCF48098E EQ PUSH2 0x592 JUMPI DUP1 PUSH4 0xD5DF9D23 EQ PUSH2 0x492 JUMPI DUP1 PUSH4 0xDFC39691 EQ PUSH2 0x3CC JUMPI DUP1 PUSH4 0xEDEEB28F EQ PUSH2 0x353 JUMPI DUP1 PUSH4 0xF7CB789A EQ PUSH2 0x335 JUMPI DUP1 PUSH4 0xF8E4808A EQ PUSH2 0x2E9 JUMPI DUP1 PUSH4 0xF93A466B EQ PUSH2 0x29A JUMPI DUP1 PUSH4 0xFA968EEA EQ PUSH2 0x27C JUMPI PUSH4 0xFD5BAB23 EQ PUSH2 0x219 JUMPI CODESIZE PUSH2 0xF JUMP JUMPDEST CALLVALUE PUSH2 0x277 JUMPI PUSH1 0x0 CALLDATASIZE PUSH1 0x3 NOT ADD SLT PUSH2 0x277 JUMPI PUSH1 0x0 DUP1 SLOAD SWAP1 PUSH1 0x1 PUSH1 0x1 PUSH1 0xA0 SHL SUB DUP3 AND PUSH2 0x244 CALLER DUP3 EQ PUSH2 0x1F35 JUMP JUMPDEST PUSH32 0x8BE0079C531659141344CD1FD0A4F28419497F9722A3DAAFE3B4186F6B6457E0 DUP3 DUP1 LOG3 PUSH1 0x1 PUSH1 0x1 PUSH1 0xA0 SHL SUB NOT AND PUSH1 0x0 SSTORE STOP JUMPDEST PUSH1 0x0 DUP1 REVERT JUMPDEST CALLVALUE PUSH2 0x277 JUMPI PUSH1 0x0 CALLDATASIZE PUSH1 0x3 NOT ADD SLT PUSH2 0x277 JUMPI PUSH1 0x20 PUSH1 0xD SLOAD PUSH1 0x40 MLOAD SWAP1 DUP2 MSTORE RETURN JUMPDEST CALLVALUE PUSH2 0x277 JUMPI PUSH1 0x20 CALLDATASIZE PUSH1 0x3 NOT ADD SLT PUSH2 0x277 JUMPI PUSH2 0x2B3 PUSH2 0x1E84 JUMP JUMPDEST PUSH1 0x0 SLOAD PUSH1 0x1 PUSH1 0x1 PUSH1 0xA0 SHL SUB SWAP2 SWAP1 PUSH2 0x2CD SWAP1 DUP4 AND CALLER EQ PUSH2 0x1F35 JUMP JUMPDEST AND PUSH1 0x0 SWAP1 DUP2 MSTORE PUSH1 0x2 PUSH1 0x20 MSTORE PUSH1 0x40 SWAP1 KECCAK256 DUP1 SLOAD PUSH1 0xFF NOT AND PUSH1 0x1 OR SWAP1 SSTORE STOP JUMPDEST CALLVALUE PUSH2 0x277 JUMPI PUSH1 0x20 CALLDATASIZE PUSH1 0x3 NOT ADD SLT PUSH2 0x277 JUMPI PUSH2 0x302 PUSH2 0x1E84 JUMP JUMPDEST PUSH1 0x0 SLOAD PUSH1 0x1 PUSH1 0x1 PUSH1 0xA0 SHL SUB SWAP2 SWAP1 PUSH2 0x31C SWAP1 DUP4 AND CALLER EQ PUSH2 0x1F35 JUMP JUMPDEST AND PUSH1 0x0 SWAP1 DUP2 MSTORE PUSH1 0x2 PUSH1 0x20 MSTORE PUSH1 0x40 SWAP1 KECCAK256 DUP1 SLOAD PUSH1 0xFF NOT AND SWAP1 SSTORE STOP JUMPDEST CALLVALUE PUSH2 0x277 JUMPI PUSH1 0x0 CALLDATASIZE PUSH1 0x3 NOT ADD SLT PUSH2 0x277 JUMPI PUSH1 0x20 PUSH1 0xC SLOAD PUSH1 0x40 MLOAD SWAP1 DUP2 MSTORE RETURN JUMPDEST CALLVALUE PUSH2 0x277 JUMPI PUSH1 0x20 CALLDATASIZE PUSH1 0x3 NOT ADD SLT PUSH2 0x277 JUMPI PUSH1 0x4 CALLDATALOAD PUSH2 0x37C PUSH1 0x1 DUP1 PUSH1 0xA0 SHL SUB PUSH1 0x0 SLOAD AND CALLER EQ PUSH2 0x1F35 JUMP JUMPDEST DUP1 ISZERO PUSH2 0x387 JUMPI PUSH1 0xA SSTORE STOP JUMPDEST PUSH1 0x40 MLOAD PUSH3 0x461BCD PUSH1 0xE5 SHL DUP2 MSTORE PUSH1 0x20 PUSH1 0x4 DUP3 ADD MSTORE PUSH1 0x1D PUSH1 0x24 DUP3 ADD MSTORE PUSH32 0x507269636520736F757263652063616E206E6F7420626520656D707479000000 PUSH1 0x44 DUP3 ADD MSTORE PUSH1 0x64 SWAP1 REVERT JUMPDEST CALLVALUE PUSH2 0x277 JUMPI PUSH1 0x20 CALLDATASIZE PUSH1 0x3 NOT ADD SLT PUSH2 0x277 JUMPI PUSH2 0x3E5 PUSH2 0x1E84 JUMP JUMPDEST PUSH1 0x0 SLOAD PUSH1 0x1 PUSH1 0x1 PUSH1 0xA0 SHL SUB DUP1 DUP3 AND SWAP3 PUSH2 0x3FF CALLER DUP6 EQ PUSH2 0x1F35 JUMP JUMPDEST AND SWAP2 DUP3 ISZERO PUSH2 0x43E JUMPI DUP3 SWAP1 PUSH32 0x8BE0079C531659141344CD1FD0A4F28419497F9722A3DAAFE3B4186F6B6457E0 PUSH1 0x0 DUP1 LOG3 PUSH1 0x1 PUSH1 0x1 PUSH1 0xA0 SHL SUB NOT AND OR PUSH1 0x0 SSTORE STOP JUMPDEST PUSH1 0x40 MLOAD PUSH3 0x461BCD PUSH1 0xE5 SHL DUP2 MSTORE PUSH1 0x20 PUSH1 0x4 DUP3 ADD MSTORE PUSH1 0x26 PUSH1 0x24 DUP3 ADD MSTORE PUSH32 0x4F776E61626C653A206E6577206F776E657220697320746865207A65726F2061 PUSH1 0x44 DUP3 ADD MSTORE PUSH6 0x646472657373 PUSH1 0xD0 SHL PUSH1 0x64 DUP3 ADD MSTORE PUSH1 0x84 SWAP1 REVERT JUMPDEST CALLVALUE PUSH2 0x277 JUMPI PUSH1 0x20 CALLDATASIZE PUSH1 0x3 NOT ADD SLT PUSH2 0x277 JUMPI PUSH1 0x4 CALLDATALOAD PUSH1 0x0 MSTORE PUSH1 0x5 PUSH1 0x20 MSTORE PUSH2 0x240 PUSH1 0x40 PUSH1 0x0 KECCAK256 DUP1 SLOAD SWAP1 PUSH1 0x1 DUP2 ADD SLOAD SWAP1 PUSH1 0x2 DUP2 ADD SLOAD PUSH1 0xFF PUSH1 0x3 DUP4 ADD SLOAD PUSH1 0x4 DUP5 ADD SLOAD PUSH1 0x5 DUP6 ADD SLOAD PUSH1 0x6 DUP7 ADD SLOAD PUSH1 0x7 DUP8 ADD SLOAD SWAP2 PUSH1 0x8 DUP9 ADD SLOAD SWAP4 PUSH1 0x9 DUP10 ADD SLOAD SWAP6 PUSH1 0xA DUP11 ADD SLOAD SWAP9 DUP9 PUSH1 0xC PUSH1 0xB DUP14 ADD SLOAD SWAP13 ADD SLOAD AND SWAP12 PUSH1 0x20 PUSH1 0x40 MLOAD SWAP15 DUP16 SWAP1 DUP2 MSTORE ADD MSTORE PUSH1 0x40 DUP14 ADD MSTORE PUSH1 0x60 DUP13 ADD MSTORE PUSH1 0x80 DUP12 ADD MSTORE PUSH1 0xA0 DUP11 ADD MSTORE PUSH1 0xC0 DUP10 ADD MSTORE PUSH1 0xE0 DUP9 ADD MSTORE PUSH2 0x100 DUP8 ADD MSTORE PUSH4 0xFFFFFFFF DUP1 DUP3 AND PUSH2 0x120 DUP9 ADD MSTORE DUP1 DUP3 PUSH1 0x20 SHR AND PUSH2 0x140 DUP9 ADD MSTORE DUP2 PUSH1 0x40 SHR AND PUSH2 0x160 DUP8 ADD MSTORE DUP2 DUP2 PUSH1 0x60 SHR AND ISZERO ISZERO PUSH2 0x180 DUP8 ADD MSTORE DUP2 DUP2 PUSH1 0x68 SHR AND ISZERO ISZERO PUSH2 0x1A0 DUP8 ADD MSTORE PUSH1 0x70 SHR AND ISZERO ISZERO PUSH2 0x1C0 DUP6 ADD MSTORE PUSH2 0x1E0 DUP5 ADD MSTORE PUSH2 0x200 DUP4 ADD MSTORE ISZERO ISZERO PUSH2 0x220 DUP3 ADD MSTORE RETURN JUMPDEST CALLVALUE PUSH2 0x277 JUMPI PUSH1 0x40 CALLDATASIZE PUSH1 0x3 NOT ADD SLT PUSH2 0x277 JUMPI PUSH2 0x5AB PUSH2 0x1E84 JUMP JUMPDEST PUSH1 0x1 PUSH1 0x1 PUSH1 0xA0 SHL SUB AND PUSH1 0x0 SWAP1 DUP2 MSTORE PUSH1 0x8 PUSH1 0x20 MSTORE PUSH1 0x40 SWAP1 KECCAK256 DUP1 SLOAD PUSH1 0x24 CALLDATALOAD SWAP2 SWAP1 DUP3 LT ISZERO PUSH2 0x277 JUMPI PUSH1 0x20 SWAP2 PUSH2 0x5DC SWAP2 PUSH2 0x1F07 JUMP JUMPDEST SWAP1 SLOAD PUSH1 0x40 MLOAD SWAP2 PUSH1 0x3 SHL SHR DUP2 MSTORE RETURN JUMPDEST CALLVALUE PUSH2 0x277 JUMPI PUSH1 0x0 CALLDATASIZE PUSH1 0x3 NOT ADD SLT PUSH2 0x277 JUMPI PUSH1 0xC0 PUSH1 0x10 SLOAD PUSH1 0x11 SLOAD PUSH1 0x12 SLOAD PUSH1 0x13 SLOAD PUSH1 0x14 SLOAD SWAP2 PUSH1 0x15 SLOAD SWAP4 PUSH1 0x40 MLOAD SWAP6 DUP7 MSTORE PUSH1 0x20 DUP7 ADD MSTORE PUSH1 0x40 DUP6 ADD MSTORE PUSH1 0x60 DUP5 ADD MSTORE PUSH1 0x80 DUP4 ADD MSTORE PUSH1 0xA0 DUP3 ADD MSTORE RETURN JUMPDEST PUSH1 0x20 DUP1 PUSH1 0x3 NOT CALLDATASIZE ADD SLT PUSH2 0x277 JUMPI PUSH1 0x4 CALLDATALOAD SWAP1 PUSH2 0x652 PUSH1 0xFF PUSH1 0x3 SLOAD AND ISZERO PUSH2 0x1FDA JUMP JUMPDEST PUSH2 0x661 PUSH1 0x2 PUSH1 0x4 SLOAD EQ ISZERO PUSH2 0x2669 JUMP JUMPDEST PUSH1 0x2 PUSH1 0x4 SSTORE PUSH2 0x671 CALLER EXTCODESIZE ISZERO PUSH2 0x254D JUMP JUMPDEST PUSH2 0x67C ORIGIN CALLER EQ PUSH2 0x2591 JUMP JUMPDEST PUSH2 0x689 PUSH1 0x9 SLOAD DUP4 EQ PUSH2 0x26B5 JUMP JUMPDEST PUSH2 0x69A PUSH2 0x695 DUP4 PUSH2 0x1F80 JUMP JUMPDEST PUSH2 0x25DD JUMP JUMPDEST PUSH2 0x6A8 PUSH1 0xD SLOAD CALLVALUE LT ISZERO PUSH2 0x26F9 JUMP JUMPDEST DUP2 PUSH1 0x0 MSTORE PUSH1 0x6 DUP2 MSTORE PUSH1 0x40 PUSH1 0x0 KECCAK256 CALLER PUSH1 0x0 MSTORE DUP2 MSTORE PUSH2 0x6CD PUSH1 0x3 PUSH1 0x40 PUSH1 0x0 KECCAK256 ADD SLOAD ISZERO PUSH2 0x275C JUMP JUMPDEST DUP2 PUSH1 0x0 MSTORE PUSH1 0x5 DUP2 MSTORE PUSH2 0x79A PUSH1 0x40 PUSH1 0x0 KECCAK256 PUSH1 0x2 DUP2 ADD PUSH2 0x6EC CALLVALUE DUP3 SLOAD PUSH2 0x206B JUMP JUMPDEST SWAP1 SSTORE CALLVALUE PUSH1 0x6 DUP3 ADD SSTORE DUP4 PUSH1 0x0 MSTORE PUSH1 0x6 DUP4 MSTORE PUSH1 0x40 PUSH1 0x0 KECCAK256 CALLER PUSH1 0x0 MSTORE DUP4 MSTORE PUSH1 0x40 PUSH1 0x0 KECCAK256 PUSH1 0x1 PUSH1 0xFF NOT DUP3 SLOAD AND OR DUP2 SSTORE CALLVALUE PUSH1 0x3 DUP3 ADD SSTORE PUSH1 0x1 TIMESTAMP SWAP2 ADD SSTORE PUSH1 0x7 DUP4 MSTORE PUSH1 0x4 PUSH1 0x40 PUSH1 0x0 KECCAK256 DUP6 PUSH1 0x1 DUP3 ADD SSTORE ADD PUSH2 0x73F DUP2 SLOAD PUSH2 0x205C JUMP JUMPDEST SWAP1 SSTORE CALLER PUSH1 0x0 MSTORE PUSH1 0x7 DUP4 MSTORE PUSH1 0x5 PUSH1 0x40 PUSH1 0x0 KECCAK256 ADD PUSH2 0x75C CALLVALUE DUP3 SLOAD PUSH2 0x206B JUMP JUMPDEST SWAP1 SSTORE CALLER PUSH1 0x0 MSTORE PUSH1 0x8 DUP4 MSTORE PUSH2 0x774 DUP5 PUSH1 0x40 PUSH1 0x0 KECCAK256 PUSH2 0x261E JUMP JUMPDEST PUSH1 0xD PUSH2 0x77E PUSH2 0x281F JUMP JUMPDEST SWAP2 CALLER DUP4 MSTORE PUSH1 0x1 DUP6 DUP5 ADD MSTORE CALLVALUE PUSH1 0x40 DUP5 ADD MSTORE TIMESTAMP PUSH1 0x60 DUP5 ADD MSTORE ADD PUSH2 0x2850 JUMP JUMPDEST PUSH2 0x7A5 PUSH1 0x12 SLOAD PUSH2 0x205C JUMP JUMPDEST PUSH1 0x12 SSTORE PUSH2 0x7B4 CALLVALUE PUSH1 0x13 SLOAD PUSH2 0x206B JUMP JUMPDEST PUSH1 0x13 SSTORE PUSH32 0x93349B5CB1CDD80EA47C8A040B8C0E31E219E0665C1EB33D9A7B2D3FAD11E224 PUSH1 0x40 MLOAD SWAP2 CALLVALUE DUP4 MSTORE CALLER SWAP3 LOG3 PUSH2 0x7EE CALLER PUSH1 0x9 SLOAD PUSH2 0x292D JUMP JUMPDEST PUSH1 0x1 PUSH1 0x4 SSTORE STOP JUMPDEST PUSH1 0x20 DUP1 PUSH1 0x3 NOT CALLDATASIZE ADD SLT PUSH2 0x277 JUMPI PUSH2 0x7EE SWAP1 PUSH2 0x958 PUSH1 0x4 CALLDATALOAD PUSH2 0x81B PUSH1 0xFF PUSH1 0x3 SLOAD AND ISZERO PUSH2 0x1FDA JUMP JUMPDEST PUSH2 0x82A PUSH1 0x2 PUSH1 0x4 SLOAD EQ ISZERO PUSH2 0x2669 JUMP JUMPDEST PUSH1 0x2 PUSH1 0x4 SSTORE PUSH2 0x83A CALLER EXTCODESIZE ISZERO PUSH2 0x254D JUMP JUMPDEST PUSH2 0x845 ORIGIN CALLER EQ PUSH2 0x2591 JUMP JUMPDEST PUSH2 0x852 PUSH1 0x9 SLOAD DUP3 EQ PUSH2 0x26B5 JUMP JUMPDEST PUSH2 0x85E PUSH2 0x695 DUP3 PUSH2 0x1F80 JUMP JUMPDEST PUSH2 0x86C PUSH1 0xD SLOAD CALLVALUE LT ISZERO PUSH2 0x26F9 JUMP JUMPDEST DUP1 PUSH1 0x0 MSTORE PUSH1 0x6 DUP4 MSTORE PUSH1 0x40 PUSH1 0x0 KECCAK256 CALLER PUSH1 0x0 MSTORE DUP4 MSTORE PUSH2 0x891 PUSH1 0x3 PUSH1 0x40 PUSH1 0x0 KECCAK256 ADD SLOAD ISZERO PUSH2 0x275C JUMP JUMPDEST DUP1 PUSH1 0x0 MSTORE PUSH1 0x5 DUP4 MSTORE PUSH2 0x932 PUSH1 0x40 PUSH1 0x0 KECCAK256 SWAP2 PUSH1 0x1 DUP4 ADD PUSH2 0x8B1 CALLVALUE DUP3 SLOAD PUSH2 0x206B JUMP JUMPDEST SWAP1 SSTORE CALLVALUE PUSH1 0x5 DUP5 ADD SSTORE DUP1 PUSH1 0x0 MSTORE PUSH1 0x6 DUP6 MSTORE PUSH1 0x40 PUSH1 0x0 KECCAK256 CALLER PUSH1 0x0 MSTORE DUP6 MSTORE PUSH1 0x40 PUSH1 0x0 KECCAK256 PUSH1 0xFF NOT DUP2 SLOAD AND DUP2 SSTORE CALLVALUE PUSH1 0x3 DUP3 ADD SSTORE PUSH1 0x1 TIMESTAMP SWAP2 ADD SSTORE PUSH1 0x7 DUP6 MSTORE PUSH1 0x2 PUSH1 0x40 PUSH1 0x0 KECCAK256 DUP3 PUSH1 0x1 DUP3 ADD SSTORE ADD PUSH2 0x901 DUP2 SLOAD PUSH2 0x205C JUMP JUMPDEST SWAP1 SSTORE CALLER PUSH1 0x0 MSTORE PUSH1 0x7 DUP6 MSTORE PUSH1 0x3 PUSH1 0x40 PUSH1 0x0 KECCAK256 ADD PUSH2 0x91E CALLVALUE DUP3 SLOAD PUSH2 0x206B JUMP JUMPDEST SWAP1 SSTORE CALLER PUSH1 0x0 MSTORE PUSH1 0x8 DUP6 MSTORE PUSH1 0x40 PUSH1 0x0 KECCAK256 PUSH2 0x261E JUMP JUMPDEST PUSH1 0xD PUSH2 0x93C PUSH2 0x281F JUMP JUMPDEST SWAP2 CALLER DUP4 MSTORE PUSH1 0x0 DUP6 DUP5 ADD MSTORE CALLVALUE PUSH1 0x40 DUP5 ADD MSTORE TIMESTAMP PUSH1 0x60 DUP5 ADD MSTORE ADD PUSH2 0x2850 JUMP JUMPDEST PUSH2 0x963 PUSH1 0x10 SLOAD PUSH2 0x205C JUMP JUMPDEST PUSH1 0x10 SSTORE PUSH2 0x972 CALLVALUE PUSH1 0x11 SLOAD PUSH2 0x206B JUMP JUMPDEST PUSH1 0x11 SSTORE PUSH1 0x9 SLOAD DUP1 SWAP2 PUSH32 0x49237630B34A73A6A12F9D3D4A305DDD6E3A359CC147FFB7A5F18C08F736BC25 PUSH1 0x40 MLOAD SWAP2 CALLVALUE DUP4 MSTORE CALLER SWAP3 LOG3 CALLER SWAP1 PUSH2 0x28CB JUMP JUMPDEST CALLVALUE PUSH2 0x277 JUMPI PUSH1 0x20 CALLDATASIZE PUSH1 0x3 NOT ADD SLT PUSH2 0x277 JUMPI PUSH1 0x20 PUSH2 0x9CA PUSH1 0x4 CALLDATALOAD PUSH2 0x1F80 JUMP JUMPDEST PUSH1 0x40 MLOAD SWAP1 ISZERO ISZERO DUP2 MSTORE RETURN JUMPDEST CALLVALUE PUSH2 0x277 JUMPI PUSH1 0x0 CALLDATASIZE PUSH1 0x3 NOT ADD SLT PUSH2 0x277 JUMPI PUSH2 0x9FA PUSH1 0x1 DUP1 PUSH1 0xA0 SHL SUB PUSH1 0x0 SLOAD AND CALLER EQ PUSH2 0x1F35 JUMP JUMPDEST PUSH1 0xFF PUSH1 0xF SLOAD AND ISZERO PUSH2 0xB16 JUMPI PUSH2 0xA14 PUSH1 0x9 SLOAD PUSH1 0xA SLOAD SWAP1 PUSH2 0x20A2 JUMP JUMPDEST PUSH2 0xA1F PUSH1 0x9 SLOAD PUSH2 0x205C JUMP JUMPDEST DUP1 PUSH1 0x9 SSTORE PUSH1 0xFF PUSH1 0x3 SLOAD AND ISZERO DUP1 PUSH2 0xA31 JUMPI STOP JUMPDEST PUSH2 0xA3A SWAP1 PUSH2 0x1FDA JUMP JUMPDEST DUP1 PUSH1 0x0 MSTORE PUSH1 0x5 PUSH1 0x20 MSTORE PUSH1 0x40 PUSH1 0x0 KECCAK256 PUSH4 0xFFFFFFFF TIMESTAMP AND PUSH1 0x9 DUP3 ADD SWAP2 DUP3 SLOAD SWAP2 DUP1 PUSH4 0xFFFFFFFF NOT DUP5 AND OR DUP5 SSTORE PUSH8 0xFFFFFFFF00000000 PUSH2 0xA78 PUSH1 0xC SLOAD TIMESTAMP PUSH2 0x206B JUMP JUMPDEST PUSH1 0x20 SHL AND SWAP1 DUP2 DUP2 PUSH8 0xFFFFFFFFFFFFFFFF NOT DUP7 AND OR OR DUP6 SSTORE PUSH1 0xC SLOAD PUSH1 0x1 DUP1 PUSH1 0xFF SHL SUB DUP2 AND DUP2 SUB PUSH2 0xB00 JUMPI PUSH4 0xFFFFFFFF PUSH1 0x40 SHL PUSH2 0xAB7 DUP9 SWAP3 PUSH1 0x1 SHL TIMESTAMP PUSH2 0x206B JUMP JUMPDEST PUSH1 0x40 SHL AND SWAP4 SSTORE PUSH1 0x1 PUSH1 0x60 SHL SWAP4 PUSH13 0xFFFFFFFFFFFFFFFFFFFFFFFFFF NOT AND OR OR OR OR SWAP1 SSTORE PUSH32 0x33A701182892FD888ED152CA2AC23771A32E814469B7CD255965471E1AF3A659 PUSH1 0x0 DUP1 LOG2 STOP JUMPDEST PUSH4 0x4E487B71 PUSH1 0xE0 SHL PUSH1 0x0 MSTORE PUSH1 0x11 PUSH1 0x4 MSTORE PUSH1 0x24 PUSH1 0x0 REVERT JUMPDEST PUSH1 0x40 MLOAD PUSH3 0x461BCD PUSH1 0xE5 SHL DUP2 MSTORE PUSH1 0x20 PUSH1 0x4 DUP3 ADD MSTORE PUSH1 0x11 PUSH1 0x24 DUP3 ADD MSTORE PUSH17 0x149BDD5B99081B9BDD081CDD185C9D1959 PUSH1 0x7A SHL PUSH1 0x44 DUP3 ADD MSTORE PUSH1 0x64 SWAP1 REVERT JUMPDEST CALLVALUE PUSH2 0x277 JUMPI PUSH1 0x40 CALLDATASIZE PUSH1 0x3 NOT ADD SLT PUSH2 0x277 JUMPI PUSH1 0x20 PUSH2 0x9CA PUSH2 0xB6D PUSH2 0x1E9A JUMP JUMPDEST PUSH1 0x4 CALLDATALOAD PUSH2 0x2A3E JUMP JUMPDEST CALLVALUE PUSH2 0x277 JUMPI PUSH1 0x20 CALLDATASIZE PUSH1 0x3 NOT ADD SLT PUSH2 0x277 JUMPI PUSH1 0x1 PUSH1 0x1 PUSH1 0xA0 SHL SUB PUSH2 0xB96 PUSH2 0x1E84 JUMP JUMPDEST AND PUSH1 0x0 MSTORE PUSH1 0x2 PUSH1 0x20 MSTORE PUSH1 0x20 PUSH1 0xFF PUSH1 0x40 PUSH1 0x0 KECCAK256 SLOAD AND PUSH1 0x40 MLOAD SWAP1 ISZERO ISZERO DUP2 MSTORE RETURN JUMPDEST CALLVALUE PUSH2 0x277 JUMPI PUSH1 0x20 CALLDATASIZE PUSH1 0x3 NOT ADD SLT PUSH2 0x277 JUMPI PUSH2 0x100 PUSH1 0x1 PUSH1 0x1 PUSH1 0xA0 SHL SUB DUP1 PUSH2 0xBD9 PUSH2 0x1E84 JUMP JUMPDEST AND PUSH1 0x0 MSTORE PUSH1 0x7 PUSH1 0x20 MSTORE PUSH1 0x40 PUSH1 0x0 KECCAK256 SWAP1 DUP2 SLOAD AND SWAP1 PUSH1 0x1 DUP2 ADD SLOAD SWAP1 PUSH1 0x2 DUP2 ADD SLOAD PUSH1 0x3 DUP3 ADD SLOAD PUSH1 0x4 DUP4 ADD SLOAD SWAP1 PUSH1 0x5 DUP5 ADD SLOAD SWAP3 PUSH1 0x7 PUSH1 0x6 DUP7 ADD SLOAD SWAP6 ADD SLOAD SWAP6 PUSH1 0x40 MLOAD SWAP8 DUP9 MSTORE PUSH1 0x20 DUP9 ADD MSTORE PUSH1 0x40 DUP8 ADD MSTORE PUSH1 0x60 DUP7 ADD MSTORE PUSH1 0x80 DUP6 ADD MSTORE PUSH1 0xA0 DUP5 ADD MSTORE PUSH1 0xC0 DUP4 ADD MSTORE PUSH1 0xE0 DUP3 ADD MSTORE RETURN JUMPDEST CALLVALUE PUSH2 0x277 JUMPI PUSH1 0x60 DUP1 PUSH1 0x3 NOT CALLDATASIZE ADD SLT PUSH2 0x277 JUMPI PUSH2 0xC58 PUSH2 0x1E84 JUMP JUMPDEST PUSH1 0x24 CALLDATALOAD PUSH1 0x44 CALLDATALOAD SWAP2 PUSH1 0x1 DUP1 PUSH1 0xA0 SHL SUB AND SWAP1 DUP2 PUSH1 0x0 MSTORE PUSH1 0x8 SWAP3 PUSH1 0x20 SWAP2 DUP5 DUP4 MSTORE PUSH2 0xC84 DUP2 PUSH1 0x40 PUSH1 0x0 KECCAK256 SLOAD PUSH2 0x225F JUMP JUMPDEST DUP3 GT PUSH2 0xE7E JUMPI JUMPDEST PUSH2 0xC94 DUP3 PUSH2 0x2982 JUMP JUMPDEST SWAP5 PUSH2 0xCA2 PUSH1 0x40 MLOAD SWAP7 DUP8 PUSH2 0x27FD JUMP JUMPDEST DUP3 DUP7 MSTORE PUSH1 0x1F NOT SWAP5 DUP6 PUSH2 0xCB3 DUP6 PUSH2 0x2982 JUMP JUMPDEST ADD CALLDATASIZE DUP7 DUP10 ADD CALLDATACOPY PUSH2 0xCC2 DUP5 PUSH2 0x2982 JUMP JUMPDEST SWAP6 PUSH2 0xCD0 PUSH1 0x40 MLOAD SWAP8 DUP9 PUSH2 0x27FD JUMP JUMPDEST DUP5 DUP8 MSTORE PUSH2 0xCDC DUP6 PUSH2 0x2982 JUMP JUMPDEST ADD DUP6 PUSH1 0x0 JUMPDEST DUP3 DUP2 LT PUSH2 0xE46 JUMPI POP POP POP PUSH1 0x0 JUMPDEST DUP5 DUP2 LT PUSH2 0xD89 JUMPI POP POP POP SWAP1 PUSH2 0xD02 SWAP2 PUSH2 0x206B JUMP JUMPDEST SWAP1 PUSH2 0xD16 PUSH1 0x40 MLOAD SWAP5 DUP7 DUP7 MSTORE DUP7 DUP7 ADD SWAP1 PUSH2 0x1ED3 JUMP JUMPDEST DUP5 DUP2 SUB DUP3 DUP7 ADD MSTORE DUP2 DUP1 DUP6 MLOAD SWAP3 DUP4 DUP2 MSTORE ADD SWAP5 ADD SWAP2 PUSH1 0x0 JUMPDEST DUP3 DUP2 LT PUSH2 0xD40 JUMPI DUP7 DUP1 DUP8 DUP8 PUSH1 0x40 DUP4 ADD MSTORE SUB SWAP1 RETURN JUMPDEST SWAP1 SWAP2 SWAP3 SWAP5 DUP3 PUSH1 0xA0 PUSH1 0x1 SWAP3 DUP9 MLOAD PUSH2 0xD57 DUP3 DUP3 MLOAD PUSH2 0x1EB0 JUMP JUMPDEST DUP1 DUP5 ADD MLOAD DUP3 DUP6 ADD MSTORE PUSH1 0x40 DUP1 DUP3 ADD MLOAD SWAP1 DUP4 ADD MSTORE DUP12 DUP2 ADD MLOAD DUP13 DUP4 ADD MSTORE PUSH1 0x80 SWAP1 DUP2 ADD MLOAD ISZERO ISZERO SWAP1 DUP3 ADD MSTORE ADD SWAP7 ADD SWAP4 SWAP3 SWAP2 ADD PUSH2 0xD2C JUMP JUMPDEST PUSH2 0xE41 SWAP1 DUP3 PUSH1 0x0 MSTORE DUP4 DUP8 MSTORE PUSH2 0xDAC PUSH1 0x40 PUSH1 0x0 KECCAK256 PUSH2 0xDA6 DUP4 DUP9 PUSH2 0x206B JUMP JUMPDEST SWAP1 PUSH2 0x1F07 JUMP JUMPDEST SWAP1 SLOAD PUSH1 0x3 SWAP2 DUP3 SHL SHR PUSH2 0xDBE DUP4 DUP13 PUSH2 0x2A2A JUMP JUMPDEST MSTORE PUSH2 0xDC9 DUP3 DUP12 PUSH2 0x2A2A JUMP JUMPDEST MLOAD PUSH1 0x0 MSTORE PUSH1 0x6 DUP9 MSTORE PUSH1 0x40 PUSH1 0x0 KECCAK256 DUP5 PUSH1 0x0 MSTORE DUP9 MSTORE PUSH1 0x40 PUSH1 0x0 KECCAK256 SWAP1 PUSH1 0x4 PUSH1 0x40 MLOAD SWAP3 PUSH2 0xDF1 DUP5 PUSH2 0x27A8 JUMP JUMPDEST DUP14 PUSH1 0xFF SWAP4 PUSH2 0xE02 DUP6 DUP5 SLOAD AND DUP8 PUSH2 0x2844 JUMP JUMPDEST PUSH1 0x1 DUP4 ADD SLOAD DUP14 DUP8 ADD MSTORE PUSH1 0x2 DUP4 ADD SLOAD PUSH1 0x40 DUP8 ADD MSTORE DUP3 ADD SLOAD SWAP1 DUP6 ADD MSTORE ADD SLOAD AND ISZERO ISZERO PUSH1 0x80 DUP3 ADD MSTORE PUSH2 0xE30 DUP3 DUP11 PUSH2 0x2A2A JUMP JUMPDEST MSTORE PUSH2 0xE3B DUP2 DUP10 PUSH2 0x2A2A JUMP JUMPDEST POP PUSH2 0x205C JUMP JUMPDEST PUSH2 0xCEE JUMP JUMPDEST PUSH1 0x40 MLOAD PUSH2 0xE52 DUP2 PUSH2 0x27A8 JUMP JUMPDEST PUSH1 0x0 DUP2 MSTORE PUSH1 0x0 DUP4 DUP3 ADD MSTORE PUSH1 0x0 PUSH1 0x40 DUP3 ADD MSTORE PUSH1 0x0 DUP13 DUP3 ADD MSTORE PUSH1 0x0 PUSH1 0x80 DUP3 ADD MSTORE DUP3 DUP3 DUP12 ADD ADD MSTORE ADD DUP7 SWAP1 PUSH2 0xCE1 JUMP JUMPDEST SWAP1 POP DUP3 PUSH1 0x0 MSTORE DUP4 DUP3 MSTORE PUSH2 0xE96 DUP2 PUSH1 0x40 PUSH1 0x0 KECCAK256 SLOAD PUSH2 0x225F JUMP JUMPDEST SWAP1 PUSH2 0xC8B JUMP JUMPDEST PUSH1 0x20 CALLDATASIZE PUSH1 0x3 NOT ADD SLT PUSH2 0x277 JUMPI PUSH8 0xFFFFFFFFFFFFFFFF DUP1 PUSH1 0x4 CALLDATALOAD GT PUSH2 0x277 JUMPI CALLDATASIZE PUSH1 0x23 PUSH1 0x4 CALLDATALOAD ADD SLT ISZERO PUSH2 0x277 JUMPI DUP1 PUSH1 0x4 CALLDATALOAD PUSH1 0x4 ADD CALLDATALOAD GT PUSH2 0x277 JUMPI PUSH1 0x24 SWAP1 CALLDATASIZE DUP3 PUSH1 0x4 CALLDATALOAD PUSH1 0x4 ADD CALLDATALOAD PUSH1 0x5 SHL PUSH1 0x4 CALLDATALOAD ADD ADD GT PUSH2 0x277 JUMPI PUSH2 0xEFC PUSH1 0x2 PUSH1 0x4 SLOAD EQ ISZERO PUSH2 0x2669 JUMP JUMPDEST PUSH1 0x2 PUSH1 0x4 SSTORE PUSH2 0xF0C CALLER EXTCODESIZE ISZERO PUSH2 0x254D JUMP JUMPDEST PUSH2 0xF17 ORIGIN CALLER EQ PUSH2 0x2591 JUMP JUMPDEST PUSH1 0x0 DUP1 JUMPDEST PUSH1 0x4 CALLDATALOAD PUSH1 0x4 ADD CALLDATALOAD DUP2 LT PUSH2 0x102F JUMPI POP DUP1 ISZERO PUSH2 0xFDF JUMPI PUSH1 0x0 DUP1 DUP1 DUP1 SWAP4 CALLER GAS CALL SWAP1 RETURNDATASIZE ISZERO PUSH2 0xFD9 JUMPI RETURNDATASIZE SWAP1 DUP2 GT PUSH2 0xFC4 JUMPI PUSH1 0x40 MLOAD SWAP1 PUSH2 0xF5F PUSH1 0x1F DUP3 ADD PUSH1 0x1F NOT AND PUSH1 0x20 ADD DUP4 PUSH2 0x27FD JUMP JUMPDEST DUP2 MSTORE PUSH1 0x0 PUSH1 0x20 RETURNDATASIZE SWAP3 ADD RETURNDATACOPY JUMPDEST ISZERO PUSH2 0xF76 JUMPI PUSH1 0x1 PUSH1 0x4 SSTORE STOP JUMPDEST PUSH1 0x84 SWAP1 PUSH1 0x21 PUSH1 0x40 MLOAD SWAP2 PUSH3 0x461BCD PUSH1 0xE5 SHL DUP4 MSTORE PUSH1 0x20 PUSH1 0x4 DUP5 ADD MSTORE DUP3 ADD MSTORE PUSH32 0x424E42207472616E7366657220746F206D73672E73656E646572206661696C65 PUSH1 0x44 DUP3 ADD MSTORE PUSH1 0x19 PUSH1 0xFA SHL PUSH1 0x64 DUP3 ADD MSTORE REVERT JUMPDEST DUP3 PUSH4 0x4E487B71 PUSH1 0xE0 SHL PUSH1 0x0 MSTORE PUSH1 0x41 PUSH1 0x4 MSTORE PUSH1 0x0 REVERT JUMPDEST POP PUSH2 0xF6A JUMP JUMPDEST PUSH1 0x40 MLOAD PUSH3 0x461BCD PUSH1 0xE5 SHL DUP2 MSTORE PUSH1 0x20 PUSH1 0x4 DUP3 ADD MSTORE PUSH1 0x23 DUP2 DUP6 ADD MSTORE PUSH32 0x4E6F7420666F756E6420616E7920656C696769626C6520726577617264206675 PUSH1 0x44 DUP3 ADD MSTORE PUSH3 0x6E6473 PUSH1 0xE8 SHL PUSH1 0x64 DUP3 ADD MSTORE PUSH1 0x84 SWAP1 REVERT JUMPDEST SWAP1 DUP4 DUP3 PUSH1 0x5 SHL PUSH1 0x4 CALLDATALOAD ADD ADD CALLDATALOAD PUSH1 0x0 MSTORE PUSH1 0x5 PUSH1 0x20 MSTORE PUSH1 0x40 PUSH1 0x0 KECCAK256 SWAP2 PUSH1 0x40 MLOAD SWAP3 PUSH2 0x1056 DUP5 PUSH2 0x27C4 JUMP JUMPDEST DUP1 SLOAD DUP5 MSTORE PUSH1 0x1 DUP2 ADD SLOAD PUSH1 0x20 DUP6 ADD MSTORE PUSH1 0x2 DUP2 ADD SLOAD PUSH1 0x40 DUP6 ADD MSTORE PUSH1 0x3 DUP2 ADD SLOAD PUSH1 0x60 DUP6 ADD MSTORE PUSH1 0x4 DUP2 ADD SLOAD PUSH1 0x80 DUP6 ADD MSTORE PUSH1 0x5 DUP2 ADD SLOAD PUSH1 0xA0 DUP6 ADD MSTORE PUSH1 0x6 DUP2 ADD SLOAD PUSH1 0xC0 DUP6 ADD MSTORE PUSH1 0x7 DUP2 ADD SLOAD PUSH1 0xE0 DUP6 ADD MSTORE PUSH1 0x8 DUP2 ADD SLOAD PUSH2 0x100 DUP6 ADD MSTORE PUSH2 0x1132 PUSH1 0xD PUSH1 0x9 DUP4 ADD SLOAD SWAP3 PUSH4 0xFFFFFFFF DUP1 DUP6 AND PUSH2 0x120 DUP10 ADD MSTORE DUP1 DUP6 PUSH1 0x20 SHR AND PUSH2 0x140 DUP10 ADD MSTORE DUP5 PUSH1 0x40 SHR AND PUSH2 0x160 DUP9 ADD MSTORE PUSH1 0xFF DUP1 DUP6 PUSH1 0x60 SHR AND ISZERO ISZERO PUSH2 0x180 DUP10 ADD MSTORE DUP1 DUP6 PUSH1 0x68 SHR AND ISZERO ISZERO PUSH2 0x1A0 DUP10 ADD MSTORE DUP1 PUSH2 0x1C0 DUP10 ADD SWAP6 PUSH1 0x70 SHR AND ISZERO ISZERO DUP6 MSTORE PUSH1 0xA DUP3 ADD SLOAD PUSH2 0x1E0 DUP10 ADD MSTORE PUSH1 0xB DUP3 ADD SLOAD PUSH2 0x200 DUP10 ADD MSTORE PUSH1 0xC DUP3 ADD SLOAD AND ISZERO ISZERO PUSH2 0x220 DUP9 ADD MSTORE ADD PUSH2 0x299A JUMP JUMPDEST PUSH2 0x240 DUP6 ADD MSTORE DUP6 DUP3 PUSH1 0x5 SHL PUSH1 0x4 CALLDATALOAD ADD ADD CALLDATALOAD PUSH1 0x0 MSTORE PUSH1 0x6 PUSH1 0x20 MSTORE PUSH1 0x40 PUSH1 0x0 KECCAK256 CALLER PUSH1 0x0 MSTORE PUSH1 0x20 MSTORE PUSH1 0x40 PUSH1 0x0 KECCAK256 SWAP1 PUSH1 0x1 DUP1 PUSH1 0xA0 SHL SUB PUSH1 0x0 SLOAD AND SWAP1 MLOAD PUSH2 0x1181 JUMPI JUMPDEST POP POP PUSH2 0x117C SWAP2 SWAP3 POP PUSH2 0x205C JUMP JUMPDEST PUSH2 0xF1B JUMP JUMPDEST PUSH2 0x1195 CALLER DUP9 DUP6 PUSH1 0x5 SHL PUSH1 0x4 CALLDATALOAD ADD ADD CALLDATALOAD PUSH2 0x2A3E JUMP JUMPDEST ISZERO PUSH2 0x116F JUMPI PUSH2 0x11BB PUSH2 0x11B0 PUSH1 0x20 DUP8 ADD MLOAD PUSH1 0x40 DUP9 ADD MLOAD SWAP1 PUSH2 0x206B JUMP JUMPDEST PUSH1 0x80 DUP8 ADD MLOAD SWAP1 PUSH2 0x225F JUMP JUMPDEST SWAP1 PUSH1 0x3 DUP4 ADD SWAP6 PUSH2 0x11E0 DUP8 SLOAD SWAP2 PUSH1 0x60 PUSH2 0x11D7 PUSH1 0x80 DUP4 ADD MLOAD DUP6 PUSH2 0x208F JUMP JUMPDEST SWAP2 ADD MLOAD SWAP1 PUSH2 0x23AA JUMP JUMPDEST SWAP4 PUSH1 0x4 DUP2 ADD PUSH1 0x1 PUSH1 0xFF NOT DUP3 SLOAD AND OR SWAP1 SSTORE PUSH1 0x2 TIMESTAMP SWAP2 ADD SSTORE DUP4 LT PUSH1 0x0 EQ PUSH2 0x12AB JUMPI POP POP POP PUSH2 0x1212 PUSH2 0x117C SWAP3 SWAP4 SLOAD DUP1 SWAP5 PUSH2 0x206B JUMP JUMPDEST SWAP3 CALLER PUSH1 0x0 MSTORE PUSH1 0x7 PUSH1 0x20 MSTORE PUSH1 0x6 PUSH1 0x40 PUSH1 0x0 KECCAK256 ADD PUSH2 0x122E DUP2 SLOAD PUSH2 0x205C JUMP JUMPDEST SWAP1 SSTORE CALLER PUSH1 0x0 MSTORE PUSH1 0x7 PUSH1 0x20 MSTORE PUSH1 0x7 PUSH1 0x40 PUSH1 0x0 KECCAK256 ADD PUSH2 0x124C DUP3 DUP3 SLOAD PUSH2 0x206B JUMP JUMPDEST SWAP1 SSTORE PUSH1 0x14 PUSH2 0x125A DUP2 SLOAD PUSH2 0x205C JUMP JUMPDEST SWAP1 SSTORE PUSH1 0x15 PUSH2 0x1269 DUP3 DUP3 SLOAD PUSH2 0x206B JUMP JUMPDEST SWAP1 SSTORE PUSH1 0x40 MLOAD SWAP1 DUP2 MSTORE DUP6 DUP3 PUSH1 0x5 SHL PUSH1 0x4 CALLDATALOAD ADD ADD CALLDATALOAD SWAP1 PUSH32 0x987D620F307FF6B94D58743CB7A7509F24071586A77759B77C2D4E29F75A2F9A PUSH1 0x20 CALLER SWAP3 LOG3 DUP3 SWAP2 DUP7 PUSH2 0x116F JUMP JUMPDEST PUSH1 0x0 DUP1 SWAP4 SWAP7 POP DUP1 SWAP3 DUP2 SWAP3 DUP3 DUP3 ISZERO PUSH2 0x12DC JUMPI JUMPDEST CALL ISZERO PUSH2 0x12D0 JUMPI PUSH2 0x1212 DUP4 PUSH2 0x117C SWAP4 PUSH2 0x206B JUMP JUMPDEST PUSH1 0x40 MLOAD RETURNDATASIZE PUSH1 0x0 DUP3 RETURNDATACOPY RETURNDATASIZE SWAP1 REVERT JUMPDEST POP PUSH2 0x8FC PUSH2 0x12BD JUMP JUMPDEST CALLVALUE PUSH2 0x277 JUMPI PUSH1 0x0 CALLDATASIZE PUSH1 0x3 NOT ADD SLT PUSH2 0x277 JUMPI PUSH1 0x0 SLOAD PUSH1 0x40 MLOAD PUSH1 0x1 PUSH1 0x1 PUSH1 0xA0 SHL SUB SWAP1 SWAP2 AND DUP2 MSTORE PUSH1 0x20 SWAP1 RETURN JUMPDEST CALLVALUE PUSH2 0x277 JUMPI PUSH1 0x20 DUP1 PUSH1 0x3 NOT CALLDATASIZE ADD SLT PUSH2 0x277 JUMPI PUSH1 0x1 PUSH1 0x1 PUSH1 0xA0 SHL SUB PUSH2 0x1330 PUSH2 0x1E84 JUMP JUMPDEST AND PUSH1 0x0 MSTORE PUSH1 0x8 DUP2 MSTORE PUSH1 0x40 PUSH1 0x0 KECCAK256 SWAP1 PUSH1 0x40 MLOAD DUP1 DUP4 DUP4 DUP3 SWAP6 SLOAD SWAP4 DUP5 DUP2 MSTORE ADD SWAP1 PUSH1 0x0 MSTORE DUP4 PUSH1 0x0 KECCAK256 SWAP3 PUSH1 0x0 JUMPDEST DUP6 DUP3 DUP3 LT PUSH2 0x1387 JUMPI POP POP POP PUSH2 0x136F SWAP3 POP SUB DUP4 PUSH2 0x27FD JUMP JUMPDEST PUSH2 0x1383 PUSH1 0x40 MLOAD SWAP3 DUP3 DUP5 SWAP4 DUP5 MSTORE DUP4 ADD SWAP1 PUSH2 0x1ED3 JUMP JUMPDEST SUB SWAP1 RETURN JUMPDEST DUP6 SLOAD DUP5 MSTORE PUSH1 0x1 SWAP6 DUP7 ADD SWAP6 DUP9 SWAP6 POP SWAP4 ADD SWAP3 ADD PUSH2 0x1358 JUMP JUMPDEST CALLVALUE PUSH2 0x277 JUMPI PUSH1 0x40 CALLDATASIZE PUSH1 0x3 NOT ADD SLT PUSH2 0x277 JUMPI PUSH1 0x4 CALLDATALOAD PUSH2 0x13B9 PUSH2 0x1E9A JUMP JUMPDEST SWAP1 DUP1 PUSH1 0x0 MSTORE PUSH1 0x20 SWAP2 PUSH1 0x6 DUP4 MSTORE PUSH1 0x40 PUSH1 0x0 KECCAK256 SWAP1 PUSH1 0x1 DUP1 PUSH1 0xA0 SHL SUB AND PUSH1 0x0 MSTORE DUP3 MSTORE PUSH1 0x40 PUSH1 0x0 KECCAK256 PUSH1 0x40 MLOAD SWAP2 PUSH2 0x13EA DUP4 PUSH2 0x27A8 JUMP JUMPDEST PUSH1 0xFF SWAP1 PUSH2 0x13FA DUP3 DUP5 SLOAD AND DUP6 PUSH2 0x2844 JUMP JUMPDEST PUSH1 0x1 DUP4 ADD SLOAD DUP6 DUP6 ADD MSTORE PUSH1 0x2 DUP4 ADD SLOAD PUSH1 0x40 DUP6 ADD MSTORE PUSH1 0x80 DUP3 PUSH1 0x4 PUSH1 0x3 DUP7 ADD SLOAD SWAP6 PUSH1 0x60 DUP9 ADD SWAP7 DUP8 MSTORE ADD SLOAD AND SWAP5 ADD SWAP4 ISZERO ISZERO DUP5 MSTORE PUSH1 0x0 MSTORE PUSH1 0x5 DUP5 MSTORE PUSH1 0x40 PUSH1 0x0 KECCAK256 SWAP1 PUSH1 0x40 MLOAD PUSH2 0x1442 DUP2 PUSH2 0x27C4 JUMP JUMPDEST DUP3 SLOAD DUP2 MSTORE PUSH1 0x1 DUP4 ADD SLOAD DUP7 DUP3 ADD MSTORE PUSH1 0x2 DUP4 ADD SLOAD PUSH1 0x40 DUP3 ADD MSTORE PUSH1 0x3 DUP4 ADD SLOAD PUSH1 0x60 DUP3 ADD MSTORE PUSH1 0x4 DUP4 ADD SLOAD PUSH1 0x80 DUP3 ADD MSTORE PUSH1 0x5 DUP4 ADD SLOAD PUSH1 0xA0 DUP3 ADD MSTORE PUSH1 0x6 DUP4 ADD SLOAD PUSH1 0xC0 DUP3 ADD MSTORE PUSH1 0x7 DUP4 ADD SLOAD PUSH1 0xE0 DUP3 ADD MSTORE PUSH1 0x8 DUP4 ADD SLOAD PUSH2 0x100 DUP3 ADD MSTORE PUSH1 0x9 DUP4 ADD SLOAD SWAP1 PUSH2 0x240 PUSH2 0x1521 PUSH1 0xD PUSH4 0xFFFFFFFF SWAP7 DUP8 DUP7 AND PUSH2 0x120 DUP7 ADD MSTORE DUP8 DUP7 DUP13 SHR AND PUSH2 0x140 DUP7 ADD MSTORE PUSH2 0x160 DUP6 ADD SWAP7 DUP9 DUP8 PUSH1 0x40 SHR AND DUP9 MSTORE DUP1 DUP8 PUSH1 0x60 SHR AND ISZERO ISZERO PUSH2 0x180 DUP8 ADD MSTORE DUP1 DUP8 PUSH1 0x68 SHR AND ISZERO ISZERO PUSH2 0x1A0 DUP8 ADD MSTORE DUP1 PUSH2 0x1C0 DUP8 ADD SWAP8 PUSH1 0x70 SHR AND ISZERO ISZERO DUP8 MSTORE PUSH1 0xA DUP3 ADD SLOAD PUSH2 0x1E0 DUP8 ADD MSTORE PUSH1 0xB DUP3 ADD SLOAD PUSH2 0x200 DUP8 ADD MSTORE PUSH1 0xC DUP3 ADD SLOAD AND ISZERO ISZERO PUSH2 0x220 DUP7 ADD MSTORE ADD PUSH2 0x299A JUMP JUMPDEST SWAP2 ADD MSTORE MLOAD ISZERO SWAP4 DUP5 PUSH2 0x155F JUMPI JUMPDEST POP DUP4 PUSH2 0x1552 JUMPI JUMPDEST POP POP DUP2 PUSH2 0x1547 JUMPI JUMPDEST POP PUSH1 0x40 MLOAD SWAP1 ISZERO ISZERO DUP2 MSTORE RETURN JUMPDEST SWAP1 POP MLOAD ISZERO ISZERO DUP3 PUSH2 0x153C JUMP JUMPDEST MLOAD AND TIMESTAMP GT SWAP2 POP DUP4 DUP1 PUSH2 0x1534 JUMP JUMPDEST MLOAD ISZERO SWAP4 POP DUP6 PUSH2 0x152D JUMP JUMPDEST CALLVALUE PUSH2 0x277 JUMPI PUSH1 0x0 CALLDATASIZE PUSH1 0x3 NOT ADD SLT PUSH2 0x277 JUMPI PUSH1 0x20 PUSH1 0xB SLOAD PUSH1 0x40 MLOAD SWAP1 DUP2 MSTORE RETURN JUMPDEST CALLVALUE PUSH2 0x277 JUMPI PUSH1 0x20 DUP1 PUSH1 0x3 NOT CALLDATASIZE ADD SLT PUSH2 0x277 JUMPI PUSH1 0x4 CALLDATALOAD PUSH1 0x0 MSTORE PUSH1 0x5 DUP2 MSTORE PUSH2 0x15B3 PUSH1 0xD PUSH1 0x40 PUSH1 0x0 KECCAK256 ADD PUSH2 0x299A JUMP JUMPDEST PUSH1 0x40 MLOAD SWAP1 DUP3 DUP3 ADD DUP4 DUP4 MSTORE DUP2 MLOAD DUP1 SWAP2 MSTORE DUP4 PUSH1 0x40 DUP5 ADD SWAP3 ADD SWAP4 PUSH1 0x0 JUMPDEST DUP3 DUP2 LT PUSH2 0x15DA JUMPI DUP5 DUP5 SUB DUP6 RETURN JUMPDEST SWAP1 SWAP2 SWAP3 DUP3 PUSH1 0x80 PUSH1 0x1 SWAP3 DUP9 MLOAD DUP5 DUP1 PUSH1 0xA0 SHL SUB DUP2 MLOAD AND DUP3 MSTORE PUSH2 0x1600 DUP5 DUP3 ADD MLOAD DUP6 DUP5 ADD SWAP1 PUSH2 0x1EB0 JUMP JUMPDEST PUSH1 0x40 DUP2 ADD MLOAD PUSH1 0x40 DUP4 ADD MSTORE PUSH1 0x60 DUP1 SWAP2 ADD MLOAD SWAP1 DUP3 ADD MSTORE ADD SWAP7 ADD SWAP2 ADD SWAP5 SWAP3 SWAP2 SWAP1 SWAP5 PUSH2 0x15CD JUMP JUMPDEST CALLVALUE PUSH2 0x277 JUMPI PUSH1 0x0 CALLDATASIZE PUSH1 0x3 NOT ADD SLT PUSH2 0x277 JUMPI PUSH1 0x20 PUSH1 0x9 SLOAD PUSH1 0x40 MLOAD SWAP1 DUP2 MSTORE RETURN JUMPDEST CALLVALUE PUSH2 0x277 JUMPI PUSH1 0x0 CALLDATASIZE PUSH1 0x3 NOT ADD SLT PUSH2 0x277 JUMPI PUSH1 0x20 PUSH1 0xFF PUSH1 0xF SLOAD PUSH1 0x8 SHR AND PUSH1 0x40 MLOAD SWAP1 ISZERO ISZERO DUP2 MSTORE RETURN JUMPDEST CALLVALUE PUSH2 0x277 JUMPI PUSH1 0x0 CALLDATASIZE PUSH1 0x3 NOT ADD SLT PUSH2 0x277 JUMPI PUSH2 0x168D PUSH1 0x1 DUP1 PUSH1 0xA0 SHL SUB PUSH1 0x0 SLOAD AND CALLER EQ PUSH2 0x1F35 JUMP JUMPDEST PUSH1 0x1 PUSH1 0x3 SLOAD PUSH2 0x16A8 PUSH1 0xFF DUP3 AND ISZERO PUSH2 0x16A3 DUP2 PUSH2 0x1FDA JUMP JUMPDEST PUSH2 0x1FDA JUMP JUMPDEST PUSH1 0xFF NOT AND OR PUSH1 0x3 SSTORE PUSH1 0x9 SLOAD PUSH32 0x32FB7C9891BC4F963C7DE9F1186D2A7755C7D6E9F4604DABE1D8BB3027C2F49E PUSH1 0x0 DUP1 LOG2 STOP JUMPDEST CALLVALUE PUSH2 0x277 JUMPI PUSH1 0x20 CALLDATASIZE PUSH1 0x3 NOT ADD SLT PUSH2 0x277 JUMPI PUSH2 0x16F3 PUSH2 0x1E84 JUMP JUMPDEST PUSH1 0x0 SLOAD PUSH1 0x1 PUSH1 0x1 PUSH1 0xA0 SHL SUB SWAP1 PUSH2 0x170C SWAP1 DUP3 AND CALLER EQ PUSH2 0x1F35 JUMP JUMPDEST DUP1 PUSH1 0x1 SLOAD AND SWAP2 AND EQ PUSH2 0x171A JUMPI STOP JUMPDEST PUSH1 0x40 MLOAD PUSH3 0x461BCD PUSH1 0xE5 SHL DUP2 MSTORE PUSH1 0x20 PUSH1 0x4 DUP3 ADD MSTORE PUSH1 0x24 DUP1 DUP3 ADD MSTORE PUSH32 0x50726F7669646564206164647265737320697320616C726561647920616E2041 PUSH1 0x44 DUP3 ADD MSTORE PUSH4 0x3236B4B7 PUSH1 0xE1 SHL PUSH1 0x64 DUP3 ADD MSTORE PUSH1 0x84 SWAP1 REVERT JUMPDEST CALLVALUE PUSH2 0x277 JUMPI PUSH1 0x0 CALLDATASIZE PUSH1 0x3 NOT ADD SLT PUSH2 0x277 JUMPI PUSH1 0x20 PUSH1 0xFF PUSH1 0x3 SLOAD AND PUSH1 0x40 MLOAD SWAP1 ISZERO ISZERO DUP2 MSTORE RETURN JUMPDEST CALLVALUE PUSH2 0x277 JUMPI PUSH1 0x0 CALLDATASIZE PUSH1 0x3 NOT ADD SLT PUSH2 0x277 JUMPI PUSH2 0x17B4 PUSH1 0x1 DUP1 PUSH1 0xA0 SHL SUB PUSH1 0x0 SLOAD AND CALLER EQ PUSH2 0x1F35 JUMP JUMPDEST PUSH1 0x3 SLOAD PUSH2 0x17D7 PUSH1 0xFF DUP3 AND PUSH2 0x17C7 DUP2 PUSH2 0x2019 JUMP JUMPDEST PUSH2 0xFFFF NOT PUSH1 0xF SLOAD AND PUSH1 0xF SSTORE PUSH2 0x2019 JUMP JUMPDEST PUSH1 0xFF NOT AND PUSH1 0x3 SSTORE PUSH1 0x9 SLOAD PUSH32 0x9DD715FED52C25E642F97653BB4C4339AD98FE6D6E130348BE82AE5D86383A8C PUSH1 0x0 DUP1 LOG2 STOP JUMPDEST CALLVALUE PUSH2 0x277 JUMPI PUSH1 0x20 CALLDATASIZE PUSH1 0x3 NOT ADD SLT PUSH2 0x277 JUMPI PUSH1 0x4 CALLDATALOAD PUSH2 0x1831 PUSH1 0x1 DUP1 PUSH1 0xA0 SHL SUB PUSH1 0x0 SLOAD AND CALLER EQ PUSH2 0x1F35 JUMP JUMPDEST DUP1 PUSH1 0xD SSTORE PUSH32 0x82480E97991520549AC4B5D0E1D97EDB3BFAC2666202923B6903D2A953DC7608 PUSH1 0x20 PUSH1 0x9 SLOAD SWAP3 PUSH1 0x40 MLOAD SWAP1 DUP2 MSTORE LOG2 STOP JUMPDEST CALLVALUE PUSH2 0x277 JUMPI PUSH1 0x40 CALLDATASIZE PUSH1 0x3 NOT ADD SLT PUSH2 0x277 JUMPI PUSH2 0x187E PUSH2 0x1E9A JUMP JUMPDEST PUSH1 0x4 CALLDATALOAD PUSH1 0x0 MSTORE PUSH1 0x6 PUSH1 0x20 MSTORE PUSH1 0x40 PUSH1 0x0 KECCAK256 SWAP1 PUSH1 0x1 DUP1 PUSH1 0xA0 SHL SUB AND PUSH1 0x0 MSTORE PUSH1 0x20 MSTORE PUSH1 0xA0 PUSH1 0x40 PUSH1 0x0 KECCAK256 PUSH1 0xFF DUP2 SLOAD AND SWAP1 PUSH1 0x1 DUP2 ADD SLOAD SWAP1 PUSH1 0x2 DUP2 ADD SLOAD PUSH1 0xFF PUSH1 0x4 PUSH1 0x3 DUP5 ADD SLOAD SWAP4 ADD SLOAD AND SWAP3 PUSH2 0x18D0 PUSH1 0x40 MLOAD DUP1 SWAP7 PUSH2 0x1EB0 JUMP JUMPDEST PUSH1 0x20 DUP6 ADD MSTORE PUSH1 0x40 DUP5 ADD MSTORE PUSH1 0x60 DUP4 ADD MSTORE ISZERO ISZERO PUSH1 0x80 DUP3 ADD MSTORE RETURN JUMPDEST CALLVALUE PUSH2 0x277 JUMPI PUSH1 0x0 CALLDATASIZE PUSH1 0x3 NOT ADD SLT PUSH2 0x277 JUMPI PUSH1 0x20 PUSH1 0xFF PUSH1 0xF SLOAD AND PUSH1 0x40 MLOAD SWAP1 ISZERO ISZERO DUP2 MSTORE RETURN JUMPDEST CALLVALUE PUSH2 0x277 JUMPI PUSH1 0x20 CALLDATASIZE PUSH1 0x3 NOT ADD SLT PUSH2 0x277 JUMPI PUSH32 0x696FAB4A25D5A0F71F21EE59AA7512CD96FE20B7A28F4E2663099566B4639D89 PUSH1 0x20 PUSH1 0x4 CALLDATALOAD PUSH2 0x1957 PUSH1 0x1 DUP1 PUSH1 0xA0 SHL SUB PUSH1 0x0 SLOAD AND CALLER EQ PUSH2 0x1F35 JUMP JUMPDEST DUP1 PUSH1 0xC SSTORE PUSH1 0x40 MLOAD SWAP1 DUP2 MSTORE LOG1 STOP JUMPDEST CALLVALUE PUSH2 0x277 JUMPI PUSH1 0x20 CALLDATASIZE PUSH1 0x3 NOT ADD SLT PUSH2 0x277 JUMPI PUSH1 0x1 PUSH1 0x1 PUSH1 0xA0 SHL SUB PUSH2 0x1985 PUSH2 0x1E84 JUMP JUMPDEST AND PUSH1 0x0 MSTORE PUSH1 0x8 PUSH1 0x20 MSTORE PUSH1 0x20 PUSH1 0x40 PUSH1 0x0 KECCAK256 SLOAD PUSH1 0x40 MLOAD SWAP1 DUP2 MSTORE RETURN JUMPDEST CALLVALUE PUSH2 0x277 JUMPI PUSH1 0x0 CALLDATASIZE PUSH1 0x3 NOT ADD SLT PUSH2 0x277 JUMPI PUSH1 0x20 PUSH1 0xA SLOAD PUSH1 0x40 MLOAD SWAP1 DUP2 MSTORE RETURN JUMPDEST CALLVALUE PUSH2 0x277 JUMPI PUSH1 0x40 CALLDATASIZE PUSH1 0x3 NOT ADD SLT PUSH2 0x277 JUMPI PUSH1 0x4 CALLDATALOAD PUSH1 0x24 CALLDATALOAD SWAP1 PUSH2 0x19E9 PUSH1 0x1 DUP1 PUSH1 0xA0 SHL SUB PUSH1 0x0 SLOAD AND CALLER EQ PUSH2 0x1F35 JUMP JUMPDEST PUSH2 0x19F8 PUSH1 0xFF PUSH1 0x3 SLOAD AND ISZERO PUSH2 0x1FDA JUMP JUMPDEST PUSH2 0x1A03 CALLER EXTCODESIZE ISZERO PUSH2 0x254D JUMP JUMPDEST PUSH2 0x1A0E ORIGIN CALLER EQ PUSH2 0x2591 JUMP JUMPDEST PUSH1 0x9 DUP1 SLOAD PUSH2 0x1A1E PUSH2 0x695 DUP3 PUSH2 0x1F80 JUMP JUMPDEST DUP3 PUSH2 0x1ACB JUMPI JUMPDEST POP DUP3 PUSH2 0x1A60 JUMPI JUMPDEST SLOAD SWAP2 PUSH1 0x40 MLOAD SWAP2 DUP3 MSTORE PUSH1 0x20 DUP3 ADD MSTORE PUSH32 0xE3B9E415C1EC5664BAC5576F8AC4B84CACF237C6E9635809C8BC6D3FB6FD0A84 PUSH1 0x40 ADDRESS SWAP3 LOG3 STOP JUMPDEST DUP1 SLOAD PUSH1 0x0 MSTORE PUSH1 0x5 PUSH1 0x20 MSTORE PUSH1 0x2 PUSH1 0x40 PUSH1 0x0 KECCAK256 ADD PUSH2 0x1A7D DUP5 DUP3 SLOAD PUSH2 0x206B JUMP JUMPDEST SWAP1 SSTORE DUP1 SLOAD PUSH1 0x0 MSTORE PUSH1 0x6 PUSH1 0x20 MSTORE PUSH1 0x40 PUSH1 0x0 KECCAK256 ADDRESS PUSH1 0x0 MSTORE PUSH1 0x20 MSTORE PUSH1 0x40 PUSH1 0x0 KECCAK256 PUSH1 0x1 PUSH1 0xFF NOT DUP3 SLOAD AND OR DUP2 SSTORE DUP4 PUSH1 0x3 DUP3 ADD SSTORE PUSH1 0x1 TIMESTAMP SWAP2 ADD SSTORE PUSH1 0x8 PUSH1 0x20 MSTORE PUSH2 0x1AC6 PUSH1 0x40 PUSH1 0x0 KECCAK256 DUP3 SLOAD SWAP1 PUSH2 0x261E JUMP JUMPDEST PUSH2 0x1A2B JUMP JUMPDEST PUSH1 0x0 MSTORE PUSH1 0x5 PUSH1 0x20 MSTORE PUSH1 0x1 PUSH1 0x40 PUSH1 0x0 KECCAK256 ADD PUSH2 0x1AE6 DUP4 DUP3 SLOAD PUSH2 0x206B JUMP JUMPDEST SWAP1 SSTORE DUP1 SLOAD PUSH1 0x0 MSTORE PUSH1 0x6 PUSH1 0x20 MSTORE PUSH1 0x40 PUSH1 0x0 KECCAK256 ADDRESS PUSH1 0x0 MSTORE PUSH1 0x20 MSTORE PUSH1 0x40 PUSH1 0x0 KECCAK256 PUSH1 0xFF NOT DUP2 SLOAD AND DUP2 SSTORE DUP3 PUSH1 0x3 DUP3 ADD SSTORE PUSH1 0x1 TIMESTAMP SWAP2 ADD SSTORE PUSH1 0x8 PUSH1 0x20 MSTORE PUSH2 0x1B2C PUSH1 0x40 PUSH1 0x0 KECCAK256 DUP3 SLOAD SWAP1 PUSH2 0x261E JUMP JUMPDEST DUP4 PUSH2 0x1A24 JUMP JUMPDEST CALLVALUE PUSH2 0x277 JUMPI PUSH1 0x0 CALLDATASIZE PUSH1 0x3 NOT ADD SLT PUSH2 0x277 JUMPI PUSH2 0x1B58 PUSH1 0x1 DUP1 PUSH1 0xA0 SHL SUB PUSH1 0x0 SLOAD AND CALLER EQ PUSH2 0x1F35 JUMP JUMPDEST PUSH1 0xFF PUSH1 0x3 SLOAD AND ISZERO PUSH2 0x1B68 DUP2 PUSH2 0x1FDA JUMP JUMPDEST PUSH1 0xFF PUSH1 0xF SLOAD AND PUSH2 0x1C5D JUMPI PUSH2 0x1B8A PUSH2 0x1B80 PUSH1 0x9 SLOAD PUSH2 0x205C JUMP JUMPDEST SWAP2 DUP3 PUSH1 0x9 SSTORE PUSH2 0x1FDA JUMP JUMPDEST DUP1 PUSH1 0x0 MSTORE PUSH1 0x5 PUSH1 0x20 MSTORE PUSH1 0x40 PUSH1 0x0 KECCAK256 PUSH4 0xFFFFFFFF TIMESTAMP AND PUSH1 0x9 DUP3 ADD SWAP2 DUP3 SLOAD SWAP2 DUP1 PUSH4 0xFFFFFFFF NOT DUP5 AND OR DUP5 SSTORE PUSH8 0xFFFFFFFF00000000 PUSH2 0x1BC8 PUSH1 0xC SLOAD TIMESTAMP PUSH2 0x206B JUMP JUMPDEST PUSH1 0x20 SHL AND SWAP1 DUP2 DUP2 PUSH8 0xFFFFFFFFFFFFFFFF NOT DUP7 AND OR OR DUP6 SSTORE PUSH1 0xC SLOAD PUSH1 0x1 DUP1 PUSH1 0xFF SHL SUB DUP2 AND DUP2 SUB PUSH2 0xB00 JUMPI PUSH4 0xFFFFFFFF PUSH1 0x40 SHL PUSH2 0x1C07 DUP9 SWAP3 PUSH1 0x1 SHL TIMESTAMP PUSH2 0x206B JUMP JUMPDEST PUSH1 0x40 SHL AND SWAP4 SSTORE PUSH1 0x1 PUSH1 0x60 SHL SWAP4 PUSH13 0xFFFFFFFFFFFFFFFFFFFFFFFFFF NOT AND OR OR OR OR SWAP1 SSTORE PUSH32 0x33A701182892FD888ED152CA2AC23771A32E814469B7CD255965471E1AF3A659 PUSH1 0x0 DUP1 LOG2 PUSH1 0xF DUP1 SLOAD PUSH1 0xFF NOT AND PUSH1 0x1 OR SWAP1 SSTORE STOP JUMPDEST PUSH1 0x64 PUSH1 0x40 MLOAD PUSH3 0x461BCD PUSH1 0xE5 SHL DUP2 MSTORE PUSH1 0x20 PUSH1 0x4 DUP3 ADD MSTORE PUSH1 0x20 PUSH1 0x24 DUP3 ADD MSTORE PUSH32 0x53746172742066756E6374696F6E2063616E206F6E6C792072756E206F6E6365 PUSH1 0x44 DUP3 ADD MSTORE REVERT JUMPDEST CALLVALUE PUSH2 0x277 JUMPI PUSH1 0x20 CALLDATASIZE PUSH1 0x3 NOT ADD SLT PUSH2 0x277 JUMPI PUSH2 0x1CC7 PUSH1 0x1 DUP1 PUSH1 0xA0 SHL SUB PUSH1 0x0 SLOAD AND CALLER EQ PUSH2 0x1F35 JUMP JUMPDEST PUSH1 0x4 CALLDATALOAD PUSH1 0xB SSTORE STOP JUMPDEST CALLVALUE PUSH2 0x277 JUMPI PUSH1 0x0 CALLDATASIZE PUSH1 0x3 NOT ADD SLT PUSH2 0x277 JUMPI PUSH1 0x20 PUSH1 0x10 SLOAD PUSH1 0x40 MLOAD SWAP1 DUP2 MSTORE RETURN JUMPDEST CALLVALUE PUSH2 0x277 JUMPI PUSH1 0x0 CALLDATASIZE PUSH1 0x3 NOT ADD SLT PUSH2 0x277 JUMPI PUSH1 0x20 SELFBALANCE PUSH1 0x40 MLOAD SWAP1 DUP2 MSTORE RETURN JUMPDEST CALLVALUE PUSH2 0x277 JUMPI PUSH1 0x0 CALLDATASIZE PUSH1 0x3 NOT ADD SLT PUSH2 0x277 JUMPI PUSH1 0x3 SLOAD PUSH1 0xFF AND PUSH2 0x1DC0 JUMPI PUSH1 0x9 PUSH2 0x1D34 DUP2 SLOAD PUSH1 0xA SLOAD SWAP1 PUSH2 0x20A2 JUMP JUMPDEST DUP1 SLOAD PUSH1 0x0 NOT SWAP1 DUP2 DUP2 ADD SWAP1 DUP2 GT PUSH2 0xB00 JUMPI PUSH1 0xA SLOAD PUSH2 0x1D50 SWAP2 PUSH2 0x226C JUMP JUMPDEST DUP2 SLOAD SWAP1 DUP2 ADD SWAP1 DUP2 GT PUSH2 0xB00 JUMPI PUSH2 0x1D65 SWAP1 PUSH2 0x23CA JUMP JUMPDEST PUSH2 0x1D6F DUP2 SLOAD PUSH2 0x205C JUMP JUMPDEST SWAP1 DUP2 DUP2 SSTORE PUSH2 0x1D82 PUSH1 0xFF PUSH1 0x3 SLOAD AND ISZERO PUSH2 0x1FDA JUMP JUMPDEST DUP2 PUSH1 0x0 MSTORE PUSH1 0x5 PUSH1 0x20 MSTORE PUSH1 0x40 PUSH1 0x0 KECCAK256 SWAP1 PUSH4 0xFFFFFFFF TIMESTAMP AND SWAP1 DUP3 ADD SWAP2 DUP3 SLOAD SWAP2 DUP1 PUSH4 0xFFFFFFFF NOT DUP5 AND OR DUP5 SSTORE PUSH8 0xFFFFFFFF00000000 PUSH2 0xA78 PUSH1 0xC SLOAD TIMESTAMP PUSH2 0x206B JUMP JUMPDEST PUSH2 0x1DCF PUSH1 0x9 SLOAD PUSH1 0xA SLOAD SWAP1 PUSH2 0x20A2 JUMP JUMPDEST PUSH1 0x9 SLOAD PUSH1 0x0 NOT SWAP1 DUP2 DUP2 ADD DUP2 DUP2 GT PUSH2 0xB00 JUMPI PUSH1 0x0 MSTORE PUSH1 0x5 PUSH1 0x20 MSTORE PUSH1 0xFF PUSH1 0x9 PUSH1 0x40 PUSH1 0x0 KECCAK256 ADD SLOAD PUSH1 0x70 SHR AND ISZERO PUSH1 0x0 EQ PUSH2 0x1E2F JUMPI POP PUSH1 0x9 SLOAD DUP2 DUP2 ADD SWAP1 DUP2 GT PUSH2 0xB00 JUMPI PUSH1 0xA SLOAD PUSH2 0x1E19 SWAP2 PUSH2 0x226C JUMP JUMPDEST PUSH1 0x9 SLOAD SWAP1 DUP2 ADD SWAP1 DUP2 GT PUSH2 0xB00 JUMPI PUSH2 0x1B SWAP1 PUSH2 0x23CA JUMP JUMPDEST PUSH1 0xA SLOAD PUSH2 0x1E3B SWAP2 PUSH2 0x226C JUMP JUMPDEST PUSH2 0x1E19 JUMP JUMPDEST CALLVALUE PUSH2 0x277 JUMPI PUSH1 0x0 CALLDATASIZE PUSH1 0x3 NOT ADD SLT PUSH2 0x277 JUMPI PUSH1 0x1 SLOAD PUSH1 0x40 MLOAD PUSH1 0x1 PUSH1 0x1 PUSH1 0xA0 SHL SUB SWAP1 SWAP2 AND DUP2 MSTORE PUSH1 0x20 SWAP1 RETURN JUMPDEST CALLVALUE PUSH2 0x277 JUMPI PUSH1 0x0 CALLDATASIZE PUSH1 0x3 NOT ADD SLT PUSH2 0x277 JUMPI PUSH1 0x20 SWAP1 PUSH1 0xA SLOAD DUP2 MSTORE RETURN JUMPDEST PUSH1 0x4 CALLDATALOAD SWAP1 PUSH1 0x1 PUSH1 0x1 PUSH1 0xA0 SHL SUB DUP3 AND DUP3 SUB PUSH2 0x277 JUMPI JUMP JUMPDEST PUSH1 0x24 CALLDATALOAD SWAP1 PUSH1 0x1 PUSH1 0x1 PUSH1 0xA0 SHL SUB DUP3 AND DUP3 SUB PUSH2 0x277 JUMPI JUMP JUMPDEST SWAP1 PUSH1 0x2 DUP3 LT ISZERO PUSH2 0x1EBD JUMPI MSTORE JUMP JUMPDEST PUSH4 0x4E487B71 PUSH1 0xE0 SHL PUSH1 0x0 MSTORE PUSH1 0x21 PUSH1 0x4 MSTORE PUSH1 0x24 PUSH1 0x0 REVERT JUMPDEST SWAP1 DUP2 MLOAD DUP1 DUP3 MSTORE PUSH1 0x20 DUP1 DUP1 SWAP4 ADD SWAP4 ADD SWAP2 PUSH1 0x0 JUMPDEST DUP3 DUP2 LT PUSH2 0x1EF3 JUMPI POP POP POP POP SWAP1 JUMP JUMPDEST DUP4 MLOAD DUP6 MSTORE SWAP4 DUP2 ADD SWAP4 SWAP3 DUP2 ADD SWAP3 PUSH1 0x1 ADD PUSH2 0x1EE5 JUMP JUMPDEST DUP1 SLOAD DUP3 LT ISZERO PUSH2 0x1F1F JUMPI PUSH1 0x0 MSTORE PUSH1 0x20 PUSH1 0x0 KECCAK256 ADD SWAP1 PUSH1 0x0 SWAP1 JUMP JUMPDEST PUSH4 0x4E487B71 PUSH1 0xE0 SHL PUSH1 0x0 MSTORE PUSH1 0x32 PUSH1 0x4 MSTORE PUSH1 0x24 PUSH1 0x0 REVERT JUMPDEST ISZERO PUSH2 0x1F3C JUMPI JUMP JUMPDEST PUSH1 0x64 PUSH1 0x40 MLOAD PUSH3 0x461BCD PUSH1 0xE5 SHL DUP2 MSTORE PUSH1 0x20 PUSH1 0x4 DUP3 ADD MSTORE PUSH1 0x20 PUSH1 0x24 DUP3 ADD MSTORE PUSH32 0x4F776E61626C653A2063616C6C6572206973206E6F7420746865206F776E6572 PUSH1 0x44 DUP3 ADD MSTORE REVERT JUMPDEST PUSH1 0x0 MSTORE PUSH1 0x5 PUSH1 0x20 MSTORE PUSH1 0x9 PUSH1 0x40 PUSH1 0x0 KECCAK256 ADD SLOAD PUSH4 0xFFFFFFFF DUP1 DUP3 AND SWAP2 DUP3 ISZERO ISZERO SWAP3 DUP4 PUSH2 0x1FCA JUMPI JUMPDEST DUP4 PUSH2 0x1FC0 JUMPI JUMPDEST POP DUP3 PUSH2 0x1FB5 JUMPI POP POP SWAP1 JUMP JUMPDEST PUSH1 0x20 SHR AND TIMESTAMP LT SWAP2 SWAP1 POP JUMP JUMPDEST TIMESTAMP GT SWAP3 POP CODESIZE PUSH2 0x1FAA JUMP JUMPDEST SWAP3 POP DUP2 DUP2 PUSH1 0x20 SHR AND ISZERO ISZERO SWAP3 PUSH2 0x1FA4 JUMP JUMPDEST ISZERO PUSH2 0x1FE1 JUMPI JUMP JUMPDEST PUSH1 0x40 MLOAD PUSH3 0x461BCD PUSH1 0xE5 SHL DUP2 MSTORE PUSH1 0x20 PUSH1 0x4 DUP3 ADD MSTORE PUSH1 0x10 PUSH1 0x24 DUP3 ADD MSTORE PUSH16 0x14185D5CD8589B194E881C185D5CD959 PUSH1 0x82 SHL PUSH1 0x44 DUP3 ADD MSTORE PUSH1 0x64 SWAP1 REVERT JUMPDEST ISZERO PUSH2 0x2020 JUMPI JUMP JUMPDEST PUSH1 0x40 MLOAD PUSH3 0x461BCD PUSH1 0xE5 SHL DUP2 MSTORE PUSH1 0x20 PUSH1 0x4 DUP3 ADD MSTORE PUSH1 0x14 PUSH1 0x24 DUP3 ADD MSTORE PUSH20 0x14185D5CD8589B194E881B9BDD081C185D5CD959 PUSH1 0x62 SHL PUSH1 0x44 DUP3 ADD MSTORE PUSH1 0x64 SWAP1 REVERT JUMPDEST PUSH1 0x0 NOT DUP2 EQ PUSH2 0xB00 JUMPI PUSH1 0x1 ADD SWAP1 JUMP JUMPDEST SWAP2 SWAP1 DUP3 ADD DUP1 SWAP3 GT PUSH2 0xB00 JUMPI JUMP JUMPDEST SWAP1 PUSH2 0x3E8 SWAP2 DUP3 DUP2 MUL SWAP3 DUP2 DUP5 DIV EQ SWAP1 ISZERO OR ISZERO PUSH2 0xB00 JUMPI JUMP JUMPDEST DUP2 DUP2 MUL SWAP3 SWAP2 DUP2 ISZERO SWAP2 DUP5 DIV EQ OR ISZERO PUSH2 0xB00 JUMPI JUMP JUMPDEST SWAP2 SWAP1 SWAP2 PUSH1 0x0 SWAP3 DUP2 DUP5 MSTORE PUSH1 0x20 SWAP1 PUSH1 0x5 DUP3 MSTORE PUSH1 0x40 SWAP5 PUSH1 0x9 DUP7 DUP3 KECCAK256 ADD SLOAD PUSH1 0xFF DUP2 PUSH1 0x68 SHR AND ISZERO PUSH1 0x0 EQ PUSH2 0x2256 JUMPI PUSH4 0xFFFFFFFF DUP1 SWAP2 AND ISZERO PUSH2 0x21FE JUMPI DUP5 DUP3 MSTORE PUSH1 0x5 DUP5 MSTORE DUP1 PUSH1 0x9 DUP9 DUP5 KECCAK256 ADD SLOAD DUP6 SHR AND TIMESTAMP LT PUSH2 0x21A9 JUMPI DUP5 DUP3 MSTORE PUSH1 0x5 DUP5 MSTORE PUSH1 0x9 DUP8 DUP4 KECCAK256 ADD SLOAD DUP8 SHR AND TIMESTAMP GT PUSH2 0x215A JUMPI DUP4 DUP2 MSTORE PUSH1 0x5 DUP4 MSTORE DUP6 SWAP1 KECCAK256 PUSH1 0x7 DUP2 ADD DUP3 SWAP1 SSTORE PUSH1 0x9 ADD DUP1 SLOAD PUSH1 0xFF PUSH1 0x68 SHL NOT AND PUSH1 0x1 PUSH1 0x68 SHL OR SWAP1 SSTORE SWAP4 MLOAD SWAP4 DUP5 MSTORE SWAP2 SWAP3 SWAP1 SWAP2 PUSH32 0x1BAA8618187C16370C93561B721A291ED3182B22390099D67E81167F97FBDD3A SWAP2 LOG2 JUMP JUMPDEST DUP6 MLOAD PUSH3 0x461BCD PUSH1 0xE5 SHL DUP2 MSTORE PUSH1 0x4 DUP2 ADD DUP5 SWAP1 MSTORE PUSH1 0x22 PUSH1 0x24 DUP3 ADD MSTORE PUSH32 0x43616E206F6E6C79206C6F636B206265666F726520656E642074696D65737461 PUSH1 0x44 DUP3 ADD MSTORE PUSH2 0x6D7 PUSH1 0xF4 SHL PUSH1 0x64 DUP3 ADD MSTORE PUSH1 0x84 SWAP1 REVERT JUMPDEST DUP7 MLOAD PUSH3 0x461BCD PUSH1 0xE5 SHL DUP2 MSTORE PUSH1 0x4 DUP2 ADD DUP6 SWAP1 MSTORE PUSH1 0x28 PUSH1 0x24 DUP3 ADD MSTORE PUSH32 0x43616E206F6E6C79206C6F636B20726F756E64206166746572206C6F636B2074 PUSH1 0x44 DUP3 ADD MSTORE PUSH8 0x696D657374616D7 PUSH1 0xC4 SHL PUSH1 0x64 DUP3 ADD MSTORE PUSH1 0x84 SWAP1 REVERT JUMPDEST DUP7 MLOAD PUSH3 0x461BCD PUSH1 0xE5 SHL DUP2 MSTORE PUSH1 0x4 DUP2 ADD DUP6 SWAP1 MSTORE PUSH1 0x2B PUSH1 0x24 DUP3 ADD MSTORE PUSH32 0x43616E206F6E6C79206C6F636B20726F756E6420616674657220726F756E6420 PUSH1 0x44 DUP3 ADD MSTORE PUSH11 0x1A185CC81CDD185C9D1959 PUSH1 0xAA SHL PUSH1 0x64 DUP3 ADD MSTORE PUSH1 0x84 SWAP1 REVERT JUMPDEST POP POP POP POP POP SWAP1 POP JUMP JUMPDEST SWAP2 SWAP1 DUP3 SUB SWAP2 DUP3 GT PUSH2 0xB00 JUMPI JUMP JUMPDEST SWAP2 SWAP1 SWAP2 PUSH1 0x0 SWAP3 DUP2 DUP5 MSTORE PUSH1 0x20 SWAP1 PUSH1 0x5 DUP3 MSTORE PUSH4 0xFFFFFFFF SWAP5 PUSH1 0x40 SWAP6 DUP1 PUSH1 0x9 DUP9 DUP5 KECCAK256 ADD SLOAD DUP6 SHR AND ISZERO PUSH2 0x2354 JUMPI DUP5 DUP3 MSTORE PUSH1 0x5 DUP5 MSTORE PUSH1 0x9 DUP8 DUP4 KECCAK256 ADD SLOAD DUP8 SHR AND TIMESTAMP LT PUSH2 0x22FF JUMPI DUP4 DUP2 MSTORE PUSH1 0x5 DUP4 MSTORE DUP6 SWAP1 KECCAK256 PUSH1 0x8 DUP2 ADD DUP3 SWAP1 SSTORE PUSH1 0x9 ADD DUP1 SLOAD PUSH1 0xFF PUSH1 0x70 SHL NOT AND PUSH1 0x1 PUSH1 0x70 SHL OR SWAP1 SSTORE SWAP4 MLOAD SWAP4 DUP5 MSTORE SWAP2 SWAP3 SWAP1 SWAP2 PUSH32 0x8868888CC18628A149BC88CC32A91976AB30E2CD9AECECB0CFE184A73FE551F9 SWAP2 LOG2 JUMP JUMPDEST DUP6 MLOAD PUSH3 0x461BCD PUSH1 0xE5 SHL DUP2 MSTORE PUSH1 0x4 DUP2 ADD DUP5 SWAP1 MSTORE PUSH1 0x28 PUSH1 0x24 DUP3 ADD MSTORE PUSH32 0x43616E206F6E6C7920656E6420726F756E6420616674657220636C6F73652074 PUSH1 0x44 DUP3 ADD MSTORE PUSH8 0x696D657374616D7 PUSH1 0xC4 SHL PUSH1 0x64 DUP3 ADD MSTORE PUSH1 0x84 SWAP1 REVERT JUMPDEST DUP7 MLOAD PUSH3 0x461BCD PUSH1 0xE5 SHL DUP2 MSTORE PUSH1 0x4 DUP2 ADD DUP6 SWAP1 MSTORE PUSH1 0x29 PUSH1 0x24 DUP3 ADD MSTORE PUSH32 0x43616E206F6E6C7920656E6420726F756E6420616674657220726F756E642068 PUSH1 0x44 DUP3 ADD MSTORE PUSH9 0x185CC81B1BD8DAD959 PUSH1 0xBA SHL PUSH1 0x64 DUP3 ADD MSTORE PUSH1 0x84 SWAP1 REVERT JUMPDEST DUP2 ISZERO PUSH2 0x23B4 JUMPI DIV SWAP1 JUMP JUMPDEST PUSH4 0x4E487B71 PUSH1 0xE0 SHL PUSH1 0x0 MSTORE PUSH1 0x12 PUSH1 0x4 MSTORE PUSH1 0x24 PUSH1 0x0 REVERT JUMPDEST PUSH1 0x1 DUP1 PUSH1 0xA0 SHL SUB PUSH1 0x1 SLOAD AND PUSH1 0x0 SWAP2 DUP1 DUP4 MSTORE PUSH1 0x5 PUSH1 0x20 MSTORE PUSH1 0x40 DUP4 KECCAK256 PUSH1 0x3 DUP2 ADD SLOAD ISZERO SWAP1 DUP2 PUSH2 0x2540 JUMPI JUMPDEST POP ISZERO PUSH2 0x24FB JUMPI DUP3 MSTORE PUSH1 0x5 PUSH1 0x20 MSTORE PUSH1 0x40 DUP3 KECCAK256 SWAP1 DUP3 DUP1 SWAP2 PUSH1 0x1 DUP5 ADD DUP1 SLOAD SWAP4 PUSH1 0x2 DUP7 ADD SWAP7 DUP8 SLOAD PUSH2 0x241E DUP2 DUP9 PUSH2 0x206B JUMP JUMPDEST PUSH1 0x8 DUP10 ADD SLOAD PUSH1 0x7 DUP11 ADD SLOAD SWAP2 SWAP9 SWAP2 GT DUP1 PUSH2 0x2493 JUMPI POP POP POP POP POP PUSH2 0x2447 PUSH1 0x64 SWAP2 SLOAD SWAP5 PUSH1 0xB SLOAD SWAP1 PUSH2 0x208F JUMP JUMPDEST DIV SWAP5 DUP4 ISZERO PUSH2 0x2461 JUMPI JUMPDEST POP POP POP SWAP1 PUSH1 0x4 SWAP2 JUMPDEST PUSH1 0x3 DUP3 ADD SSTORE ADD SSTORE JUMP JUMPDEST DUP3 DUP1 DUP1 SWAP4 DUP2 SWAP4 SLOAD SWAP1 DUP3 DUP3 ISZERO PUSH2 0x248A JUMPI JUMPDEST CALL ISZERO PUSH2 0x247E JUMPI DUP1 DUP1 PUSH2 0x2450 JUMP JUMPDEST PUSH1 0x40 MLOAD SWAP1 RETURNDATASIZE SWAP1 DUP3 RETURNDATACOPY RETURNDATASIZE SWAP1 REVERT JUMPDEST POP PUSH2 0x8FC PUSH2 0x2471 JUMP JUMPDEST SWAP2 SWAP7 SWAP5 POP SWAP3 SWAP9 POP SWAP6 SWAP4 SWAP1 SWAP6 PUSH2 0x24B1 JUMPI JUMPDEST POP POP POP POP POP SWAP1 PUSH1 0x4 SWAP2 PUSH2 0x2458 JUMP JUMPDEST SWAP2 SWAP4 SWAP7 POP SWAP2 SWAP4 POP PUSH1 0x64 PUSH2 0x24C8 DUP8 SWAP6 PUSH1 0xB SLOAD SWAP1 PUSH2 0x208F JUMP JUMPDEST DIV SWAP6 ISZERO PUSH2 0x24D7 JUMPI JUMPDEST DUP1 DUP1 PUSH2 0x24A3 JUMP JUMPDEST DUP3 DUP1 DUP1 SWAP4 DUP2 SWAP4 DUP3 DUP3 ISZERO PUSH2 0x24F2 JUMPI JUMPDEST CALL ISZERO PUSH2 0x247E JUMPI DUP1 DUP1 PUSH2 0x24D0 JUMP JUMPDEST POP PUSH2 0x8FC PUSH2 0x24E5 JUMP JUMPDEST PUSH1 0x40 MLOAD PUSH3 0x461BCD PUSH1 0xE5 SHL DUP2 MSTORE PUSH1 0x20 PUSH1 0x4 DUP3 ADD MSTORE PUSH1 0x1A PUSH1 0x24 DUP3 ADD MSTORE PUSH32 0x526577617264732063616C63756C6174656420616C7265616479000000000000 PUSH1 0x44 DUP3 ADD MSTORE PUSH1 0x64 SWAP1 REVERT JUMPDEST PUSH1 0x4 SWAP2 POP ADD SLOAD ISZERO CODESIZE PUSH2 0x23F1 JUMP JUMPDEST ISZERO PUSH2 0x2554 JUMPI JUMP JUMPDEST PUSH1 0x40 MLOAD PUSH3 0x461BCD PUSH1 0xE5 SHL DUP2 MSTORE PUSH1 0x20 PUSH1 0x4 DUP3 ADD MSTORE PUSH1 0x15 PUSH1 0x24 DUP3 ADD MSTORE PUSH21 0x10DBDB9D1C9858DD1CC81B9BDD08185B1B1BDDD959 PUSH1 0x5A SHL PUSH1 0x44 DUP3 ADD MSTORE PUSH1 0x64 SWAP1 REVERT JUMPDEST ISZERO PUSH2 0x2598 JUMPI JUMP JUMPDEST PUSH1 0x40 MLOAD PUSH3 0x461BCD PUSH1 0xE5 SHL DUP2 MSTORE PUSH1 0x20 PUSH1 0x4 DUP3 ADD MSTORE PUSH1 0x1B PUSH1 0x24 DUP3 ADD MSTORE PUSH32 0x50726F787920636F6E747261637473206E6F7420616C6C6F7765640000000000 PUSH1 0x44 DUP3 ADD MSTORE PUSH1 0x64 SWAP1 REVERT JUMPDEST ISZERO PUSH2 0x25E4 JUMPI JUMP JUMPDEST PUSH1 0x40 MLOAD PUSH3 0x461BCD PUSH1 0xE5 SHL DUP2 MSTORE PUSH1 0x20 PUSH1 0x4 DUP3 ADD MSTORE PUSH1 0x12 PUSH1 0x24 DUP3 ADD MSTORE PUSH18 0x526F756E64206E6F74206265747461626C65 PUSH1 0x70 SHL PUSH1 0x44 DUP3 ADD MSTORE PUSH1 0x64 SWAP1 REVERT JUMPDEST DUP1 SLOAD PUSH1 0x1 PUSH1 0x40 SHL DUP2 LT ISZERO PUSH2 0x2653 JUMPI PUSH2 0x263B SWAP2 PUSH1 0x1 DUP3 ADD DUP2 SSTORE PUSH2 0x1F07 JUMP JUMPDEST DUP2 SWAP3 SWAP2 SLOAD SWAP1 PUSH1 0x3 SHL SWAP2 DUP3 SHL SWAP2 PUSH1 0x0 NOT SWAP1 SHL NOT AND OR SWAP1 SSTORE JUMP JUMPDEST PUSH4 0x4E487B71 PUSH1 0xE0 SHL PUSH1 0x0 MSTORE PUSH1 0x41 PUSH1 0x4 MSTORE PUSH1 0x24 PUSH1 0x0 REVERT JUMPDEST ISZERO PUSH2 0x2670 JUMPI JUMP JUMPDEST PUSH1 0x40 MLOAD PUSH3 0x461BCD PUSH1 0xE5 SHL DUP2 MSTORE PUSH1 0x20 PUSH1 0x4 DUP3 ADD MSTORE PUSH1 0x1F PUSH1 0x24 DUP3 ADD MSTORE PUSH32 0x5265656E7472616E637947756172643A207265656E7472616E742063616C6C00 PUSH1 0x44 DUP3 ADD MSTORE PUSH1 0x64 SWAP1 REVERT JUMPDEST ISZERO PUSH2 0x26BC JUMPI JUMP JUMPDEST PUSH1 0x40 MLOAD PUSH3 0x461BCD PUSH1 0xE5 SHL DUP2 MSTORE PUSH1 0x20 PUSH1 0x4 DUP3 ADD MSTORE PUSH1 0x15 PUSH1 0x24 DUP3 ADD MSTORE PUSH21 0x42657420697320746F6F206561726C792F6C617465 PUSH1 0x58 SHL PUSH1 0x44 DUP3 ADD MSTORE PUSH1 0x64 SWAP1 REVERT JUMPDEST ISZERO PUSH2 0x2700 JUMPI JUMP JUMPDEST PUSH1 0x40 MLOAD PUSH3 0x461BCD PUSH1 0xE5 SHL DUP2 MSTORE PUSH1 0x20 PUSH1 0x4 DUP3 ADD MSTORE PUSH1 0x2E PUSH1 0x24 DUP3 ADD MSTORE PUSH32 0x42657420616D6F756E74206D7573742062652067726561746572207468616E20 PUSH1 0x44 DUP3 ADD MSTORE PUSH14 0x1B5A5B9A5B5D5B48185B5BDD5B9D PUSH1 0x92 SHL PUSH1 0x64 DUP3 ADD MSTORE PUSH1 0x84 SWAP1 REVERT JUMPDEST ISZERO PUSH2 0x2763 JUMPI JUMP JUMPDEST PUSH1 0x40 MLOAD PUSH3 0x461BCD PUSH1 0xE5 SHL DUP2 MSTORE PUSH1 0x20 PUSH1 0x4 DUP3 ADD MSTORE PUSH1 0x1B PUSH1 0x24 DUP3 ADD MSTORE PUSH32 0x43616E206F6E6C7920626574206F6E63652070657220726F756E640000000000 PUSH1 0x44 DUP3 ADD MSTORE PUSH1 0x64 SWAP1 REVERT JUMPDEST PUSH1 0xA0 DUP2 ADD SWAP1 DUP2 LT PUSH8 0xFFFFFFFFFFFFFFFF DUP3 GT OR PUSH2 0x2653 JUMPI PUSH1 0x40 MSTORE JUMP JUMPDEST PUSH2 0x260 DUP2 ADD SWAP1 DUP2 LT PUSH8 0xFFFFFFFFFFFFFFFF DUP3 GT OR PUSH2 0x2653 JUMPI PUSH1 0x40 MSTORE JUMP JUMPDEST PUSH1 0x80 DUP2 ADD SWAP1 DUP2 LT PUSH8 0xFFFFFFFFFFFFFFFF DUP3 GT OR PUSH2 0x2653 JUMPI PUSH1 0x40 MSTORE JUMP JUMPDEST SWAP1 PUSH1 0x1F DUP1 NOT SWAP2 ADD AND DUP2 ADD SWAP1 DUP2 LT PUSH8 0xFFFFFFFFFFFFFFFF DUP3 GT OR PUSH2 0x2653 JUMPI PUSH1 0x40 MSTORE JUMP JUMPDEST PUSH1 0x40 MLOAD SWAP1 PUSH2 0x282C DUP3 PUSH2 0x27E1 JUMP JUMPDEST PUSH1 0x0 PUSH1 0x60 DUP4 DUP3 DUP2 MSTORE DUP3 PUSH1 0x20 DUP3 ADD MSTORE DUP3 PUSH1 0x40 DUP3 ADD MSTORE ADD MSTORE JUMP JUMPDEST PUSH1 0x2 DUP3 LT ISZERO PUSH2 0x1EBD JUMPI MSTORE JUMP JUMPDEST DUP1 SLOAD SWAP1 PUSH1 0x1 PUSH1 0x40 SHL DUP3 LT ISZERO PUSH2 0x2653 JUMPI PUSH1 0x1 DUP3 ADD DUP1 DUP3 SSTORE DUP3 LT ISZERO PUSH2 0x1F1F JUMPI PUSH1 0x0 MSTORE PUSH1 0x3 PUSH1 0x20 PUSH1 0x0 KECCAK256 SWAP2 MUL ADD SWAP1 PUSH1 0x1 DUP1 PUSH1 0xA0 SHL SUB DUP2 MLOAD AND SWAP1 DUP3 SLOAD SWAP1 PUSH1 0x20 DUP2 ADD MLOAD SWAP2 PUSH1 0x2 DUP4 LT ISZERO PUSH2 0x1EBD JUMPI PUSH1 0x1 PUSH1 0x1 PUSH1 0xA8 SHL SUB NOT AND SWAP1 SWAP3 OR PUSH1 0xA0 SWAP2 SWAP1 SWAP2 SHL PUSH1 0xFF PUSH1 0xA0 SHL AND OR DUP3 SSTORE PUSH1 0x40 DUP2 ADD MLOAD PUSH1 0x1 DUP4 ADD SSTORE PUSH1 0x60 ADD MLOAD PUSH1 0x2 SWAP2 SWAP1 SWAP2 ADD SSTORE JUMP JUMPDEST SWAP1 DUP2 PUSH1 0x0 MSTORE PUSH1 0x5 PUSH1 0x20 MSTORE PUSH1 0xB PUSH1 0x40 PUSH1 0x0 KECCAK256 PUSH2 0x2913 PUSH2 0x290E PUSH1 0x2 DUP4 ADD SLOAD PUSH2 0x2909 PUSH2 0x28F9 PUSH1 0x1 DUP7 ADD SLOAD DUP1 SWAP4 PUSH2 0x206B JUMP JUMPDEST SWAP2 PUSH2 0x2909 PUSH1 0x5 DUP8 ADD SLOAD SWAP4 DUP5 PUSH2 0x208F JUMP JUMPDEST PUSH2 0x23AA JUMP JUMPDEST PUSH2 0x2078 JUMP JUMPDEST PUSH1 0xA DUP3 ADD SSTORE ADD SLOAD PUSH2 0x2922 JUMPI POP POP JUMP JUMPDEST PUSH2 0x292B SWAP2 PUSH2 0x292D JUMP JUMPDEST JUMP JUMPDEST SWAP1 DUP2 PUSH1 0x0 MSTORE PUSH1 0x5 PUSH1 0x20 MSTORE PUSH1 0xA PUSH1 0x40 PUSH1 0x0 KECCAK256 PUSH2 0x296A PUSH2 0x290E PUSH1 0x2 DUP4 ADD SLOAD PUSH2 0x2909 PUSH2 0x295A PUSH1 0x1 DUP7 ADD SLOAD DUP4 PUSH2 0x206B JUMP JUMPDEST SWAP2 PUSH2 0x2909 PUSH1 0x6 DUP8 ADD SLOAD SWAP4 DUP5 PUSH2 0x208F JUMP JUMPDEST PUSH1 0xB DUP3 ADD SSTORE ADD SLOAD PUSH2 0x2979 JUMPI POP POP JUMP JUMPDEST PUSH2 0x292B SWAP2 PUSH2 0x28CB JUMP JUMPDEST PUSH8 0xFFFFFFFFFFFFFFFF DUP2 GT PUSH2 0x2653 JUMPI PUSH1 0x5 SHL PUSH1 0x20 ADD SWAP1 JUMP JUMPDEST SWAP1 DUP2 SLOAD PUSH2 0x29A6 DUP2 PUSH2 0x2982 JUMP JUMPDEST SWAP3 PUSH1 0x40 SWAP4 PUSH2 0x29B6 DUP6 MLOAD SWAP2 DUP3 PUSH2 0x27FD JUMP JUMPDEST DUP3 DUP2 MSTORE DUP1 SWAP5 PUSH1 0x20 DUP1 SWAP3 ADD SWAP3 PUSH1 0x0 MSTORE DUP2 PUSH1 0x0 KECCAK256 SWAP1 PUSH1 0x0 SWAP4 JUMPDEST DUP6 DUP6 LT PUSH2 0x29DC JUMPI POP POP POP POP POP POP JUMP JUMPDEST PUSH1 0x3 DUP5 PUSH1 0x1 SWAP3 DUP5 MLOAD PUSH2 0x29ED DUP2 PUSH2 0x27E1 JUMP JUMPDEST PUSH2 0x2A0A PUSH1 0xFF DUP9 SLOAD DUP8 DUP1 PUSH1 0xA0 SHL SUB DUP2 AND DUP5 MSTORE PUSH1 0xA0 SHR AND DUP5 DUP4 ADD PUSH2 0x2844 JUMP JUMPDEST DUP5 DUP8 ADD SLOAD DUP7 DUP3 ADD MSTORE PUSH1 0x2 DUP8 ADD SLOAD PUSH1 0x60 DUP3 ADD MSTORE DUP2 MSTORE ADD SWAP4 ADD SWAP5 ADD SWAP4 SWAP2 PUSH2 0x29CD JUMP JUMPDEST DUP1 MLOAD DUP3 LT ISZERO PUSH2 0x1F1F JUMPI PUSH1 0x20 SWAP2 PUSH1 0x5 SHL ADD ADD SWAP1 JUMP JUMPDEST SWAP1 PUSH1 0x0 SWAP1 DUP3 DUP3 MSTORE PUSH1 0x20 SWAP2 PUSH1 0x6 DUP4 MSTORE PUSH1 0x40 SWAP2 DUP3 DUP3 KECCAK256 SWAP1 PUSH1 0x1 DUP1 PUSH1 0xA0 SHL SUB AND DUP3 MSTORE DUP4 MSTORE PUSH1 0x4 DUP3 DUP3 KECCAK256 SWAP3 DUP1 MLOAD SWAP4 PUSH2 0x2A71 DUP6 PUSH2 0x27A8 JUMP JUMPDEST PUSH1 0xFF SWAP3 DUP2 PUSH2 0x2A83 DUP6 DUP1 SWAP5 SLOAD AND DUP9 PUSH2 0x2844 JUMP JUMPDEST PUSH1 0x1 DUP2 ADD SLOAD DUP9 DUP9 ADD MSTORE PUSH1 0x2 DUP2 ADD SLOAD DUP5 DUP9 ADD MSTORE PUSH1 0x3 DUP2 ADD SLOAD PUSH1 0x60 DUP9 ADD MSTORE ADD SLOAD AND SWAP6 PUSH1 0x80 DUP6 ADD SWAP7 ISZERO ISZERO DUP8 MSTORE DUP4 MSTORE PUSH1 0x5 DUP6 MSTORE DUP1 DUP4 KECCAK256 PUSH2 0x240 PUSH2 0x2BA1 PUSH1 0xD DUP5 MLOAD SWAP4 PUSH2 0x2AC9 DUP6 PUSH2 0x27C4 JUMP JUMPDEST DUP1 SLOAD DUP6 MSTORE PUSH1 0x1 DUP2 ADD SLOAD DUP11 DUP7 ADD MSTORE PUSH1 0x2 DUP2 ADD SLOAD DUP7 DUP7 ADD MSTORE PUSH1 0x3 DUP2 ADD SLOAD PUSH1 0x60 DUP7 ADD MSTORE PUSH1 0x4 DUP2 ADD SLOAD PUSH1 0x80 DUP7 ADD MSTORE PUSH1 0x5 DUP2 ADD SLOAD PUSH1 0xA0 DUP7 ADD MSTORE PUSH1 0x6 DUP2 ADD SLOAD PUSH1 0xC0 DUP7 ADD MSTORE PUSH1 0x7 DUP2 ADD SLOAD SWAP7 PUSH1 0xE0 DUP7 ADD SWAP8 DUP9 MSTORE PUSH1 0x8 DUP3 ADD SLOAD SWAP11 PUSH2 0x100 DUP8 ADD SWAP12 DUP13 MSTORE PUSH1 0x9 DUP4 ADD SLOAD DUP1 SWAP9 DUP2 SWAP3 PUSH4 0xFFFFFFFF SWAP4 DUP5 SWAP2 DUP3 DUP3 AND PUSH2 0x120 DUP14 ADD MSTORE SHR AND PUSH2 0x140 DUP11 ADD MSTORE SHR AND PUSH2 0x160 DUP8 ADD MSTORE DUP1 DUP8 PUSH1 0x60 SHR AND ISZERO ISZERO PUSH2 0x180 DUP8 ADD MSTORE DUP1 DUP8 PUSH1 0x68 SHR AND ISZERO ISZERO PUSH2 0x1A0 DUP8 ADD MSTORE DUP1 PUSH2 0x1C0 DUP8 ADD SWAP8 PUSH1 0x70 SHR AND ISZERO ISZERO DUP8 MSTORE PUSH1 0xA DUP3 ADD SLOAD PUSH2 0x1E0 DUP8 ADD MSTORE PUSH1 0xB DUP3 ADD SLOAD PUSH2 0x200 DUP8 ADD MSTORE PUSH1 0xC DUP3 ADD SLOAD AND ISZERO ISZERO PUSH2 0x220 DUP7 ADD MSTORE ADD PUSH2 0x299A JUMP JUMPDEST SWAP2 ADD MSTORE DUP2 MLOAD SWAP1 DUP6 MLOAD SWAP1 DUP2 DUP4 EQ PUSH2 0x2C64 JUMPI MLOAD ISZERO ISZERO SWAP7 DUP8 PUSH2 0x2C5A JUMPI JUMPDEST POP DUP7 PUSH2 0x2BCB JUMPI JUMPDEST POP POP POP POP POP POP SWAP1 JUMP JUMPDEST GT SWAP5 POP SWAP2 SWAP3 SWAP1 SWAP2 SWAP1 DUP5 PUSH2 0x2C32 JUMPI JUMPDEST DUP5 ISZERO PUSH2 0x2BEF JUMPI JUMPDEST POP POP POP POP CODESIZE DUP1 DUP1 DUP1 DUP1 DUP1 PUSH2 0x2BC2 JUMP JUMPDEST MLOAD SWAP1 MLOAD GT SWAP3 POP SWAP1 DUP3 PUSH2 0x2C07 JUMPI JUMPDEST POP POP CODESIZE DUP1 DUP1 DUP1 PUSH2 0x2BE0 JUMP JUMPDEST MLOAD SWAP2 POP PUSH1 0x2 DUP3 LT ISZERO PUSH2 0x2C1E JUMPI POP PUSH1 0x1 EQ CODESIZE DUP1 PUSH2 0x2BFC JUMP JUMPDEST PUSH4 0x4E487B71 PUSH1 0xE0 SHL DUP2 MSTORE PUSH1 0x21 PUSH1 0x4 MSTORE PUSH1 0x24 SWAP1 REVERT JUMPDEST SWAP4 POP DUP3 MLOAD PUSH1 0x2 DUP2 LT ISZERO PUSH2 0x2C46 JUMPI ISZERO SWAP4 PUSH2 0x2BD9 JUMP JUMPDEST PUSH4 0x4E487B71 PUSH1 0xE0 SHL DUP4 MSTORE PUSH1 0x21 PUSH1 0x4 MSTORE PUSH1 0x24 DUP4 REVERT JUMPDEST MLOAD ISZERO SWAP7 POP CODESIZE PUSH2 0x2BBB JUMP JUMPDEST POP POP POP POP SWAP3 POP POP POP SWAP1 JUMP INVALID LOG2 PUSH5 0x6970667358 0x22 SLT KECCAK256 0xEC 0xBF SWAP11 0xCB PUSH31 0x3FCAE32D7131989D8A02757F8EF1ED8F7F7A28F9AE4BCB9FEEB7F264736F6C PUSH4 0x43000813 STOP CALLER "},"methodIdentifiers":{"BetBear(uint256)":"bd776d8a","BetBull(uint256)":"bb434f28","BetHouse(uint256,uint256)":"1fa52d91","Bets(uint256,address)":"3977b381","Claim(uint256[])":"8f9fa51b","OwnershipRenounce()":"fd5bab23","OwnershipTransfer(address)":"dfc39691","Pause()":"6985a022","Resume()":"490d6d11","RoundExecute()":"0e7db6bc","RoundLock()":"b3e560eb","RoundStart()":"1f713cae","Rounds(uint256)":"d5df9d23","SetMinBetAmount(uint256)":"48894f0d","SetPriceSource(uint256)":"edeeb28f","SetRewardRate(uint256)":"1946fb78","SetRoundDuration(uint256)":"36f56ba0","UserBets(address,uint256)":"cf48098e","Users(address)":"99b956a0","_bettable(uint256)":"ba4f6737","_paused()":"16c61ccc","addOwnerAccess(address)":"f93a466b","bullBetsCount()":"13493444","changeCurrentAdminEntity(address)":"5dcd0d1c","checkAdminEntityAccess(address)":"9a69ea2d","claimable(uint256,address)":"a0c7f71c","currentEpoch()":"76671808","getBalance()":"12065fe0","getCurrentAdminEntity()":"0629b2ae","getPriceSource()":"048de381","getRoundPlayers(uint256)":"776e11dd","getStats()":"c59d4847","getUserParticipatedRounds(address)":"8843013b","getUserRounds(address,uint256,uint256)":"951fd600","getUserRoundsLength(address)":"273867d4","lockOnce()":"6a42c87b","minBetAmount()":"fa968eea","owner()":"8da5cb5b","paused()":"5c975abb","priceSource()":"20531bc9","refundable(uint256,address)":"7bf41254","removeOwnerAccess(address)":"f8e4808a","rewardRate()":"7b0a47ee","roundDuration()":"f7cb789a","startOnce()":"381a5478"}}}}}