{"src/contracts/BullsCall.sol":{"BullsCallPrediction":{"abi":[{"anonymous":false,"inputs":[{"indexed":true,"internalType":"address","name":"sender","type":"address"},{"indexed":true,"internalType":"uint256","name":"epoch","type":"uint256"},{"indexed":false,"internalType":"uint256","name":"amount","type":"uint256"}],"name":"BearBet","type":"event"},{"anonymous":false,"inputs":[{"indexed":true,"internalType":"address","name":"sender","type":"address"},{"indexed":true,"internalType":"uint256","name":"epoch","type":"uint256"},{"indexed":false,"internalType":"uint256","name":"amount","type":"uint256"}],"name":"BullBet","type":"event"},{"anonymous":false,"inputs":[{"indexed":true,"internalType":"address","name":"sender","type":"address"},{"indexed":true,"internalType":"uint256","name":"epoch","type":"uint256"},{"indexed":false,"internalType":"uint256","name":"amount","type":"uint256"}],"name":"Claimed","type":"event"},{"anonymous":false,"inputs":[{"indexed":true,"internalType":"address","name":"sender","type":"address"},{"indexed":true,"internalType":"uint256","name":"epoch","type":"uint256"},{"indexed":false,"internalType":"uint256","name":"bullAmount","type":"uint256"},{"indexed":false,"internalType":"uint256","name":"bearAmount","type":"uint256"}],"name":"HouseBet","type":"event"},{"anonymous":false,"inputs":[{"indexed":true,"internalType":"uint256","name":"epoch","type":"uint256"},{"indexed":false,"internalType":"uint256","name":"minBetAmount","type":"uint256"}],"name":"MinBetAmountUpdated","type":"event"},{"anonymous":false,"inputs":[{"indexed":true,"internalType":"address","name":"previousOwner","type":"address"},{"indexed":true,"internalType":"address","name":"newOwner","type":"address"}],"name":"OwnershipTransferred","type":"event"},{"anonymous":false,"inputs":[{"indexed":true,"internalType":"uint256","name":"epoch","type":"uint256"}],"name":"Paused","type":"event"},{"anonymous":false,"inputs":[{"indexed":true,"internalType":"address","name":"sender","type":"address"},{"indexed":true,"internalType":"uint256","name":"epoch","type":"uint256"},{"indexed":false,"internalType":"uint256","name":"amount","type":"uint256"}],"name":"Refunded","type":"event"},{"anonymous":false,"inputs":[{"indexed":false,"internalType":"uint256","name":"roundDuration","type":"uint256"}],"name":"RoundDuratioUpdated","type":"event"},{"anonymous":false,"inputs":[{"indexed":true,"internalType":"uint256","name":"epoch","type":"uint256"},{"indexed":false,"internalType":"uint256","name":"price","type":"uint256"}],"name":"RoundEnded","type":"event"},{"anonymous":false,"inputs":[{"indexed":true,"internalType":"uint256","name":"epoch","type":"uint256"},{"indexed":false,"internalType":"uint256","name":"price","type":"uint256"}],"name":"RoundLocked","type":"event"},{"anonymous":false,"inputs":[{"indexed":true,"internalType":"uint256","name":"epoch","type":"uint256"}],"name":"RoundStarted","type":"event"},{"anonymous":false,"inputs":[{"indexed":true,"internalType":"uint256","name":"epoch","type":"uint256"}],"name":"Unpaused","type":"event"},{"inputs":[{"internalType":"uint256","name":"epoch","type":"uint256"}],"name":"BetBear","outputs":[],"stateMutability":"payable","type":"function"},{"inputs":[{"internalType":"uint256","name":"epoch","type":"uint256"}],"name":"BetBull","outputs":[],"stateMutability":"payable","type":"function"},{"inputs":[{"internalType":"uint256","name":"bullAmount","type":"uint256"},{"internalType":"uint256","name":"bearAmount","type":"uint256"}],"name":"BetHouse","outputs":[],"stateMutability":"nonpayable","type":"function"},{"inputs":[{"internalType":"uint256","name":"","type":"uint256"},{"internalType":"address","name":"","type":"address"}],"name":"Bets","outputs":[{"internalType":"enum BullsCallPrediction.Position","name":"position","type":"uint8"},{"internalType":"uint256","name":"betTimestamp","type":"uint256"},{"internalType":"uint256","name":"claimTimestamp","type":"uint256"},{"internalType":"uint256","name":"amount","type":"uint256"},{"internalType":"bool","name":"claimed","type":"bool"}],"stateMutability":"view","type":"function"},{"inputs":[{"internalType":"uint256[]","name":"epochs","type":"uint256[]"}],"name":"Claim","outputs":[],"stateMutability":"payable","type":"function"},{"inputs":[],"name":"OwnershipRenounce","outputs":[],"stateMutability":"nonpayable","type":"function"},{"inputs":[{"internalType":"address","name":"newOwner","type":"address"}],"name":"OwnershipTransfer","outputs":[],"stateMutability":"nonpayable","type":"function"},{"inputs":[],"name":"Pause","outputs":[],"stateMutability":"nonpayable","type":"function"},{"inputs":[],"name":"Resume","outputs":[],"stateMutability":"nonpayable","type":"function"},{"inputs":[],"name":"RoundExecute","outputs":[],"stateMutability":"nonpayable","type":"function"},{"inputs":[],"name":"RoundLock","outputs":[],"stateMutability":"nonpayable","type":"function"},{"inputs":[],"name":"RoundStart","outputs":[],"stateMutability":"nonpayable","type":"function"},{"inputs":[{"internalType":"uint256","name":"","type":"uint256"}],"name":"Rounds","outputs":[{"internalType":"uint256","name":"epoch","type":"uint256"},{"internalType":"uint256","name":"bullAmount","type":"uint256"},{"internalType":"uint256","name":"bearAmount","type":"uint256"},{"internalType":"uint256","name":"rewardBaseCalAmount","type":"uint256"},{"internalType":"uint256","name":"rewardAmount","type":"uint256"},{"internalType":"uint256","name":"bullBet","type":"uint256"},{"internalType":"uint256","name":"bearBet","type":"uint256"},{"internalType":"uint256","name":"lockPrice","type":"uint256"},{"internalType":"uint256","name":"closePrice","type":"uint256"},{"internalType":"uint32","name":"startTimestamp","type":"uint32"},{"internalType":"uint32","name":"lockTimestamp","type":"uint32"},{"internalType":"uint32","name":"closeTimestamp","type":"uint32"},{"internalType":"bool","name":"started","type":"bool"},{"internalType":"bool","name":"locked","type":"bool"},{"internalType":"bool","name":"closed","type":"bool"},{"internalType":"uint256","name":"roundUpPayout","type":"uint256"},{"internalType":"uint256","name":"roundDownPayout","type":"uint256"},{"internalType":"bool","name":"cancelled","type":"bool"}],"stateMutability":"view","type":"function"},{"inputs":[{"internalType":"uint256","name":"_minBetAmount","type":"uint256"}],"name":"SetMinBetAmount","outputs":[],"stateMutability":"nonpayable","type":"function"},{"inputs":[{"internalType":"uint256","name":"_priceSource","type":"uint256"}],"name":"SetPriceSource","outputs":[],"stateMutability":"nonpayable","type":"function"},{"inputs":[{"internalType":"uint256","name":"_rewardRate","type":"uint256"}],"name":"SetRewardRate","outputs":[],"stateMutability":"nonpayable","type":"function"},{"inputs":[{"internalType":"uint256","name":"_roundDuration","type":"uint256"}],"name":"SetRoundDuration","outputs":[],"stateMutability":"nonpayable","type":"function"},{"inputs":[{"internalType":"address","name":"","type":"address"},{"internalType":"uint256","name":"","type":"uint256"}],"name":"UserBets","outputs":[{"internalType":"uint256","name":"","type":"uint256"}],"stateMutability":"view","type":"function"},{"inputs":[{"internalType":"address","name":"","type":"address"}],"name":"Users","outputs":[{"internalType":"address","name":"wallet","type":"address"},{"internalType":"uint256","name":"latestEpoch","type":"uint256"},{"internalType":"uint256","name":"bullBetsCount","type":"uint256"},{"internalType":"uint256","name":"bullBetsTotal","type":"uint256"},{"internalType":"uint256","name":"bearBetsCount","type":"uint256"},{"internalType":"uint256","name":"bearBetsTotal","type":"uint256"},{"internalType":"uint256","name":"paidBetsCount","type":"uint256"},{"internalType":"uint256","name":"paidBetsTotal","type":"uint256"}],"stateMutability":"view","type":"function"},{"inputs":[{"internalType":"uint256","name":"epoch","type":"uint256"}],"name":"_bettable","outputs":[{"internalType":"bool","name":"","type":"bool"}],"stateMutability":"view","type":"function"},{"inputs":[],"name":"_paused","outputs":[{"internalType":"bool","name":"","type":"bool"}],"stateMutability":"view","type":"function"},{"inputs":[{"internalType":"address","name":"_address","type":"address"}],"name":"addOwnerAccess","outputs":[],"stateMutability":"nonpayable","type":"function"},{"inputs":[{"internalType":"uint256","name":"","type":"uint256"}],"name":"adminEntityAccess","outputs":[{"internalType":"address","name":"","type":"address"}],"stateMutability":"view","type":"function"},{"inputs":[],"name":"bullBetsCount","outputs":[{"internalType":"uint256","name":"","type":"uint256"}],"stateMutability":"view","type":"function"},{"inputs":[{"internalType":"address","name":"_address","type":"address"}],"name":"changeCurrentAdminEntity","outputs":[],"stateMutability":"nonpayable","type":"function"},{"inputs":[{"internalType":"address","name":"","type":"address"}],"name":"checkAdminEntityAccess","outputs":[{"internalType":"bool","name":"","type":"bool"}],"stateMutability":"view","type":"function"},{"inputs":[{"internalType":"uint256","name":"epoch","type":"uint256"},{"internalType":"address","name":"user","type":"address"}],"name":"claimable","outputs":[{"internalType":"bool","name":"","type":"bool"}],"stateMutability":"view","type":"function"},{"inputs":[],"name":"currentEpoch","outputs":[{"internalType":"uint256","name":"","type":"uint256"}],"stateMutability":"view","type":"function"},{"inputs":[],"name":"getAllAdminEntity","outputs":[{"internalType":"address[]","name":"","type":"address[]"}],"stateMutability":"view","type":"function"},{"inputs":[],"name":"getBalance","outputs":[{"internalType":"uint256","name":"","type":"uint256"}],"stateMutability":"view","type":"function"},{"inputs":[],"name":"getCurrentAdminEntity","outputs":[{"internalType":"address","name":"","type":"address"}],"stateMutability":"view","type":"function"},{"inputs":[],"name":"getPriceSource","outputs":[{"internalType":"uint256","name":"","type":"uint256"}],"stateMutability":"view","type":"function"},{"inputs":[{"internalType":"uint256","name":"epoch","type":"uint256"}],"name":"getRoundPlayers","outputs":[{"components":[{"internalType":"address","name":"user","type":"address"},{"internalType":"enum BullsCallPrediction.Position","name":"position","type":"uint8"},{"internalType":"uint256","name":"amount","type":"uint256"},{"internalType":"uint256","name":"timestamp","type":"uint256"}],"internalType":"struct BullsCallPrediction.Player[]","name":"","type":"tuple[]"}],"stateMutability":"view","type":"function"},{"inputs":[],"name":"getStats","outputs":[{"internalType":"uint256","name":"","type":"uint256"},{"internalType":"uint256","name":"","type":"uint256"},{"internalType":"uint256","name":"","type":"uint256"},{"internalType":"uint256","name":"","type":"uint256"},{"internalType":"uint256","name":"","type":"uint256"},{"internalType":"uint256","name":"","type":"uint256"}],"stateMutability":"view","type":"function"},{"inputs":[{"internalType":"address","name":"user","type":"address"}],"name":"getUserParticipatedRounds","outputs":[{"internalType":"uint256[]","name":"","type":"uint256[]"}],"stateMutability":"view","type":"function"},{"inputs":[{"internalType":"address","name":"user","type":"address"},{"internalType":"uint256","name":"cursor","type":"uint256"},{"internalType":"uint256","name":"size","type":"uint256"}],"name":"getUserRounds","outputs":[{"internalType":"uint256[]","name":"","type":"uint256[]"},{"components":[{"internalType":"enum BullsCallPrediction.Position","name":"position","type":"uint8"},{"internalType":"uint256","name":"betTimestamp","type":"uint256"},{"internalType":"uint256","name":"claimTimestamp","type":"uint256"},{"internalType":"uint256","name":"amount","type":"uint256"},{"internalType":"bool","name":"claimed","type":"bool"}],"internalType":"struct BullsCallPrediction.Bet[]","name":"","type":"tuple[]"},{"internalType":"uint256","name":"","type":"uint256"}],"stateMutability":"view","type":"function"},{"inputs":[{"internalType":"address","name":"user","type":"address"}],"name":"getUserRoundsLength","outputs":[{"internalType":"uint256","name":"","type":"uint256"}],"stateMutability":"view","type":"function"},{"inputs":[],"name":"lockOnce","outputs":[{"internalType":"bool","name":"","type":"bool"}],"stateMutability":"view","type":"function"},{"inputs":[],"name":"minBetAmount","outputs":[{"internalType":"uint256","name":"","type":"uint256"}],"stateMutability":"view","type":"function"},{"inputs":[],"name":"owner","outputs":[{"internalType":"address","name":"","type":"address"}],"stateMutability":"view","type":"function"},{"inputs":[],"name":"paused","outputs":[{"internalType":"bool","name":"","type":"bool"}],"stateMutability":"view","type":"function"},{"inputs":[],"name":"priceSource","outputs":[{"internalType":"uint256","name":"","type":"uint256"}],"stateMutability":"view","type":"function"},{"inputs":[{"internalType":"uint256","name":"epoch","type":"uint256"},{"internalType":"address","name":"user","type":"address"}],"name":"refundable","outputs":[{"internalType":"bool","name":"","type":"bool"}],"stateMutability":"view","type":"function"},{"inputs":[{"internalType":"address","name":"_address","type":"address"}],"name":"removeOwnerAccess","outputs":[],"stateMutability":"nonpayable","type":"function"},{"inputs":[],"name":"rewardRate","outputs":[{"internalType":"uint256","name":"","type":"uint256"}],"stateMutability":"view","type":"function"},{"inputs":[],"name":"roundDuration","outputs":[{"internalType":"uint256","name":"","type":"uint256"}],"stateMutability":"view","type":"function"},{"inputs":[],"name":"startOnce","outputs":[{"internalType":"bool","name":"","type":"bool"}],"stateMutability":"view","type":"function"},{"stateMutability":"payable","type":"receive"}],"evm":{"bytecode":{"linkReferences":{},"object":"6080806040523461008e5760018060a01b031933816000541617600055339060015416176001553360007f8be0079c531659141344cd1fd0a4f28419497f9722a3daafe3b4186f6b6457e08180a360ff19600454166004556001600555605f600c5561012c600d556611c37937e08000600e556005600f5561ffff1960105416601055612fb990816100948239f35b600080fdfe608080604052600436101561001d575b50361561001b57600080fd5b005b60003560e01c908163048de3811461215c575080630629b2ae146121335780630e7db6bc1461203857806312065fe01461201c5780631349344414611ffe57806313b622fb14611f3157806316c61ccc146119cd5780631946fb7814611f035780631f713cae14611d945780631fa52d9114611c1e57806320531bc914611c00578063273867d414611bc657806336f56ba014611b6d578063381a547814611b4a5780633977b38114611ac757806348894f0d14611a6a578063490d6d11146119f05780635c975abb146119cd5780635dcd0d1c1461186c5780636985a022146117f95780636a42c87b146117d357806376671808146117b5578063776e11dd146117195780637b0a47ee146116fb5780637bf412541461152f5780638843013b146114a05780638da5cb5b146114775780638f9fa51b1461103c578063951fd60014610dde57806399b956a014610d545780639a69ea2d14610d15578063a0c7f71c14610cef578063b3e560eb14610b74578063ba4f673714610b4c578063bb434f2814610995578063bd776d8a146107d2578063c59d48471461078a578063cf48098e14610732578063cf627d53146106f0578063d5df9d23146105f0578063dfc396911461052a578063edeeb28f146104b1578063f7cb789a14610493578063f8e4808a146103aa578063f93a466b146102b0578063fa968eea146102925763fd5bab231461022f573861000f565b3461028d57600036600319011261028d5760008054906001600160a01b03821661025a33821461225f565b7f8be0079c531659141344cd1fd0a4f28419497f9722a3daafe3b4186f6b6457e08280a36001600160a01b031916600055005b600080fd5b3461028d57600036600319011261028d576020600e54604051908152f35b3461028d57602036600319011261028d576102c9612177565b6000546001600160a01b039182916102e4908316331461225f565b16806000526003602052600160ff60406000205416151514610365578060005260036020526040600020600160ff19825416179055600254600160401b81101561034f5780600161033892016002556121fa565b909283549160031b92831b921b1916179055600080f35b634e487b7160e01b600052604160045260246000fd5b60405162461bcd60e51b815260206004820152601e60248201527f4164647265737320616c726561647920657869737420696e20636861696e00006044820152606490fd5b3461028d57602036600319011261028d576103c3612177565b6000546001600160a01b0391906103dd908316331461225f565b16806000526003602052600160ff60406000205416151503610411576000908152600360205260409020805460ff19169055005b60405162461bcd60e51b815260206004820152604e60248201527f54686520616464726573732073686f756c6420626520617661696c61626c652060448201527f696e20636861696e20696e6f7264657220746f2072656d6f76652041646d696e60648201526d20456e746974792041636365737360901b608482015260a490fd5b3461028d57600036600319011261028d576020600d54604051908152f35b3461028d57602036600319011261028d576004356104da60018060a01b0360005416331461225f565b80156104e557600b55005b60405162461bcd60e51b815260206004820152601d60248201527f507269636520736f757263652063616e206e6f7420626520656d7074790000006044820152606490fd5b3461028d57602036600319011261028d57610543612177565b6000546001600160a01b038082169261055d33851461225f565b1691821561059c5782907f8be0079c531659141344cd1fd0a4f28419497f9722a3daafe3b4186f6b6457e0600080a36001600160a01b03191617600055005b60405162461bcd60e51b815260206004820152602660248201527f4f776e61626c653a206e6577206f776e657220697320746865207a65726f206160448201526564647265737360d01b6064820152608490fd5b3461028d57602036600319011261028d5760043560005260066020526102406040600020805490600181015490600281015460ff6003830154600484015460058501546006860154600787015491600888015493600989015495600a8a01549888600c600b8d01549c0154169b60206040519e8f908152015260408d015260608c015260808b015260a08a015260c089015260e088015261010087015263ffffffff808216610120880152808260201c166101408801528160401c16610160870152818160601c161515610180870152818160681c1615156101a087015260701c1615156101c08501526101e08401526102008301521515610220820152f35b3461028d57602036600319011261028d5760043560025481101561028d576107196020916121fa565b905460405160039290921b1c6001600160a01b03168152f35b3461028d57604036600319011261028d5761074b612177565b6001600160a01b031660009081526009602052604090208054602435919082101561028d5760209161077c91612247565b90546040519160031b1c8152f35b3461028d57600036600319011261028d5760c06011546012546013546014546015549160165493604051958652602086015260408501526060840152608083015260a0820152f35b60208060031936011261028d57600435906107f260ff600454161561237b565b610801600260055414156129f4565b6002600555610811333b156128ee565b61081c323314612932565b610829600a548314612a40565b61083a61083583612321565b61297e565b610848600e54341015612a84565b8160005260078152604060002033600052815261086d60036040600020015415612ae7565b816000526006815261093a60406000206002810161088c34825461240c565b9055346006820155836000526007835260406000203360005283526040600020600160ff198254161781553460038201556001429101556008835260046040600020856001820155016108df81546123fd565b9055336000526008835260056040600020016108fc34825461240c565b905533600052600983526109148460406000206129bf565b600d61091e612b33565b9133835260018584015234604084015242606084015201612b64565b6109456013546123fd565b6013556109543460145461240c565b6014557f93349b5cb1cdd80ea47c8a040b8c0e31e219e0665c1eb33d9a7b2d3fad11e224604051913483523392a361098e33600a54612c41565b6001600555005b60208060031936011261028d5761098e90610af86004356109bb60ff600454161561237b565b6109ca600260055414156129f4565b60026005556109da333b156128ee565b6109e5323314612932565b6109f2600a548214612a40565b6109fe61083582612321565b610a0c600e54341015612a84565b80600052600783526040600020336000528352610a3160036040600020015415612ae7565b8060005260068352610ad260406000209160018301610a5134825461240c565b905534600584015580600052600785526040600020336000528552604060002060ff198154168155346003820155600142910155600885526002604060002082600182015501610aa181546123fd565b905533600052600885526003604060002001610abe34825461240c565b9055336000526009855260406000206129bf565b600d610adc612b33565b9133835260008584015234604084015242606084015201612b64565b610b036011546123fd565b601155610b123460125461240c565b601255600a5480917f49237630b34a73a6a12f9d3d4a305ddd6e3a359cc147ffb7a5f18c08f736bc25604051913483523392a33390612bdf565b3461028d57602036600319011261028d576020610b6a600435612321565b6040519015158152f35b3461028d57600036600319011261028d57610b9a60018060a01b0360005416331461225f565b60ff6010541615610cb657610bb4600a54600b5490612443565b610bbf600a546123fd565b80600a5560ff600454161580610bd157005b610bda9061237b565b806000526006602052604060002063ffffffff421660098201918254918063ffffffff19841617845567ffffffff00000000610c18600d544261240c565b60201b1690818167ffffffffffffffff19861617178555600d5460018060ff1b0381168103610ca05763ffffffff60401b610c57889260011b4261240c565b60401b169355600160601b936cffffffffffffffffffffffffff19161717171790557f33a701182892fd888ed152ca2ac23771a32e814469b7cd255965471e1af3a659600080a2005b634e487b7160e01b600052601160045260246000fd5b60405162461bcd60e51b8152602060048201526011602482015270149bdd5b99081b9bdd081cdd185c9d1959607a1b6044820152606490fd5b3461028d57604036600319011261028d576020610b6a610d0d61218d565b600435612d52565b3461028d57602036600319011261028d576001600160a01b03610d36612177565b166000526003602052602060ff604060002054166040519015158152f35b3461028d57602036600319011261028d576101006001600160a01b0380610d79612177565b16600052600860205260406000209081541690600181015490600281015460038201546004830154906005840154926007600686015495015495604051978852602088015260408701526060860152608085015260a084015260c083015260e0820152f35b3461028d5760608060031936011261028d57610df8612177565b6024356044359160018060a01b03169081600052600992602091848352610e2481604060002054612600565b821161101e575b610e3482612c96565b94610e4260405196876122ff565b828652601f199485610e5385612c96565b013686890137610e6284612c96565b95610e7060405197886122ff565b848752610e7c85612c96565b018560005b828110610fe65750505060005b848110610f295750505090610ea29161240c565b90610eb660405194868652868601906121c6565b8481038286015281808551928381520194019160005b828110610ee0578680878760408301520390f35b909192948260a06001928851610ef78282516121a3565b8084015182850152604080820151908301528b8101518c83015260809081015115159082015201960193929101610ecc565b610fe19082600052838752610f4c6040600020610f46838861240c565b90612247565b9054600391821b1c610f5e838c612d3e565b52610f69828b612d3e565b51600052600788526040600020846000528852604060002090600460405192610f91846122aa565b8d60ff93610fa28584541687612b58565b60018301548d870152600283015460408701528201549085015201541615156080820152610fd0828a612d3e565b52610fdb8189612d3e565b506123fd565b610e8e565b604051610ff2816122aa565b600081526000838201526000604082015260008c8201526000608082015282828b010152018690610e81565b90508260005283825261103681604060002054612600565b90610e2b565b602036600319011261028d5767ffffffffffffffff806004351161028d5736602360043501121561028d57600435600401359080821161028d57602490600592368382861b60043501011161028d576110996002855414156129f4565b600284556110a8333b156128ee565b6110b3323314612932565b60009060005b8181106111c7575050801561117757600080808093335af1903d15611171573d90811161115c57604051906110f8601f8201601f1916602001836122ff565b8152600060203d92013e5b1561110e5760018255005b60849060216040519162461bcd60e51b8352602060048401528201527f424e42207472616e7366657220746f206d73672e73656e646572206661696c656044820152601960fa1b6064820152fd5b82634e487b7160e01b60005260416004526000fd5b50611103565b60405162461bcd60e51b8152602060048201526023818501527f4e6f7420666f756e6420616e7920656c696769626c65207265776172642066756044820152626e647360e81b6064820152608490fd5b8481871b60043501013560005260066020526040600020604051906111eb826122c6565b80548252600181015460208301526002810154604083015260038101546060830152600481015460808301528781015460a0830152600681015460c0830152600781015460e083015260088101546101008301526112c6600d60098301549263ffffffff808516610120870152808560201c166101408701528460401c1661016086015260ff808560601c161515610180870152808560681c1615156101a0870152806101c087019560701c1615158552600a8201546101e0870152600b820154610200870152600c82015416151561022086015201612cae565b6102408301528683891b600435010135600052600760205260406000203360005260205260406000209060018060a01b03600154169051611313575b50505061130e906123fd565b6110b9565b6113263389868c1b600435010135612d52565b156113025761134c611341602085015160408601519061240c565b608085015190612600565b9060038301936113718554916060611368608083015185612430565b9101519061274b565b9360048101600160ff19825416179055600242910155831060001461143b57505050906113a361130e9254809561240c565b9333600052600860205260066040600020016113bf81546123fd565b905533600052600860205260076040600020016113dd82825461240c565b905560156113eb81546123fd565b905560166113fa82825461240c565b90556040519081528682891b600435010135907f987d620f307ff6b94d58743cb7a7509f24071586a77759b77c2d4e29f75a2f9a60203392a3908780611302565b60008093979594508092819282821561146e575bf115611462576113a38461130e9361240c565b6040513d6000823e3d90fd5b506108fc61144f565b3461028d57600036600319011261028d576000546040516001600160a01b039091168152602090f35b3461028d5760208060031936011261028d576001600160a01b036114c2612177565b1660005260098152604060002090604051808383829554938481520190600052836000209260005b8582821061151957505050611501925003836122ff565b6115156040519282849384528301906121c6565b0390f35b85548452600195860195889550930192016114ea565b3461028d57604036600319011261028d5760043561154b61218d565b90806000526020916007835260406000209060018060a01b0316600052825260406000206040519161157c836122aa565b60ff9061158c8284541685612b58565b6001830154858501526002830154604085015260808260046003860154956060880196875201541694019315158452600052600684526040600020906040516115d4816122c6565b82548152600183015486820152600283015460408201526003830154606082015260048301546080820152600583015460a0820152600683015460c0820152600783015460e082015260088301546101008201526009830154906102406116b3600d63ffffffff9687861661012086015287868c1c16610140860152610160850196888760401c168852808760601c161515610180870152808760681c1615156101a0870152806101c087019760701c1615158752600a8201546101e0870152600b820154610200870152600c82015416151561022086015201612cae565b910152511593846116f1575b50836116e4575b5050816116d9575b506040519015158152f35b9050511515826116ce565b51164211915083806116c6565b51159350856116bf565b3461028d57600036600319011261028d576020600c54604051908152f35b3461028d5760208060031936011261028d5760043560005260068152611745600d604060002001612cae565b604051908282018383528151809152836040840192019360005b82811061176c5784840385f35b9091928260806001928851848060a01b03815116825261179284820151858401906121a3565b60408101516040830152606080910151908201520196019101949291909461175f565b3461028d57600036600319011261028d576020600a54604051908152f35b3461028d57600036600319011261028d57602060ff60105460081c166040519015158152f35b3461028d57600036600319011261028d5761181f60018060a01b0360005416331461225f565b600160045461183a60ff8216156118358161237b565b61237b565b60ff191617600455600a547f32fb7c9891bc4f963c7de9f1186d2a7755c7d6e9f4604dabe1d8bb3027c2f49e600080a2005b3461028d57602036600319011261028d57611885612177565b6000546001600160a01b03919061189f908316331461225f565b816001549116809282161461197c57816000526003602052600160ff604060002054161515036118d9576001600160a01b03191617600155005b60405162461bcd60e51b815260206004820152606960248201527f54686973206164647265737320686173206265656e2072656d6f76656420667260448201527f6f6d206f776e6572206163636573732c204b696e646c7920616464207468652060648201527f6f776e6572206164647265737320746f2061646d696e20656e7469747920746f60848201526820636f6e74696e756560b81b60a482015260c490fd5b60405162461bcd60e51b8152602060048201526024808201527f50726f7669646564206164647265737320697320616c726561647920616e20416044820152633236b4b760e11b6064820152608490fd5b3461028d57600036600319011261028d57602060ff600454166040519015158152f35b3461028d57600036600319011261028d57611a1660018060a01b0360005416331461225f565b600454611a3960ff8216611a29816123ba565b61ffff19601054166010556123ba565b60ff1916600455600a547f9dd715fed52c25e642f97653bb4c4339ad98fe6d6e130348be82ae5d86383a8c600080a2005b3461028d57602036600319011261028d57600435611a9360018060a01b0360005416331461225f565b80600e557f82480e97991520549ac4b5d0e1d97edb3bfac2666202923b6903d2a953dc76086020600a5492604051908152a2005b3461028d57604036600319011261028d57611ae061218d565b600435600052600760205260406000209060018060a01b031660005260205260a0604060002060ff81541690600181015490600281015460ff600460038401549301541692611b3260405180966121a3565b60208501526040840152606083015215156080820152f35b3461028d57600036600319011261028d57602060ff601054166040519015158152f35b3461028d57602036600319011261028d577f696fab4a25d5a0f71f21ee59aa7512cd96fe20b7a28f4e2663099566b4639d896020600435611bb960018060a01b0360005416331461225f565b80600d55604051908152a1005b3461028d57602036600319011261028d576001600160a01b03611be7612177565b1660005260096020526020604060002054604051908152f35b3461028d57600036600319011261028d576020600b54604051908152f35b3461028d57604036600319011261028d5760043560243590611c4b60018060a01b0360005416331461225f565b611c5a60ff600454161561237b565b611c65333b156128ee565b611c70323314612932565b600a8054611c8061083582612321565b82611d2d575b5082611cc2575b549160405191825260208201527fe3b9e415c1ec5664bac5576f8ac4b84cacf237c6e9635809c8bc6d3fb6fd0a8460403092a3005b805460005260066020526002604060002001611cdf84825461240c565b9055805460005260076020526040600020306000526020526040600020600160ff198254161781558360038201556001429101556009602052611d2860406000208254906129bf565b611c8d565b60005260066020526001604060002001611d4883825461240c565b905580546000526007602052604060002030600052602052604060002060ff1981541681558260038201556001429101556009602052611d8e60406000208254906129bf565b83611c86565b3461028d57600036600319011261028d57611dba60018060a01b0360005416331461225f565b60ff6004541615611dca8161237b565b60ff60105416611ebf57611dec611de2600a546123fd565b9182600a5561237b565b806000526006602052604060002063ffffffff421660098201918254918063ffffffff19841617845567ffffffff00000000611e2a600d544261240c565b60201b1690818167ffffffffffffffff19861617178555600d5460018060ff1b0381168103610ca05763ffffffff60401b611e69889260011b4261240c565b60401b169355600160601b936cffffffffffffffffffffffffff19161717171790557f33a701182892fd888ed152ca2ac23771a32e814469b7cd255965471e1af3a659600080a26010805460ff19166001179055005b606460405162461bcd60e51b815260206004820152602060248201527f53746172742066756e6374696f6e2063616e206f6e6c792072756e206f6e63656044820152fd5b3461028d57602036600319011261028d57611f2960018060a01b0360005416331461225f565b600435600c55005b3461028d57600036600319011261028d576000546001600160a01b0390611f5b908216331461225f565b60405180600254908181526020809101809260026000527f405787fa12a823e0f2b7631cc41b3ba8828b3321ca811111fa75cd3aa3bb5ace9060005b818110611fe85750505083611fad9103846122ff565b60405192818401908285525180915260408401929160005b828110611fd25785850386f35b8351871685529381019392810192600101611fc5565b8254881684529284019260019283019201611f97565b3461028d57600036600319011261028d576020601154604051908152f35b3461028d57600036600319011261028d57602047604051908152f35b3461028d57600036600319011261028d5760045460ff166120b357612062600a54600b5490612443565b600a5460001990818101908111610ca057600b5461207f9161260d565b600a54908101908111610ca0576120959061276b565b6120a0600a546123fd565b80600a55610bda60ff600454161561237b565b6120c2600a54600b5490612443565b600a5460001990818101818111610ca057600052600660205260ff60096040600020015460701c16156000146121225750600a54818101908111610ca057600b5461210c9161260d565b600a54908101908111610ca05761001b9061276b565b600b5461212e9161260d565b61210c565b3461028d57600036600319011261028d576001546040516001600160a01b039091168152602090f35b3461028d57600036600319011261028d57602090600b548152f35b600435906001600160a01b038216820361028d57565b602435906001600160a01b038216820361028d57565b9060028210156121b05752565b634e487b7160e01b600052602160045260246000fd5b90815180825260208080930193019160005b8281106121e6575050505090565b8351855293810193928101926001016121d8565b6002548110156122315760026000527f405787fa12a823e0f2b7631cc41b3ba8828b3321ca811111fa75cd3aa3bb5ace0190600090565b634e487b7160e01b600052603260045260246000fd5b80548210156122315760005260206000200190600090565b1561226657565b606460405162461bcd60e51b815260206004820152602060248201527f4f776e61626c653a2063616c6c6572206973206e6f7420746865206f776e65726044820152fd5b60a0810190811067ffffffffffffffff82111761034f57604052565b610260810190811067ffffffffffffffff82111761034f57604052565b6080810190811067ffffffffffffffff82111761034f57604052565b90601f8019910116810190811067ffffffffffffffff82111761034f57604052565b600052600660205260096040600020015463ffffffff80821691821515928361236b575b83612361575b508261235657505090565b60201c164210919050565b421192503861234b565b9250818160201c16151592612345565b1561238257565b60405162461bcd60e51b815260206004820152601060248201526f14185d5cd8589b194e881c185d5cd95960821b6044820152606490fd5b156123c157565b60405162461bcd60e51b815260206004820152601460248201527314185d5cd8589b194e881b9bdd081c185d5cd95960621b6044820152606490fd5b6000198114610ca05760010190565b91908201809211610ca057565b906103e891828102928184041490151715610ca057565b81810292918115918404141715610ca057565b919091600092818452602090600682526040946009868220015460ff8160681c16156000146125f75763ffffffff8091161561259f57848252600684528060098884200154851c16421061254a578482526006845260098783200154871c1642116124fb578381526006835285902060078101829055600901805460ff60681b1916600160681b1790559351938452919290917f1baa8618187c16370c93561b721a291ed3182b22390099d67e81167f97fbdd3a91a2565b855162461bcd60e51b815260048101849052602260248201527f43616e206f6e6c79206c6f636b206265666f726520656e642074696d6573746160448201526106d760f41b6064820152608490fd5b865162461bcd60e51b815260048101859052602860248201527f43616e206f6e6c79206c6f636b20726f756e64206166746572206c6f636b20746044820152670696d657374616d760c41b6064820152608490fd5b865162461bcd60e51b815260048101859052602b60248201527f43616e206f6e6c79206c6f636b20726f756e6420616674657220726f756e642060448201526a1a185cc81cdd185c9d195960aa1b6064820152608490fd5b50505050509050565b91908203918211610ca057565b9190916000928184526020906006825263ffffffff946040958060098884200154851c16156126f5578482526006845260098783200154871c1642106126a0578381526006835285902060088101829055600901805460ff60701b1916600160701b1790559351938452919290917f8868888cc18628a149bc88cc32a91976ab30e2cd9aececb0cfe184a73fe551f991a2565b855162461bcd60e51b815260048101849052602860248201527f43616e206f6e6c7920656e6420726f756e6420616674657220636c6f736520746044820152670696d657374616d760c41b6064820152608490fd5b865162461bcd60e51b815260048101859052602960248201527f43616e206f6e6c7920656e6420726f756e6420616674657220726f756e642068604482015268185cc81b1bd8dad95960ba1b6064820152608490fd5b8115612755570490565b634e487b7160e01b600052601260045260246000fd5b60018060a01b036001541660009180835260066020526040832060038101541590816128e1575b501561289c5782526006602052604082209082809160018401805493600286019687546127bf818861240c565b600889015460078a015491989111806128345750505050506127e86064915494600c5490612430565b04948315612802575b505050906004915b60038201550155565b828080938193549082821561282b575bf11561281f5780806127f1565b604051903d90823e3d90fd5b506108fc612812565b9196945092985095939095612852575b5050505050906004916127f9565b9193965091935060646128698795600c5490612430565b049515612878575b8080612844565b828080938193828215612893575bf11561281f578080612871565b506108fc612886565b60405162461bcd60e51b815260206004820152601a60248201527f526577617264732063616c63756c6174656420616c72656164790000000000006044820152606490fd5b6004915001541538612792565b156128f557565b60405162461bcd60e51b815260206004820152601560248201527410dbdb9d1c9858dd1cc81b9bdd08185b1b1bddd959605a1b6044820152606490fd5b1561293957565b60405162461bcd60e51b815260206004820152601b60248201527f50726f787920636f6e747261637473206e6f7420616c6c6f77656400000000006044820152606490fd5b1561298557565b60405162461bcd60e51b8152602060048201526012602482015271526f756e64206e6f74206265747461626c6560701b6044820152606490fd5b8054600160401b81101561034f576129dc91600182018155612247565b819291549060031b91821b91600019901b1916179055565b156129fb57565b60405162461bcd60e51b815260206004820152601f60248201527f5265656e7472616e637947756172643a207265656e7472616e742063616c6c006044820152606490fd5b15612a4757565b60405162461bcd60e51b815260206004820152601560248201527442657420697320746f6f206561726c792f6c61746560581b6044820152606490fd5b15612a8b57565b60405162461bcd60e51b815260206004820152602e60248201527f42657420616d6f756e74206d7573742062652067726561746572207468616e2060448201526d1b5a5b9a5b5d5b48185b5bdd5b9d60921b6064820152608490fd5b15612aee57565b60405162461bcd60e51b815260206004820152601b60248201527f43616e206f6e6c7920626574206f6e63652070657220726f756e6400000000006044820152606490fd5b60405190612b40826122e3565b60006060838281528260208201528260408201520152565b60028210156121b05752565b805490600160401b82101561034f576001820180825582101561223157600052600360206000209102019060018060a01b038151169082549060208101519160028310156121b0576001600160a81b03191690921760a09190911b60ff60a01b16178255604081015160018301556060015160029190910155565b90816000526006602052600b6040600020612c27612c226002830154612c1d612c0d6001860154809361240c565b91612c1d60058701549384612430565b61274b565b612419565b600a8201550154612c36575050565b612c3f91612c41565b565b90816000526006602052600a6040600020612c7e612c226002830154612c1d612c6e60018601548361240c565b91612c1d60068701549384612430565b600b8201550154612c8d575050565b612c3f91612bdf565b67ffffffffffffffff811161034f5760051b60200190565b908154612cba81612c96565b92604093612cca855191826122ff565b828152809460208092019260005281600020906000935b858510612cf057505050505050565b6003846001928451612d01816122e3565b612d1e60ff8854878060a01b038116845260a01c16848301612b58565b848701548682015260028701546060820152815201930194019391612ce1565b80518210156122315760209160051b010190565b90600090828252602091600783526040918282209060018060a01b031682528352600482822092805193612d85856122aa565b60ff9281612d97858094541688612b58565b6001810154888801526002810154848801526003810154606088015201541695608085019615158752835260068552808320610240612eb5600d845193612ddd856122c6565b8054855260018101548a8601526002810154868601526003810154606086015260048101546080860152600581015460a0860152600681015460c086015260078101549660e0860197885260088201549a61010087019b8c5260098301548098819263ffffffff9384918282166101208d01521c166101408a01521c16610160870152808760601c161515610180870152808760681c1615156101a0870152806101c087019760701c1615158752600a8201546101e0870152600b820154610200870152600c82015416151561022086015201612cae565b910152815190855190818314612f78575115159687612f6e575b5086612edf575b50505050505090565b119450919290919084612f46575b8415612f03575b50505050388080808080612ed6565b5190511192509082612f1b575b505038808080612ef4565b5191506002821015612f3257506001143880612f10565b634e487b7160e01b81526021600452602490fd5b935082516002811015612f5a571593612eed565b634e487b7160e01b83526021600452602483fd5b5115965038612ecf565b50505050925050509056fea2646970667358221220df37853e96e12f409df82a67faa4cca9dca40701a9e5d4733c06c51763bc1a9264736f6c63430008130033","opcodes":"PUSH1 0x80 DUP1 PUSH1 0x40 MSTORE CALLVALUE PUSH2 0x8E JUMPI PUSH1 0x1 DUP1 PUSH1 0xA0 SHL SUB NOT CALLER DUP2 PUSH1 0x0 SLOAD AND OR PUSH1 0x0 SSTORE CALLER SWAP1 PUSH1 0x1 SLOAD AND OR PUSH1 0x1 SSTORE CALLER PUSH1 0x0 PUSH32 0x8BE0079C531659141344CD1FD0A4F28419497F9722A3DAAFE3B4186F6B6457E0 DUP2 DUP1 LOG3 PUSH1 0xFF NOT PUSH1 0x4 SLOAD AND PUSH1 0x4 SSTORE PUSH1 0x1 PUSH1 0x5 SSTORE PUSH1 0x5F PUSH1 0xC SSTORE PUSH2 0x12C PUSH1 0xD SSTORE PUSH7 0x11C37937E08000 PUSH1 0xE SSTORE PUSH1 0x5 PUSH1 0xF SSTORE PUSH2 0xFFFF NOT PUSH1 0x10 SLOAD AND PUSH1 0x10 SSTORE PUSH2 0x2FB9 SWAP1 DUP2 PUSH2 0x94 DUP3 CODECOPY RETURN JUMPDEST PUSH1 0x0 DUP1 REVERT INVALID PUSH1 0x80 DUP1 PUSH1 0x40 MSTORE PUSH1 0x4 CALLDATASIZE LT ISZERO PUSH2 0x1D JUMPI JUMPDEST POP CALLDATASIZE ISZERO PUSH2 0x1B JUMPI PUSH1 0x0 DUP1 REVERT JUMPDEST STOP JUMPDEST PUSH1 0x0 CALLDATALOAD PUSH1 0xE0 SHR SWAP1 DUP2 PUSH4 0x48DE381 EQ PUSH2 0x215C JUMPI POP DUP1 PUSH4 0x629B2AE EQ PUSH2 0x2133 JUMPI DUP1 PUSH4 0xE7DB6BC EQ PUSH2 0x2038 JUMPI DUP1 PUSH4 0x12065FE0 EQ PUSH2 0x201C JUMPI DUP1 PUSH4 0x13493444 EQ PUSH2 0x1FFE JUMPI DUP1 PUSH4 0x13B622FB EQ PUSH2 0x1F31 JUMPI DUP1 PUSH4 0x16C61CCC EQ PUSH2 0x19CD JUMPI DUP1 PUSH4 0x1946FB78 EQ PUSH2 0x1F03 JUMPI DUP1 PUSH4 0x1F713CAE EQ PUSH2 0x1D94 JUMPI DUP1 PUSH4 0x1FA52D91 EQ PUSH2 0x1C1E JUMPI DUP1 PUSH4 0x20531BC9 EQ PUSH2 0x1C00 JUMPI DUP1 PUSH4 0x273867D4 EQ PUSH2 0x1BC6 JUMPI DUP1 PUSH4 0x36F56BA0 EQ PUSH2 0x1B6D JUMPI DUP1 PUSH4 0x381A5478 EQ PUSH2 0x1B4A JUMPI DUP1 PUSH4 0x3977B381 EQ PUSH2 0x1AC7 JUMPI DUP1 PUSH4 0x48894F0D EQ PUSH2 0x1A6A JUMPI DUP1 PUSH4 0x490D6D11 EQ PUSH2 0x19F0 JUMPI DUP1 PUSH4 0x5C975ABB EQ PUSH2 0x19CD JUMPI DUP1 PUSH4 0x5DCD0D1C EQ PUSH2 0x186C JUMPI DUP1 PUSH4 0x6985A022 EQ PUSH2 0x17F9 JUMPI DUP1 PUSH4 0x6A42C87B EQ PUSH2 0x17D3 JUMPI DUP1 PUSH4 0x76671808 EQ PUSH2 0x17B5 JUMPI DUP1 PUSH4 0x776E11DD EQ PUSH2 0x1719 JUMPI DUP1 PUSH4 0x7B0A47EE EQ PUSH2 0x16FB JUMPI DUP1 PUSH4 0x7BF41254 EQ PUSH2 0x152F JUMPI DUP1 PUSH4 0x8843013B EQ PUSH2 0x14A0 JUMPI DUP1 PUSH4 0x8DA5CB5B EQ PUSH2 0x1477 JUMPI DUP1 PUSH4 0x8F9FA51B EQ PUSH2 0x103C JUMPI DUP1 PUSH4 0x951FD600 EQ PUSH2 0xDDE JUMPI DUP1 PUSH4 0x99B956A0 EQ PUSH2 0xD54 JUMPI DUP1 PUSH4 0x9A69EA2D EQ PUSH2 0xD15 JUMPI DUP1 PUSH4 0xA0C7F71C EQ PUSH2 0xCEF JUMPI DUP1 PUSH4 0xB3E560EB EQ PUSH2 0xB74 JUMPI DUP1 PUSH4 0xBA4F6737 EQ PUSH2 0xB4C JUMPI DUP1 PUSH4 0xBB434F28 EQ PUSH2 0x995 JUMPI DUP1 PUSH4 0xBD776D8A EQ PUSH2 0x7D2 JUMPI DUP1 PUSH4 0xC59D4847 EQ PUSH2 0x78A JUMPI DUP1 PUSH4 0xCF48098E EQ PUSH2 0x732 JUMPI DUP1 PUSH4 0xCF627D53 EQ PUSH2 0x6F0 JUMPI DUP1 PUSH4 0xD5DF9D23 EQ PUSH2 0x5F0 JUMPI DUP1 PUSH4 0xDFC39691 EQ PUSH2 0x52A JUMPI DUP1 PUSH4 0xEDEEB28F EQ PUSH2 0x4B1 JUMPI DUP1 PUSH4 0xF7CB789A EQ PUSH2 0x493 JUMPI DUP1 PUSH4 0xF8E4808A EQ PUSH2 0x3AA JUMPI DUP1 PUSH4 0xF93A466B EQ PUSH2 0x2B0 JUMPI DUP1 PUSH4 0xFA968EEA EQ PUSH2 0x292 JUMPI PUSH4 0xFD5BAB23 EQ PUSH2 0x22F JUMPI CODESIZE PUSH2 0xF JUMP JUMPDEST CALLVALUE PUSH2 0x28D JUMPI PUSH1 0x0 CALLDATASIZE PUSH1 0x3 NOT ADD SLT PUSH2 0x28D JUMPI PUSH1 0x0 DUP1 SLOAD SWAP1 PUSH1 0x1 PUSH1 0x1 PUSH1 0xA0 SHL SUB DUP3 AND PUSH2 0x25A CALLER DUP3 EQ PUSH2 0x225F JUMP JUMPDEST PUSH32 0x8BE0079C531659141344CD1FD0A4F28419497F9722A3DAAFE3B4186F6B6457E0 DUP3 DUP1 LOG3 PUSH1 0x1 PUSH1 0x1 PUSH1 0xA0 SHL SUB NOT AND PUSH1 0x0 SSTORE STOP JUMPDEST PUSH1 0x0 DUP1 REVERT JUMPDEST CALLVALUE PUSH2 0x28D JUMPI PUSH1 0x0 CALLDATASIZE PUSH1 0x3 NOT ADD SLT PUSH2 0x28D JUMPI PUSH1 0x20 PUSH1 0xE SLOAD PUSH1 0x40 MLOAD SWAP1 DUP2 MSTORE RETURN JUMPDEST CALLVALUE PUSH2 0x28D JUMPI PUSH1 0x20 CALLDATASIZE PUSH1 0x3 NOT ADD SLT PUSH2 0x28D JUMPI PUSH2 0x2C9 PUSH2 0x2177 JUMP JUMPDEST PUSH1 0x0 SLOAD PUSH1 0x1 PUSH1 0x1 PUSH1 0xA0 SHL SUB SWAP2 DUP3 SWAP2 PUSH2 0x2E4 SWAP1 DUP4 AND CALLER EQ PUSH2 0x225F JUMP JUMPDEST AND DUP1 PUSH1 0x0 MSTORE PUSH1 0x3 PUSH1 0x20 MSTORE PUSH1 0x1 PUSH1 0xFF PUSH1 0x40 PUSH1 0x0 KECCAK256 SLOAD AND ISZERO ISZERO EQ PUSH2 0x365 JUMPI DUP1 PUSH1 0x0 MSTORE PUSH1 0x3 PUSH1 0x20 MSTORE PUSH1 0x40 PUSH1 0x0 KECCAK256 PUSH1 0x1 PUSH1 0xFF NOT DUP3 SLOAD AND OR SWAP1 SSTORE PUSH1 0x2 SLOAD PUSH1 0x1 PUSH1 0x40 SHL DUP2 LT ISZERO PUSH2 0x34F JUMPI DUP1 PUSH1 0x1 PUSH2 0x338 SWAP3 ADD PUSH1 0x2 SSTORE PUSH2 0x21FA JUMP JUMPDEST SWAP1 SWAP3 DUP4 SLOAD SWAP2 PUSH1 0x3 SHL SWAP3 DUP4 SHL SWAP3 SHL NOT AND OR SWAP1 SSTORE PUSH1 0x0 DUP1 RETURN JUMPDEST PUSH4 0x4E487B71 PUSH1 0xE0 SHL PUSH1 0x0 MSTORE PUSH1 0x41 PUSH1 0x4 MSTORE PUSH1 0x24 PUSH1 0x0 REVERT JUMPDEST PUSH1 0x40 MLOAD PUSH3 0x461BCD PUSH1 0xE5 SHL DUP2 MSTORE PUSH1 0x20 PUSH1 0x4 DUP3 ADD MSTORE PUSH1 0x1E PUSH1 0x24 DUP3 ADD MSTORE PUSH32 0x4164647265737320616C726561647920657869737420696E20636861696E0000 PUSH1 0x44 DUP3 ADD MSTORE PUSH1 0x64 SWAP1 REVERT JUMPDEST CALLVALUE PUSH2 0x28D JUMPI PUSH1 0x20 CALLDATASIZE PUSH1 0x3 NOT ADD SLT PUSH2 0x28D JUMPI PUSH2 0x3C3 PUSH2 0x2177 JUMP JUMPDEST PUSH1 0x0 SLOAD PUSH1 0x1 PUSH1 0x1 PUSH1 0xA0 SHL SUB SWAP2 SWAP1 PUSH2 0x3DD SWAP1 DUP4 AND CALLER EQ PUSH2 0x225F JUMP JUMPDEST AND DUP1 PUSH1 0x0 MSTORE PUSH1 0x3 PUSH1 0x20 MSTORE PUSH1 0x1 PUSH1 0xFF PUSH1 0x40 PUSH1 0x0 KECCAK256 SLOAD AND ISZERO ISZERO SUB PUSH2 0x411 JUMPI PUSH1 0x0 SWAP1 DUP2 MSTORE PUSH1 0x3 PUSH1 0x20 MSTORE PUSH1 0x40 SWAP1 KECCAK256 DUP1 SLOAD PUSH1 0xFF NOT AND SWAP1 SSTORE STOP JUMPDEST PUSH1 0x40 MLOAD PUSH3 0x461BCD PUSH1 0xE5 SHL DUP2 MSTORE PUSH1 0x20 PUSH1 0x4 DUP3 ADD MSTORE PUSH1 0x4E PUSH1 0x24 DUP3 ADD MSTORE PUSH32 0x54686520616464726573732073686F756C6420626520617661696C61626C6520 PUSH1 0x44 DUP3 ADD MSTORE PUSH32 0x696E20636861696E20696E6F7264657220746F2072656D6F76652041646D696E PUSH1 0x64 DUP3 ADD MSTORE PUSH14 0x20456E7469747920416363657373 PUSH1 0x90 SHL PUSH1 0x84 DUP3 ADD MSTORE PUSH1 0xA4 SWAP1 REVERT JUMPDEST CALLVALUE PUSH2 0x28D JUMPI PUSH1 0x0 CALLDATASIZE PUSH1 0x3 NOT ADD SLT PUSH2 0x28D JUMPI PUSH1 0x20 PUSH1 0xD SLOAD PUSH1 0x40 MLOAD SWAP1 DUP2 MSTORE RETURN JUMPDEST CALLVALUE PUSH2 0x28D JUMPI PUSH1 0x20 CALLDATASIZE PUSH1 0x3 NOT ADD SLT PUSH2 0x28D JUMPI PUSH1 0x4 CALLDATALOAD PUSH2 0x4DA PUSH1 0x1 DUP1 PUSH1 0xA0 SHL SUB PUSH1 0x0 SLOAD AND CALLER EQ PUSH2 0x225F JUMP JUMPDEST DUP1 ISZERO PUSH2 0x4E5 JUMPI PUSH1 0xB SSTORE STOP JUMPDEST PUSH1 0x40 MLOAD PUSH3 0x461BCD PUSH1 0xE5 SHL DUP2 MSTORE PUSH1 0x20 PUSH1 0x4 DUP3 ADD MSTORE PUSH1 0x1D PUSH1 0x24 DUP3 ADD MSTORE PUSH32 0x507269636520736F757263652063616E206E6F7420626520656D707479000000 PUSH1 0x44 DUP3 ADD MSTORE PUSH1 0x64 SWAP1 REVERT JUMPDEST CALLVALUE PUSH2 0x28D JUMPI PUSH1 0x20 CALLDATASIZE PUSH1 0x3 NOT ADD SLT PUSH2 0x28D JUMPI PUSH2 0x543 PUSH2 0x2177 JUMP JUMPDEST PUSH1 0x0 SLOAD PUSH1 0x1 PUSH1 0x1 PUSH1 0xA0 SHL SUB DUP1 DUP3 AND SWAP3 PUSH2 0x55D CALLER DUP6 EQ PUSH2 0x225F JUMP JUMPDEST AND SWAP2 DUP3 ISZERO PUSH2 0x59C JUMPI DUP3 SWAP1 PUSH32 0x8BE0079C531659141344CD1FD0A4F28419497F9722A3DAAFE3B4186F6B6457E0 PUSH1 0x0 DUP1 LOG3 PUSH1 0x1 PUSH1 0x1 PUSH1 0xA0 SHL SUB NOT AND OR PUSH1 0x0 SSTORE STOP JUMPDEST PUSH1 0x40 MLOAD PUSH3 0x461BCD PUSH1 0xE5 SHL DUP2 MSTORE PUSH1 0x20 PUSH1 0x4 DUP3 ADD MSTORE PUSH1 0x26 PUSH1 0x24 DUP3 ADD MSTORE PUSH32 0x4F776E61626C653A206E6577206F776E657220697320746865207A65726F2061 PUSH1 0x44 DUP3 ADD MSTORE PUSH6 0x646472657373 PUSH1 0xD0 SHL PUSH1 0x64 DUP3 ADD MSTORE PUSH1 0x84 SWAP1 REVERT JUMPDEST CALLVALUE PUSH2 0x28D JUMPI PUSH1 0x20 CALLDATASIZE PUSH1 0x3 NOT ADD SLT PUSH2 0x28D JUMPI PUSH1 0x4 CALLDATALOAD PUSH1 0x0 MSTORE PUSH1 0x6 PUSH1 0x20 MSTORE PUSH2 0x240 PUSH1 0x40 PUSH1 0x0 KECCAK256 DUP1 SLOAD SWAP1 PUSH1 0x1 DUP2 ADD SLOAD SWAP1 PUSH1 0x2 DUP2 ADD SLOAD PUSH1 0xFF PUSH1 0x3 DUP4 ADD SLOAD PUSH1 0x4 DUP5 ADD SLOAD PUSH1 0x5 DUP6 ADD SLOAD PUSH1 0x6 DUP7 ADD SLOAD PUSH1 0x7 DUP8 ADD SLOAD SWAP2 PUSH1 0x8 DUP9 ADD SLOAD SWAP4 PUSH1 0x9 DUP10 ADD SLOAD SWAP6 PUSH1 0xA DUP11 ADD SLOAD SWAP9 DUP9 PUSH1 0xC PUSH1 0xB DUP14 ADD SLOAD SWAP13 ADD SLOAD AND SWAP12 PUSH1 0x20 PUSH1 0x40 MLOAD SWAP15 DUP16 SWAP1 DUP2 MSTORE ADD MSTORE PUSH1 0x40 DUP14 ADD MSTORE PUSH1 0x60 DUP13 ADD MSTORE PUSH1 0x80 DUP12 ADD MSTORE PUSH1 0xA0 DUP11 ADD MSTORE PUSH1 0xC0 DUP10 ADD MSTORE PUSH1 0xE0 DUP9 ADD MSTORE PUSH2 0x100 DUP8 ADD MSTORE PUSH4 0xFFFFFFFF DUP1 DUP3 AND PUSH2 0x120 DUP9 ADD MSTORE DUP1 DUP3 PUSH1 0x20 SHR AND PUSH2 0x140 DUP9 ADD MSTORE DUP2 PUSH1 0x40 SHR AND PUSH2 0x160 DUP8 ADD MSTORE DUP2 DUP2 PUSH1 0x60 SHR AND ISZERO ISZERO PUSH2 0x180 DUP8 ADD MSTORE DUP2 DUP2 PUSH1 0x68 SHR AND ISZERO ISZERO PUSH2 0x1A0 DUP8 ADD MSTORE PUSH1 0x70 SHR AND ISZERO ISZERO PUSH2 0x1C0 DUP6 ADD MSTORE PUSH2 0x1E0 DUP5 ADD MSTORE PUSH2 0x200 DUP4 ADD MSTORE ISZERO ISZERO PUSH2 0x220 DUP3 ADD MSTORE RETURN JUMPDEST CALLVALUE PUSH2 0x28D JUMPI PUSH1 0x20 CALLDATASIZE PUSH1 0x3 NOT ADD SLT PUSH2 0x28D JUMPI PUSH1 0x4 CALLDATALOAD PUSH1 0x2 SLOAD DUP2 LT ISZERO PUSH2 0x28D JUMPI PUSH2 0x719 PUSH1 0x20 SWAP2 PUSH2 0x21FA JUMP JUMPDEST SWAP1 SLOAD PUSH1 0x40 MLOAD PUSH1 0x3 SWAP3 SWAP1 SWAP3 SHL SHR PUSH1 0x1 PUSH1 0x1 PUSH1 0xA0 SHL SUB AND DUP2 MSTORE RETURN JUMPDEST CALLVALUE PUSH2 0x28D JUMPI PUSH1 0x40 CALLDATASIZE PUSH1 0x3 NOT ADD SLT PUSH2 0x28D JUMPI PUSH2 0x74B PUSH2 0x2177 JUMP JUMPDEST PUSH1 0x1 PUSH1 0x1 PUSH1 0xA0 SHL SUB AND PUSH1 0x0 SWAP1 DUP2 MSTORE PUSH1 0x9 PUSH1 0x20 MSTORE PUSH1 0x40 SWAP1 KECCAK256 DUP1 SLOAD PUSH1 0x24 CALLDATALOAD SWAP2 SWAP1 DUP3 LT ISZERO PUSH2 0x28D JUMPI PUSH1 0x20 SWAP2 PUSH2 0x77C SWAP2 PUSH2 0x2247 JUMP JUMPDEST SWAP1 SLOAD PUSH1 0x40 MLOAD SWAP2 PUSH1 0x3 SHL SHR DUP2 MSTORE RETURN JUMPDEST CALLVALUE PUSH2 0x28D JUMPI PUSH1 0x0 CALLDATASIZE PUSH1 0x3 NOT ADD SLT PUSH2 0x28D JUMPI PUSH1 0xC0 PUSH1 0x11 SLOAD PUSH1 0x12 SLOAD PUSH1 0x13 SLOAD PUSH1 0x14 SLOAD PUSH1 0x15 SLOAD SWAP2 PUSH1 0x16 SLOAD SWAP4 PUSH1 0x40 MLOAD SWAP6 DUP7 MSTORE PUSH1 0x20 DUP7 ADD MSTORE PUSH1 0x40 DUP6 ADD MSTORE PUSH1 0x60 DUP5 ADD MSTORE PUSH1 0x80 DUP4 ADD MSTORE PUSH1 0xA0 DUP3 ADD MSTORE RETURN JUMPDEST PUSH1 0x20 DUP1 PUSH1 0x3 NOT CALLDATASIZE ADD SLT PUSH2 0x28D JUMPI PUSH1 0x4 CALLDATALOAD SWAP1 PUSH2 0x7F2 PUSH1 0xFF PUSH1 0x4 SLOAD AND ISZERO PUSH2 0x237B JUMP JUMPDEST PUSH2 0x801 PUSH1 0x2 PUSH1 0x5 SLOAD EQ ISZERO PUSH2 0x29F4 JUMP JUMPDEST PUSH1 0x2 PUSH1 0x5 SSTORE PUSH2 0x811 CALLER EXTCODESIZE ISZERO PUSH2 0x28EE JUMP JUMPDEST PUSH2 0x81C ORIGIN CALLER EQ PUSH2 0x2932 JUMP JUMPDEST PUSH2 0x829 PUSH1 0xA SLOAD DUP4 EQ PUSH2 0x2A40 JUMP JUMPDEST PUSH2 0x83A PUSH2 0x835 DUP4 PUSH2 0x2321 JUMP JUMPDEST PUSH2 0x297E JUMP JUMPDEST PUSH2 0x848 PUSH1 0xE SLOAD CALLVALUE LT ISZERO PUSH2 0x2A84 JUMP JUMPDEST DUP2 PUSH1 0x0 MSTORE PUSH1 0x7 DUP2 MSTORE PUSH1 0x40 PUSH1 0x0 KECCAK256 CALLER PUSH1 0x0 MSTORE DUP2 MSTORE PUSH2 0x86D PUSH1 0x3 PUSH1 0x40 PUSH1 0x0 KECCAK256 ADD SLOAD ISZERO PUSH2 0x2AE7 JUMP JUMPDEST DUP2 PUSH1 0x0 MSTORE PUSH1 0x6 DUP2 MSTORE PUSH2 0x93A PUSH1 0x40 PUSH1 0x0 KECCAK256 PUSH1 0x2 DUP2 ADD PUSH2 0x88C CALLVALUE DUP3 SLOAD PUSH2 0x240C JUMP JUMPDEST SWAP1 SSTORE CALLVALUE PUSH1 0x6 DUP3 ADD SSTORE DUP4 PUSH1 0x0 MSTORE PUSH1 0x7 DUP4 MSTORE PUSH1 0x40 PUSH1 0x0 KECCAK256 CALLER PUSH1 0x0 MSTORE DUP4 MSTORE PUSH1 0x40 PUSH1 0x0 KECCAK256 PUSH1 0x1 PUSH1 0xFF NOT DUP3 SLOAD AND OR DUP2 SSTORE CALLVALUE PUSH1 0x3 DUP3 ADD SSTORE PUSH1 0x1 TIMESTAMP SWAP2 ADD SSTORE PUSH1 0x8 DUP4 MSTORE PUSH1 0x4 PUSH1 0x40 PUSH1 0x0 KECCAK256 DUP6 PUSH1 0x1 DUP3 ADD SSTORE ADD PUSH2 0x8DF DUP2 SLOAD PUSH2 0x23FD JUMP JUMPDEST SWAP1 SSTORE CALLER PUSH1 0x0 MSTORE PUSH1 0x8 DUP4 MSTORE PUSH1 0x5 PUSH1 0x40 PUSH1 0x0 KECCAK256 ADD PUSH2 0x8FC CALLVALUE DUP3 SLOAD PUSH2 0x240C JUMP JUMPDEST SWAP1 SSTORE CALLER PUSH1 0x0 MSTORE PUSH1 0x9 DUP4 MSTORE PUSH2 0x914 DUP5 PUSH1 0x40 PUSH1 0x0 KECCAK256 PUSH2 0x29BF JUMP JUMPDEST PUSH1 0xD PUSH2 0x91E PUSH2 0x2B33 JUMP JUMPDEST SWAP2 CALLER DUP4 MSTORE PUSH1 0x1 DUP6 DUP5 ADD MSTORE CALLVALUE PUSH1 0x40 DUP5 ADD MSTORE TIMESTAMP PUSH1 0x60 DUP5 ADD MSTORE ADD PUSH2 0x2B64 JUMP JUMPDEST PUSH2 0x945 PUSH1 0x13 SLOAD PUSH2 0x23FD JUMP JUMPDEST PUSH1 0x13 SSTORE PUSH2 0x954 CALLVALUE PUSH1 0x14 SLOAD PUSH2 0x240C JUMP JUMPDEST PUSH1 0x14 SSTORE PUSH32 0x93349B5CB1CDD80EA47C8A040B8C0E31E219E0665C1EB33D9A7B2D3FAD11E224 PUSH1 0x40 MLOAD SWAP2 CALLVALUE DUP4 MSTORE CALLER SWAP3 LOG3 PUSH2 0x98E CALLER PUSH1 0xA SLOAD PUSH2 0x2C41 JUMP JUMPDEST PUSH1 0x1 PUSH1 0x5 SSTORE STOP JUMPDEST PUSH1 0x20 DUP1 PUSH1 0x3 NOT CALLDATASIZE ADD SLT PUSH2 0x28D JUMPI PUSH2 0x98E SWAP1 PUSH2 0xAF8 PUSH1 0x4 CALLDATALOAD PUSH2 0x9BB PUSH1 0xFF PUSH1 0x4 SLOAD AND ISZERO PUSH2 0x237B JUMP JUMPDEST PUSH2 0x9CA PUSH1 0x2 PUSH1 0x5 SLOAD EQ ISZERO PUSH2 0x29F4 JUMP JUMPDEST PUSH1 0x2 PUSH1 0x5 SSTORE PUSH2 0x9DA CALLER EXTCODESIZE ISZERO PUSH2 0x28EE JUMP JUMPDEST PUSH2 0x9E5 ORIGIN CALLER EQ PUSH2 0x2932 JUMP JUMPDEST PUSH2 0x9F2 PUSH1 0xA SLOAD DUP3 EQ PUSH2 0x2A40 JUMP JUMPDEST PUSH2 0x9FE PUSH2 0x835 DUP3 PUSH2 0x2321 JUMP JUMPDEST PUSH2 0xA0C PUSH1 0xE SLOAD CALLVALUE LT ISZERO PUSH2 0x2A84 JUMP JUMPDEST DUP1 PUSH1 0x0 MSTORE PUSH1 0x7 DUP4 MSTORE PUSH1 0x40 PUSH1 0x0 KECCAK256 CALLER PUSH1 0x0 MSTORE DUP4 MSTORE PUSH2 0xA31 PUSH1 0x3 PUSH1 0x40 PUSH1 0x0 KECCAK256 ADD SLOAD ISZERO PUSH2 0x2AE7 JUMP JUMPDEST DUP1 PUSH1 0x0 MSTORE PUSH1 0x6 DUP4 MSTORE PUSH2 0xAD2 PUSH1 0x40 PUSH1 0x0 KECCAK256 SWAP2 PUSH1 0x1 DUP4 ADD PUSH2 0xA51 CALLVALUE DUP3 SLOAD PUSH2 0x240C JUMP JUMPDEST SWAP1 SSTORE CALLVALUE PUSH1 0x5 DUP5 ADD SSTORE DUP1 PUSH1 0x0 MSTORE PUSH1 0x7 DUP6 MSTORE PUSH1 0x40 PUSH1 0x0 KECCAK256 CALLER PUSH1 0x0 MSTORE DUP6 MSTORE PUSH1 0x40 PUSH1 0x0 KECCAK256 PUSH1 0xFF NOT DUP2 SLOAD AND DUP2 SSTORE CALLVALUE PUSH1 0x3 DUP3 ADD SSTORE PUSH1 0x1 TIMESTAMP SWAP2 ADD SSTORE PUSH1 0x8 DUP6 MSTORE PUSH1 0x2 PUSH1 0x40 PUSH1 0x0 KECCAK256 DUP3 PUSH1 0x1 DUP3 ADD SSTORE ADD PUSH2 0xAA1 DUP2 SLOAD PUSH2 0x23FD JUMP JUMPDEST SWAP1 SSTORE CALLER PUSH1 0x0 MSTORE PUSH1 0x8 DUP6 MSTORE PUSH1 0x3 PUSH1 0x40 PUSH1 0x0 KECCAK256 ADD PUSH2 0xABE CALLVALUE DUP3 SLOAD PUSH2 0x240C JUMP JUMPDEST SWAP1 SSTORE CALLER PUSH1 0x0 MSTORE PUSH1 0x9 DUP6 MSTORE PUSH1 0x40 PUSH1 0x0 KECCAK256 PUSH2 0x29BF JUMP JUMPDEST PUSH1 0xD PUSH2 0xADC PUSH2 0x2B33 JUMP JUMPDEST SWAP2 CALLER DUP4 MSTORE PUSH1 0x0 DUP6 DUP5 ADD MSTORE CALLVALUE PUSH1 0x40 DUP5 ADD MSTORE TIMESTAMP PUSH1 0x60 DUP5 ADD MSTORE ADD PUSH2 0x2B64 JUMP JUMPDEST PUSH2 0xB03 PUSH1 0x11 SLOAD PUSH2 0x23FD JUMP JUMPDEST PUSH1 0x11 SSTORE PUSH2 0xB12 CALLVALUE PUSH1 0x12 SLOAD PUSH2 0x240C JUMP JUMPDEST PUSH1 0x12 SSTORE PUSH1 0xA SLOAD DUP1 SWAP2 PUSH32 0x49237630B34A73A6A12F9D3D4A305DDD6E3A359CC147FFB7A5F18C08F736BC25 PUSH1 0x40 MLOAD SWAP2 CALLVALUE DUP4 MSTORE CALLER SWAP3 LOG3 CALLER SWAP1 PUSH2 0x2BDF JUMP JUMPDEST CALLVALUE PUSH2 0x28D JUMPI PUSH1 0x20 CALLDATASIZE PUSH1 0x3 NOT ADD SLT PUSH2 0x28D JUMPI PUSH1 0x20 PUSH2 0xB6A PUSH1 0x4 CALLDATALOAD PUSH2 0x2321 JUMP JUMPDEST PUSH1 0x40 MLOAD SWAP1 ISZERO ISZERO DUP2 MSTORE RETURN JUMPDEST CALLVALUE PUSH2 0x28D JUMPI PUSH1 0x0 CALLDATASIZE PUSH1 0x3 NOT ADD SLT PUSH2 0x28D JUMPI PUSH2 0xB9A PUSH1 0x1 DUP1 PUSH1 0xA0 SHL SUB PUSH1 0x0 SLOAD AND CALLER EQ PUSH2 0x225F JUMP JUMPDEST PUSH1 0xFF PUSH1 0x10 SLOAD AND ISZERO PUSH2 0xCB6 JUMPI PUSH2 0xBB4 PUSH1 0xA SLOAD PUSH1 0xB SLOAD SWAP1 PUSH2 0x2443 JUMP JUMPDEST PUSH2 0xBBF PUSH1 0xA SLOAD PUSH2 0x23FD JUMP JUMPDEST DUP1 PUSH1 0xA SSTORE PUSH1 0xFF PUSH1 0x4 SLOAD AND ISZERO DUP1 PUSH2 0xBD1 JUMPI STOP JUMPDEST PUSH2 0xBDA SWAP1 PUSH2 0x237B JUMP JUMPDEST DUP1 PUSH1 0x0 MSTORE PUSH1 0x6 PUSH1 0x20 MSTORE PUSH1 0x40 PUSH1 0x0 KECCAK256 PUSH4 0xFFFFFFFF TIMESTAMP AND PUSH1 0x9 DUP3 ADD SWAP2 DUP3 SLOAD SWAP2 DUP1 PUSH4 0xFFFFFFFF NOT DUP5 AND OR DUP5 SSTORE PUSH8 0xFFFFFFFF00000000 PUSH2 0xC18 PUSH1 0xD SLOAD TIMESTAMP PUSH2 0x240C JUMP JUMPDEST PUSH1 0x20 SHL AND SWAP1 DUP2 DUP2 PUSH8 0xFFFFFFFFFFFFFFFF NOT DUP7 AND OR OR DUP6 SSTORE PUSH1 0xD SLOAD PUSH1 0x1 DUP1 PUSH1 0xFF SHL SUB DUP2 AND DUP2 SUB PUSH2 0xCA0 JUMPI PUSH4 0xFFFFFFFF PUSH1 0x40 SHL PUSH2 0xC57 DUP9 SWAP3 PUSH1 0x1 SHL TIMESTAMP PUSH2 0x240C JUMP JUMPDEST PUSH1 0x40 SHL AND SWAP4 SSTORE PUSH1 0x1 PUSH1 0x60 SHL SWAP4 PUSH13 0xFFFFFFFFFFFFFFFFFFFFFFFFFF NOT AND OR OR OR OR SWAP1 SSTORE PUSH32 0x33A701182892FD888ED152CA2AC23771A32E814469B7CD255965471E1AF3A659 PUSH1 0x0 DUP1 LOG2 STOP JUMPDEST PUSH4 0x4E487B71 PUSH1 0xE0 SHL PUSH1 0x0 MSTORE PUSH1 0x11 PUSH1 0x4 MSTORE PUSH1 0x24 PUSH1 0x0 REVERT JUMPDEST PUSH1 0x40 MLOAD PUSH3 0x461BCD PUSH1 0xE5 SHL DUP2 MSTORE PUSH1 0x20 PUSH1 0x4 DUP3 ADD MSTORE PUSH1 0x11 PUSH1 0x24 DUP3 ADD MSTORE PUSH17 0x149BDD5B99081B9BDD081CDD185C9D1959 PUSH1 0x7A SHL PUSH1 0x44 DUP3 ADD MSTORE PUSH1 0x64 SWAP1 REVERT JUMPDEST CALLVALUE PUSH2 0x28D JUMPI PUSH1 0x40 CALLDATASIZE PUSH1 0x3 NOT ADD SLT PUSH2 0x28D JUMPI PUSH1 0x20 PUSH2 0xB6A PUSH2 0xD0D PUSH2 0x218D JUMP JUMPDEST PUSH1 0x4 CALLDATALOAD PUSH2 0x2D52 JUMP JUMPDEST CALLVALUE PUSH2 0x28D JUMPI PUSH1 0x20 CALLDATASIZE PUSH1 0x3 NOT ADD SLT PUSH2 0x28D JUMPI PUSH1 0x1 PUSH1 0x1 PUSH1 0xA0 SHL SUB PUSH2 0xD36 PUSH2 0x2177 JUMP JUMPDEST AND PUSH1 0x0 MSTORE PUSH1 0x3 PUSH1 0x20 MSTORE PUSH1 0x20 PUSH1 0xFF PUSH1 0x40 PUSH1 0x0 KECCAK256 SLOAD AND PUSH1 0x40 MLOAD SWAP1 ISZERO ISZERO DUP2 MSTORE RETURN JUMPDEST CALLVALUE PUSH2 0x28D JUMPI PUSH1 0x20 CALLDATASIZE PUSH1 0x3 NOT ADD SLT PUSH2 0x28D JUMPI PUSH2 0x100 PUSH1 0x1 PUSH1 0x1 PUSH1 0xA0 SHL SUB DUP1 PUSH2 0xD79 PUSH2 0x2177 JUMP JUMPDEST AND PUSH1 0x0 MSTORE PUSH1 0x8 PUSH1 0x20 MSTORE PUSH1 0x40 PUSH1 0x0 KECCAK256 SWAP1 DUP2 SLOAD AND SWAP1 PUSH1 0x1 DUP2 ADD SLOAD SWAP1 PUSH1 0x2 DUP2 ADD SLOAD PUSH1 0x3 DUP3 ADD SLOAD PUSH1 0x4 DUP4 ADD SLOAD SWAP1 PUSH1 0x5 DUP5 ADD SLOAD SWAP3 PUSH1 0x7 PUSH1 0x6 DUP7 ADD SLOAD SWAP6 ADD SLOAD SWAP6 PUSH1 0x40 MLOAD SWAP8 DUP9 MSTORE PUSH1 0x20 DUP9 ADD MSTORE PUSH1 0x40 DUP8 ADD MSTORE PUSH1 0x60 DUP7 ADD MSTORE PUSH1 0x80 DUP6 ADD MSTORE PUSH1 0xA0 DUP5 ADD MSTORE PUSH1 0xC0 DUP4 ADD MSTORE PUSH1 0xE0 DUP3 ADD MSTORE RETURN JUMPDEST CALLVALUE PUSH2 0x28D JUMPI PUSH1 0x60 DUP1 PUSH1 0x3 NOT CALLDATASIZE ADD SLT PUSH2 0x28D JUMPI PUSH2 0xDF8 PUSH2 0x2177 JUMP JUMPDEST PUSH1 0x24 CALLDATALOAD PUSH1 0x44 CALLDATALOAD SWAP2 PUSH1 0x1 DUP1 PUSH1 0xA0 SHL SUB AND SWAP1 DUP2 PUSH1 0x0 MSTORE PUSH1 0x9 SWAP3 PUSH1 0x20 SWAP2 DUP5 DUP4 MSTORE PUSH2 0xE24 DUP2 PUSH1 0x40 PUSH1 0x0 KECCAK256 SLOAD PUSH2 0x2600 JUMP JUMPDEST DUP3 GT PUSH2 0x101E JUMPI JUMPDEST PUSH2 0xE34 DUP3 PUSH2 0x2C96 JUMP JUMPDEST SWAP5 PUSH2 0xE42 PUSH1 0x40 MLOAD SWAP7 DUP8 PUSH2 0x22FF JUMP JUMPDEST DUP3 DUP7 MSTORE PUSH1 0x1F NOT SWAP5 DUP6 PUSH2 0xE53 DUP6 PUSH2 0x2C96 JUMP JUMPDEST ADD CALLDATASIZE DUP7 DUP10 ADD CALLDATACOPY PUSH2 0xE62 DUP5 PUSH2 0x2C96 JUMP JUMPDEST SWAP6 PUSH2 0xE70 PUSH1 0x40 MLOAD SWAP8 DUP9 PUSH2 0x22FF JUMP JUMPDEST DUP5 DUP8 MSTORE PUSH2 0xE7C DUP6 PUSH2 0x2C96 JUMP JUMPDEST ADD DUP6 PUSH1 0x0 JUMPDEST DUP3 DUP2 LT PUSH2 0xFE6 JUMPI POP POP POP PUSH1 0x0 JUMPDEST DUP5 DUP2 LT PUSH2 0xF29 JUMPI POP POP POP SWAP1 PUSH2 0xEA2 SWAP2 PUSH2 0x240C JUMP JUMPDEST SWAP1 PUSH2 0xEB6 PUSH1 0x40 MLOAD SWAP5 DUP7 DUP7 MSTORE DUP7 DUP7 ADD SWAP1 PUSH2 0x21C6 JUMP JUMPDEST DUP5 DUP2 SUB DUP3 DUP7 ADD MSTORE DUP2 DUP1 DUP6 MLOAD SWAP3 DUP4 DUP2 MSTORE ADD SWAP5 ADD SWAP2 PUSH1 0x0 JUMPDEST DUP3 DUP2 LT PUSH2 0xEE0 JUMPI DUP7 DUP1 DUP8 DUP8 PUSH1 0x40 DUP4 ADD MSTORE SUB SWAP1 RETURN JUMPDEST SWAP1 SWAP2 SWAP3 SWAP5 DUP3 PUSH1 0xA0 PUSH1 0x1 SWAP3 DUP9 MLOAD PUSH2 0xEF7 DUP3 DUP3 MLOAD PUSH2 0x21A3 JUMP JUMPDEST DUP1 DUP5 ADD MLOAD DUP3 DUP6 ADD MSTORE PUSH1 0x40 DUP1 DUP3 ADD MLOAD SWAP1 DUP4 ADD MSTORE DUP12 DUP2 ADD MLOAD DUP13 DUP4 ADD MSTORE PUSH1 0x80 SWAP1 DUP2 ADD MLOAD ISZERO ISZERO SWAP1 DUP3 ADD MSTORE ADD SWAP7 ADD SWAP4 SWAP3 SWAP2 ADD PUSH2 0xECC JUMP JUMPDEST PUSH2 0xFE1 SWAP1 DUP3 PUSH1 0x0 MSTORE DUP4 DUP8 MSTORE PUSH2 0xF4C PUSH1 0x40 PUSH1 0x0 KECCAK256 PUSH2 0xF46 DUP4 DUP9 PUSH2 0x240C JUMP JUMPDEST SWAP1 PUSH2 0x2247 JUMP JUMPDEST SWAP1 SLOAD PUSH1 0x3 SWAP2 DUP3 SHL SHR PUSH2 0xF5E DUP4 DUP13 PUSH2 0x2D3E JUMP JUMPDEST MSTORE PUSH2 0xF69 DUP3 DUP12 PUSH2 0x2D3E JUMP JUMPDEST MLOAD PUSH1 0x0 MSTORE PUSH1 0x7 DUP9 MSTORE PUSH1 0x40 PUSH1 0x0 KECCAK256 DUP5 PUSH1 0x0 MSTORE DUP9 MSTORE PUSH1 0x40 PUSH1 0x0 KECCAK256 SWAP1 PUSH1 0x4 PUSH1 0x40 MLOAD SWAP3 PUSH2 0xF91 DUP5 PUSH2 0x22AA JUMP JUMPDEST DUP14 PUSH1 0xFF SWAP4 PUSH2 0xFA2 DUP6 DUP5 SLOAD AND DUP8 PUSH2 0x2B58 JUMP JUMPDEST PUSH1 0x1 DUP4 ADD SLOAD DUP14 DUP8 ADD MSTORE PUSH1 0x2 DUP4 ADD SLOAD PUSH1 0x40 DUP8 ADD MSTORE DUP3 ADD SLOAD SWAP1 DUP6 ADD MSTORE ADD SLOAD AND ISZERO ISZERO PUSH1 0x80 DUP3 ADD MSTORE PUSH2 0xFD0 DUP3 DUP11 PUSH2 0x2D3E JUMP JUMPDEST MSTORE PUSH2 0xFDB DUP2 DUP10 PUSH2 0x2D3E JUMP JUMPDEST POP PUSH2 0x23FD JUMP JUMPDEST PUSH2 0xE8E JUMP JUMPDEST PUSH1 0x40 MLOAD PUSH2 0xFF2 DUP2 PUSH2 0x22AA JUMP JUMPDEST PUSH1 0x0 DUP2 MSTORE PUSH1 0x0 DUP4 DUP3 ADD MSTORE PUSH1 0x0 PUSH1 0x40 DUP3 ADD MSTORE PUSH1 0x0 DUP13 DUP3 ADD MSTORE PUSH1 0x0 PUSH1 0x80 DUP3 ADD MSTORE DUP3 DUP3 DUP12 ADD ADD MSTORE ADD DUP7 SWAP1 PUSH2 0xE81 JUMP JUMPDEST SWAP1 POP DUP3 PUSH1 0x0 MSTORE DUP4 DUP3 MSTORE PUSH2 0x1036 DUP2 PUSH1 0x40 PUSH1 0x0 KECCAK256 SLOAD PUSH2 0x2600 JUMP JUMPDEST SWAP1 PUSH2 0xE2B JUMP JUMPDEST PUSH1 0x20 CALLDATASIZE PUSH1 0x3 NOT ADD SLT PUSH2 0x28D JUMPI PUSH8 0xFFFFFFFFFFFFFFFF DUP1 PUSH1 0x4 CALLDATALOAD GT PUSH2 0x28D JUMPI CALLDATASIZE PUSH1 0x23 PUSH1 0x4 CALLDATALOAD ADD SLT ISZERO PUSH2 0x28D JUMPI PUSH1 0x4 CALLDATALOAD PUSH1 0x4 ADD CALLDATALOAD SWAP1 DUP1 DUP3 GT PUSH2 0x28D JUMPI PUSH1 0x24 SWAP1 PUSH1 0x5 SWAP3 CALLDATASIZE DUP4 DUP3 DUP7 SHL PUSH1 0x4 CALLDATALOAD ADD ADD GT PUSH2 0x28D JUMPI PUSH2 0x1099 PUSH1 0x2 DUP6 SLOAD EQ ISZERO PUSH2 0x29F4 JUMP JUMPDEST PUSH1 0x2 DUP5 SSTORE PUSH2 0x10A8 CALLER EXTCODESIZE ISZERO PUSH2 0x28EE JUMP JUMPDEST PUSH2 0x10B3 ORIGIN CALLER EQ PUSH2 0x2932 JUMP JUMPDEST PUSH1 0x0 SWAP1 PUSH1 0x0 JUMPDEST DUP2 DUP2 LT PUSH2 0x11C7 JUMPI POP POP DUP1 ISZERO PUSH2 0x1177 JUMPI PUSH1 0x0 DUP1 DUP1 DUP1 SWAP4 CALLER GAS CALL SWAP1 RETURNDATASIZE ISZERO PUSH2 0x1171 JUMPI RETURNDATASIZE SWAP1 DUP2 GT PUSH2 0x115C JUMPI PUSH1 0x40 MLOAD SWAP1 PUSH2 0x10F8 PUSH1 0x1F DUP3 ADD PUSH1 0x1F NOT AND PUSH1 0x20 ADD DUP4 PUSH2 0x22FF JUMP JUMPDEST DUP2 MSTORE PUSH1 0x0 PUSH1 0x20 RETURNDATASIZE SWAP3 ADD RETURNDATACOPY JUMPDEST ISZERO PUSH2 0x110E JUMPI PUSH1 0x1 DUP3 SSTORE STOP JUMPDEST PUSH1 0x84 SWAP1 PUSH1 0x21 PUSH1 0x40 MLOAD SWAP2 PUSH3 0x461BCD PUSH1 0xE5 SHL DUP4 MSTORE PUSH1 0x20 PUSH1 0x4 DUP5 ADD MSTORE DUP3 ADD MSTORE PUSH32 0x424E42207472616E7366657220746F206D73672E73656E646572206661696C65 PUSH1 0x44 DUP3 ADD MSTORE PUSH1 0x19 PUSH1 0xFA SHL PUSH1 0x64 DUP3 ADD MSTORE REVERT JUMPDEST DUP3 PUSH4 0x4E487B71 PUSH1 0xE0 SHL PUSH1 0x0 MSTORE PUSH1 0x41 PUSH1 0x4 MSTORE PUSH1 0x0 REVERT JUMPDEST POP PUSH2 0x1103 JUMP JUMPDEST PUSH1 0x40 MLOAD PUSH3 0x461BCD PUSH1 0xE5 SHL DUP2 MSTORE PUSH1 0x20 PUSH1 0x4 DUP3 ADD MSTORE PUSH1 0x23 DUP2 DUP6 ADD MSTORE PUSH32 0x4E6F7420666F756E6420616E7920656C696769626C6520726577617264206675 PUSH1 0x44 DUP3 ADD MSTORE PUSH3 0x6E6473 PUSH1 0xE8 SHL PUSH1 0x64 DUP3 ADD MSTORE PUSH1 0x84 SWAP1 REVERT JUMPDEST DUP5 DUP2 DUP8 SHL PUSH1 0x4 CALLDATALOAD ADD ADD CALLDATALOAD PUSH1 0x0 MSTORE PUSH1 0x6 PUSH1 0x20 MSTORE PUSH1 0x40 PUSH1 0x0 KECCAK256 PUSH1 0x40 MLOAD SWAP1 PUSH2 0x11EB DUP3 PUSH2 0x22C6 JUMP JUMPDEST DUP1 SLOAD DUP3 MSTORE PUSH1 0x1 DUP2 ADD SLOAD PUSH1 0x20 DUP4 ADD MSTORE PUSH1 0x2 DUP2 ADD SLOAD PUSH1 0x40 DUP4 ADD MSTORE PUSH1 0x3 DUP2 ADD SLOAD PUSH1 0x60 DUP4 ADD MSTORE PUSH1 0x4 DUP2 ADD SLOAD PUSH1 0x80 DUP4 ADD MSTORE DUP8 DUP2 ADD SLOAD PUSH1 0xA0 DUP4 ADD MSTORE PUSH1 0x6 DUP2 ADD SLOAD PUSH1 0xC0 DUP4 ADD MSTORE PUSH1 0x7 DUP2 ADD SLOAD PUSH1 0xE0 DUP4 ADD MSTORE PUSH1 0x8 DUP2 ADD SLOAD PUSH2 0x100 DUP4 ADD MSTORE PUSH2 0x12C6 PUSH1 0xD PUSH1 0x9 DUP4 ADD SLOAD SWAP3 PUSH4 0xFFFFFFFF DUP1 DUP6 AND PUSH2 0x120 DUP8 ADD MSTORE DUP1 DUP6 PUSH1 0x20 SHR AND PUSH2 0x140 DUP8 ADD MSTORE DUP5 PUSH1 0x40 SHR AND PUSH2 0x160 DUP7 ADD MSTORE PUSH1 0xFF DUP1 DUP6 PUSH1 0x60 SHR AND ISZERO ISZERO PUSH2 0x180 DUP8 ADD MSTORE DUP1 DUP6 PUSH1 0x68 SHR AND ISZERO ISZERO PUSH2 0x1A0 DUP8 ADD MSTORE DUP1 PUSH2 0x1C0 DUP8 ADD SWAP6 PUSH1 0x70 SHR AND ISZERO ISZERO DUP6 MSTORE PUSH1 0xA DUP3 ADD SLOAD PUSH2 0x1E0 DUP8 ADD MSTORE PUSH1 0xB DUP3 ADD SLOAD PUSH2 0x200 DUP8 ADD MSTORE PUSH1 0xC DUP3 ADD SLOAD AND ISZERO ISZERO PUSH2 0x220 DUP7 ADD MSTORE ADD PUSH2 0x2CAE JUMP JUMPDEST PUSH2 0x240 DUP4 ADD MSTORE DUP7 DUP4 DUP10 SHL PUSH1 0x4 CALLDATALOAD ADD ADD CALLDATALOAD PUSH1 0x0 MSTORE PUSH1 0x7 PUSH1 0x20 MSTORE PUSH1 0x40 PUSH1 0x0 KECCAK256 CALLER PUSH1 0x0 MSTORE PUSH1 0x20 MSTORE PUSH1 0x40 PUSH1 0x0 KECCAK256 SWAP1 PUSH1 0x1 DUP1 PUSH1 0xA0 SHL SUB PUSH1 0x1 SLOAD AND SWAP1 MLOAD PUSH2 0x1313 JUMPI JUMPDEST POP POP POP PUSH2 0x130E SWAP1 PUSH2 0x23FD JUMP JUMPDEST PUSH2 0x10B9 JUMP JUMPDEST PUSH2 0x1326 CALLER DUP10 DUP7 DUP13 SHL PUSH1 0x4 CALLDATALOAD ADD ADD CALLDATALOAD PUSH2 0x2D52 JUMP JUMPDEST ISZERO PUSH2 0x1302 JUMPI PUSH2 0x134C PUSH2 0x1341 PUSH1 0x20 DUP6 ADD MLOAD PUSH1 0x40 DUP7 ADD MLOAD SWAP1 PUSH2 0x240C JUMP JUMPDEST PUSH1 0x80 DUP6 ADD MLOAD SWAP1 PUSH2 0x2600 JUMP JUMPDEST SWAP1 PUSH1 0x3 DUP4 ADD SWAP4 PUSH2 0x1371 DUP6 SLOAD SWAP2 PUSH1 0x60 PUSH2 0x1368 PUSH1 0x80 DUP4 ADD MLOAD DUP6 PUSH2 0x2430 JUMP JUMPDEST SWAP2 ADD MLOAD SWAP1 PUSH2 0x274B JUMP JUMPDEST SWAP4 PUSH1 0x4 DUP2 ADD PUSH1 0x1 PUSH1 0xFF NOT DUP3 SLOAD AND OR SWAP1 SSTORE PUSH1 0x2 TIMESTAMP SWAP2 ADD SSTORE DUP4 LT PUSH1 0x0 EQ PUSH2 0x143B JUMPI POP POP POP SWAP1 PUSH2 0x13A3 PUSH2 0x130E SWAP3 SLOAD DUP1 SWAP6 PUSH2 0x240C JUMP JUMPDEST SWAP4 CALLER PUSH1 0x0 MSTORE PUSH1 0x8 PUSH1 0x20 MSTORE PUSH1 0x6 PUSH1 0x40 PUSH1 0x0 KECCAK256 ADD PUSH2 0x13BF DUP2 SLOAD PUSH2 0x23FD JUMP JUMPDEST SWAP1 SSTORE CALLER PUSH1 0x0 MSTORE PUSH1 0x8 PUSH1 0x20 MSTORE PUSH1 0x7 PUSH1 0x40 PUSH1 0x0 KECCAK256 ADD PUSH2 0x13DD DUP3 DUP3 SLOAD PUSH2 0x240C JUMP JUMPDEST SWAP1 SSTORE PUSH1 0x15 PUSH2 0x13EB DUP2 SLOAD PUSH2 0x23FD JUMP JUMPDEST SWAP1 SSTORE PUSH1 0x16 PUSH2 0x13FA DUP3 DUP3 SLOAD PUSH2 0x240C JUMP JUMPDEST SWAP1 SSTORE PUSH1 0x40 MLOAD SWAP1 DUP2 MSTORE DUP7 DUP3 DUP10 SHL PUSH1 0x4 CALLDATALOAD ADD ADD CALLDATALOAD SWAP1 PUSH32 0x987D620F307FF6B94D58743CB7A7509F24071586A77759B77C2D4E29F75A2F9A PUSH1 0x20 CALLER SWAP3 LOG3 SWAP1 DUP8 DUP1 PUSH2 0x1302 JUMP JUMPDEST PUSH1 0x0 DUP1 SWAP4 SWAP8 SWAP6 SWAP5 POP DUP1 SWAP3 DUP2 SWAP3 DUP3 DUP3 ISZERO PUSH2 0x146E JUMPI JUMPDEST CALL ISZERO PUSH2 0x1462 JUMPI PUSH2 0x13A3 DUP5 PUSH2 0x130E SWAP4 PUSH2 0x240C JUMP JUMPDEST PUSH1 0x40 MLOAD RETURNDATASIZE PUSH1 0x0 DUP3 RETURNDATACOPY RETURNDATASIZE SWAP1 REVERT JUMPDEST POP PUSH2 0x8FC PUSH2 0x144F JUMP JUMPDEST CALLVALUE PUSH2 0x28D JUMPI PUSH1 0x0 CALLDATASIZE PUSH1 0x3 NOT ADD SLT PUSH2 0x28D JUMPI PUSH1 0x0 SLOAD PUSH1 0x40 MLOAD PUSH1 0x1 PUSH1 0x1 PUSH1 0xA0 SHL SUB SWAP1 SWAP2 AND DUP2 MSTORE PUSH1 0x20 SWAP1 RETURN JUMPDEST CALLVALUE PUSH2 0x28D JUMPI PUSH1 0x20 DUP1 PUSH1 0x3 NOT CALLDATASIZE ADD SLT PUSH2 0x28D JUMPI PUSH1 0x1 PUSH1 0x1 PUSH1 0xA0 SHL SUB PUSH2 0x14C2 PUSH2 0x2177 JUMP JUMPDEST AND PUSH1 0x0 MSTORE PUSH1 0x9 DUP2 MSTORE PUSH1 0x40 PUSH1 0x0 KECCAK256 SWAP1 PUSH1 0x40 MLOAD DUP1 DUP4 DUP4 DUP3 SWAP6 SLOAD SWAP4 DUP5 DUP2 MSTORE ADD SWAP1 PUSH1 0x0 MSTORE DUP4 PUSH1 0x0 KECCAK256 SWAP3 PUSH1 0x0 JUMPDEST DUP6 DUP3 DUP3 LT PUSH2 0x1519 JUMPI POP POP POP PUSH2 0x1501 SWAP3 POP SUB DUP4 PUSH2 0x22FF JUMP JUMPDEST PUSH2 0x1515 PUSH1 0x40 MLOAD SWAP3 DUP3 DUP5 SWAP4 DUP5 MSTORE DUP4 ADD SWAP1 PUSH2 0x21C6 JUMP JUMPDEST SUB SWAP1 RETURN JUMPDEST DUP6 SLOAD DUP5 MSTORE PUSH1 0x1 SWAP6 DUP7 ADD SWAP6 DUP9 SWAP6 POP SWAP4 ADD SWAP3 ADD PUSH2 0x14EA JUMP JUMPDEST CALLVALUE PUSH2 0x28D JUMPI PUSH1 0x40 CALLDATASIZE PUSH1 0x3 NOT ADD SLT PUSH2 0x28D JUMPI PUSH1 0x4 CALLDATALOAD PUSH2 0x154B PUSH2 0x218D JUMP JUMPDEST SWAP1 DUP1 PUSH1 0x0 MSTORE PUSH1 0x20 SWAP2 PUSH1 0x7 DUP4 MSTORE PUSH1 0x40 PUSH1 0x0 KECCAK256 SWAP1 PUSH1 0x1 DUP1 PUSH1 0xA0 SHL SUB AND PUSH1 0x0 MSTORE DUP3 MSTORE PUSH1 0x40 PUSH1 0x0 KECCAK256 PUSH1 0x40 MLOAD SWAP2 PUSH2 0x157C DUP4 PUSH2 0x22AA JUMP JUMPDEST PUSH1 0xFF SWAP1 PUSH2 0x158C DUP3 DUP5 SLOAD AND DUP6 PUSH2 0x2B58 JUMP JUMPDEST PUSH1 0x1 DUP4 ADD SLOAD DUP6 DUP6 ADD MSTORE PUSH1 0x2 DUP4 ADD SLOAD PUSH1 0x40 DUP6 ADD MSTORE PUSH1 0x80 DUP3 PUSH1 0x4 PUSH1 0x3 DUP7 ADD SLOAD SWAP6 PUSH1 0x60 DUP9 ADD SWAP7 DUP8 MSTORE ADD SLOAD AND SWAP5 ADD SWAP4 ISZERO ISZERO DUP5 MSTORE PUSH1 0x0 MSTORE PUSH1 0x6 DUP5 MSTORE PUSH1 0x40 PUSH1 0x0 KECCAK256 SWAP1 PUSH1 0x40 MLOAD PUSH2 0x15D4 DUP2 PUSH2 0x22C6 JUMP JUMPDEST DUP3 SLOAD DUP2 MSTORE PUSH1 0x1 DUP4 ADD SLOAD DUP7 DUP3 ADD MSTORE PUSH1 0x2 DUP4 ADD SLOAD PUSH1 0x40 DUP3 ADD MSTORE PUSH1 0x3 DUP4 ADD SLOAD PUSH1 0x60 DUP3 ADD MSTORE PUSH1 0x4 DUP4 ADD SLOAD PUSH1 0x80 DUP3 ADD MSTORE PUSH1 0x5 DUP4 ADD SLOAD PUSH1 0xA0 DUP3 ADD MSTORE PUSH1 0x6 DUP4 ADD SLOAD PUSH1 0xC0 DUP3 ADD MSTORE PUSH1 0x7 DUP4 ADD SLOAD PUSH1 0xE0 DUP3 ADD MSTORE PUSH1 0x8 DUP4 ADD SLOAD PUSH2 0x100 DUP3 ADD MSTORE PUSH1 0x9 DUP4 ADD SLOAD SWAP1 PUSH2 0x240 PUSH2 0x16B3 PUSH1 0xD PUSH4 0xFFFFFFFF SWAP7 DUP8 DUP7 AND PUSH2 0x120 DUP7 ADD MSTORE DUP8 DUP7 DUP13 SHR AND PUSH2 0x140 DUP7 ADD MSTORE PUSH2 0x160 DUP6 ADD SWAP7 DUP9 DUP8 PUSH1 0x40 SHR AND DUP9 MSTORE DUP1 DUP8 PUSH1 0x60 SHR AND ISZERO ISZERO PUSH2 0x180 DUP8 ADD MSTORE DUP1 DUP8 PUSH1 0x68 SHR AND ISZERO ISZERO PUSH2 0x1A0 DUP8 ADD MSTORE DUP1 PUSH2 0x1C0 DUP8 ADD SWAP8 PUSH1 0x70 SHR AND ISZERO ISZERO DUP8 MSTORE PUSH1 0xA DUP3 ADD SLOAD PUSH2 0x1E0 DUP8 ADD MSTORE PUSH1 0xB DUP3 ADD SLOAD PUSH2 0x200 DUP8 ADD MSTORE PUSH1 0xC DUP3 ADD SLOAD AND ISZERO ISZERO PUSH2 0x220 DUP7 ADD MSTORE ADD PUSH2 0x2CAE JUMP JUMPDEST SWAP2 ADD MSTORE MLOAD ISZERO SWAP4 DUP5 PUSH2 0x16F1 JUMPI JUMPDEST POP DUP4 PUSH2 0x16E4 JUMPI JUMPDEST POP POP DUP2 PUSH2 0x16D9 JUMPI JUMPDEST POP PUSH1 0x40 MLOAD SWAP1 ISZERO ISZERO DUP2 MSTORE RETURN JUMPDEST SWAP1 POP MLOAD ISZERO ISZERO DUP3 PUSH2 0x16CE JUMP JUMPDEST MLOAD AND TIMESTAMP GT SWAP2 POP DUP4 DUP1 PUSH2 0x16C6 JUMP JUMPDEST MLOAD ISZERO SWAP4 POP DUP6 PUSH2 0x16BF JUMP JUMPDEST CALLVALUE PUSH2 0x28D JUMPI PUSH1 0x0 CALLDATASIZE PUSH1 0x3 NOT ADD SLT PUSH2 0x28D JUMPI PUSH1 0x20 PUSH1 0xC SLOAD PUSH1 0x40 MLOAD SWAP1 DUP2 MSTORE RETURN JUMPDEST CALLVALUE PUSH2 0x28D JUMPI PUSH1 0x20 DUP1 PUSH1 0x3 NOT CALLDATASIZE ADD SLT PUSH2 0x28D JUMPI PUSH1 0x4 CALLDATALOAD PUSH1 0x0 MSTORE PUSH1 0x6 DUP2 MSTORE PUSH2 0x1745 PUSH1 0xD PUSH1 0x40 PUSH1 0x0 KECCAK256 ADD PUSH2 0x2CAE JUMP JUMPDEST PUSH1 0x40 MLOAD SWAP1 DUP3 DUP3 ADD DUP4 DUP4 MSTORE DUP2 MLOAD DUP1 SWAP2 MSTORE DUP4 PUSH1 0x40 DUP5 ADD SWAP3 ADD SWAP4 PUSH1 0x0 JUMPDEST DUP3 DUP2 LT PUSH2 0x176C JUMPI DUP5 DUP5 SUB DUP6 RETURN JUMPDEST SWAP1 SWAP2 SWAP3 DUP3 PUSH1 0x80 PUSH1 0x1 SWAP3 DUP9 MLOAD DUP5 DUP1 PUSH1 0xA0 SHL SUB DUP2 MLOAD AND DUP3 MSTORE PUSH2 0x1792 DUP5 DUP3 ADD MLOAD DUP6 DUP5 ADD SWAP1 PUSH2 0x21A3 JUMP JUMPDEST PUSH1 0x40 DUP2 ADD MLOAD PUSH1 0x40 DUP4 ADD MSTORE PUSH1 0x60 DUP1 SWAP2 ADD MLOAD SWAP1 DUP3 ADD MSTORE ADD SWAP7 ADD SWAP2 ADD SWAP5 SWAP3 SWAP2 SWAP1 SWAP5 PUSH2 0x175F JUMP JUMPDEST CALLVALUE PUSH2 0x28D JUMPI PUSH1 0x0 CALLDATASIZE PUSH1 0x3 NOT ADD SLT PUSH2 0x28D JUMPI PUSH1 0x20 PUSH1 0xA SLOAD PUSH1 0x40 MLOAD SWAP1 DUP2 MSTORE RETURN JUMPDEST CALLVALUE PUSH2 0x28D JUMPI PUSH1 0x0 CALLDATASIZE PUSH1 0x3 NOT ADD SLT PUSH2 0x28D JUMPI PUSH1 0x20 PUSH1 0xFF PUSH1 0x10 SLOAD PUSH1 0x8 SHR AND PUSH1 0x40 MLOAD SWAP1 ISZERO ISZERO DUP2 MSTORE RETURN JUMPDEST CALLVALUE PUSH2 0x28D JUMPI PUSH1 0x0 CALLDATASIZE PUSH1 0x3 NOT ADD SLT PUSH2 0x28D JUMPI PUSH2 0x181F PUSH1 0x1 DUP1 PUSH1 0xA0 SHL SUB PUSH1 0x0 SLOAD AND CALLER EQ PUSH2 0x225F JUMP JUMPDEST PUSH1 0x1 PUSH1 0x4 SLOAD PUSH2 0x183A PUSH1 0xFF DUP3 AND ISZERO PUSH2 0x1835 DUP2 PUSH2 0x237B JUMP JUMPDEST PUSH2 0x237B JUMP JUMPDEST PUSH1 0xFF NOT AND OR PUSH1 0x4 SSTORE PUSH1 0xA SLOAD PUSH32 0x32FB7C9891BC4F963C7DE9F1186D2A7755C7D6E9F4604DABE1D8BB3027C2F49E PUSH1 0x0 DUP1 LOG2 STOP JUMPDEST CALLVALUE PUSH2 0x28D JUMPI PUSH1 0x20 CALLDATASIZE PUSH1 0x3 NOT ADD SLT PUSH2 0x28D JUMPI PUSH2 0x1885 PUSH2 0x2177 JUMP JUMPDEST PUSH1 0x0 SLOAD PUSH1 0x1 PUSH1 0x1 PUSH1 0xA0 SHL SUB SWAP2 SWAP1 PUSH2 0x189F SWAP1 DUP4 AND CALLER EQ PUSH2 0x225F JUMP JUMPDEST DUP2 PUSH1 0x1 SLOAD SWAP2 AND DUP1 SWAP3 DUP3 AND EQ PUSH2 0x197C JUMPI DUP2 PUSH1 0x0 MSTORE PUSH1 0x3 PUSH1 0x20 MSTORE PUSH1 0x1 PUSH1 0xFF PUSH1 0x40 PUSH1 0x0 KECCAK256 SLOAD AND ISZERO ISZERO SUB PUSH2 0x18D9 JUMPI PUSH1 0x1 PUSH1 0x1 PUSH1 0xA0 SHL SUB NOT AND OR PUSH1 0x1 SSTORE STOP JUMPDEST PUSH1 0x40 MLOAD PUSH3 0x461BCD PUSH1 0xE5 SHL DUP2 MSTORE PUSH1 0x20 PUSH1 0x4 DUP3 ADD MSTORE PUSH1 0x69 PUSH1 0x24 DUP3 ADD MSTORE PUSH32 0x54686973206164647265737320686173206265656E2072656D6F766564206672 PUSH1 0x44 DUP3 ADD MSTORE PUSH32 0x6F6D206F776E6572206163636573732C204B696E646C79206164642074686520 PUSH1 0x64 DUP3 ADD MSTORE PUSH32 0x6F776E6572206164647265737320746F2061646D696E20656E7469747920746F PUSH1 0x84 DUP3 ADD MSTORE PUSH9 0x20636F6E74696E7565 PUSH1 0xB8 SHL PUSH1 0xA4 DUP3 ADD MSTORE PUSH1 0xC4 SWAP1 REVERT JUMPDEST PUSH1 0x40 MLOAD PUSH3 0x461BCD PUSH1 0xE5 SHL DUP2 MSTORE PUSH1 0x20 PUSH1 0x4 DUP3 ADD MSTORE PUSH1 0x24 DUP1 DUP3 ADD MSTORE PUSH32 0x50726F7669646564206164647265737320697320616C726561647920616E2041 PUSH1 0x44 DUP3 ADD MSTORE PUSH4 0x3236B4B7 PUSH1 0xE1 SHL PUSH1 0x64 DUP3 ADD MSTORE PUSH1 0x84 SWAP1 REVERT JUMPDEST CALLVALUE PUSH2 0x28D JUMPI PUSH1 0x0 CALLDATASIZE PUSH1 0x3 NOT ADD SLT PUSH2 0x28D JUMPI PUSH1 0x20 PUSH1 0xFF PUSH1 0x4 SLOAD AND PUSH1 0x40 MLOAD SWAP1 ISZERO ISZERO DUP2 MSTORE RETURN JUMPDEST CALLVALUE PUSH2 0x28D JUMPI PUSH1 0x0 CALLDATASIZE PUSH1 0x3 NOT ADD SLT PUSH2 0x28D JUMPI PUSH2 0x1A16 PUSH1 0x1 DUP1 PUSH1 0xA0 SHL SUB PUSH1 0x0 SLOAD AND CALLER EQ PUSH2 0x225F JUMP JUMPDEST PUSH1 0x4 SLOAD PUSH2 0x1A39 PUSH1 0xFF DUP3 AND PUSH2 0x1A29 DUP2 PUSH2 0x23BA JUMP JUMPDEST PUSH2 0xFFFF NOT PUSH1 0x10 SLOAD AND PUSH1 0x10 SSTORE PUSH2 0x23BA JUMP JUMPDEST PUSH1 0xFF NOT AND PUSH1 0x4 SSTORE PUSH1 0xA SLOAD PUSH32 0x9DD715FED52C25E642F97653BB4C4339AD98FE6D6E130348BE82AE5D86383A8C PUSH1 0x0 DUP1 LOG2 STOP JUMPDEST CALLVALUE PUSH2 0x28D JUMPI PUSH1 0x20 CALLDATASIZE PUSH1 0x3 NOT ADD SLT PUSH2 0x28D JUMPI PUSH1 0x4 CALLDATALOAD PUSH2 0x1A93 PUSH1 0x1 DUP1 PUSH1 0xA0 SHL SUB PUSH1 0x0 SLOAD AND CALLER EQ PUSH2 0x225F JUMP JUMPDEST DUP1 PUSH1 0xE SSTORE PUSH32 0x82480E97991520549AC4B5D0E1D97EDB3BFAC2666202923B6903D2A953DC7608 PUSH1 0x20 PUSH1 0xA SLOAD SWAP3 PUSH1 0x40 MLOAD SWAP1 DUP2 MSTORE LOG2 STOP JUMPDEST CALLVALUE PUSH2 0x28D JUMPI PUSH1 0x40 CALLDATASIZE PUSH1 0x3 NOT ADD SLT PUSH2 0x28D JUMPI PUSH2 0x1AE0 PUSH2 0x218D JUMP JUMPDEST PUSH1 0x4 CALLDATALOAD PUSH1 0x0 MSTORE PUSH1 0x7 PUSH1 0x20 MSTORE PUSH1 0x40 PUSH1 0x0 KECCAK256 SWAP1 PUSH1 0x1 DUP1 PUSH1 0xA0 SHL SUB AND PUSH1 0x0 MSTORE PUSH1 0x20 MSTORE PUSH1 0xA0 PUSH1 0x40 PUSH1 0x0 KECCAK256 PUSH1 0xFF DUP2 SLOAD AND SWAP1 PUSH1 0x1 DUP2 ADD SLOAD SWAP1 PUSH1 0x2 DUP2 ADD SLOAD PUSH1 0xFF PUSH1 0x4 PUSH1 0x3 DUP5 ADD SLOAD SWAP4 ADD SLOAD AND SWAP3 PUSH2 0x1B32 PUSH1 0x40 MLOAD DUP1 SWAP7 PUSH2 0x21A3 JUMP JUMPDEST PUSH1 0x20 DUP6 ADD MSTORE PUSH1 0x40 DUP5 ADD MSTORE PUSH1 0x60 DUP4 ADD MSTORE ISZERO ISZERO PUSH1 0x80 DUP3 ADD MSTORE RETURN JUMPDEST CALLVALUE PUSH2 0x28D JUMPI PUSH1 0x0 CALLDATASIZE PUSH1 0x3 NOT ADD SLT PUSH2 0x28D JUMPI PUSH1 0x20 PUSH1 0xFF PUSH1 0x10 SLOAD AND PUSH1 0x40 MLOAD SWAP1 ISZERO ISZERO DUP2 MSTORE RETURN JUMPDEST CALLVALUE PUSH2 0x28D JUMPI PUSH1 0x20 CALLDATASIZE PUSH1 0x3 NOT ADD SLT PUSH2 0x28D JUMPI PUSH32 0x696FAB4A25D5A0F71F21EE59AA7512CD96FE20B7A28F4E2663099566B4639D89 PUSH1 0x20 PUSH1 0x4 CALLDATALOAD PUSH2 0x1BB9 PUSH1 0x1 DUP1 PUSH1 0xA0 SHL SUB PUSH1 0x0 SLOAD AND CALLER EQ PUSH2 0x225F JUMP JUMPDEST DUP1 PUSH1 0xD SSTORE PUSH1 0x40 MLOAD SWAP1 DUP2 MSTORE LOG1 STOP JUMPDEST CALLVALUE PUSH2 0x28D JUMPI PUSH1 0x20 CALLDATASIZE PUSH1 0x3 NOT ADD SLT PUSH2 0x28D JUMPI PUSH1 0x1 PUSH1 0x1 PUSH1 0xA0 SHL SUB PUSH2 0x1BE7 PUSH2 0x2177 JUMP JUMPDEST AND PUSH1 0x0 MSTORE PUSH1 0x9 PUSH1 0x20 MSTORE PUSH1 0x20 PUSH1 0x40 PUSH1 0x0 KECCAK256 SLOAD PUSH1 0x40 MLOAD SWAP1 DUP2 MSTORE RETURN JUMPDEST CALLVALUE PUSH2 0x28D JUMPI PUSH1 0x0 CALLDATASIZE PUSH1 0x3 NOT ADD SLT PUSH2 0x28D JUMPI PUSH1 0x20 PUSH1 0xB SLOAD PUSH1 0x40 MLOAD SWAP1 DUP2 MSTORE RETURN JUMPDEST CALLVALUE PUSH2 0x28D JUMPI PUSH1 0x40 CALLDATASIZE PUSH1 0x3 NOT ADD SLT PUSH2 0x28D JUMPI PUSH1 0x4 CALLDATALOAD PUSH1 0x24 CALLDATALOAD SWAP1 PUSH2 0x1C4B PUSH1 0x1 DUP1 PUSH1 0xA0 SHL SUB PUSH1 0x0 SLOAD AND CALLER EQ PUSH2 0x225F JUMP JUMPDEST PUSH2 0x1C5A PUSH1 0xFF PUSH1 0x4 SLOAD AND ISZERO PUSH2 0x237B JUMP JUMPDEST PUSH2 0x1C65 CALLER EXTCODESIZE ISZERO PUSH2 0x28EE JUMP JUMPDEST PUSH2 0x1C70 ORIGIN CALLER EQ PUSH2 0x2932 JUMP JUMPDEST PUSH1 0xA DUP1 SLOAD PUSH2 0x1C80 PUSH2 0x835 DUP3 PUSH2 0x2321 JUMP JUMPDEST DUP3 PUSH2 0x1D2D JUMPI JUMPDEST POP DUP3 PUSH2 0x1CC2 JUMPI JUMPDEST SLOAD SWAP2 PUSH1 0x40 MLOAD SWAP2 DUP3 MSTORE PUSH1 0x20 DUP3 ADD MSTORE PUSH32 0xE3B9E415C1EC5664BAC5576F8AC4B84CACF237C6E9635809C8BC6D3FB6FD0A84 PUSH1 0x40 ADDRESS SWAP3 LOG3 STOP JUMPDEST DUP1 SLOAD PUSH1 0x0 MSTORE PUSH1 0x6 PUSH1 0x20 MSTORE PUSH1 0x2 PUSH1 0x40 PUSH1 0x0 KECCAK256 ADD PUSH2 0x1CDF DUP5 DUP3 SLOAD PUSH2 0x240C JUMP JUMPDEST SWAP1 SSTORE DUP1 SLOAD PUSH1 0x0 MSTORE PUSH1 0x7 PUSH1 0x20 MSTORE PUSH1 0x40 PUSH1 0x0 KECCAK256 ADDRESS PUSH1 0x0 MSTORE PUSH1 0x20 MSTORE PUSH1 0x40 PUSH1 0x0 KECCAK256 PUSH1 0x1 PUSH1 0xFF NOT DUP3 SLOAD AND OR DUP2 SSTORE DUP4 PUSH1 0x3 DUP3 ADD SSTORE PUSH1 0x1 TIMESTAMP SWAP2 ADD SSTORE PUSH1 0x9 PUSH1 0x20 MSTORE PUSH2 0x1D28 PUSH1 0x40 PUSH1 0x0 KECCAK256 DUP3 SLOAD SWAP1 PUSH2 0x29BF JUMP JUMPDEST PUSH2 0x1C8D JUMP JUMPDEST PUSH1 0x0 MSTORE PUSH1 0x6 PUSH1 0x20 MSTORE PUSH1 0x1 PUSH1 0x40 PUSH1 0x0 KECCAK256 ADD PUSH2 0x1D48 DUP4 DUP3 SLOAD PUSH2 0x240C JUMP JUMPDEST SWAP1 SSTORE DUP1 SLOAD PUSH1 0x0 MSTORE PUSH1 0x7 PUSH1 0x20 MSTORE PUSH1 0x40 PUSH1 0x0 KECCAK256 ADDRESS PUSH1 0x0 MSTORE PUSH1 0x20 MSTORE PUSH1 0x40 PUSH1 0x0 KECCAK256 PUSH1 0xFF NOT DUP2 SLOAD AND DUP2 SSTORE DUP3 PUSH1 0x3 DUP3 ADD SSTORE PUSH1 0x1 TIMESTAMP SWAP2 ADD SSTORE PUSH1 0x9 PUSH1 0x20 MSTORE PUSH2 0x1D8E PUSH1 0x40 PUSH1 0x0 KECCAK256 DUP3 SLOAD SWAP1 PUSH2 0x29BF JUMP JUMPDEST DUP4 PUSH2 0x1C86 JUMP JUMPDEST CALLVALUE PUSH2 0x28D JUMPI PUSH1 0x0 CALLDATASIZE PUSH1 0x3 NOT ADD SLT PUSH2 0x28D JUMPI PUSH2 0x1DBA PUSH1 0x1 DUP1 PUSH1 0xA0 SHL SUB PUSH1 0x0 SLOAD AND CALLER EQ PUSH2 0x225F JUMP JUMPDEST PUSH1 0xFF PUSH1 0x4 SLOAD AND ISZERO PUSH2 0x1DCA DUP2 PUSH2 0x237B JUMP JUMPDEST PUSH1 0xFF PUSH1 0x10 SLOAD AND PUSH2 0x1EBF JUMPI PUSH2 0x1DEC PUSH2 0x1DE2 PUSH1 0xA SLOAD PUSH2 0x23FD JUMP JUMPDEST SWAP2 DUP3 PUSH1 0xA SSTORE PUSH2 0x237B JUMP JUMPDEST DUP1 PUSH1 0x0 MSTORE PUSH1 0x6 PUSH1 0x20 MSTORE PUSH1 0x40 PUSH1 0x0 KECCAK256 PUSH4 0xFFFFFFFF TIMESTAMP AND PUSH1 0x9 DUP3 ADD SWAP2 DUP3 SLOAD SWAP2 DUP1 PUSH4 0xFFFFFFFF NOT DUP5 AND OR DUP5 SSTORE PUSH8 0xFFFFFFFF00000000 PUSH2 0x1E2A PUSH1 0xD SLOAD TIMESTAMP PUSH2 0x240C JUMP JUMPDEST PUSH1 0x20 SHL AND SWAP1 DUP2 DUP2 PUSH8 0xFFFFFFFFFFFFFFFF NOT DUP7 AND OR OR DUP6 SSTORE PUSH1 0xD SLOAD PUSH1 0x1 DUP1 PUSH1 0xFF SHL SUB DUP2 AND DUP2 SUB PUSH2 0xCA0 JUMPI PUSH4 0xFFFFFFFF PUSH1 0x40 SHL PUSH2 0x1E69 DUP9 SWAP3 PUSH1 0x1 SHL TIMESTAMP PUSH2 0x240C JUMP JUMPDEST PUSH1 0x40 SHL AND SWAP4 SSTORE PUSH1 0x1 PUSH1 0x60 SHL SWAP4 PUSH13 0xFFFFFFFFFFFFFFFFFFFFFFFFFF NOT AND OR OR OR OR SWAP1 SSTORE PUSH32 0x33A701182892FD888ED152CA2AC23771A32E814469B7CD255965471E1AF3A659 PUSH1 0x0 DUP1 LOG2 PUSH1 0x10 DUP1 SLOAD PUSH1 0xFF NOT AND PUSH1 0x1 OR SWAP1 SSTORE STOP JUMPDEST PUSH1 0x64 PUSH1 0x40 MLOAD PUSH3 0x461BCD PUSH1 0xE5 SHL DUP2 MSTORE PUSH1 0x20 PUSH1 0x4 DUP3 ADD MSTORE PUSH1 0x20 PUSH1 0x24 DUP3 ADD MSTORE PUSH32 0x53746172742066756E6374696F6E2063616E206F6E6C792072756E206F6E6365 PUSH1 0x44 DUP3 ADD MSTORE REVERT JUMPDEST CALLVALUE PUSH2 0x28D JUMPI PUSH1 0x20 CALLDATASIZE PUSH1 0x3 NOT ADD SLT PUSH2 0x28D JUMPI PUSH2 0x1F29 PUSH1 0x1 DUP1 PUSH1 0xA0 SHL SUB PUSH1 0x0 SLOAD AND CALLER EQ PUSH2 0x225F JUMP JUMPDEST PUSH1 0x4 CALLDATALOAD PUSH1 0xC SSTORE STOP JUMPDEST CALLVALUE PUSH2 0x28D JUMPI PUSH1 0x0 CALLDATASIZE PUSH1 0x3 NOT ADD SLT PUSH2 0x28D JUMPI PUSH1 0x0 SLOAD PUSH1 0x1 PUSH1 0x1 PUSH1 0xA0 SHL SUB SWAP1 PUSH2 0x1F5B SWAP1 DUP3 AND CALLER EQ PUSH2 0x225F JUMP JUMPDEST PUSH1 0x40 MLOAD DUP1 PUSH1 0x2 SLOAD SWAP1 DUP2 DUP2 MSTORE PUSH1 0x20 DUP1 SWAP2 ADD DUP1 SWAP3 PUSH1 0x2 PUSH1 0x0 MSTORE PUSH32 0x405787FA12A823E0F2B7631CC41B3BA8828B3321CA811111FA75CD3AA3BB5ACE SWAP1 PUSH1 0x0 JUMPDEST DUP2 DUP2 LT PUSH2 0x1FE8 JUMPI POP POP POP DUP4 PUSH2 0x1FAD SWAP2 SUB DUP5 PUSH2 0x22FF JUMP JUMPDEST PUSH1 0x40 MLOAD SWAP3 DUP2 DUP5 ADD SWAP1 DUP3 DUP6 MSTORE MLOAD DUP1 SWAP2 MSTORE PUSH1 0x40 DUP5 ADD SWAP3 SWAP2 PUSH1 0x0 JUMPDEST DUP3 DUP2 LT PUSH2 0x1FD2 JUMPI DUP6 DUP6 SUB DUP7 RETURN JUMPDEST DUP4 MLOAD DUP8 AND DUP6 MSTORE SWAP4 DUP2 ADD SWAP4 SWAP3 DUP2 ADD SWAP3 PUSH1 0x1 ADD PUSH2 0x1FC5 JUMP JUMPDEST DUP3 SLOAD DUP9 AND DUP5 MSTORE SWAP3 DUP5 ADD SWAP3 PUSH1 0x1 SWAP3 DUP4 ADD SWAP3 ADD PUSH2 0x1F97 JUMP JUMPDEST CALLVALUE PUSH2 0x28D JUMPI PUSH1 0x0 CALLDATASIZE PUSH1 0x3 NOT ADD SLT PUSH2 0x28D JUMPI PUSH1 0x20 PUSH1 0x11 SLOAD PUSH1 0x40 MLOAD SWAP1 DUP2 MSTORE RETURN JUMPDEST CALLVALUE PUSH2 0x28D JUMPI PUSH1 0x0 CALLDATASIZE PUSH1 0x3 NOT ADD SLT PUSH2 0x28D JUMPI PUSH1 0x20 SELFBALANCE PUSH1 0x40 MLOAD SWAP1 DUP2 MSTORE RETURN JUMPDEST CALLVALUE PUSH2 0x28D JUMPI PUSH1 0x0 CALLDATASIZE PUSH1 0x3 NOT ADD SLT PUSH2 0x28D JUMPI PUSH1 0x4 SLOAD PUSH1 0xFF AND PUSH2 0x20B3 JUMPI PUSH2 0x2062 PUSH1 0xA SLOAD PUSH1 0xB SLOAD SWAP1 PUSH2 0x2443 JUMP JUMPDEST PUSH1 0xA SLOAD PUSH1 0x0 NOT SWAP1 DUP2 DUP2 ADD SWAP1 DUP2 GT PUSH2 0xCA0 JUMPI PUSH1 0xB SLOAD PUSH2 0x207F SWAP2 PUSH2 0x260D JUMP JUMPDEST PUSH1 0xA SLOAD SWAP1 DUP2 ADD SWAP1 DUP2 GT PUSH2 0xCA0 JUMPI PUSH2 0x2095 SWAP1 PUSH2 0x276B JUMP JUMPDEST PUSH2 0x20A0 PUSH1 0xA SLOAD PUSH2 0x23FD JUMP JUMPDEST DUP1 PUSH1 0xA SSTORE PUSH2 0xBDA PUSH1 0xFF PUSH1 0x4 SLOAD AND ISZERO PUSH2 0x237B JUMP JUMPDEST PUSH2 0x20C2 PUSH1 0xA SLOAD PUSH1 0xB SLOAD SWAP1 PUSH2 0x2443 JUMP JUMPDEST PUSH1 0xA SLOAD PUSH1 0x0 NOT SWAP1 DUP2 DUP2 ADD DUP2 DUP2 GT PUSH2 0xCA0 JUMPI PUSH1 0x0 MSTORE PUSH1 0x6 PUSH1 0x20 MSTORE PUSH1 0xFF PUSH1 0x9 PUSH1 0x40 PUSH1 0x0 KECCAK256 ADD SLOAD PUSH1 0x70 SHR AND ISZERO PUSH1 0x0 EQ PUSH2 0x2122 JUMPI POP PUSH1 0xA SLOAD DUP2 DUP2 ADD SWAP1 DUP2 GT PUSH2 0xCA0 JUMPI PUSH1 0xB SLOAD PUSH2 0x210C SWAP2 PUSH2 0x260D JUMP JUMPDEST PUSH1 0xA SLOAD SWAP1 DUP2 ADD SWAP1 DUP2 GT PUSH2 0xCA0 JUMPI PUSH2 0x1B SWAP1 PUSH2 0x276B JUMP JUMPDEST PUSH1 0xB SLOAD PUSH2 0x212E SWAP2 PUSH2 0x260D JUMP JUMPDEST PUSH2 0x210C JUMP JUMPDEST CALLVALUE PUSH2 0x28D JUMPI PUSH1 0x0 CALLDATASIZE PUSH1 0x3 NOT ADD SLT PUSH2 0x28D JUMPI PUSH1 0x1 SLOAD PUSH1 0x40 MLOAD PUSH1 0x1 PUSH1 0x1 PUSH1 0xA0 SHL SUB SWAP1 SWAP2 AND DUP2 MSTORE PUSH1 0x20 SWAP1 RETURN JUMPDEST CALLVALUE PUSH2 0x28D JUMPI PUSH1 0x0 CALLDATASIZE PUSH1 0x3 NOT ADD SLT PUSH2 0x28D JUMPI PUSH1 0x20 SWAP1 PUSH1 0xB SLOAD DUP2 MSTORE RETURN JUMPDEST PUSH1 0x4 CALLDATALOAD SWAP1 PUSH1 0x1 PUSH1 0x1 PUSH1 0xA0 SHL SUB DUP3 AND DUP3 SUB PUSH2 0x28D JUMPI JUMP JUMPDEST PUSH1 0x24 CALLDATALOAD SWAP1 PUSH1 0x1 PUSH1 0x1 PUSH1 0xA0 SHL SUB DUP3 AND DUP3 SUB PUSH2 0x28D JUMPI JUMP JUMPDEST SWAP1 PUSH1 0x2 DUP3 LT ISZERO PUSH2 0x21B0 JUMPI MSTORE JUMP JUMPDEST PUSH4 0x4E487B71 PUSH1 0xE0 SHL PUSH1 0x0 MSTORE PUSH1 0x21 PUSH1 0x4 MSTORE PUSH1 0x24 PUSH1 0x0 REVERT JUMPDEST SWAP1 DUP2 MLOAD DUP1 DUP3 MSTORE PUSH1 0x20 DUP1 DUP1 SWAP4 ADD SWAP4 ADD SWAP2 PUSH1 0x0 JUMPDEST DUP3 DUP2 LT PUSH2 0x21E6 JUMPI POP POP POP POP SWAP1 JUMP JUMPDEST DUP4 MLOAD DUP6 MSTORE SWAP4 DUP2 ADD SWAP4 SWAP3 DUP2 ADD SWAP3 PUSH1 0x1 ADD PUSH2 0x21D8 JUMP JUMPDEST PUSH1 0x2 SLOAD DUP2 LT ISZERO PUSH2 0x2231 JUMPI PUSH1 0x2 PUSH1 0x0 MSTORE PUSH32 0x405787FA12A823E0F2B7631CC41B3BA8828B3321CA811111FA75CD3AA3BB5ACE ADD SWAP1 PUSH1 0x0 SWAP1 JUMP JUMPDEST PUSH4 0x4E487B71 PUSH1 0xE0 SHL PUSH1 0x0 MSTORE PUSH1 0x32 PUSH1 0x4 MSTORE PUSH1 0x24 PUSH1 0x0 REVERT JUMPDEST DUP1 SLOAD DUP3 LT ISZERO PUSH2 0x2231 JUMPI PUSH1 0x0 MSTORE PUSH1 0x20 PUSH1 0x0 KECCAK256 ADD SWAP1 PUSH1 0x0 SWAP1 JUMP JUMPDEST ISZERO PUSH2 0x2266 JUMPI JUMP JUMPDEST PUSH1 0x64 PUSH1 0x40 MLOAD PUSH3 0x461BCD PUSH1 0xE5 SHL DUP2 MSTORE PUSH1 0x20 PUSH1 0x4 DUP3 ADD MSTORE PUSH1 0x20 PUSH1 0x24 DUP3 ADD MSTORE PUSH32 0x4F776E61626C653A2063616C6C6572206973206E6F7420746865206F776E6572 PUSH1 0x44 DUP3 ADD MSTORE REVERT JUMPDEST PUSH1 0xA0 DUP2 ADD SWAP1 DUP2 LT PUSH8 0xFFFFFFFFFFFFFFFF DUP3 GT OR PUSH2 0x34F JUMPI PUSH1 0x40 MSTORE JUMP JUMPDEST PUSH2 0x260 DUP2 ADD SWAP1 DUP2 LT PUSH8 0xFFFFFFFFFFFFFFFF DUP3 GT OR PUSH2 0x34F JUMPI PUSH1 0x40 MSTORE JUMP JUMPDEST PUSH1 0x80 DUP2 ADD SWAP1 DUP2 LT PUSH8 0xFFFFFFFFFFFFFFFF DUP3 GT OR PUSH2 0x34F JUMPI PUSH1 0x40 MSTORE JUMP JUMPDEST SWAP1 PUSH1 0x1F DUP1 NOT SWAP2 ADD AND DUP2 ADD SWAP1 DUP2 LT PUSH8 0xFFFFFFFFFFFFFFFF DUP3 GT OR PUSH2 0x34F JUMPI PUSH1 0x40 MSTORE JUMP JUMPDEST PUSH1 0x0 MSTORE PUSH1 0x6 PUSH1 0x20 MSTORE PUSH1 0x9 PUSH1 0x40 PUSH1 0x0 KECCAK256 ADD SLOAD PUSH4 0xFFFFFFFF DUP1 DUP3 AND SWAP2 DUP3 ISZERO ISZERO SWAP3 DUP4 PUSH2 0x236B JUMPI JUMPDEST DUP4 PUSH2 0x2361 JUMPI JUMPDEST POP DUP3 PUSH2 0x2356 JUMPI POP POP SWAP1 JUMP JUMPDEST PUSH1 0x20 SHR AND TIMESTAMP LT SWAP2 SWAP1 POP JUMP JUMPDEST TIMESTAMP GT SWAP3 POP CODESIZE PUSH2 0x234B JUMP JUMPDEST SWAP3 POP DUP2 DUP2 PUSH1 0x20 SHR AND ISZERO ISZERO SWAP3 PUSH2 0x2345 JUMP JUMPDEST ISZERO PUSH2 0x2382 JUMPI JUMP JUMPDEST PUSH1 0x40 MLOAD PUSH3 0x461BCD PUSH1 0xE5 SHL DUP2 MSTORE PUSH1 0x20 PUSH1 0x4 DUP3 ADD MSTORE PUSH1 0x10 PUSH1 0x24 DUP3 ADD MSTORE PUSH16 0x14185D5CD8589B194E881C185D5CD959 PUSH1 0x82 SHL PUSH1 0x44 DUP3 ADD MSTORE PUSH1 0x64 SWAP1 REVERT JUMPDEST ISZERO PUSH2 0x23C1 JUMPI JUMP JUMPDEST PUSH1 0x40 MLOAD PUSH3 0x461BCD PUSH1 0xE5 SHL DUP2 MSTORE PUSH1 0x20 PUSH1 0x4 DUP3 ADD MSTORE PUSH1 0x14 PUSH1 0x24 DUP3 ADD MSTORE PUSH20 0x14185D5CD8589B194E881B9BDD081C185D5CD959 PUSH1 0x62 SHL PUSH1 0x44 DUP3 ADD MSTORE PUSH1 0x64 SWAP1 REVERT JUMPDEST PUSH1 0x0 NOT DUP2 EQ PUSH2 0xCA0 JUMPI PUSH1 0x1 ADD SWAP1 JUMP JUMPDEST SWAP2 SWAP1 DUP3 ADD DUP1 SWAP3 GT PUSH2 0xCA0 JUMPI JUMP JUMPDEST SWAP1 PUSH2 0x3E8 SWAP2 DUP3 DUP2 MUL SWAP3 DUP2 DUP5 DIV EQ SWAP1 ISZERO OR ISZERO PUSH2 0xCA0 JUMPI JUMP JUMPDEST DUP2 DUP2 MUL SWAP3 SWAP2 DUP2 ISZERO SWAP2 DUP5 DIV EQ OR ISZERO PUSH2 0xCA0 JUMPI JUMP JUMPDEST SWAP2 SWAP1 SWAP2 PUSH1 0x0 SWAP3 DUP2 DUP5 MSTORE PUSH1 0x20 SWAP1 PUSH1 0x6 DUP3 MSTORE PUSH1 0x40 SWAP5 PUSH1 0x9 DUP7 DUP3 KECCAK256 ADD SLOAD PUSH1 0xFF DUP2 PUSH1 0x68 SHR AND ISZERO PUSH1 0x0 EQ PUSH2 0x25F7 JUMPI PUSH4 0xFFFFFFFF DUP1 SWAP2 AND ISZERO PUSH2 0x259F JUMPI DUP5 DUP3 MSTORE PUSH1 0x6 DUP5 MSTORE DUP1 PUSH1 0x9 DUP9 DUP5 KECCAK256 ADD SLOAD DUP6 SHR AND TIMESTAMP LT PUSH2 0x254A JUMPI DUP5 DUP3 MSTORE PUSH1 0x6 DUP5 MSTORE PUSH1 0x9 DUP8 DUP4 KECCAK256 ADD SLOAD DUP8 SHR AND TIMESTAMP GT PUSH2 0x24FB JUMPI DUP4 DUP2 MSTORE PUSH1 0x6 DUP4 MSTORE DUP6 SWAP1 KECCAK256 PUSH1 0x7 DUP2 ADD DUP3 SWAP1 SSTORE PUSH1 0x9 ADD DUP1 SLOAD PUSH1 0xFF PUSH1 0x68 SHL NOT AND PUSH1 0x1 PUSH1 0x68 SHL OR SWAP1 SSTORE SWAP4 MLOAD SWAP4 DUP5 MSTORE SWAP2 SWAP3 SWAP1 SWAP2 PUSH32 0x1BAA8618187C16370C93561B721A291ED3182B22390099D67E81167F97FBDD3A SWAP2 LOG2 JUMP JUMPDEST DUP6 MLOAD PUSH3 0x461BCD PUSH1 0xE5 SHL DUP2 MSTORE PUSH1 0x4 DUP2 ADD DUP5 SWAP1 MSTORE PUSH1 0x22 PUSH1 0x24 DUP3 ADD MSTORE PUSH32 0x43616E206F6E6C79206C6F636B206265666F726520656E642074696D65737461 PUSH1 0x44 DUP3 ADD MSTORE PUSH2 0x6D7 PUSH1 0xF4 SHL PUSH1 0x64 DUP3 ADD MSTORE PUSH1 0x84 SWAP1 REVERT JUMPDEST DUP7 MLOAD PUSH3 0x461BCD PUSH1 0xE5 SHL DUP2 MSTORE PUSH1 0x4 DUP2 ADD DUP6 SWAP1 MSTORE PUSH1 0x28 PUSH1 0x24 DUP3 ADD MSTORE PUSH32 0x43616E206F6E6C79206C6F636B20726F756E64206166746572206C6F636B2074 PUSH1 0x44 DUP3 ADD MSTORE PUSH8 0x696D657374616D7 PUSH1 0xC4 SHL PUSH1 0x64 DUP3 ADD MSTORE PUSH1 0x84 SWAP1 REVERT JUMPDEST DUP7 MLOAD PUSH3 0x461BCD PUSH1 0xE5 SHL DUP2 MSTORE PUSH1 0x4 DUP2 ADD DUP6 SWAP1 MSTORE PUSH1 0x2B PUSH1 0x24 DUP3 ADD MSTORE PUSH32 0x43616E206F6E6C79206C6F636B20726F756E6420616674657220726F756E6420 PUSH1 0x44 DUP3 ADD MSTORE PUSH11 0x1A185CC81CDD185C9D1959 PUSH1 0xAA SHL PUSH1 0x64 DUP3 ADD MSTORE PUSH1 0x84 SWAP1 REVERT JUMPDEST POP POP POP POP POP SWAP1 POP JUMP JUMPDEST SWAP2 SWAP1 DUP3 SUB SWAP2 DUP3 GT PUSH2 0xCA0 JUMPI JUMP JUMPDEST SWAP2 SWAP1 SWAP2 PUSH1 0x0 SWAP3 DUP2 DUP5 MSTORE PUSH1 0x20 SWAP1 PUSH1 0x6 DUP3 MSTORE PUSH4 0xFFFFFFFF SWAP5 PUSH1 0x40 SWAP6 DUP1 PUSH1 0x9 DUP9 DUP5 KECCAK256 ADD SLOAD DUP6 SHR AND ISZERO PUSH2 0x26F5 JUMPI DUP5 DUP3 MSTORE PUSH1 0x6 DUP5 MSTORE PUSH1 0x9 DUP8 DUP4 KECCAK256 ADD SLOAD DUP8 SHR AND TIMESTAMP LT PUSH2 0x26A0 JUMPI DUP4 DUP2 MSTORE PUSH1 0x6 DUP4 MSTORE DUP6 SWAP1 KECCAK256 PUSH1 0x8 DUP2 ADD DUP3 SWAP1 SSTORE PUSH1 0x9 ADD DUP1 SLOAD PUSH1 0xFF PUSH1 0x70 SHL NOT AND PUSH1 0x1 PUSH1 0x70 SHL OR SWAP1 SSTORE SWAP4 MLOAD SWAP4 DUP5 MSTORE SWAP2 SWAP3 SWAP1 SWAP2 PUSH32 0x8868888CC18628A149BC88CC32A91976AB30E2CD9AECECB0CFE184A73FE551F9 SWAP2 LOG2 JUMP JUMPDEST DUP6 MLOAD PUSH3 0x461BCD PUSH1 0xE5 SHL DUP2 MSTORE PUSH1 0x4 DUP2 ADD DUP5 SWAP1 MSTORE PUSH1 0x28 PUSH1 0x24 DUP3 ADD MSTORE PUSH32 0x43616E206F6E6C7920656E6420726F756E6420616674657220636C6F73652074 PUSH1 0x44 DUP3 ADD MSTORE PUSH8 0x696D657374616D7 PUSH1 0xC4 SHL PUSH1 0x64 DUP3 ADD MSTORE PUSH1 0x84 SWAP1 REVERT JUMPDEST DUP7 MLOAD PUSH3 0x461BCD PUSH1 0xE5 SHL DUP2 MSTORE PUSH1 0x4 DUP2 ADD DUP6 SWAP1 MSTORE PUSH1 0x29 PUSH1 0x24 DUP3 ADD MSTORE PUSH32 0x43616E206F6E6C7920656E6420726F756E6420616674657220726F756E642068 PUSH1 0x44 DUP3 ADD MSTORE PUSH9 0x185CC81B1BD8DAD959 PUSH1 0xBA SHL PUSH1 0x64 DUP3 ADD MSTORE PUSH1 0x84 SWAP1 REVERT JUMPDEST DUP2 ISZERO PUSH2 0x2755 JUMPI DIV SWAP1 JUMP JUMPDEST PUSH4 0x4E487B71 PUSH1 0xE0 SHL PUSH1 0x0 MSTORE PUSH1 0x12 PUSH1 0x4 MSTORE PUSH1 0x24 PUSH1 0x0 REVERT JUMPDEST PUSH1 0x1 DUP1 PUSH1 0xA0 SHL SUB PUSH1 0x1 SLOAD AND PUSH1 0x0 SWAP2 DUP1 DUP4 MSTORE PUSH1 0x6 PUSH1 0x20 MSTORE PUSH1 0x40 DUP4 KECCAK256 PUSH1 0x3 DUP2 ADD SLOAD ISZERO SWAP1 DUP2 PUSH2 0x28E1 JUMPI JUMPDEST POP ISZERO PUSH2 0x289C JUMPI DUP3 MSTORE PUSH1 0x6 PUSH1 0x20 MSTORE PUSH1 0x40 DUP3 KECCAK256 SWAP1 DUP3 DUP1 SWAP2 PUSH1 0x1 DUP5 ADD DUP1 SLOAD SWAP4 PUSH1 0x2 DUP7 ADD SWAP7 DUP8 SLOAD PUSH2 0x27BF DUP2 DUP9 PUSH2 0x240C JUMP JUMPDEST PUSH1 0x8 DUP10 ADD SLOAD PUSH1 0x7 DUP11 ADD SLOAD SWAP2 SWAP9 SWAP2 GT DUP1 PUSH2 0x2834 JUMPI POP POP POP POP POP PUSH2 0x27E8 PUSH1 0x64 SWAP2 SLOAD SWAP5 PUSH1 0xC SLOAD SWAP1 PUSH2 0x2430 JUMP JUMPDEST DIV SWAP5 DUP4 ISZERO PUSH2 0x2802 JUMPI JUMPDEST POP POP POP SWAP1 PUSH1 0x4 SWAP2 JUMPDEST PUSH1 0x3 DUP3 ADD SSTORE ADD SSTORE JUMP JUMPDEST DUP3 DUP1 DUP1 SWAP4 DUP2 SWAP4 SLOAD SWAP1 DUP3 DUP3 ISZERO PUSH2 0x282B JUMPI JUMPDEST CALL ISZERO PUSH2 0x281F JUMPI DUP1 DUP1 PUSH2 0x27F1 JUMP JUMPDEST PUSH1 0x40 MLOAD SWAP1 RETURNDATASIZE SWAP1 DUP3 RETURNDATACOPY RETURNDATASIZE SWAP1 REVERT JUMPDEST POP PUSH2 0x8FC PUSH2 0x2812 JUMP JUMPDEST SWAP2 SWAP7 SWAP5 POP SWAP3 SWAP9 POP SWAP6 SWAP4 SWAP1 SWAP6 PUSH2 0x2852 JUMPI JUMPDEST POP POP POP POP POP SWAP1 PUSH1 0x4 SWAP2 PUSH2 0x27F9 JUMP JUMPDEST SWAP2 SWAP4 SWAP7 POP SWAP2 SWAP4 POP PUSH1 0x64 PUSH2 0x2869 DUP8 SWAP6 PUSH1 0xC SLOAD SWAP1 PUSH2 0x2430 JUMP JUMPDEST DIV SWAP6 ISZERO PUSH2 0x2878 JUMPI JUMPDEST DUP1 DUP1 PUSH2 0x2844 JUMP JUMPDEST DUP3 DUP1 DUP1 SWAP4 DUP2 SWAP4 DUP3 DUP3 ISZERO PUSH2 0x2893 JUMPI JUMPDEST CALL ISZERO PUSH2 0x281F JUMPI DUP1 DUP1 PUSH2 0x2871 JUMP JUMPDEST POP PUSH2 0x8FC PUSH2 0x2886 JUMP JUMPDEST PUSH1 0x40 MLOAD PUSH3 0x461BCD PUSH1 0xE5 SHL DUP2 MSTORE PUSH1 0x20 PUSH1 0x4 DUP3 ADD MSTORE PUSH1 0x1A PUSH1 0x24 DUP3 ADD MSTORE PUSH32 0x526577617264732063616C63756C6174656420616C7265616479000000000000 PUSH1 0x44 DUP3 ADD MSTORE PUSH1 0x64 SWAP1 REVERT JUMPDEST PUSH1 0x4 SWAP2 POP ADD SLOAD ISZERO CODESIZE PUSH2 0x2792 JUMP JUMPDEST ISZERO PUSH2 0x28F5 JUMPI JUMP JUMPDEST PUSH1 0x40 MLOAD PUSH3 0x461BCD PUSH1 0xE5 SHL DUP2 MSTORE PUSH1 0x20 PUSH1 0x4 DUP3 ADD MSTORE PUSH1 0x15 PUSH1 0x24 DUP3 ADD MSTORE PUSH21 0x10DBDB9D1C9858DD1CC81B9BDD08185B1B1BDDD959 PUSH1 0x5A SHL PUSH1 0x44 DUP3 ADD MSTORE PUSH1 0x64 SWAP1 REVERT JUMPDEST ISZERO PUSH2 0x2939 JUMPI JUMP JUMPDEST PUSH1 0x40 MLOAD PUSH3 0x461BCD PUSH1 0xE5 SHL DUP2 MSTORE PUSH1 0x20 PUSH1 0x4 DUP3 ADD MSTORE PUSH1 0x1B PUSH1 0x24 DUP3 ADD MSTORE PUSH32 0x50726F787920636F6E747261637473206E6F7420616C6C6F7765640000000000 PUSH1 0x44 DUP3 ADD MSTORE PUSH1 0x64 SWAP1 REVERT JUMPDEST ISZERO PUSH2 0x2985 JUMPI JUMP JUMPDEST PUSH1 0x40 MLOAD PUSH3 0x461BCD PUSH1 0xE5 SHL DUP2 MSTORE PUSH1 0x20 PUSH1 0x4 DUP3 ADD MSTORE PUSH1 0x12 PUSH1 0x24 DUP3 ADD MSTORE PUSH18 0x526F756E64206E6F74206265747461626C65 PUSH1 0x70 SHL PUSH1 0x44 DUP3 ADD MSTORE PUSH1 0x64 SWAP1 REVERT JUMPDEST DUP1 SLOAD PUSH1 0x1 PUSH1 0x40 SHL DUP2 LT ISZERO PUSH2 0x34F JUMPI PUSH2 0x29DC SWAP2 PUSH1 0x1 DUP3 ADD DUP2 SSTORE PUSH2 0x2247 JUMP JUMPDEST DUP2 SWAP3 SWAP2 SLOAD SWAP1 PUSH1 0x3 SHL SWAP2 DUP3 SHL SWAP2 PUSH1 0x0 NOT SWAP1 SHL NOT AND OR SWAP1 SSTORE JUMP JUMPDEST ISZERO PUSH2 0x29FB JUMPI JUMP JUMPDEST PUSH1 0x40 MLOAD PUSH3 0x461BCD PUSH1 0xE5 SHL DUP2 MSTORE PUSH1 0x20 PUSH1 0x4 DUP3 ADD MSTORE PUSH1 0x1F PUSH1 0x24 DUP3 ADD MSTORE PUSH32 0x5265656E7472616E637947756172643A207265656E7472616E742063616C6C00 PUSH1 0x44 DUP3 ADD MSTORE PUSH1 0x64 SWAP1 REVERT JUMPDEST ISZERO PUSH2 0x2A47 JUMPI JUMP JUMPDEST PUSH1 0x40 MLOAD PUSH3 0x461BCD PUSH1 0xE5 SHL DUP2 MSTORE PUSH1 0x20 PUSH1 0x4 DUP3 ADD MSTORE PUSH1 0x15 PUSH1 0x24 DUP3 ADD MSTORE PUSH21 0x42657420697320746F6F206561726C792F6C617465 PUSH1 0x58 SHL PUSH1 0x44 DUP3 ADD MSTORE PUSH1 0x64 SWAP1 REVERT JUMPDEST ISZERO PUSH2 0x2A8B JUMPI JUMP JUMPDEST PUSH1 0x40 MLOAD PUSH3 0x461BCD PUSH1 0xE5 SHL DUP2 MSTORE PUSH1 0x20 PUSH1 0x4 DUP3 ADD MSTORE PUSH1 0x2E PUSH1 0x24 DUP3 ADD MSTORE PUSH32 0x42657420616D6F756E74206D7573742062652067726561746572207468616E20 PUSH1 0x44 DUP3 ADD MSTORE PUSH14 0x1B5A5B9A5B5D5B48185B5BDD5B9D PUSH1 0x92 SHL PUSH1 0x64 DUP3 ADD MSTORE PUSH1 0x84 SWAP1 REVERT JUMPDEST ISZERO PUSH2 0x2AEE JUMPI JUMP JUMPDEST PUSH1 0x40 MLOAD PUSH3 0x461BCD PUSH1 0xE5 SHL DUP2 MSTORE PUSH1 0x20 PUSH1 0x4 DUP3 ADD MSTORE PUSH1 0x1B PUSH1 0x24 DUP3 ADD MSTORE PUSH32 0x43616E206F6E6C7920626574206F6E63652070657220726F756E640000000000 PUSH1 0x44 DUP3 ADD MSTORE PUSH1 0x64 SWAP1 REVERT JUMPDEST PUSH1 0x40 MLOAD SWAP1 PUSH2 0x2B40 DUP3 PUSH2 0x22E3 JUMP JUMPDEST PUSH1 0x0 PUSH1 0x60 DUP4 DUP3 DUP2 MSTORE DUP3 PUSH1 0x20 DUP3 ADD MSTORE DUP3 PUSH1 0x40 DUP3 ADD MSTORE ADD MSTORE JUMP JUMPDEST PUSH1 0x2 DUP3 LT ISZERO PUSH2 0x21B0 JUMPI MSTORE JUMP JUMPDEST DUP1 SLOAD SWAP1 PUSH1 0x1 PUSH1 0x40 SHL DUP3 LT ISZERO PUSH2 0x34F JUMPI PUSH1 0x1 DUP3 ADD DUP1 DUP3 SSTORE DUP3 LT ISZERO PUSH2 0x2231 JUMPI PUSH1 0x0 MSTORE PUSH1 0x3 PUSH1 0x20 PUSH1 0x0 KECCAK256 SWAP2 MUL ADD SWAP1 PUSH1 0x1 DUP1 PUSH1 0xA0 SHL SUB DUP2 MLOAD AND SWAP1 DUP3 SLOAD SWAP1 PUSH1 0x20 DUP2 ADD MLOAD SWAP2 PUSH1 0x2 DUP4 LT ISZERO PUSH2 0x21B0 JUMPI PUSH1 0x1 PUSH1 0x1 PUSH1 0xA8 SHL SUB NOT AND SWAP1 SWAP3 OR PUSH1 0xA0 SWAP2 SWAP1 SWAP2 SHL PUSH1 0xFF PUSH1 0xA0 SHL AND OR DUP3 SSTORE PUSH1 0x40 DUP2 ADD MLOAD PUSH1 0x1 DUP4 ADD SSTORE PUSH1 0x60 ADD MLOAD PUSH1 0x2 SWAP2 SWAP1 SWAP2 ADD SSTORE JUMP JUMPDEST SWAP1 DUP2 PUSH1 0x0 MSTORE PUSH1 0x6 PUSH1 0x20 MSTORE PUSH1 0xB PUSH1 0x40 PUSH1 0x0 KECCAK256 PUSH2 0x2C27 PUSH2 0x2C22 PUSH1 0x2 DUP4 ADD SLOAD PUSH2 0x2C1D PUSH2 0x2C0D PUSH1 0x1 DUP7 ADD SLOAD DUP1 SWAP4 PUSH2 0x240C JUMP JUMPDEST SWAP2 PUSH2 0x2C1D PUSH1 0x5 DUP8 ADD SLOAD SWAP4 DUP5 PUSH2 0x2430 JUMP JUMPDEST PUSH2 0x274B JUMP JUMPDEST PUSH2 0x2419 JUMP JUMPDEST PUSH1 0xA DUP3 ADD SSTORE ADD SLOAD PUSH2 0x2C36 JUMPI POP POP JUMP JUMPDEST PUSH2 0x2C3F SWAP2 PUSH2 0x2C41 JUMP JUMPDEST JUMP JUMPDEST SWAP1 DUP2 PUSH1 0x0 MSTORE PUSH1 0x6 PUSH1 0x20 MSTORE PUSH1 0xA PUSH1 0x40 PUSH1 0x0 KECCAK256 PUSH2 0x2C7E PUSH2 0x2C22 PUSH1 0x2 DUP4 ADD SLOAD PUSH2 0x2C1D PUSH2 0x2C6E PUSH1 0x1 DUP7 ADD SLOAD DUP4 PUSH2 0x240C JUMP JUMPDEST SWAP2 PUSH2 0x2C1D PUSH1 0x6 DUP8 ADD SLOAD SWAP4 DUP5 PUSH2 0x2430 JUMP JUMPDEST PUSH1 0xB DUP3 ADD SSTORE ADD SLOAD PUSH2 0x2C8D JUMPI POP POP JUMP JUMPDEST PUSH2 0x2C3F SWAP2 PUSH2 0x2BDF JUMP JUMPDEST PUSH8 0xFFFFFFFFFFFFFFFF DUP2 GT PUSH2 0x34F JUMPI PUSH1 0x5 SHL PUSH1 0x20 ADD SWAP1 JUMP JUMPDEST SWAP1 DUP2 SLOAD PUSH2 0x2CBA DUP2 PUSH2 0x2C96 JUMP JUMPDEST SWAP3 PUSH1 0x40 SWAP4 PUSH2 0x2CCA DUP6 MLOAD SWAP2 DUP3 PUSH2 0x22FF JUMP JUMPDEST DUP3 DUP2 MSTORE DUP1 SWAP5 PUSH1 0x20 DUP1 SWAP3 ADD SWAP3 PUSH1 0x0 MSTORE DUP2 PUSH1 0x0 KECCAK256 SWAP1 PUSH1 0x0 SWAP4 JUMPDEST DUP6 DUP6 LT PUSH2 0x2CF0 JUMPI POP POP POP POP POP POP JUMP JUMPDEST PUSH1 0x3 DUP5 PUSH1 0x1 SWAP3 DUP5 MLOAD PUSH2 0x2D01 DUP2 PUSH2 0x22E3 JUMP JUMPDEST PUSH2 0x2D1E PUSH1 0xFF DUP9 SLOAD DUP8 DUP1 PUSH1 0xA0 SHL SUB DUP2 AND DUP5 MSTORE PUSH1 0xA0 SHR AND DUP5 DUP4 ADD PUSH2 0x2B58 JUMP JUMPDEST DUP5 DUP8 ADD SLOAD DUP7 DUP3 ADD MSTORE PUSH1 0x2 DUP8 ADD SLOAD PUSH1 0x60 DUP3 ADD MSTORE DUP2 MSTORE ADD SWAP4 ADD SWAP5 ADD SWAP4 SWAP2 PUSH2 0x2CE1 JUMP JUMPDEST DUP1 MLOAD DUP3 LT ISZERO PUSH2 0x2231 JUMPI PUSH1 0x20 SWAP2 PUSH1 0x5 SHL ADD ADD SWAP1 JUMP JUMPDEST SWAP1 PUSH1 0x0 SWAP1 DUP3 DUP3 MSTORE PUSH1 0x20 SWAP2 PUSH1 0x7 DUP4 MSTORE PUSH1 0x40 SWAP2 DUP3 DUP3 KECCAK256 SWAP1 PUSH1 0x1 DUP1 PUSH1 0xA0 SHL SUB AND DUP3 MSTORE DUP4 MSTORE PUSH1 0x4 DUP3 DUP3 KECCAK256 SWAP3 DUP1 MLOAD SWAP4 PUSH2 0x2D85 DUP6 PUSH2 0x22AA JUMP JUMPDEST PUSH1 0xFF SWAP3 DUP2 PUSH2 0x2D97 DUP6 DUP1 SWAP5 SLOAD AND DUP9 PUSH2 0x2B58 JUMP JUMPDEST PUSH1 0x1 DUP2 ADD SLOAD DUP9 DUP9 ADD MSTORE PUSH1 0x2 DUP2 ADD SLOAD DUP5 DUP9 ADD MSTORE PUSH1 0x3 DUP2 ADD SLOAD PUSH1 0x60 DUP9 ADD MSTORE ADD SLOAD AND SWAP6 PUSH1 0x80 DUP6 ADD SWAP7 ISZERO ISZERO DUP8 MSTORE DUP4 MSTORE PUSH1 0x6 DUP6 MSTORE DUP1 DUP4 KECCAK256 PUSH2 0x240 PUSH2 0x2EB5 PUSH1 0xD DUP5 MLOAD SWAP4 PUSH2 0x2DDD DUP6 PUSH2 0x22C6 JUMP JUMPDEST DUP1 SLOAD DUP6 MSTORE PUSH1 0x1 DUP2 ADD SLOAD DUP11 DUP7 ADD MSTORE PUSH1 0x2 DUP2 ADD SLOAD DUP7 DUP7 ADD MSTORE PUSH1 0x3 DUP2 ADD SLOAD PUSH1 0x60 DUP7 ADD MSTORE PUSH1 0x4 DUP2 ADD SLOAD PUSH1 0x80 DUP7 ADD MSTORE PUSH1 0x5 DUP2 ADD SLOAD PUSH1 0xA0 DUP7 ADD MSTORE PUSH1 0x6 DUP2 ADD SLOAD PUSH1 0xC0 DUP7 ADD MSTORE PUSH1 0x7 DUP2 ADD SLOAD SWAP7 PUSH1 0xE0 DUP7 ADD SWAP8 DUP9 MSTORE PUSH1 0x8 DUP3 ADD SLOAD SWAP11 PUSH2 0x100 DUP8 ADD SWAP12 DUP13 MSTORE PUSH1 0x9 DUP4 ADD SLOAD DUP1 SWAP9 DUP2 SWAP3 PUSH4 0xFFFFFFFF SWAP4 DUP5 SWAP2 DUP3 DUP3 AND PUSH2 0x120 DUP14 ADD MSTORE SHR AND PUSH2 0x140 DUP11 ADD MSTORE SHR AND PUSH2 0x160 DUP8 ADD MSTORE DUP1 DUP8 PUSH1 0x60 SHR AND ISZERO ISZERO PUSH2 0x180 DUP8 ADD MSTORE DUP1 DUP8 PUSH1 0x68 SHR AND ISZERO ISZERO PUSH2 0x1A0 DUP8 ADD MSTORE DUP1 PUSH2 0x1C0 DUP8 ADD SWAP8 PUSH1 0x70 SHR AND ISZERO ISZERO DUP8 MSTORE PUSH1 0xA DUP3 ADD SLOAD PUSH2 0x1E0 DUP8 ADD MSTORE PUSH1 0xB DUP3 ADD SLOAD PUSH2 0x200 DUP8 ADD MSTORE PUSH1 0xC DUP3 ADD SLOAD AND ISZERO ISZERO PUSH2 0x220 DUP7 ADD MSTORE ADD PUSH2 0x2CAE JUMP JUMPDEST SWAP2 ADD MSTORE DUP2 MLOAD SWAP1 DUP6 MLOAD SWAP1 DUP2 DUP4 EQ PUSH2 0x2F78 JUMPI MLOAD ISZERO ISZERO SWAP7 DUP8 PUSH2 0x2F6E JUMPI JUMPDEST POP DUP7 PUSH2 0x2EDF JUMPI JUMPDEST POP POP POP POP POP POP SWAP1 JUMP JUMPDEST GT SWAP5 POP SWAP2 SWAP3 SWAP1 SWAP2 SWAP1 DUP5 PUSH2 0x2F46 JUMPI JUMPDEST DUP5 ISZERO PUSH2 0x2F03 JUMPI JUMPDEST POP POP POP POP CODESIZE DUP1 DUP1 DUP1 DUP1 DUP1 PUSH2 0x2ED6 JUMP JUMPDEST MLOAD SWAP1 MLOAD GT SWAP3 POP SWAP1 DUP3 PUSH2 0x2F1B JUMPI JUMPDEST POP POP CODESIZE DUP1 DUP1 DUP1 PUSH2 0x2EF4 JUMP JUMPDEST MLOAD SWAP2 POP PUSH1 0x2 DUP3 LT ISZERO PUSH2 0x2F32 JUMPI POP PUSH1 0x1 EQ CODESIZE DUP1 PUSH2 0x2F10 JUMP JUMPDEST PUSH4 0x4E487B71 PUSH1 0xE0 SHL DUP2 MSTORE PUSH1 0x21 PUSH1 0x4 MSTORE PUSH1 0x24 SWAP1 REVERT JUMPDEST SWAP4 POP DUP3 MLOAD PUSH1 0x2 DUP2 LT ISZERO PUSH2 0x2F5A JUMPI ISZERO SWAP4 PUSH2 0x2EED JUMP JUMPDEST PUSH4 0x4E487B71 PUSH1 0xE0 SHL DUP4 MSTORE PUSH1 0x21 PUSH1 0x4 MSTORE PUSH1 0x24 DUP4 REVERT JUMPDEST MLOAD ISZERO SWAP7 POP CODESIZE PUSH2 0x2ECF JUMP JUMPDEST POP POP POP POP SWAP3 POP POP POP SWAP1 JUMP INVALID LOG2 PUSH5 0x6970667358 0x22 SLT KECCAK256 0xDF CALLDATACOPY DUP6 RETURNDATACOPY SWAP7 0xE1 0x2F BLOCKHASH SWAP14 0xF8 0x2A PUSH8 0xFAA4CCA9DCA40701 0xA9 0xE5 0xD4 PUSH20 0x3C06C51763BC1A9264736F6C6343000813003300 "},"methodIdentifiers":{"BetBear(uint256)":"bd776d8a","BetBull(uint256)":"bb434f28","BetHouse(uint256,uint256)":"1fa52d91","Bets(uint256,address)":"3977b381","Claim(uint256[])":"8f9fa51b","OwnershipRenounce()":"fd5bab23","OwnershipTransfer(address)":"dfc39691","Pause()":"6985a022","Resume()":"490d6d11","RoundExecute()":"0e7db6bc","RoundLock()":"b3e560eb","RoundStart()":"1f713cae","Rounds(uint256)":"d5df9d23","SetMinBetAmount(uint256)":"48894f0d","SetPriceSource(uint256)":"edeeb28f","SetRewardRate(uint256)":"1946fb78","SetRoundDuration(uint256)":"36f56ba0","UserBets(address,uint256)":"cf48098e","Users(address)":"99b956a0","_bettable(uint256)":"ba4f6737","_paused()":"16c61ccc","addOwnerAccess(address)":"f93a466b","adminEntityAccess(uint256)":"cf627d53","bullBetsCount()":"13493444","changeCurrentAdminEntity(address)":"5dcd0d1c","checkAdminEntityAccess(address)":"9a69ea2d","claimable(uint256,address)":"a0c7f71c","currentEpoch()":"76671808","getAllAdminEntity()":"13b622fb","getBalance()":"12065fe0","getCurrentAdminEntity()":"0629b2ae","getPriceSource()":"048de381","getRoundPlayers(uint256)":"776e11dd","getStats()":"c59d4847","getUserParticipatedRounds(address)":"8843013b","getUserRounds(address,uint256,uint256)":"951fd600","getUserRoundsLength(address)":"273867d4","lockOnce()":"6a42c87b","minBetAmount()":"fa968eea","owner()":"8da5cb5b","paused()":"5c975abb","priceSource()":"20531bc9","refundable(uint256,address)":"7bf41254","removeOwnerAccess(address)":"f8e4808a","rewardRate()":"7b0a47ee","roundDuration()":"f7cb789a","startOnce()":"381a5478"}}}}}