{"src/contracts/BullsCall.sol":{"BullsCallPrediction":{"abi":[{"anonymous":false,"inputs":[{"indexed":true,"internalType":"address","name":"sender","type":"address"},{"indexed":true,"internalType":"uint256","name":"epoch","type":"uint256"},{"indexed":false,"internalType":"uint256","name":"amount","type":"uint256"}],"name":"BearBet","type":"event"},{"anonymous":false,"inputs":[{"indexed":true,"internalType":"address","name":"sender","type":"address"},{"indexed":true,"internalType":"uint256","name":"epoch","type":"uint256"},{"indexed":false,"internalType":"uint256","name":"amount","type":"uint256"}],"name":"BullBet","type":"event"},{"anonymous":false,"inputs":[{"indexed":true,"internalType":"address","name":"sender","type":"address"},{"indexed":true,"internalType":"uint256","name":"epoch","type":"uint256"},{"indexed":false,"internalType":"uint256","name":"amount","type":"uint256"}],"name":"Claimed","type":"event"},{"anonymous":false,"inputs":[{"indexed":true,"internalType":"address","name":"sender","type":"address"},{"indexed":true,"internalType":"uint256","name":"epoch","type":"uint256"},{"indexed":false,"internalType":"uint256","name":"bullAmount","type":"uint256"},{"indexed":false,"internalType":"uint256","name":"bearAmount","type":"uint256"}],"name":"HouseBet","type":"event"},{"anonymous":false,"inputs":[{"indexed":true,"internalType":"uint256","name":"epoch","type":"uint256"},{"indexed":false,"internalType":"uint256","name":"minBetAmount","type":"uint256"}],"name":"MinBetAmountUpdated","type":"event"},{"anonymous":false,"inputs":[{"indexed":true,"internalType":"address","name":"previousOwner","type":"address"},{"indexed":true,"internalType":"address","name":"newOwner","type":"address"}],"name":"OwnershipTransferred","type":"event"},{"anonymous":false,"inputs":[{"indexed":true,"internalType":"uint256","name":"epoch","type":"uint256"}],"name":"Paused","type":"event"},{"anonymous":false,"inputs":[{"indexed":true,"internalType":"address","name":"sender","type":"address"},{"indexed":true,"internalType":"uint256","name":"epoch","type":"uint256"},{"indexed":false,"internalType":"uint256","name":"amount","type":"uint256"}],"name":"Refunded","type":"event"},{"anonymous":false,"inputs":[{"indexed":false,"internalType":"uint256","name":"roundDuration","type":"uint256"}],"name":"RoundDuratioUpdated","type":"event"},{"anonymous":false,"inputs":[{"indexed":true,"internalType":"uint256","name":"epoch","type":"uint256"},{"indexed":false,"internalType":"uint256","name":"price","type":"uint256"}],"name":"RoundEnded","type":"event"},{"anonymous":false,"inputs":[{"indexed":true,"internalType":"uint256","name":"epoch","type":"uint256"},{"indexed":false,"internalType":"uint256","name":"price","type":"uint256"}],"name":"RoundLocked","type":"event"},{"anonymous":false,"inputs":[{"indexed":true,"internalType":"uint256","name":"epoch","type":"uint256"}],"name":"RoundStarted","type":"event"},{"anonymous":false,"inputs":[{"indexed":true,"internalType":"uint256","name":"epoch","type":"uint256"}],"name":"Unpaused","type":"event"},{"inputs":[{"internalType":"uint256","name":"epoch","type":"uint256"}],"name":"BetBear","outputs":[],"stateMutability":"payable","type":"function"},{"inputs":[{"internalType":"uint256","name":"epoch","type":"uint256"}],"name":"BetBull","outputs":[],"stateMutability":"payable","type":"function"},{"inputs":[{"internalType":"uint256","name":"bullAmount","type":"uint256"},{"internalType":"uint256","name":"bearAmount","type":"uint256"}],"name":"BetHouse","outputs":[],"stateMutability":"nonpayable","type":"function"},{"inputs":[{"internalType":"uint256","name":"","type":"uint256"},{"internalType":"address","name":"","type":"address"}],"name":"Bets","outputs":[{"internalType":"enum BullsCallPrediction.Position","name":"position","type":"uint8"},{"internalType":"uint256","name":"betTimestamp","type":"uint256"},{"internalType":"uint256","name":"claimTimestamp","type":"uint256"},{"internalType":"uint256","name":"amount","type":"uint256"},{"internalType":"bool","name":"claimed","type":"bool"}],"stateMutability":"view","type":"function"},{"inputs":[{"internalType":"uint256[]","name":"epochs","type":"uint256[]"}],"name":"Claim","outputs":[],"stateMutability":"payable","type":"function"},{"inputs":[],"name":"OwnershipRenounce","outputs":[],"stateMutability":"nonpayable","type":"function"},{"inputs":[{"internalType":"address","name":"newOwner","type":"address"}],"name":"OwnershipTransfer","outputs":[],"stateMutability":"nonpayable","type":"function"},{"inputs":[],"name":"Pause","outputs":[],"stateMutability":"nonpayable","type":"function"},{"inputs":[],"name":"Resume","outputs":[],"stateMutability":"nonpayable","type":"function"},{"inputs":[],"name":"RoundExecute","outputs":[],"stateMutability":"nonpayable","type":"function"},{"inputs":[],"name":"RoundLock","outputs":[],"stateMutability":"nonpayable","type":"function"},{"inputs":[],"name":"RoundStart","outputs":[],"stateMutability":"nonpayable","type":"function"},{"inputs":[{"internalType":"uint256","name":"","type":"uint256"}],"name":"Rounds","outputs":[{"internalType":"uint256","name":"epoch","type":"uint256"},{"internalType":"uint256","name":"bullAmount","type":"uint256"},{"internalType":"uint256","name":"bearAmount","type":"uint256"},{"internalType":"uint256","name":"rewardBaseCalAmount","type":"uint256"},{"internalType":"uint256","name":"rewardAmount","type":"uint256"},{"internalType":"uint256","name":"bullBet","type":"uint256"},{"internalType":"uint256","name":"bearBet","type":"uint256"},{"internalType":"uint256","name":"lockPrice","type":"uint256"},{"internalType":"uint256","name":"closePrice","type":"uint256"},{"internalType":"uint32","name":"startTimestamp","type":"uint32"},{"internalType":"uint32","name":"lockTimestamp","type":"uint32"},{"internalType":"uint32","name":"closeTimestamp","type":"uint32"},{"internalType":"bool","name":"started","type":"bool"},{"internalType":"bool","name":"locked","type":"bool"},{"internalType":"bool","name":"closed","type":"bool"},{"internalType":"uint256","name":"roundUpPayout","type":"uint256"},{"internalType":"uint256","name":"roundDownPayout","type":"uint256"},{"internalType":"bool","name":"cancelled","type":"bool"}],"stateMutability":"view","type":"function"},{"inputs":[{"internalType":"uint256","name":"_minBetAmount","type":"uint256"}],"name":"SetMinBetAmount","outputs":[],"stateMutability":"nonpayable","type":"function"},{"inputs":[{"internalType":"uint256","name":"_priceSource","type":"uint256"}],"name":"SetPriceSource","outputs":[],"stateMutability":"nonpayable","type":"function"},{"inputs":[{"internalType":"uint256","name":"_rewardRate","type":"uint256"}],"name":"SetRewardRate","outputs":[],"stateMutability":"nonpayable","type":"function"},{"inputs":[{"internalType":"uint256","name":"_roundDuration","type":"uint256"}],"name":"SetRoundDuration","outputs":[],"stateMutability":"nonpayable","type":"function"},{"inputs":[{"internalType":"address","name":"","type":"address"},{"internalType":"uint256","name":"","type":"uint256"}],"name":"UserBets","outputs":[{"internalType":"uint256","name":"","type":"uint256"}],"stateMutability":"view","type":"function"},{"inputs":[{"internalType":"address","name":"","type":"address"}],"name":"Users","outputs":[{"internalType":"address","name":"wallet","type":"address"},{"internalType":"uint256","name":"latestEpoch","type":"uint256"},{"internalType":"uint256","name":"bullBetsCount","type":"uint256"},{"internalType":"uint256","name":"bullBetsTotal","type":"uint256"},{"internalType":"uint256","name":"bearBetsCount","type":"uint256"},{"internalType":"uint256","name":"bearBetsTotal","type":"uint256"},{"internalType":"uint256","name":"paidBetsCount","type":"uint256"},{"internalType":"uint256","name":"paidBetsTotal","type":"uint256"}],"stateMutability":"view","type":"function"},{"inputs":[{"internalType":"uint256","name":"epoch","type":"uint256"}],"name":"_bettable","outputs":[{"internalType":"bool","name":"","type":"bool"}],"stateMutability":"view","type":"function"},{"inputs":[],"name":"_paused","outputs":[{"internalType":"bool","name":"","type":"bool"}],"stateMutability":"view","type":"function"},{"inputs":[],"name":"bullBetsCount","outputs":[{"internalType":"uint256","name":"","type":"uint256"}],"stateMutability":"view","type":"function"},{"inputs":[{"internalType":"uint256","name":"epoch","type":"uint256"},{"internalType":"address","name":"user","type":"address"}],"name":"claimable","outputs":[{"internalType":"bool","name":"","type":"bool"}],"stateMutability":"view","type":"function"},{"inputs":[],"name":"currentEpoch","outputs":[{"internalType":"uint256","name":"","type":"uint256"}],"stateMutability":"view","type":"function"},{"inputs":[],"name":"getBalance","outputs":[{"internalType":"uint256","name":"","type":"uint256"}],"stateMutability":"view","type":"function"},{"inputs":[],"name":"getPriceSource","outputs":[{"internalType":"uint256","name":"","type":"uint256"}],"stateMutability":"view","type":"function"},{"inputs":[{"internalType":"uint256","name":"epoch","type":"uint256"}],"name":"getRoundPlayers","outputs":[{"components":[{"internalType":"address","name":"user","type":"address"},{"internalType":"enum BullsCallPrediction.Position","name":"position","type":"uint8"},{"internalType":"uint256","name":"amount","type":"uint256"},{"internalType":"uint256","name":"timestamp","type":"uint256"}],"internalType":"struct BullsCallPrediction.Player[]","name":"","type":"tuple[]"}],"stateMutability":"view","type":"function"},{"inputs":[],"name":"getStats","outputs":[{"internalType":"uint256","name":"","type":"uint256"},{"internalType":"uint256","name":"","type":"uint256"},{"internalType":"uint256","name":"","type":"uint256"},{"internalType":"uint256","name":"","type":"uint256"},{"internalType":"uint256","name":"","type":"uint256"},{"internalType":"uint256","name":"","type":"uint256"}],"stateMutability":"view","type":"function"},{"inputs":[{"internalType":"address","name":"user","type":"address"}],"name":"getUserParticipatedRounds","outputs":[{"internalType":"uint256[]","name":"","type":"uint256[]"}],"stateMutability":"view","type":"function"},{"inputs":[{"internalType":"address","name":"user","type":"address"},{"internalType":"uint256","name":"cursor","type":"uint256"},{"internalType":"uint256","name":"size","type":"uint256"}],"name":"getUserRounds","outputs":[{"internalType":"uint256[]","name":"","type":"uint256[]"},{"components":[{"internalType":"enum BullsCallPrediction.Position","name":"position","type":"uint8"},{"internalType":"uint256","name":"betTimestamp","type":"uint256"},{"internalType":"uint256","name":"claimTimestamp","type":"uint256"},{"internalType":"uint256","name":"amount","type":"uint256"},{"internalType":"bool","name":"claimed","type":"bool"}],"internalType":"struct BullsCallPrediction.Bet[]","name":"","type":"tuple[]"},{"internalType":"uint256","name":"","type":"uint256"}],"stateMutability":"view","type":"function"},{"inputs":[{"internalType":"address","name":"user","type":"address"}],"name":"getUserRoundsLength","outputs":[{"internalType":"uint256","name":"","type":"uint256"}],"stateMutability":"view","type":"function"},{"inputs":[],"name":"lockOnce","outputs":[{"internalType":"bool","name":"","type":"bool"}],"stateMutability":"view","type":"function"},{"inputs":[],"name":"minBetAmount","outputs":[{"internalType":"uint256","name":"","type":"uint256"}],"stateMutability":"view","type":"function"},{"inputs":[],"name":"owner","outputs":[{"internalType":"address","name":"","type":"address"}],"stateMutability":"view","type":"function"},{"inputs":[],"name":"paused","outputs":[{"internalType":"bool","name":"","type":"bool"}],"stateMutability":"view","type":"function"},{"inputs":[],"name":"priceSource","outputs":[{"internalType":"uint256","name":"","type":"uint256"}],"stateMutability":"view","type":"function"},{"inputs":[{"internalType":"uint256","name":"epoch","type":"uint256"},{"internalType":"address","name":"user","type":"address"}],"name":"refundable","outputs":[{"internalType":"bool","name":"","type":"bool"}],"stateMutability":"view","type":"function"},{"inputs":[],"name":"rewardRate","outputs":[{"internalType":"uint256","name":"","type":"uint256"}],"stateMutability":"view","type":"function"},{"inputs":[],"name":"roundDuration","outputs":[{"internalType":"uint256","name":"","type":"uint256"}],"stateMutability":"view","type":"function"},{"inputs":[],"name":"startOnce","outputs":[{"internalType":"bool","name":"","type":"bool"}],"stateMutability":"view","type":"function"},{"stateMutability":"payable","type":"receive"}],"evm":{"bytecode":{"linkReferences":{},"object":"60808060405234610080576000543360007f8be0079c531659141344cd1fd0a4f28419497f9722a3daafe3b4186f6b6457e08180a36001600160a81b0319163360ff60a01b19161760005560018055605f60085561012c6009556611c37937e08000600a556005600b55600c805461ffff19169055612ab890816100868239f35b600080fdfe608080604052600436101561001d575b50361561001b57600080fd5b005b60003560e01c908163048de38114611c92575080630e7db6bc14611b9157806312065fe014611b755780631349344414611b5757806316c61ccc146115e35780631946fb7814611b295780631f713cae146119b75780631fa52d911461183c57806320531bc91461181e578063273867d4146117e457806336f56ba01461178b578063381a5478146117685780633977b381146116e557806348894f0d14611688578063490d6d11146116095780635c975abb146115e35780636985a022146115665780636a42c87b146115405780637667180814611522578063776e11dd146114865780637b0a47ee146114685780637bf412541461129c5780638843013b1461120d5780638da5cb5b146111e45780638f9fa51b14610d8a578063951fd60014610b2d57806399b956a014610aa3578063a0c7f71c14610a7d578063b3e560eb146108ff578063ba4f6737146108d7578063bb434f281461071f578063bd776d8a14610560578063c59d484714610518578063cf48098e146104c0578063d5df9d23146103c0578063dfc39691146102fa578063edeeb28f14610281578063f7cb789a14610263578063fa968eea146102455763fd5bab23146101e2573861000f565b346102405760003660031901126102405760008054906001600160a01b03821661020d338214611d5e565b7f8be0079c531659141344cd1fd0a4f28419497f9722a3daafe3b4186f6b6457e08280a36001600160a01b031916600055005b600080fd5b34610240576000366003190112610240576020600a54604051908152f35b34610240576000366003190112610240576020600954604051908152f35b34610240576020366003190112610240576004356102aa60018060a01b03600054163314611d5e565b80156102b557600755005b60405162461bcd60e51b815260206004820152601d60248201527f507269636520736f757263652063616e206e6f7420626520656d7074790000006044820152606490fd5b3461024057602036600319011261024057610313611cad565b6000546001600160a01b038082169261032d338514611d5e565b1691821561036c5782907f8be0079c531659141344cd1fd0a4f28419497f9722a3daafe3b4186f6b6457e0600080a36001600160a01b03191617600055005b60405162461bcd60e51b815260206004820152602660248201527f4f776e61626c653a206e6577206f776e657220697320746865207a65726f206160448201526564647265737360d01b6064820152608490fd5b346102405760203660031901126102405760043560005260026020526102406040600020805490600181015490600281015460ff6003830154600484015460058501546006860154600787015491600888015493600989015495600a8a01549888600c600b8d01549c0154169b60206040519e8f908152015260408d015260608c015260808b015260a08a015260c089015260e088015261010087015263ffffffff808216610120880152808260201c166101408801528160401c16610160870152818160601c161515610180870152818160681c1615156101a087015260701c1615156101c08501526101e08401526102008301521515610220820152f35b34610240576040366003190112610240576104d9611cad565b6001600160a01b03166000908152600560205260409020805460243591908210156102405760209161050a91611d30565b90546040519160031b1c8152f35b346102405760003660031901126102405760c0600d54600e54600f546010546011549160125493604051958652602086015260408501526060840152608083015260a0820152f35b6020806003193601126102405760043561058260ff60005460a01c1615611e03565b60019161059360028454141561247c565b600283556105a2333b15612376565b6105ad3233146123ba565b6105ba60065483146124c8565b6105cb6105c683611da9565b612406565b6105d9600a5434101561250c565b816000526003815260406000203360005281526105fe6003604060002001541561256f565b81600052600281526106c760406000206002810161061d348254611e94565b90553460068201558360005260038352604060002033600052835260406000208560ff198254161781553460038201558542910155600483526004604060002085878201550161066d8154611e85565b90553360005260048352600560406000200161068a348254611e94565b905533600052600583526106a2846040600020612447565b600d6106ac612632565b91338352868584015234604084015242606084015201612663565b6106d2600f54611e85565b600f556106e134601054611e94565b6010557f93349b5cb1cdd80ea47c8a040b8c0e31e219e0665c1eb33d9a7b2d3fad11e224604051913483523392a361071b33600654612740565b8055005b6020806003193601126102405761071b6004359161074560ff60005460a01c1615611e03565b61088360019361075960028654141561247c565b60028555610768333b15612376565b6107733233146123ba565b61078060065482146124c8565b61078c6105c682611da9565b61079a600a5434101561250c565b806000526003835260406000203360005283526107bf6003604060002001541561256f565b806000526002835261085d6040600020918683016107de348254611e94565b905534600584015580600052600385526040600020336000528552604060002060ff1981541681553460038201558742910155600485526002604060002082898201550161082c8154611e85565b905533600052600485526003604060002001610849348254611e94565b905533600052600585526040600020612447565b600d610867612632565b9133835260008584015234604084015242606084015201612663565b61088e600d54611e85565b600d5561089d34600e54611e94565b600e5560065480917f49237630b34a73a6a12f9d3d4a305ddd6e3a359cc147ffb7a5f18c08f736bc25604051913483523392a333906126de565b346102405760203660031901126102405760206108f5600435611da9565b6040519015158152f35b346102405760003660031901126102405761092560018060a01b03600054163314611d5e565b60ff600c541615610a445761093f60065460075490611ecb565b61094a600654611e85565b8060065560ff60005460a01c16158061095f57005b61096890611e03565b806000526002602052604060002063ffffffff421660098201918254918063ffffffff19841617845567ffffffff000000006109a660095442611e94565b60201b1690818167ffffffffffffffff1986161717855560095460018060ff1b0381168103610a2e5763ffffffff60401b6109e5889260011b42611e94565b60401b169355600160601b936cffffffffffffffffffffffffff19161717171790557f33a701182892fd888ed152ca2ac23771a32e814469b7cd255965471e1af3a659600080a2005b634e487b7160e01b600052601160045260246000fd5b60405162461bcd60e51b8152602060048201526011602482015270149bdd5b99081b9bdd081cdd185c9d1959607a1b6044820152606490fd5b346102405760403660031901126102405760206108f5610a9b611cc3565b600435612851565b34610240576020366003190112610240576101006001600160a01b0380610ac8611cad565b16600052600460205260406000209081541690600181015490600281015460038201546004830154906005840154926007600686015495015495604051978852602088015260408701526060860152608085015260a084015260c083015260e0820152f35b346102405760608060031936011261024057610b47611cad565b6024356044359160018060a01b03169081600052600592602091848352610b7381604060002054612088565b8211610d6c575b610b8382612795565b94610b916040519687612610565b828652601f199485610ba285612795565b013686890137610bb184612795565b95610bbf6040519788612610565b848752610bcb85612795565b018560005b828110610d345750505060005b848110610c785750505090610bf191611e94565b90610c056040519486865286860190611cfc565b8481038286015281808551928381520194019160005b828110610c2f578680878760408301520390f35b909192948260a06001928851610c46828251611cd9565b8084015182850152604080820151908301528b8101518c83015260809081015115159082015201960193929101610c1b565b610d2f9082600052838752610c9b6040600020610c958388611e94565b90611d30565b9054600391821b1c610cad838c61283d565b52610cb8828b61283d565b516000528088526040600020846000528852604060002090600460405192610cdf846125bb565b8d60ff93610cf08584541687612657565b60018301548d870152600283015460408701528201549085015201541615156080820152610d1e828a61283d565b52610d29818961283d565b50611e85565b610bdd565b604051610d40816125bb565b600081526000838201526000604082015260008c8201526000608082015282828b010152018690610bd0565b905082600052838252610d8481604060002054612088565b90610b7a565b60203660031901126102405767ffffffffffffffff60043511610240573660236004350112156102405767ffffffffffffffff6004356004013511610240573660246004356004013560051b60043501011161024057610def6002600154141561247c565b6002600155610dff333b15612376565b610e0a3233146123ba565b6000805b600435600401358110610f2a57508015610ed957600080808093335af13d15610ed4573d67ffffffffffffffff8111610ebe5760405190610e59601f8201601f191660200183612610565b8152600060203d92013e5b15610e6f5760018055005b60405162461bcd60e51b815260206004820152602160248201527f424e42207472616e7366657220746f206d73672e73656e646572206661696c656044820152601960fa1b6064820152608490fd5b634e487b7160e01b600052604160045260246000fd5b610e64565b60405162461bcd60e51b815260206004820152602360248201527f4e6f7420666f756e6420616e7920656c696769626c65207265776172642066756044820152626e647360e81b6064820152608490fd5b9060248260051b600435010135600052600260205260406000209160405192610f52846125d7565b8054845260018101546020850152600281015460408501526003810154606085015260048101546080850152600581015460a0850152600681015460c0850152600781015460e0850152600881015461010085015261102e600d60098301549263ffffffff808516610120890152808560201c166101408901528460401c1661016088015260ff808560601c161515610180890152808560681c1615156101a0890152806101c089019560701c1615158552600a8201546101e0890152600b820154610200890152600c820154161515610220880152016127ad565b61024085015260248260051b600435010135600052600360205260406000203360005260205260406000209060018060a01b0360005416905161107e575b5050611079919250611e85565b610e0e565b6110933360248560051b600435010135612851565b1561106c576110b96110ae6020870151604088015190611e94565b608087015190612088565b9060038301956110de87549160606110d5608083015185611eb8565b910151906121d3565b9360048101600160ff1982541617905560024291015583106000146111aa575050506111106110799293548094611e94565b92336000526004602052600660406000200161112c8154611e85565b9055336000526004602052600760406000200161114a828254611e94565b905560116111588154611e85565b90556012611167828254611e94565b905560405190815260248260051b600435010135907f987d620f307ff6b94d58743cb7a7509f24071586a77759b77c2d4e29f75a2f9a60203392a382918461106c565b600080939650809281928282156111db575bf1156111cf576111108361107993611e94565b6040513d6000823e3d90fd5b506108fc6111bc565b34610240576000366003190112610240576000546040516001600160a01b039091168152602090f35b3461024057602080600319360112610240576001600160a01b0361122f611cad565b1660005260058152604060002090604051808383829554938481520190600052836000209260005b858282106112865750505061126e92500383612610565b611282604051928284938452830190611cfc565b0390f35b8554845260019586019588955093019201611257565b34610240576040366003190112610240576004356112b8611cc3565b90806000526020916003835260406000209060018060a01b031660005282526040600020604051916112e9836125bb565b60ff906112f98284541685612657565b600183015485850152600283015460408501526080826004600386015495606088019687520154169401931515845260005260028452604060002090604051611341816125d7565b82548152600183015486820152600283015460408201526003830154606082015260048301546080820152600583015460a0820152600683015460c0820152600783015460e08201526008830154610100820152600983015490610240611420600d63ffffffff9687861661012086015287868c1c16610140860152610160850196888760401c168852808760601c161515610180870152808760681c1615156101a0870152806101c087019760701c1615158752600a8201546101e0870152600b820154610200870152600c820154161515610220860152016127ad565b9101525115938461145e575b5083611451575b505081611446575b506040519015158152f35b90505115158261143b565b5116421191508380611433565b511593508561142c565b34610240576000366003190112610240576020600854604051908152f35b346102405760208060031936011261024057600435600052600281526114b2600d6040600020016127ad565b604051908282018383528151809152836040840192019360005b8281106114d95784840385f35b9091928260806001928851848060a01b0381511682526114ff8482015185840190611cd9565b6040810151604083015260608091015190820152019601910194929190946114cc565b34610240576000366003190112610240576020600654604051908152f35b3461024057600036600319011261024057602060ff600c5460081c166040519015158152f35b346102405760003660031901126102405760005461158e6001600160a01b0382163314611d5e565b6115a760ff8260a01c16156115a281611e03565b611e03565b60ff60a01b1916600160a01b176000908155600654907f32fb7c9891bc4f963c7de9f1186d2a7755c7d6e9f4604dabe1d8bb3027c2f49e9080a2005b3461024057600036600319011261024057602060ff60005460a01c166040519015158152f35b34610240576000366003190112610240576000546116316001600160a01b0382163314611d5e565b61165460ff8260a01c1661164481611e42565b61ffff19600c5416600c55611e42565b60ff60a01b19166000556006547f9dd715fed52c25e642f97653bb4c4339ad98fe6d6e130348be82ae5d86383a8c600080a2005b34610240576020366003190112610240576004356116b160018060a01b03600054163314611d5e565b80600a557f82480e97991520549ac4b5d0e1d97edb3bfac2666202923b6903d2a953dc7608602060065492604051908152a2005b34610240576040366003190112610240576116fe611cc3565b600435600052600360205260406000209060018060a01b031660005260205260a0604060002060ff81541690600181015490600281015460ff6004600384015493015416926117506040518096611cd9565b60208501526040840152606083015215156080820152f35b3461024057600036600319011261024057602060ff600c54166040519015158152f35b34610240576020366003190112610240577f696fab4a25d5a0f71f21ee59aa7512cd96fe20b7a28f4e2663099566b4639d8960206004356117d760018060a01b03600054163314611d5e565b80600955604051908152a1005b34610240576020366003190112610240576001600160a01b03611805611cad565b1660005260056020526020604060002054604051908152f35b34610240576000366003190112610240576020600754604051908152f35b3461024057604036600319011261024057600054602435906004359061187d9060ff906118736001600160a01b0382163314611d5e565b60a01c1615611e03565b611888333b15612376565b6118933233146123ba565b600680546118a36105c682611da9565b82611950575b50826118e5575b549160405191825260208201527fe3b9e415c1ec5664bac5576f8ac4b84cacf237c6e9635809c8bc6d3fb6fd0a8460403092a3005b805460005260026020526002604060002001611902848254611e94565b9055805460005260036020526040600020306000526020526040600020600160ff19825416178155836003820155600142910155600560205261194b6040600020825490612447565b6118b0565b6000526002602052600160406000200161196b838254611e94565b905580546000526003602052604060002030600052602052604060002060ff19815416815582600382015560014291015560056020526119b16040600020825490612447565b836118a9565b346102405760003660031901126102405760005460ff906119e26001600160a01b0382163314611d5e565b60a01c16156119f081611e03565b60ff600c5416611ae557611a12611a08600654611e85565b9182600655611e03565b806000526002602052604060002063ffffffff421660098201918254918063ffffffff19841617845567ffffffff00000000611a5060095442611e94565b60201b1690818167ffffffffffffffff1986161717855560095460018060ff1b0381168103610a2e5763ffffffff60401b611a8f889260011b42611e94565b60401b169355600160601b936cffffffffffffffffffffffffff19161717171790557f33a701182892fd888ed152ca2ac23771a32e814469b7cd255965471e1af3a659600080a2600c805460ff19166001179055005b606460405162461bcd60e51b815260206004820152602060248201527f53746172742066756e6374696f6e2063616e206f6e6c792072756e206f6e63656044820152fd5b3461024057602036600319011261024057611b4f60018060a01b03600054163314611d5e565b600435600855005b34610240576000366003190112610240576020600d54604051908152f35b3461024057600036600319011261024057602047604051908152f35b346102405760003660031901126102405760005460a01c60ff16611c1257611bbe60065460075490611ecb565b60065460001990818101908111610a2e57600754611bdb91612095565b600654908101908111610a2e57611bf1906121f3565b611bfc600654611e85565b8060065561096860ff60005460a01c1615611e03565b611c2160065460075490611ecb565b60065460001990818101818111610a2e57600052600260205260ff60096040600020015460701c1615600014611c815750600654818101908111610a2e57600754611c6b91612095565b600654908101908111610a2e5761001b906121f3565b600754611c8d91612095565b611c6b565b34610240576000366003190112610240576020906007548152f35b600435906001600160a01b038216820361024057565b602435906001600160a01b038216820361024057565b906002821015611ce65752565b634e487b7160e01b600052602160045260246000fd5b90815180825260208080930193019160005b828110611d1c575050505090565b835185529381019392810192600101611d0e565b8054821015611d485760005260206000200190600090565b634e487b7160e01b600052603260045260246000fd5b15611d6557565b606460405162461bcd60e51b815260206004820152602060248201527f4f776e61626c653a2063616c6c6572206973206e6f7420746865206f776e65726044820152fd5b600052600260205260096040600020015463ffffffff808216918215159283611df3575b83611de9575b5082611dde57505090565b60201c164210919050565b4211925038611dd3565b9250818160201c16151592611dcd565b15611e0a57565b60405162461bcd60e51b815260206004820152601060248201526f14185d5cd8589b194e881c185d5cd95960821b6044820152606490fd5b15611e4957565b60405162461bcd60e51b815260206004820152601460248201527314185d5cd8589b194e881b9bdd081c185d5cd95960621b6044820152606490fd5b6000198114610a2e5760010190565b91908201809211610a2e57565b906103e891828102928184041490151715610a2e57565b81810292918115918404141715610a2e57565b919091600092818452602090600282526040946009868220015460ff8160681c161560001461207f5763ffffffff8091161561202757848252600284528060098884200154851c164210611fd2578482526002845260098783200154871c164211611f83578381526002835285902060078101829055600901805460ff60681b1916600160681b1790559351938452919290917f1baa8618187c16370c93561b721a291ed3182b22390099d67e81167f97fbdd3a91a2565b855162461bcd60e51b815260048101849052602260248201527f43616e206f6e6c79206c6f636b206265666f726520656e642074696d6573746160448201526106d760f41b6064820152608490fd5b865162461bcd60e51b815260048101859052602860248201527f43616e206f6e6c79206c6f636b20726f756e64206166746572206c6f636b20746044820152670696d657374616d760c41b6064820152608490fd5b865162461bcd60e51b815260048101859052602b60248201527f43616e206f6e6c79206c6f636b20726f756e6420616674657220726f756e642060448201526a1a185cc81cdd185c9d195960aa1b6064820152608490fd5b50505050509050565b91908203918211610a2e57565b9190916000928184526020906002825263ffffffff946040958060098884200154851c161561217d578482526002845260098783200154871c164210612128578381526002835285902060088101829055600901805460ff60701b1916600160701b1790559351938452919290917f8868888cc18628a149bc88cc32a91976ab30e2cd9aececb0cfe184a73fe551f991a2565b855162461bcd60e51b815260048101849052602860248201527f43616e206f6e6c7920656e6420726f756e6420616674657220636c6f736520746044820152670696d657374616d760c41b6064820152608490fd5b865162461bcd60e51b815260048101859052602960248201527f43616e206f6e6c7920656e6420726f756e6420616674657220726f756e642068604482015268185cc81b1bd8dad95960ba1b6064820152608490fd5b81156121dd570490565b634e487b7160e01b600052601260045260246000fd5b60009060018060a01b03825416908083526002602052604083206003810154159081612369575b50156123245782526002602052604082209082809160018401805493600286019687546122478188611e94565b600889015460078a015491989111806122bc575050505050612270606491549460085490611eb8565b0494831561228a575b505050906004915b60038201550155565b82808093819354908282156122b3575bf1156122a7578080612279565b604051903d90823e3d90fd5b506108fc61229a565b91969450929850959390956122da575b505050505090600491612281565b9193965091935060646122f1879560085490611eb8565b049515612300575b80806122cc565b82808093819382821561231b575bf1156122a75780806122f9565b506108fc61230e565b60405162461bcd60e51b815260206004820152601a60248201527f526577617264732063616c63756c6174656420616c72656164790000000000006044820152606490fd5b600491500154153861221a565b1561237d57565b60405162461bcd60e51b815260206004820152601560248201527410dbdb9d1c9858dd1cc81b9bdd08185b1b1bddd959605a1b6044820152606490fd5b156123c157565b60405162461bcd60e51b815260206004820152601b60248201527f50726f787920636f6e747261637473206e6f7420616c6c6f77656400000000006044820152606490fd5b1561240d57565b60405162461bcd60e51b8152602060048201526012602482015271526f756e64206e6f74206265747461626c6560701b6044820152606490fd5b8054600160401b811015610ebe5761246491600182018155611d30565b819291549060031b91821b91600019901b1916179055565b1561248357565b60405162461bcd60e51b815260206004820152601f60248201527f5265656e7472616e637947756172643a207265656e7472616e742063616c6c006044820152606490fd5b156124cf57565b60405162461bcd60e51b815260206004820152601560248201527442657420697320746f6f206561726c792f6c61746560581b6044820152606490fd5b1561251357565b60405162461bcd60e51b815260206004820152602e60248201527f42657420616d6f756e74206d7573742062652067726561746572207468616e2060448201526d1b5a5b9a5b5d5b48185b5bdd5b9d60921b6064820152608490fd5b1561257657565b60405162461bcd60e51b815260206004820152601b60248201527f43616e206f6e6c7920626574206f6e63652070657220726f756e6400000000006044820152606490fd5b60a0810190811067ffffffffffffffff821117610ebe57604052565b610260810190811067ffffffffffffffff821117610ebe57604052565b6080810190811067ffffffffffffffff821117610ebe57604052565b90601f8019910116810190811067ffffffffffffffff821117610ebe57604052565b6040519061263f826125f4565b60006060838281528260208201528260408201520152565b6002821015611ce65752565b805490600160401b821015610ebe5760018201808255821015611d4857600052600360206000209102019060018060a01b03815116908254906020810151916002831015611ce6576001600160a81b03191690921760a09190911b60ff60a01b16178255604081015160018301556060015160029190910155565b90816000526002602052600b6040600020612726612721600283015461271c61270c60018601548093611e94565b9161271c60058701549384611eb8565b6121d3565b611ea1565b600a8201550154612735575050565b61273e91612740565b565b90816000526002602052600a604060002061277d612721600283015461271c61276d600186015483611e94565b9161271c60068701549384611eb8565b600b820155015461278c575050565b61273e916126de565b67ffffffffffffffff8111610ebe5760051b60200190565b9081546127b981612795565b926040936127c985519182612610565b828152809460208092019260005281600020906000935b8585106127ef57505050505050565b6003846001928451612800816125f4565b61281d60ff8854878060a01b038116845260a01c16848301612657565b8487015486820152600287015460608201528152019301940193916127e0565b8051821015611d485760209160051b010190565b90600090828252602091600383526040918282209060018060a01b031682528352600482822092805193612884856125bb565b60ff9281612896858094541688612657565b60018101548888015260028101548488015260038101546060880152015416956080850196151587528352600285528083206102406129b4600d8451936128dc856125d7565b8054855260018101548a8601526002810154868601526003810154606086015260048101546080860152600581015460a0860152600681015460c086015260078101549660e0860197885260088201549a61010087019b8c5260098301548098819263ffffffff9384918282166101208d01521c166101408a01521c16610160870152808760601c161515610180870152808760681c1615156101a0870152806101c087019760701c1615158752600a8201546101e0870152600b820154610200870152600c820154161515610220860152016127ad565b910152815190855190818314612a77575115159687612a6d575b50866129de575b50505050505090565b119450919290919084612a45575b8415612a02575b505050503880808080806129d5565b5190511192509082612a1a575b5050388080806129f3565b5191506002821015612a3157506001143880612a0f565b634e487b7160e01b81526021600452602490fd5b935082516002811015612a595715936129ec565b634e487b7160e01b83526021600452602483fd5b51159650386129ce565b50505050925050509056fea2646970667358221220e440a08bae0ddb3a2fb91d42a06b709f3e79d787b77f378a5e9d8c38d512863b64736f6c63430008130033","opcodes":"PUSH1 0x80 DUP1 PUSH1 0x40 MSTORE CALLVALUE PUSH2 0x80 JUMPI PUSH1 0x0 SLOAD CALLER PUSH1 0x0 PUSH32 0x8BE0079C531659141344CD1FD0A4F28419497F9722A3DAAFE3B4186F6B6457E0 DUP2 DUP1 LOG3 PUSH1 0x1 PUSH1 0x1 PUSH1 0xA8 SHL SUB NOT AND CALLER PUSH1 0xFF PUSH1 0xA0 SHL NOT AND OR PUSH1 0x0 SSTORE PUSH1 0x1 DUP1 SSTORE PUSH1 0x5F PUSH1 0x8 SSTORE PUSH2 0x12C PUSH1 0x9 SSTORE PUSH7 0x11C37937E08000 PUSH1 0xA SSTORE PUSH1 0x5 PUSH1 0xB SSTORE PUSH1 0xC DUP1 SLOAD PUSH2 0xFFFF NOT AND SWAP1 SSTORE PUSH2 0x2AB8 SWAP1 DUP2 PUSH2 0x86 DUP3 CODECOPY RETURN JUMPDEST PUSH1 0x0 DUP1 REVERT INVALID PUSH1 0x80 DUP1 PUSH1 0x40 MSTORE PUSH1 0x4 CALLDATASIZE LT ISZERO PUSH2 0x1D JUMPI JUMPDEST POP CALLDATASIZE ISZERO PUSH2 0x1B JUMPI PUSH1 0x0 DUP1 REVERT JUMPDEST STOP JUMPDEST PUSH1 0x0 CALLDATALOAD PUSH1 0xE0 SHR SWAP1 DUP2 PUSH4 0x48DE381 EQ PUSH2 0x1C92 JUMPI POP DUP1 PUSH4 0xE7DB6BC EQ PUSH2 0x1B91 JUMPI DUP1 PUSH4 0x12065FE0 EQ PUSH2 0x1B75 JUMPI DUP1 PUSH4 0x13493444 EQ PUSH2 0x1B57 JUMPI DUP1 PUSH4 0x16C61CCC EQ PUSH2 0x15E3 JUMPI DUP1 PUSH4 0x1946FB78 EQ PUSH2 0x1B29 JUMPI DUP1 PUSH4 0x1F713CAE EQ PUSH2 0x19B7 JUMPI DUP1 PUSH4 0x1FA52D91 EQ PUSH2 0x183C JUMPI DUP1 PUSH4 0x20531BC9 EQ PUSH2 0x181E JUMPI DUP1 PUSH4 0x273867D4 EQ PUSH2 0x17E4 JUMPI DUP1 PUSH4 0x36F56BA0 EQ PUSH2 0x178B JUMPI DUP1 PUSH4 0x381A5478 EQ PUSH2 0x1768 JUMPI DUP1 PUSH4 0x3977B381 EQ PUSH2 0x16E5 JUMPI DUP1 PUSH4 0x48894F0D EQ PUSH2 0x1688 JUMPI DUP1 PUSH4 0x490D6D11 EQ PUSH2 0x1609 JUMPI DUP1 PUSH4 0x5C975ABB EQ PUSH2 0x15E3 JUMPI DUP1 PUSH4 0x6985A022 EQ PUSH2 0x1566 JUMPI DUP1 PUSH4 0x6A42C87B EQ PUSH2 0x1540 JUMPI DUP1 PUSH4 0x76671808 EQ PUSH2 0x1522 JUMPI DUP1 PUSH4 0x776E11DD EQ PUSH2 0x1486 JUMPI DUP1 PUSH4 0x7B0A47EE EQ PUSH2 0x1468 JUMPI DUP1 PUSH4 0x7BF41254 EQ PUSH2 0x129C JUMPI DUP1 PUSH4 0x8843013B EQ PUSH2 0x120D JUMPI DUP1 PUSH4 0x8DA5CB5B EQ PUSH2 0x11E4 JUMPI DUP1 PUSH4 0x8F9FA51B EQ PUSH2 0xD8A JUMPI DUP1 PUSH4 0x951FD600 EQ PUSH2 0xB2D JUMPI DUP1 PUSH4 0x99B956A0 EQ PUSH2 0xAA3 JUMPI DUP1 PUSH4 0xA0C7F71C EQ PUSH2 0xA7D JUMPI DUP1 PUSH4 0xB3E560EB EQ PUSH2 0x8FF JUMPI DUP1 PUSH4 0xBA4F6737 EQ PUSH2 0x8D7 JUMPI DUP1 PUSH4 0xBB434F28 EQ PUSH2 0x71F JUMPI DUP1 PUSH4 0xBD776D8A EQ PUSH2 0x560 JUMPI DUP1 PUSH4 0xC59D4847 EQ PUSH2 0x518 JUMPI DUP1 PUSH4 0xCF48098E EQ PUSH2 0x4C0 JUMPI DUP1 PUSH4 0xD5DF9D23 EQ PUSH2 0x3C0 JUMPI DUP1 PUSH4 0xDFC39691 EQ PUSH2 0x2FA JUMPI DUP1 PUSH4 0xEDEEB28F EQ PUSH2 0x281 JUMPI DUP1 PUSH4 0xF7CB789A EQ PUSH2 0x263 JUMPI DUP1 PUSH4 0xFA968EEA EQ PUSH2 0x245 JUMPI PUSH4 0xFD5BAB23 EQ PUSH2 0x1E2 JUMPI CODESIZE PUSH2 0xF JUMP JUMPDEST CALLVALUE PUSH2 0x240 JUMPI PUSH1 0x0 CALLDATASIZE PUSH1 0x3 NOT ADD SLT PUSH2 0x240 JUMPI PUSH1 0x0 DUP1 SLOAD SWAP1 PUSH1 0x1 PUSH1 0x1 PUSH1 0xA0 SHL SUB DUP3 AND PUSH2 0x20D CALLER DUP3 EQ PUSH2 0x1D5E JUMP JUMPDEST PUSH32 0x8BE0079C531659141344CD1FD0A4F28419497F9722A3DAAFE3B4186F6B6457E0 DUP3 DUP1 LOG3 PUSH1 0x1 PUSH1 0x1 PUSH1 0xA0 SHL SUB NOT AND PUSH1 0x0 SSTORE STOP JUMPDEST PUSH1 0x0 DUP1 REVERT JUMPDEST CALLVALUE PUSH2 0x240 JUMPI PUSH1 0x0 CALLDATASIZE PUSH1 0x3 NOT ADD SLT PUSH2 0x240 JUMPI PUSH1 0x20 PUSH1 0xA SLOAD PUSH1 0x40 MLOAD SWAP1 DUP2 MSTORE RETURN JUMPDEST CALLVALUE PUSH2 0x240 JUMPI PUSH1 0x0 CALLDATASIZE PUSH1 0x3 NOT ADD SLT PUSH2 0x240 JUMPI PUSH1 0x20 PUSH1 0x9 SLOAD PUSH1 0x40 MLOAD SWAP1 DUP2 MSTORE RETURN JUMPDEST CALLVALUE PUSH2 0x240 JUMPI PUSH1 0x20 CALLDATASIZE PUSH1 0x3 NOT ADD SLT PUSH2 0x240 JUMPI PUSH1 0x4 CALLDATALOAD PUSH2 0x2AA PUSH1 0x1 DUP1 PUSH1 0xA0 SHL SUB PUSH1 0x0 SLOAD AND CALLER EQ PUSH2 0x1D5E JUMP JUMPDEST DUP1 ISZERO PUSH2 0x2B5 JUMPI PUSH1 0x7 SSTORE STOP JUMPDEST PUSH1 0x40 MLOAD PUSH3 0x461BCD PUSH1 0xE5 SHL DUP2 MSTORE PUSH1 0x20 PUSH1 0x4 DUP3 ADD MSTORE PUSH1 0x1D PUSH1 0x24 DUP3 ADD MSTORE PUSH32 0x507269636520736F757263652063616E206E6F7420626520656D707479000000 PUSH1 0x44 DUP3 ADD MSTORE PUSH1 0x64 SWAP1 REVERT JUMPDEST CALLVALUE PUSH2 0x240 JUMPI PUSH1 0x20 CALLDATASIZE PUSH1 0x3 NOT ADD SLT PUSH2 0x240 JUMPI PUSH2 0x313 PUSH2 0x1CAD JUMP JUMPDEST PUSH1 0x0 SLOAD PUSH1 0x1 PUSH1 0x1 PUSH1 0xA0 SHL SUB DUP1 DUP3 AND SWAP3 PUSH2 0x32D CALLER DUP6 EQ PUSH2 0x1D5E JUMP JUMPDEST AND SWAP2 DUP3 ISZERO PUSH2 0x36C JUMPI DUP3 SWAP1 PUSH32 0x8BE0079C531659141344CD1FD0A4F28419497F9722A3DAAFE3B4186F6B6457E0 PUSH1 0x0 DUP1 LOG3 PUSH1 0x1 PUSH1 0x1 PUSH1 0xA0 SHL SUB NOT AND OR PUSH1 0x0 SSTORE STOP JUMPDEST PUSH1 0x40 MLOAD PUSH3 0x461BCD PUSH1 0xE5 SHL DUP2 MSTORE PUSH1 0x20 PUSH1 0x4 DUP3 ADD MSTORE PUSH1 0x26 PUSH1 0x24 DUP3 ADD MSTORE PUSH32 0x4F776E61626C653A206E6577206F776E657220697320746865207A65726F2061 PUSH1 0x44 DUP3 ADD MSTORE PUSH6 0x646472657373 PUSH1 0xD0 SHL PUSH1 0x64 DUP3 ADD MSTORE PUSH1 0x84 SWAP1 REVERT JUMPDEST CALLVALUE PUSH2 0x240 JUMPI PUSH1 0x20 CALLDATASIZE PUSH1 0x3 NOT ADD SLT PUSH2 0x240 JUMPI PUSH1 0x4 CALLDATALOAD PUSH1 0x0 MSTORE PUSH1 0x2 PUSH1 0x20 MSTORE PUSH2 0x240 PUSH1 0x40 PUSH1 0x0 KECCAK256 DUP1 SLOAD SWAP1 PUSH1 0x1 DUP2 ADD SLOAD SWAP1 PUSH1 0x2 DUP2 ADD SLOAD PUSH1 0xFF PUSH1 0x3 DUP4 ADD SLOAD PUSH1 0x4 DUP5 ADD SLOAD PUSH1 0x5 DUP6 ADD SLOAD PUSH1 0x6 DUP7 ADD SLOAD PUSH1 0x7 DUP8 ADD SLOAD SWAP2 PUSH1 0x8 DUP9 ADD SLOAD SWAP4 PUSH1 0x9 DUP10 ADD SLOAD SWAP6 PUSH1 0xA DUP11 ADD SLOAD SWAP9 DUP9 PUSH1 0xC PUSH1 0xB DUP14 ADD SLOAD SWAP13 ADD SLOAD AND SWAP12 PUSH1 0x20 PUSH1 0x40 MLOAD SWAP15 DUP16 SWAP1 DUP2 MSTORE ADD MSTORE PUSH1 0x40 DUP14 ADD MSTORE PUSH1 0x60 DUP13 ADD MSTORE PUSH1 0x80 DUP12 ADD MSTORE PUSH1 0xA0 DUP11 ADD MSTORE PUSH1 0xC0 DUP10 ADD MSTORE PUSH1 0xE0 DUP9 ADD MSTORE PUSH2 0x100 DUP8 ADD MSTORE PUSH4 0xFFFFFFFF DUP1 DUP3 AND PUSH2 0x120 DUP9 ADD MSTORE DUP1 DUP3 PUSH1 0x20 SHR AND PUSH2 0x140 DUP9 ADD MSTORE DUP2 PUSH1 0x40 SHR AND PUSH2 0x160 DUP8 ADD MSTORE DUP2 DUP2 PUSH1 0x60 SHR AND ISZERO ISZERO PUSH2 0x180 DUP8 ADD MSTORE DUP2 DUP2 PUSH1 0x68 SHR AND ISZERO ISZERO PUSH2 0x1A0 DUP8 ADD MSTORE PUSH1 0x70 SHR AND ISZERO ISZERO PUSH2 0x1C0 DUP6 ADD MSTORE PUSH2 0x1E0 DUP5 ADD MSTORE PUSH2 0x200 DUP4 ADD MSTORE ISZERO ISZERO PUSH2 0x220 DUP3 ADD MSTORE RETURN JUMPDEST CALLVALUE PUSH2 0x240 JUMPI PUSH1 0x40 CALLDATASIZE PUSH1 0x3 NOT ADD SLT PUSH2 0x240 JUMPI PUSH2 0x4D9 PUSH2 0x1CAD JUMP JUMPDEST PUSH1 0x1 PUSH1 0x1 PUSH1 0xA0 SHL SUB AND PUSH1 0x0 SWAP1 DUP2 MSTORE PUSH1 0x5 PUSH1 0x20 MSTORE PUSH1 0x40 SWAP1 KECCAK256 DUP1 SLOAD PUSH1 0x24 CALLDATALOAD SWAP2 SWAP1 DUP3 LT ISZERO PUSH2 0x240 JUMPI PUSH1 0x20 SWAP2 PUSH2 0x50A SWAP2 PUSH2 0x1D30 JUMP JUMPDEST SWAP1 SLOAD PUSH1 0x40 MLOAD SWAP2 PUSH1 0x3 SHL SHR DUP2 MSTORE RETURN JUMPDEST CALLVALUE PUSH2 0x240 JUMPI PUSH1 0x0 CALLDATASIZE PUSH1 0x3 NOT ADD SLT PUSH2 0x240 JUMPI PUSH1 0xC0 PUSH1 0xD SLOAD PUSH1 0xE SLOAD PUSH1 0xF SLOAD PUSH1 0x10 SLOAD PUSH1 0x11 SLOAD SWAP2 PUSH1 0x12 SLOAD SWAP4 PUSH1 0x40 MLOAD SWAP6 DUP7 MSTORE PUSH1 0x20 DUP7 ADD MSTORE PUSH1 0x40 DUP6 ADD MSTORE PUSH1 0x60 DUP5 ADD MSTORE PUSH1 0x80 DUP4 ADD MSTORE PUSH1 0xA0 DUP3 ADD MSTORE RETURN JUMPDEST PUSH1 0x20 DUP1 PUSH1 0x3 NOT CALLDATASIZE ADD SLT PUSH2 0x240 JUMPI PUSH1 0x4 CALLDATALOAD PUSH2 0x582 PUSH1 0xFF PUSH1 0x0 SLOAD PUSH1 0xA0 SHR AND ISZERO PUSH2 0x1E03 JUMP JUMPDEST PUSH1 0x1 SWAP2 PUSH2 0x593 PUSH1 0x2 DUP5 SLOAD EQ ISZERO PUSH2 0x247C JUMP JUMPDEST PUSH1 0x2 DUP4 SSTORE PUSH2 0x5A2 CALLER EXTCODESIZE ISZERO PUSH2 0x2376 JUMP JUMPDEST PUSH2 0x5AD ORIGIN CALLER EQ PUSH2 0x23BA JUMP JUMPDEST PUSH2 0x5BA PUSH1 0x6 SLOAD DUP4 EQ PUSH2 0x24C8 JUMP JUMPDEST PUSH2 0x5CB PUSH2 0x5C6 DUP4 PUSH2 0x1DA9 JUMP JUMPDEST PUSH2 0x2406 JUMP JUMPDEST PUSH2 0x5D9 PUSH1 0xA SLOAD CALLVALUE LT ISZERO PUSH2 0x250C JUMP JUMPDEST DUP2 PUSH1 0x0 MSTORE PUSH1 0x3 DUP2 MSTORE PUSH1 0x40 PUSH1 0x0 KECCAK256 CALLER PUSH1 0x0 MSTORE DUP2 MSTORE PUSH2 0x5FE PUSH1 0x3 PUSH1 0x40 PUSH1 0x0 KECCAK256 ADD SLOAD ISZERO PUSH2 0x256F JUMP JUMPDEST DUP2 PUSH1 0x0 MSTORE PUSH1 0x2 DUP2 MSTORE PUSH2 0x6C7 PUSH1 0x40 PUSH1 0x0 KECCAK256 PUSH1 0x2 DUP2 ADD PUSH2 0x61D CALLVALUE DUP3 SLOAD PUSH2 0x1E94 JUMP JUMPDEST SWAP1 SSTORE CALLVALUE PUSH1 0x6 DUP3 ADD SSTORE DUP4 PUSH1 0x0 MSTORE PUSH1 0x3 DUP4 MSTORE PUSH1 0x40 PUSH1 0x0 KECCAK256 CALLER PUSH1 0x0 MSTORE DUP4 MSTORE PUSH1 0x40 PUSH1 0x0 KECCAK256 DUP6 PUSH1 0xFF NOT DUP3 SLOAD AND OR DUP2 SSTORE CALLVALUE PUSH1 0x3 DUP3 ADD SSTORE DUP6 TIMESTAMP SWAP2 ADD SSTORE PUSH1 0x4 DUP4 MSTORE PUSH1 0x4 PUSH1 0x40 PUSH1 0x0 KECCAK256 DUP6 DUP8 DUP3 ADD SSTORE ADD PUSH2 0x66D DUP2 SLOAD PUSH2 0x1E85 JUMP JUMPDEST SWAP1 SSTORE CALLER PUSH1 0x0 MSTORE PUSH1 0x4 DUP4 MSTORE PUSH1 0x5 PUSH1 0x40 PUSH1 0x0 KECCAK256 ADD PUSH2 0x68A CALLVALUE DUP3 SLOAD PUSH2 0x1E94 JUMP JUMPDEST SWAP1 SSTORE CALLER PUSH1 0x0 MSTORE PUSH1 0x5 DUP4 MSTORE PUSH2 0x6A2 DUP5 PUSH1 0x40 PUSH1 0x0 KECCAK256 PUSH2 0x2447 JUMP JUMPDEST PUSH1 0xD PUSH2 0x6AC PUSH2 0x2632 JUMP JUMPDEST SWAP2 CALLER DUP4 MSTORE DUP7 DUP6 DUP5 ADD MSTORE CALLVALUE PUSH1 0x40 DUP5 ADD MSTORE TIMESTAMP PUSH1 0x60 DUP5 ADD MSTORE ADD PUSH2 0x2663 JUMP JUMPDEST PUSH2 0x6D2 PUSH1 0xF SLOAD PUSH2 0x1E85 JUMP JUMPDEST PUSH1 0xF SSTORE PUSH2 0x6E1 CALLVALUE PUSH1 0x10 SLOAD PUSH2 0x1E94 JUMP JUMPDEST PUSH1 0x10 SSTORE PUSH32 0x93349B5CB1CDD80EA47C8A040B8C0E31E219E0665C1EB33D9A7B2D3FAD11E224 PUSH1 0x40 MLOAD SWAP2 CALLVALUE DUP4 MSTORE CALLER SWAP3 LOG3 PUSH2 0x71B CALLER PUSH1 0x6 SLOAD PUSH2 0x2740 JUMP JUMPDEST DUP1 SSTORE STOP JUMPDEST PUSH1 0x20 DUP1 PUSH1 0x3 NOT CALLDATASIZE ADD SLT PUSH2 0x240 JUMPI PUSH2 0x71B PUSH1 0x4 CALLDATALOAD SWAP2 PUSH2 0x745 PUSH1 0xFF PUSH1 0x0 SLOAD PUSH1 0xA0 SHR AND ISZERO PUSH2 0x1E03 JUMP JUMPDEST PUSH2 0x883 PUSH1 0x1 SWAP4 PUSH2 0x759 PUSH1 0x2 DUP7 SLOAD EQ ISZERO PUSH2 0x247C JUMP JUMPDEST PUSH1 0x2 DUP6 SSTORE PUSH2 0x768 CALLER EXTCODESIZE ISZERO PUSH2 0x2376 JUMP JUMPDEST PUSH2 0x773 ORIGIN CALLER EQ PUSH2 0x23BA JUMP JUMPDEST PUSH2 0x780 PUSH1 0x6 SLOAD DUP3 EQ PUSH2 0x24C8 JUMP JUMPDEST PUSH2 0x78C PUSH2 0x5C6 DUP3 PUSH2 0x1DA9 JUMP JUMPDEST PUSH2 0x79A PUSH1 0xA SLOAD CALLVALUE LT ISZERO PUSH2 0x250C JUMP JUMPDEST DUP1 PUSH1 0x0 MSTORE PUSH1 0x3 DUP4 MSTORE PUSH1 0x40 PUSH1 0x0 KECCAK256 CALLER PUSH1 0x0 MSTORE DUP4 MSTORE PUSH2 0x7BF PUSH1 0x3 PUSH1 0x40 PUSH1 0x0 KECCAK256 ADD SLOAD ISZERO PUSH2 0x256F JUMP JUMPDEST DUP1 PUSH1 0x0 MSTORE PUSH1 0x2 DUP4 MSTORE PUSH2 0x85D PUSH1 0x40 PUSH1 0x0 KECCAK256 SWAP2 DUP7 DUP4 ADD PUSH2 0x7DE CALLVALUE DUP3 SLOAD PUSH2 0x1E94 JUMP JUMPDEST SWAP1 SSTORE CALLVALUE PUSH1 0x5 DUP5 ADD SSTORE DUP1 PUSH1 0x0 MSTORE PUSH1 0x3 DUP6 MSTORE PUSH1 0x40 PUSH1 0x0 KECCAK256 CALLER PUSH1 0x0 MSTORE DUP6 MSTORE PUSH1 0x40 PUSH1 0x0 KECCAK256 PUSH1 0xFF NOT DUP2 SLOAD AND DUP2 SSTORE CALLVALUE PUSH1 0x3 DUP3 ADD SSTORE DUP8 TIMESTAMP SWAP2 ADD SSTORE PUSH1 0x4 DUP6 MSTORE PUSH1 0x2 PUSH1 0x40 PUSH1 0x0 KECCAK256 DUP3 DUP10 DUP3 ADD SSTORE ADD PUSH2 0x82C DUP2 SLOAD PUSH2 0x1E85 JUMP JUMPDEST SWAP1 SSTORE CALLER PUSH1 0x0 MSTORE PUSH1 0x4 DUP6 MSTORE PUSH1 0x3 PUSH1 0x40 PUSH1 0x0 KECCAK256 ADD PUSH2 0x849 CALLVALUE DUP3 SLOAD PUSH2 0x1E94 JUMP JUMPDEST SWAP1 SSTORE CALLER PUSH1 0x0 MSTORE PUSH1 0x5 DUP6 MSTORE PUSH1 0x40 PUSH1 0x0 KECCAK256 PUSH2 0x2447 JUMP JUMPDEST PUSH1 0xD PUSH2 0x867 PUSH2 0x2632 JUMP JUMPDEST SWAP2 CALLER DUP4 MSTORE PUSH1 0x0 DUP6 DUP5 ADD MSTORE CALLVALUE PUSH1 0x40 DUP5 ADD MSTORE TIMESTAMP PUSH1 0x60 DUP5 ADD MSTORE ADD PUSH2 0x2663 JUMP JUMPDEST PUSH2 0x88E PUSH1 0xD SLOAD PUSH2 0x1E85 JUMP JUMPDEST PUSH1 0xD SSTORE PUSH2 0x89D CALLVALUE PUSH1 0xE SLOAD PUSH2 0x1E94 JUMP JUMPDEST PUSH1 0xE SSTORE PUSH1 0x6 SLOAD DUP1 SWAP2 PUSH32 0x49237630B34A73A6A12F9D3D4A305DDD6E3A359CC147FFB7A5F18C08F736BC25 PUSH1 0x40 MLOAD SWAP2 CALLVALUE DUP4 MSTORE CALLER SWAP3 LOG3 CALLER SWAP1 PUSH2 0x26DE JUMP JUMPDEST CALLVALUE PUSH2 0x240 JUMPI PUSH1 0x20 CALLDATASIZE PUSH1 0x3 NOT ADD SLT PUSH2 0x240 JUMPI PUSH1 0x20 PUSH2 0x8F5 PUSH1 0x4 CALLDATALOAD PUSH2 0x1DA9 JUMP JUMPDEST PUSH1 0x40 MLOAD SWAP1 ISZERO ISZERO DUP2 MSTORE RETURN JUMPDEST CALLVALUE PUSH2 0x240 JUMPI PUSH1 0x0 CALLDATASIZE PUSH1 0x3 NOT ADD SLT PUSH2 0x240 JUMPI PUSH2 0x925 PUSH1 0x1 DUP1 PUSH1 0xA0 SHL SUB PUSH1 0x0 SLOAD AND CALLER EQ PUSH2 0x1D5E JUMP JUMPDEST PUSH1 0xFF PUSH1 0xC SLOAD AND ISZERO PUSH2 0xA44 JUMPI PUSH2 0x93F PUSH1 0x6 SLOAD PUSH1 0x7 SLOAD SWAP1 PUSH2 0x1ECB JUMP JUMPDEST PUSH2 0x94A PUSH1 0x6 SLOAD PUSH2 0x1E85 JUMP JUMPDEST DUP1 PUSH1 0x6 SSTORE PUSH1 0xFF PUSH1 0x0 SLOAD PUSH1 0xA0 SHR AND ISZERO DUP1 PUSH2 0x95F JUMPI STOP JUMPDEST PUSH2 0x968 SWAP1 PUSH2 0x1E03 JUMP JUMPDEST DUP1 PUSH1 0x0 MSTORE PUSH1 0x2 PUSH1 0x20 MSTORE PUSH1 0x40 PUSH1 0x0 KECCAK256 PUSH4 0xFFFFFFFF TIMESTAMP AND PUSH1 0x9 DUP3 ADD SWAP2 DUP3 SLOAD SWAP2 DUP1 PUSH4 0xFFFFFFFF NOT DUP5 AND OR DUP5 SSTORE PUSH8 0xFFFFFFFF00000000 PUSH2 0x9A6 PUSH1 0x9 SLOAD TIMESTAMP PUSH2 0x1E94 JUMP JUMPDEST PUSH1 0x20 SHL AND SWAP1 DUP2 DUP2 PUSH8 0xFFFFFFFFFFFFFFFF NOT DUP7 AND OR OR DUP6 SSTORE PUSH1 0x9 SLOAD PUSH1 0x1 DUP1 PUSH1 0xFF SHL SUB DUP2 AND DUP2 SUB PUSH2 0xA2E JUMPI PUSH4 0xFFFFFFFF PUSH1 0x40 SHL PUSH2 0x9E5 DUP9 SWAP3 PUSH1 0x1 SHL TIMESTAMP PUSH2 0x1E94 JUMP JUMPDEST PUSH1 0x40 SHL AND SWAP4 SSTORE PUSH1 0x1 PUSH1 0x60 SHL SWAP4 PUSH13 0xFFFFFFFFFFFFFFFFFFFFFFFFFF NOT AND OR OR OR OR SWAP1 SSTORE PUSH32 0x33A701182892FD888ED152CA2AC23771A32E814469B7CD255965471E1AF3A659 PUSH1 0x0 DUP1 LOG2 STOP JUMPDEST PUSH4 0x4E487B71 PUSH1 0xE0 SHL PUSH1 0x0 MSTORE PUSH1 0x11 PUSH1 0x4 MSTORE PUSH1 0x24 PUSH1 0x0 REVERT JUMPDEST PUSH1 0x40 MLOAD PUSH3 0x461BCD PUSH1 0xE5 SHL DUP2 MSTORE PUSH1 0x20 PUSH1 0x4 DUP3 ADD MSTORE PUSH1 0x11 PUSH1 0x24 DUP3 ADD MSTORE PUSH17 0x149BDD5B99081B9BDD081CDD185C9D1959 PUSH1 0x7A SHL PUSH1 0x44 DUP3 ADD MSTORE PUSH1 0x64 SWAP1 REVERT JUMPDEST CALLVALUE PUSH2 0x240 JUMPI PUSH1 0x40 CALLDATASIZE PUSH1 0x3 NOT ADD SLT PUSH2 0x240 JUMPI PUSH1 0x20 PUSH2 0x8F5 PUSH2 0xA9B PUSH2 0x1CC3 JUMP JUMPDEST PUSH1 0x4 CALLDATALOAD PUSH2 0x2851 JUMP JUMPDEST CALLVALUE PUSH2 0x240 JUMPI PUSH1 0x20 CALLDATASIZE PUSH1 0x3 NOT ADD SLT PUSH2 0x240 JUMPI PUSH2 0x100 PUSH1 0x1 PUSH1 0x1 PUSH1 0xA0 SHL SUB DUP1 PUSH2 0xAC8 PUSH2 0x1CAD JUMP JUMPDEST AND PUSH1 0x0 MSTORE PUSH1 0x4 PUSH1 0x20 MSTORE PUSH1 0x40 PUSH1 0x0 KECCAK256 SWAP1 DUP2 SLOAD AND SWAP1 PUSH1 0x1 DUP2 ADD SLOAD SWAP1 PUSH1 0x2 DUP2 ADD SLOAD PUSH1 0x3 DUP3 ADD SLOAD PUSH1 0x4 DUP4 ADD SLOAD SWAP1 PUSH1 0x5 DUP5 ADD SLOAD SWAP3 PUSH1 0x7 PUSH1 0x6 DUP7 ADD SLOAD SWAP6 ADD SLOAD SWAP6 PUSH1 0x40 MLOAD SWAP8 DUP9 MSTORE PUSH1 0x20 DUP9 ADD MSTORE PUSH1 0x40 DUP8 ADD MSTORE PUSH1 0x60 DUP7 ADD MSTORE PUSH1 0x80 DUP6 ADD MSTORE PUSH1 0xA0 DUP5 ADD MSTORE PUSH1 0xC0 DUP4 ADD MSTORE PUSH1 0xE0 DUP3 ADD MSTORE RETURN JUMPDEST CALLVALUE PUSH2 0x240 JUMPI PUSH1 0x60 DUP1 PUSH1 0x3 NOT CALLDATASIZE ADD SLT PUSH2 0x240 JUMPI PUSH2 0xB47 PUSH2 0x1CAD JUMP JUMPDEST PUSH1 0x24 CALLDATALOAD PUSH1 0x44 CALLDATALOAD SWAP2 PUSH1 0x1 DUP1 PUSH1 0xA0 SHL SUB AND SWAP1 DUP2 PUSH1 0x0 MSTORE PUSH1 0x5 SWAP3 PUSH1 0x20 SWAP2 DUP5 DUP4 MSTORE PUSH2 0xB73 DUP2 PUSH1 0x40 PUSH1 0x0 KECCAK256 SLOAD PUSH2 0x2088 JUMP JUMPDEST DUP3 GT PUSH2 0xD6C JUMPI JUMPDEST PUSH2 0xB83 DUP3 PUSH2 0x2795 JUMP JUMPDEST SWAP5 PUSH2 0xB91 PUSH1 0x40 MLOAD SWAP7 DUP8 PUSH2 0x2610 JUMP JUMPDEST DUP3 DUP7 MSTORE PUSH1 0x1F NOT SWAP5 DUP6 PUSH2 0xBA2 DUP6 PUSH2 0x2795 JUMP JUMPDEST ADD CALLDATASIZE DUP7 DUP10 ADD CALLDATACOPY PUSH2 0xBB1 DUP5 PUSH2 0x2795 JUMP JUMPDEST SWAP6 PUSH2 0xBBF PUSH1 0x40 MLOAD SWAP8 DUP9 PUSH2 0x2610 JUMP JUMPDEST DUP5 DUP8 MSTORE PUSH2 0xBCB DUP6 PUSH2 0x2795 JUMP JUMPDEST ADD DUP6 PUSH1 0x0 JUMPDEST DUP3 DUP2 LT PUSH2 0xD34 JUMPI POP POP POP PUSH1 0x0 JUMPDEST DUP5 DUP2 LT PUSH2 0xC78 JUMPI POP POP POP SWAP1 PUSH2 0xBF1 SWAP2 PUSH2 0x1E94 JUMP JUMPDEST SWAP1 PUSH2 0xC05 PUSH1 0x40 MLOAD SWAP5 DUP7 DUP7 MSTORE DUP7 DUP7 ADD SWAP1 PUSH2 0x1CFC JUMP JUMPDEST DUP5 DUP2 SUB DUP3 DUP7 ADD MSTORE DUP2 DUP1 DUP6 MLOAD SWAP3 DUP4 DUP2 MSTORE ADD SWAP5 ADD SWAP2 PUSH1 0x0 JUMPDEST DUP3 DUP2 LT PUSH2 0xC2F JUMPI DUP7 DUP1 DUP8 DUP8 PUSH1 0x40 DUP4 ADD MSTORE SUB SWAP1 RETURN JUMPDEST SWAP1 SWAP2 SWAP3 SWAP5 DUP3 PUSH1 0xA0 PUSH1 0x1 SWAP3 DUP9 MLOAD PUSH2 0xC46 DUP3 DUP3 MLOAD PUSH2 0x1CD9 JUMP JUMPDEST DUP1 DUP5 ADD MLOAD DUP3 DUP6 ADD MSTORE PUSH1 0x40 DUP1 DUP3 ADD MLOAD SWAP1 DUP4 ADD MSTORE DUP12 DUP2 ADD MLOAD DUP13 DUP4 ADD MSTORE PUSH1 0x80 SWAP1 DUP2 ADD MLOAD ISZERO ISZERO SWAP1 DUP3 ADD MSTORE ADD SWAP7 ADD SWAP4 SWAP3 SWAP2 ADD PUSH2 0xC1B JUMP JUMPDEST PUSH2 0xD2F SWAP1 DUP3 PUSH1 0x0 MSTORE DUP4 DUP8 MSTORE PUSH2 0xC9B PUSH1 0x40 PUSH1 0x0 KECCAK256 PUSH2 0xC95 DUP4 DUP9 PUSH2 0x1E94 JUMP JUMPDEST SWAP1 PUSH2 0x1D30 JUMP JUMPDEST SWAP1 SLOAD PUSH1 0x3 SWAP2 DUP3 SHL SHR PUSH2 0xCAD DUP4 DUP13 PUSH2 0x283D JUMP JUMPDEST MSTORE PUSH2 0xCB8 DUP3 DUP12 PUSH2 0x283D JUMP JUMPDEST MLOAD PUSH1 0x0 MSTORE DUP1 DUP9 MSTORE PUSH1 0x40 PUSH1 0x0 KECCAK256 DUP5 PUSH1 0x0 MSTORE DUP9 MSTORE PUSH1 0x40 PUSH1 0x0 KECCAK256 SWAP1 PUSH1 0x4 PUSH1 0x40 MLOAD SWAP3 PUSH2 0xCDF DUP5 PUSH2 0x25BB JUMP JUMPDEST DUP14 PUSH1 0xFF SWAP4 PUSH2 0xCF0 DUP6 DUP5 SLOAD AND DUP8 PUSH2 0x2657 JUMP JUMPDEST PUSH1 0x1 DUP4 ADD SLOAD DUP14 DUP8 ADD MSTORE PUSH1 0x2 DUP4 ADD SLOAD PUSH1 0x40 DUP8 ADD MSTORE DUP3 ADD SLOAD SWAP1 DUP6 ADD MSTORE ADD SLOAD AND ISZERO ISZERO PUSH1 0x80 DUP3 ADD MSTORE PUSH2 0xD1E DUP3 DUP11 PUSH2 0x283D JUMP JUMPDEST MSTORE PUSH2 0xD29 DUP2 DUP10 PUSH2 0x283D JUMP JUMPDEST POP PUSH2 0x1E85 JUMP JUMPDEST PUSH2 0xBDD JUMP JUMPDEST PUSH1 0x40 MLOAD PUSH2 0xD40 DUP2 PUSH2 0x25BB JUMP JUMPDEST PUSH1 0x0 DUP2 MSTORE PUSH1 0x0 DUP4 DUP3 ADD MSTORE PUSH1 0x0 PUSH1 0x40 DUP3 ADD MSTORE PUSH1 0x0 DUP13 DUP3 ADD MSTORE PUSH1 0x0 PUSH1 0x80 DUP3 ADD MSTORE DUP3 DUP3 DUP12 ADD ADD MSTORE ADD DUP7 SWAP1 PUSH2 0xBD0 JUMP JUMPDEST SWAP1 POP DUP3 PUSH1 0x0 MSTORE DUP4 DUP3 MSTORE PUSH2 0xD84 DUP2 PUSH1 0x40 PUSH1 0x0 KECCAK256 SLOAD PUSH2 0x2088 JUMP JUMPDEST SWAP1 PUSH2 0xB7A JUMP JUMPDEST PUSH1 0x20 CALLDATASIZE PUSH1 0x3 NOT ADD SLT PUSH2 0x240 JUMPI PUSH8 0xFFFFFFFFFFFFFFFF PUSH1 0x4 CALLDATALOAD GT PUSH2 0x240 JUMPI CALLDATASIZE PUSH1 0x23 PUSH1 0x4 CALLDATALOAD ADD SLT ISZERO PUSH2 0x240 JUMPI PUSH8 0xFFFFFFFFFFFFFFFF PUSH1 0x4 CALLDATALOAD PUSH1 0x4 ADD CALLDATALOAD GT PUSH2 0x240 JUMPI CALLDATASIZE PUSH1 0x24 PUSH1 0x4 CALLDATALOAD PUSH1 0x4 ADD CALLDATALOAD PUSH1 0x5 SHL PUSH1 0x4 CALLDATALOAD ADD ADD GT PUSH2 0x240 JUMPI PUSH2 0xDEF PUSH1 0x2 PUSH1 0x1 SLOAD EQ ISZERO PUSH2 0x247C JUMP JUMPDEST PUSH1 0x2 PUSH1 0x1 SSTORE PUSH2 0xDFF CALLER EXTCODESIZE ISZERO PUSH2 0x2376 JUMP JUMPDEST PUSH2 0xE0A ORIGIN CALLER EQ PUSH2 0x23BA JUMP JUMPDEST PUSH1 0x0 DUP1 JUMPDEST PUSH1 0x4 CALLDATALOAD PUSH1 0x4 ADD CALLDATALOAD DUP2 LT PUSH2 0xF2A JUMPI POP DUP1 ISZERO PUSH2 0xED9 JUMPI PUSH1 0x0 DUP1 DUP1 DUP1 SWAP4 CALLER GAS CALL RETURNDATASIZE ISZERO PUSH2 0xED4 JUMPI RETURNDATASIZE PUSH8 0xFFFFFFFFFFFFFFFF DUP2 GT PUSH2 0xEBE JUMPI PUSH1 0x40 MLOAD SWAP1 PUSH2 0xE59 PUSH1 0x1F DUP3 ADD PUSH1 0x1F NOT AND PUSH1 0x20 ADD DUP4 PUSH2 0x2610 JUMP JUMPDEST DUP2 MSTORE PUSH1 0x0 PUSH1 0x20 RETURNDATASIZE SWAP3 ADD RETURNDATACOPY JUMPDEST ISZERO PUSH2 0xE6F JUMPI PUSH1 0x1 DUP1 SSTORE STOP JUMPDEST PUSH1 0x40 MLOAD PUSH3 0x461BCD PUSH1 0xE5 SHL DUP2 MSTORE PUSH1 0x20 PUSH1 0x4 DUP3 ADD MSTORE PUSH1 0x21 PUSH1 0x24 DUP3 ADD MSTORE PUSH32 0x424E42207472616E7366657220746F206D73672E73656E646572206661696C65 PUSH1 0x44 DUP3 ADD MSTORE PUSH1 0x19 PUSH1 0xFA SHL PUSH1 0x64 DUP3 ADD MSTORE PUSH1 0x84 SWAP1 REVERT JUMPDEST PUSH4 0x4E487B71 PUSH1 0xE0 SHL PUSH1 0x0 MSTORE PUSH1 0x41 PUSH1 0x4 MSTORE PUSH1 0x24 PUSH1 0x0 REVERT JUMPDEST PUSH2 0xE64 JUMP JUMPDEST PUSH1 0x40 MLOAD PUSH3 0x461BCD PUSH1 0xE5 SHL DUP2 MSTORE PUSH1 0x20 PUSH1 0x4 DUP3 ADD MSTORE PUSH1 0x23 PUSH1 0x24 DUP3 ADD MSTORE PUSH32 0x4E6F7420666F756E6420616E7920656C696769626C6520726577617264206675 PUSH1 0x44 DUP3 ADD MSTORE PUSH3 0x6E6473 PUSH1 0xE8 SHL PUSH1 0x64 DUP3 ADD MSTORE PUSH1 0x84 SWAP1 REVERT JUMPDEST SWAP1 PUSH1 0x24 DUP3 PUSH1 0x5 SHL PUSH1 0x4 CALLDATALOAD ADD ADD CALLDATALOAD PUSH1 0x0 MSTORE PUSH1 0x2 PUSH1 0x20 MSTORE PUSH1 0x40 PUSH1 0x0 KECCAK256 SWAP2 PUSH1 0x40 MLOAD SWAP3 PUSH2 0xF52 DUP5 PUSH2 0x25D7 JUMP JUMPDEST DUP1 SLOAD DUP5 MSTORE PUSH1 0x1 DUP2 ADD SLOAD PUSH1 0x20 DUP6 ADD MSTORE PUSH1 0x2 DUP2 ADD SLOAD PUSH1 0x40 DUP6 ADD MSTORE PUSH1 0x3 DUP2 ADD SLOAD PUSH1 0x60 DUP6 ADD MSTORE PUSH1 0x4 DUP2 ADD SLOAD PUSH1 0x80 DUP6 ADD MSTORE PUSH1 0x5 DUP2 ADD SLOAD PUSH1 0xA0 DUP6 ADD MSTORE PUSH1 0x6 DUP2 ADD SLOAD PUSH1 0xC0 DUP6 ADD MSTORE PUSH1 0x7 DUP2 ADD SLOAD PUSH1 0xE0 DUP6 ADD MSTORE PUSH1 0x8 DUP2 ADD SLOAD PUSH2 0x100 DUP6 ADD MSTORE PUSH2 0x102E PUSH1 0xD PUSH1 0x9 DUP4 ADD SLOAD SWAP3 PUSH4 0xFFFFFFFF DUP1 DUP6 AND PUSH2 0x120 DUP10 ADD MSTORE DUP1 DUP6 PUSH1 0x20 SHR AND PUSH2 0x140 DUP10 ADD MSTORE DUP5 PUSH1 0x40 SHR AND PUSH2 0x160 DUP9 ADD MSTORE PUSH1 0xFF DUP1 DUP6 PUSH1 0x60 SHR AND ISZERO ISZERO PUSH2 0x180 DUP10 ADD MSTORE DUP1 DUP6 PUSH1 0x68 SHR AND ISZERO ISZERO PUSH2 0x1A0 DUP10 ADD MSTORE DUP1 PUSH2 0x1C0 DUP10 ADD SWAP6 PUSH1 0x70 SHR AND ISZERO ISZERO DUP6 MSTORE PUSH1 0xA DUP3 ADD SLOAD PUSH2 0x1E0 DUP10 ADD MSTORE PUSH1 0xB DUP3 ADD SLOAD PUSH2 0x200 DUP10 ADD MSTORE PUSH1 0xC DUP3 ADD SLOAD AND ISZERO ISZERO PUSH2 0x220 DUP9 ADD MSTORE ADD PUSH2 0x27AD JUMP JUMPDEST PUSH2 0x240 DUP6 ADD MSTORE PUSH1 0x24 DUP3 PUSH1 0x5 SHL PUSH1 0x4 CALLDATALOAD ADD ADD CALLDATALOAD PUSH1 0x0 MSTORE PUSH1 0x3 PUSH1 0x20 MSTORE PUSH1 0x40 PUSH1 0x0 KECCAK256 CALLER PUSH1 0x0 MSTORE PUSH1 0x20 MSTORE PUSH1 0x40 PUSH1 0x0 KECCAK256 SWAP1 PUSH1 0x1 DUP1 PUSH1 0xA0 SHL SUB PUSH1 0x0 SLOAD AND SWAP1 MLOAD PUSH2 0x107E JUMPI JUMPDEST POP POP PUSH2 0x1079 SWAP2 SWAP3 POP PUSH2 0x1E85 JUMP JUMPDEST PUSH2 0xE0E JUMP JUMPDEST PUSH2 0x1093 CALLER PUSH1 0x24 DUP6 PUSH1 0x5 SHL PUSH1 0x4 CALLDATALOAD ADD ADD CALLDATALOAD PUSH2 0x2851 JUMP JUMPDEST ISZERO PUSH2 0x106C JUMPI PUSH2 0x10B9 PUSH2 0x10AE PUSH1 0x20 DUP8 ADD MLOAD PUSH1 0x40 DUP9 ADD MLOAD SWAP1 PUSH2 0x1E94 JUMP JUMPDEST PUSH1 0x80 DUP8 ADD MLOAD SWAP1 PUSH2 0x2088 JUMP JUMPDEST SWAP1 PUSH1 0x3 DUP4 ADD SWAP6 PUSH2 0x10DE DUP8 SLOAD SWAP2 PUSH1 0x60 PUSH2 0x10D5 PUSH1 0x80 DUP4 ADD MLOAD DUP6 PUSH2 0x1EB8 JUMP JUMPDEST SWAP2 ADD MLOAD SWAP1 PUSH2 0x21D3 JUMP JUMPDEST SWAP4 PUSH1 0x4 DUP2 ADD PUSH1 0x1 PUSH1 0xFF NOT DUP3 SLOAD AND OR SWAP1 SSTORE PUSH1 0x2 TIMESTAMP SWAP2 ADD SSTORE DUP4 LT PUSH1 0x0 EQ PUSH2 0x11AA JUMPI POP POP POP PUSH2 0x1110 PUSH2 0x1079 SWAP3 SWAP4 SLOAD DUP1 SWAP5 PUSH2 0x1E94 JUMP JUMPDEST SWAP3 CALLER PUSH1 0x0 MSTORE PUSH1 0x4 PUSH1 0x20 MSTORE PUSH1 0x6 PUSH1 0x40 PUSH1 0x0 KECCAK256 ADD PUSH2 0x112C DUP2 SLOAD PUSH2 0x1E85 JUMP JUMPDEST SWAP1 SSTORE CALLER PUSH1 0x0 MSTORE PUSH1 0x4 PUSH1 0x20 MSTORE PUSH1 0x7 PUSH1 0x40 PUSH1 0x0 KECCAK256 ADD PUSH2 0x114A DUP3 DUP3 SLOAD PUSH2 0x1E94 JUMP JUMPDEST SWAP1 SSTORE PUSH1 0x11 PUSH2 0x1158 DUP2 SLOAD PUSH2 0x1E85 JUMP JUMPDEST SWAP1 SSTORE PUSH1 0x12 PUSH2 0x1167 DUP3 DUP3 SLOAD PUSH2 0x1E94 JUMP JUMPDEST SWAP1 SSTORE PUSH1 0x40 MLOAD SWAP1 DUP2 MSTORE PUSH1 0x24 DUP3 PUSH1 0x5 SHL PUSH1 0x4 CALLDATALOAD ADD ADD CALLDATALOAD SWAP1 PUSH32 0x987D620F307FF6B94D58743CB7A7509F24071586A77759B77C2D4E29F75A2F9A PUSH1 0x20 CALLER SWAP3 LOG3 DUP3 SWAP2 DUP5 PUSH2 0x106C JUMP JUMPDEST PUSH1 0x0 DUP1 SWAP4 SWAP7 POP DUP1 SWAP3 DUP2 SWAP3 DUP3 DUP3 ISZERO PUSH2 0x11DB JUMPI JUMPDEST CALL ISZERO PUSH2 0x11CF JUMPI PUSH2 0x1110 DUP4 PUSH2 0x1079 SWAP4 PUSH2 0x1E94 JUMP JUMPDEST PUSH1 0x40 MLOAD RETURNDATASIZE PUSH1 0x0 DUP3 RETURNDATACOPY RETURNDATASIZE SWAP1 REVERT JUMPDEST POP PUSH2 0x8FC PUSH2 0x11BC JUMP JUMPDEST CALLVALUE PUSH2 0x240 JUMPI PUSH1 0x0 CALLDATASIZE PUSH1 0x3 NOT ADD SLT PUSH2 0x240 JUMPI PUSH1 0x0 SLOAD PUSH1 0x40 MLOAD PUSH1 0x1 PUSH1 0x1 PUSH1 0xA0 SHL SUB SWAP1 SWAP2 AND DUP2 MSTORE PUSH1 0x20 SWAP1 RETURN JUMPDEST CALLVALUE PUSH2 0x240 JUMPI PUSH1 0x20 DUP1 PUSH1 0x3 NOT CALLDATASIZE ADD SLT PUSH2 0x240 JUMPI PUSH1 0x1 PUSH1 0x1 PUSH1 0xA0 SHL SUB PUSH2 0x122F PUSH2 0x1CAD JUMP JUMPDEST AND PUSH1 0x0 MSTORE PUSH1 0x5 DUP2 MSTORE PUSH1 0x40 PUSH1 0x0 KECCAK256 SWAP1 PUSH1 0x40 MLOAD DUP1 DUP4 DUP4 DUP3 SWAP6 SLOAD SWAP4 DUP5 DUP2 MSTORE ADD SWAP1 PUSH1 0x0 MSTORE DUP4 PUSH1 0x0 KECCAK256 SWAP3 PUSH1 0x0 JUMPDEST DUP6 DUP3 DUP3 LT PUSH2 0x1286 JUMPI POP POP POP PUSH2 0x126E SWAP3 POP SUB DUP4 PUSH2 0x2610 JUMP JUMPDEST PUSH2 0x1282 PUSH1 0x40 MLOAD SWAP3 DUP3 DUP5 SWAP4 DUP5 MSTORE DUP4 ADD SWAP1 PUSH2 0x1CFC JUMP JUMPDEST SUB SWAP1 RETURN JUMPDEST DUP6 SLOAD DUP5 MSTORE PUSH1 0x1 SWAP6 DUP7 ADD SWAP6 DUP9 SWAP6 POP SWAP4 ADD SWAP3 ADD PUSH2 0x1257 JUMP JUMPDEST CALLVALUE PUSH2 0x240 JUMPI PUSH1 0x40 CALLDATASIZE PUSH1 0x3 NOT ADD SLT PUSH2 0x240 JUMPI PUSH1 0x4 CALLDATALOAD PUSH2 0x12B8 PUSH2 0x1CC3 JUMP JUMPDEST SWAP1 DUP1 PUSH1 0x0 MSTORE PUSH1 0x20 SWAP2 PUSH1 0x3 DUP4 MSTORE PUSH1 0x40 PUSH1 0x0 KECCAK256 SWAP1 PUSH1 0x1 DUP1 PUSH1 0xA0 SHL SUB AND PUSH1 0x0 MSTORE DUP3 MSTORE PUSH1 0x40 PUSH1 0x0 KECCAK256 PUSH1 0x40 MLOAD SWAP2 PUSH2 0x12E9 DUP4 PUSH2 0x25BB JUMP JUMPDEST PUSH1 0xFF SWAP1 PUSH2 0x12F9 DUP3 DUP5 SLOAD AND DUP6 PUSH2 0x2657 JUMP JUMPDEST PUSH1 0x1 DUP4 ADD SLOAD DUP6 DUP6 ADD MSTORE PUSH1 0x2 DUP4 ADD SLOAD PUSH1 0x40 DUP6 ADD MSTORE PUSH1 0x80 DUP3 PUSH1 0x4 PUSH1 0x3 DUP7 ADD SLOAD SWAP6 PUSH1 0x60 DUP9 ADD SWAP7 DUP8 MSTORE ADD SLOAD AND SWAP5 ADD SWAP4 ISZERO ISZERO DUP5 MSTORE PUSH1 0x0 MSTORE PUSH1 0x2 DUP5 MSTORE PUSH1 0x40 PUSH1 0x0 KECCAK256 SWAP1 PUSH1 0x40 MLOAD PUSH2 0x1341 DUP2 PUSH2 0x25D7 JUMP JUMPDEST DUP3 SLOAD DUP2 MSTORE PUSH1 0x1 DUP4 ADD SLOAD DUP7 DUP3 ADD MSTORE PUSH1 0x2 DUP4 ADD SLOAD PUSH1 0x40 DUP3 ADD MSTORE PUSH1 0x3 DUP4 ADD SLOAD PUSH1 0x60 DUP3 ADD MSTORE PUSH1 0x4 DUP4 ADD SLOAD PUSH1 0x80 DUP3 ADD MSTORE PUSH1 0x5 DUP4 ADD SLOAD PUSH1 0xA0 DUP3 ADD MSTORE PUSH1 0x6 DUP4 ADD SLOAD PUSH1 0xC0 DUP3 ADD MSTORE PUSH1 0x7 DUP4 ADD SLOAD PUSH1 0xE0 DUP3 ADD MSTORE PUSH1 0x8 DUP4 ADD SLOAD PUSH2 0x100 DUP3 ADD MSTORE PUSH1 0x9 DUP4 ADD SLOAD SWAP1 PUSH2 0x240 PUSH2 0x1420 PUSH1 0xD PUSH4 0xFFFFFFFF SWAP7 DUP8 DUP7 AND PUSH2 0x120 DUP7 ADD MSTORE DUP8 DUP7 DUP13 SHR AND PUSH2 0x140 DUP7 ADD MSTORE PUSH2 0x160 DUP6 ADD SWAP7 DUP9 DUP8 PUSH1 0x40 SHR AND DUP9 MSTORE DUP1 DUP8 PUSH1 0x60 SHR AND ISZERO ISZERO PUSH2 0x180 DUP8 ADD MSTORE DUP1 DUP8 PUSH1 0x68 SHR AND ISZERO ISZERO PUSH2 0x1A0 DUP8 ADD MSTORE DUP1 PUSH2 0x1C0 DUP8 ADD SWAP8 PUSH1 0x70 SHR AND ISZERO ISZERO DUP8 MSTORE PUSH1 0xA DUP3 ADD SLOAD PUSH2 0x1E0 DUP8 ADD MSTORE PUSH1 0xB DUP3 ADD SLOAD PUSH2 0x200 DUP8 ADD MSTORE PUSH1 0xC DUP3 ADD SLOAD AND ISZERO ISZERO PUSH2 0x220 DUP7 ADD MSTORE ADD PUSH2 0x27AD JUMP JUMPDEST SWAP2 ADD MSTORE MLOAD ISZERO SWAP4 DUP5 PUSH2 0x145E JUMPI JUMPDEST POP DUP4 PUSH2 0x1451 JUMPI JUMPDEST POP POP DUP2 PUSH2 0x1446 JUMPI JUMPDEST POP PUSH1 0x40 MLOAD SWAP1 ISZERO ISZERO DUP2 MSTORE RETURN JUMPDEST SWAP1 POP MLOAD ISZERO ISZERO DUP3 PUSH2 0x143B JUMP JUMPDEST MLOAD AND TIMESTAMP GT SWAP2 POP DUP4 DUP1 PUSH2 0x1433 JUMP JUMPDEST MLOAD ISZERO SWAP4 POP DUP6 PUSH2 0x142C JUMP JUMPDEST CALLVALUE PUSH2 0x240 JUMPI PUSH1 0x0 CALLDATASIZE PUSH1 0x3 NOT ADD SLT PUSH2 0x240 JUMPI PUSH1 0x20 PUSH1 0x8 SLOAD PUSH1 0x40 MLOAD SWAP1 DUP2 MSTORE RETURN JUMPDEST CALLVALUE PUSH2 0x240 JUMPI PUSH1 0x20 DUP1 PUSH1 0x3 NOT CALLDATASIZE ADD SLT PUSH2 0x240 JUMPI PUSH1 0x4 CALLDATALOAD PUSH1 0x0 MSTORE PUSH1 0x2 DUP2 MSTORE PUSH2 0x14B2 PUSH1 0xD PUSH1 0x40 PUSH1 0x0 KECCAK256 ADD PUSH2 0x27AD JUMP JUMPDEST PUSH1 0x40 MLOAD SWAP1 DUP3 DUP3 ADD DUP4 DUP4 MSTORE DUP2 MLOAD DUP1 SWAP2 MSTORE DUP4 PUSH1 0x40 DUP5 ADD SWAP3 ADD SWAP4 PUSH1 0x0 JUMPDEST DUP3 DUP2 LT PUSH2 0x14D9 JUMPI DUP5 DUP5 SUB DUP6 RETURN JUMPDEST SWAP1 SWAP2 SWAP3 DUP3 PUSH1 0x80 PUSH1 0x1 SWAP3 DUP9 MLOAD DUP5 DUP1 PUSH1 0xA0 SHL SUB DUP2 MLOAD AND DUP3 MSTORE PUSH2 0x14FF DUP5 DUP3 ADD MLOAD DUP6 DUP5 ADD SWAP1 PUSH2 0x1CD9 JUMP JUMPDEST PUSH1 0x40 DUP2 ADD MLOAD PUSH1 0x40 DUP4 ADD MSTORE PUSH1 0x60 DUP1 SWAP2 ADD MLOAD SWAP1 DUP3 ADD MSTORE ADD SWAP7 ADD SWAP2 ADD SWAP5 SWAP3 SWAP2 SWAP1 SWAP5 PUSH2 0x14CC JUMP JUMPDEST CALLVALUE PUSH2 0x240 JUMPI PUSH1 0x0 CALLDATASIZE PUSH1 0x3 NOT ADD SLT PUSH2 0x240 JUMPI PUSH1 0x20 PUSH1 0x6 SLOAD PUSH1 0x40 MLOAD SWAP1 DUP2 MSTORE RETURN JUMPDEST CALLVALUE PUSH2 0x240 JUMPI PUSH1 0x0 CALLDATASIZE PUSH1 0x3 NOT ADD SLT PUSH2 0x240 JUMPI PUSH1 0x20 PUSH1 0xFF PUSH1 0xC SLOAD PUSH1 0x8 SHR AND PUSH1 0x40 MLOAD SWAP1 ISZERO ISZERO DUP2 MSTORE RETURN JUMPDEST CALLVALUE PUSH2 0x240 JUMPI PUSH1 0x0 CALLDATASIZE PUSH1 0x3 NOT ADD SLT PUSH2 0x240 JUMPI PUSH1 0x0 SLOAD PUSH2 0x158E PUSH1 0x1 PUSH1 0x1 PUSH1 0xA0 SHL SUB DUP3 AND CALLER EQ PUSH2 0x1D5E JUMP JUMPDEST PUSH2 0x15A7 PUSH1 0xFF DUP3 PUSH1 0xA0 SHR AND ISZERO PUSH2 0x15A2 DUP2 PUSH2 0x1E03 JUMP JUMPDEST PUSH2 0x1E03 JUMP JUMPDEST PUSH1 0xFF PUSH1 0xA0 SHL NOT AND PUSH1 0x1 PUSH1 0xA0 SHL OR PUSH1 0x0 SWAP1 DUP2 SSTORE PUSH1 0x6 SLOAD SWAP1 PUSH32 0x32FB7C9891BC4F963C7DE9F1186D2A7755C7D6E9F4604DABE1D8BB3027C2F49E SWAP1 DUP1 LOG2 STOP JUMPDEST CALLVALUE PUSH2 0x240 JUMPI PUSH1 0x0 CALLDATASIZE PUSH1 0x3 NOT ADD SLT PUSH2 0x240 JUMPI PUSH1 0x20 PUSH1 0xFF PUSH1 0x0 SLOAD PUSH1 0xA0 SHR AND PUSH1 0x40 MLOAD SWAP1 ISZERO ISZERO DUP2 MSTORE RETURN JUMPDEST CALLVALUE PUSH2 0x240 JUMPI PUSH1 0x0 CALLDATASIZE PUSH1 0x3 NOT ADD SLT PUSH2 0x240 JUMPI PUSH1 0x0 SLOAD PUSH2 0x1631 PUSH1 0x1 PUSH1 0x1 PUSH1 0xA0 SHL SUB DUP3 AND CALLER EQ PUSH2 0x1D5E JUMP JUMPDEST PUSH2 0x1654 PUSH1 0xFF DUP3 PUSH1 0xA0 SHR AND PUSH2 0x1644 DUP2 PUSH2 0x1E42 JUMP JUMPDEST PUSH2 0xFFFF NOT PUSH1 0xC SLOAD AND PUSH1 0xC SSTORE PUSH2 0x1E42 JUMP JUMPDEST PUSH1 0xFF PUSH1 0xA0 SHL NOT AND PUSH1 0x0 SSTORE PUSH1 0x6 SLOAD PUSH32 0x9DD715FED52C25E642F97653BB4C4339AD98FE6D6E130348BE82AE5D86383A8C PUSH1 0x0 DUP1 LOG2 STOP JUMPDEST CALLVALUE PUSH2 0x240 JUMPI PUSH1 0x20 CALLDATASIZE PUSH1 0x3 NOT ADD SLT PUSH2 0x240 JUMPI PUSH1 0x4 CALLDATALOAD PUSH2 0x16B1 PUSH1 0x1 DUP1 PUSH1 0xA0 SHL SUB PUSH1 0x0 SLOAD AND CALLER EQ PUSH2 0x1D5E JUMP JUMPDEST DUP1 PUSH1 0xA SSTORE PUSH32 0x82480E97991520549AC4B5D0E1D97EDB3BFAC2666202923B6903D2A953DC7608 PUSH1 0x20 PUSH1 0x6 SLOAD SWAP3 PUSH1 0x40 MLOAD SWAP1 DUP2 MSTORE LOG2 STOP JUMPDEST CALLVALUE PUSH2 0x240 JUMPI PUSH1 0x40 CALLDATASIZE PUSH1 0x3 NOT ADD SLT PUSH2 0x240 JUMPI PUSH2 0x16FE PUSH2 0x1CC3 JUMP JUMPDEST PUSH1 0x4 CALLDATALOAD PUSH1 0x0 MSTORE PUSH1 0x3 PUSH1 0x20 MSTORE PUSH1 0x40 PUSH1 0x0 KECCAK256 SWAP1 PUSH1 0x1 DUP1 PUSH1 0xA0 SHL SUB AND PUSH1 0x0 MSTORE PUSH1 0x20 MSTORE PUSH1 0xA0 PUSH1 0x40 PUSH1 0x0 KECCAK256 PUSH1 0xFF DUP2 SLOAD AND SWAP1 PUSH1 0x1 DUP2 ADD SLOAD SWAP1 PUSH1 0x2 DUP2 ADD SLOAD PUSH1 0xFF PUSH1 0x4 PUSH1 0x3 DUP5 ADD SLOAD SWAP4 ADD SLOAD AND SWAP3 PUSH2 0x1750 PUSH1 0x40 MLOAD DUP1 SWAP7 PUSH2 0x1CD9 JUMP JUMPDEST PUSH1 0x20 DUP6 ADD MSTORE PUSH1 0x40 DUP5 ADD MSTORE PUSH1 0x60 DUP4 ADD MSTORE ISZERO ISZERO PUSH1 0x80 DUP3 ADD MSTORE RETURN JUMPDEST CALLVALUE PUSH2 0x240 JUMPI PUSH1 0x0 CALLDATASIZE PUSH1 0x3 NOT ADD SLT PUSH2 0x240 JUMPI PUSH1 0x20 PUSH1 0xFF PUSH1 0xC SLOAD AND PUSH1 0x40 MLOAD SWAP1 ISZERO ISZERO DUP2 MSTORE RETURN JUMPDEST CALLVALUE PUSH2 0x240 JUMPI PUSH1 0x20 CALLDATASIZE PUSH1 0x3 NOT ADD SLT PUSH2 0x240 JUMPI PUSH32 0x696FAB4A25D5A0F71F21EE59AA7512CD96FE20B7A28F4E2663099566B4639D89 PUSH1 0x20 PUSH1 0x4 CALLDATALOAD PUSH2 0x17D7 PUSH1 0x1 DUP1 PUSH1 0xA0 SHL SUB PUSH1 0x0 SLOAD AND CALLER EQ PUSH2 0x1D5E JUMP JUMPDEST DUP1 PUSH1 0x9 SSTORE PUSH1 0x40 MLOAD SWAP1 DUP2 MSTORE LOG1 STOP JUMPDEST CALLVALUE PUSH2 0x240 JUMPI PUSH1 0x20 CALLDATASIZE PUSH1 0x3 NOT ADD SLT PUSH2 0x240 JUMPI PUSH1 0x1 PUSH1 0x1 PUSH1 0xA0 SHL SUB PUSH2 0x1805 PUSH2 0x1CAD JUMP JUMPDEST AND PUSH1 0x0 MSTORE PUSH1 0x5 PUSH1 0x20 MSTORE PUSH1 0x20 PUSH1 0x40 PUSH1 0x0 KECCAK256 SLOAD PUSH1 0x40 MLOAD SWAP1 DUP2 MSTORE RETURN JUMPDEST CALLVALUE PUSH2 0x240 JUMPI PUSH1 0x0 CALLDATASIZE PUSH1 0x3 NOT ADD SLT PUSH2 0x240 JUMPI PUSH1 0x20 PUSH1 0x7 SLOAD PUSH1 0x40 MLOAD SWAP1 DUP2 MSTORE RETURN JUMPDEST CALLVALUE PUSH2 0x240 JUMPI PUSH1 0x40 CALLDATASIZE PUSH1 0x3 NOT ADD SLT PUSH2 0x240 JUMPI PUSH1 0x0 SLOAD PUSH1 0x24 CALLDATALOAD SWAP1 PUSH1 0x4 CALLDATALOAD SWAP1 PUSH2 0x187D SWAP1 PUSH1 0xFF SWAP1 PUSH2 0x1873 PUSH1 0x1 PUSH1 0x1 PUSH1 0xA0 SHL SUB DUP3 AND CALLER EQ PUSH2 0x1D5E JUMP JUMPDEST PUSH1 0xA0 SHR AND ISZERO PUSH2 0x1E03 JUMP JUMPDEST PUSH2 0x1888 CALLER EXTCODESIZE ISZERO PUSH2 0x2376 JUMP JUMPDEST PUSH2 0x1893 ORIGIN CALLER EQ PUSH2 0x23BA JUMP JUMPDEST PUSH1 0x6 DUP1 SLOAD PUSH2 0x18A3 PUSH2 0x5C6 DUP3 PUSH2 0x1DA9 JUMP JUMPDEST DUP3 PUSH2 0x1950 JUMPI JUMPDEST POP DUP3 PUSH2 0x18E5 JUMPI JUMPDEST SLOAD SWAP2 PUSH1 0x40 MLOAD SWAP2 DUP3 MSTORE PUSH1 0x20 DUP3 ADD MSTORE PUSH32 0xE3B9E415C1EC5664BAC5576F8AC4B84CACF237C6E9635809C8BC6D3FB6FD0A84 PUSH1 0x40 ADDRESS SWAP3 LOG3 STOP JUMPDEST DUP1 SLOAD PUSH1 0x0 MSTORE PUSH1 0x2 PUSH1 0x20 MSTORE PUSH1 0x2 PUSH1 0x40 PUSH1 0x0 KECCAK256 ADD PUSH2 0x1902 DUP5 DUP3 SLOAD PUSH2 0x1E94 JUMP JUMPDEST SWAP1 SSTORE DUP1 SLOAD PUSH1 0x0 MSTORE PUSH1 0x3 PUSH1 0x20 MSTORE PUSH1 0x40 PUSH1 0x0 KECCAK256 ADDRESS PUSH1 0x0 MSTORE PUSH1 0x20 MSTORE PUSH1 0x40 PUSH1 0x0 KECCAK256 PUSH1 0x1 PUSH1 0xFF NOT DUP3 SLOAD AND OR DUP2 SSTORE DUP4 PUSH1 0x3 DUP3 ADD SSTORE PUSH1 0x1 TIMESTAMP SWAP2 ADD SSTORE PUSH1 0x5 PUSH1 0x20 MSTORE PUSH2 0x194B PUSH1 0x40 PUSH1 0x0 KECCAK256 DUP3 SLOAD SWAP1 PUSH2 0x2447 JUMP JUMPDEST PUSH2 0x18B0 JUMP JUMPDEST PUSH1 0x0 MSTORE PUSH1 0x2 PUSH1 0x20 MSTORE PUSH1 0x1 PUSH1 0x40 PUSH1 0x0 KECCAK256 ADD PUSH2 0x196B DUP4 DUP3 SLOAD PUSH2 0x1E94 JUMP JUMPDEST SWAP1 SSTORE DUP1 SLOAD PUSH1 0x0 MSTORE PUSH1 0x3 PUSH1 0x20 MSTORE PUSH1 0x40 PUSH1 0x0 KECCAK256 ADDRESS PUSH1 0x0 MSTORE PUSH1 0x20 MSTORE PUSH1 0x40 PUSH1 0x0 KECCAK256 PUSH1 0xFF NOT DUP2 SLOAD AND DUP2 SSTORE DUP3 PUSH1 0x3 DUP3 ADD SSTORE PUSH1 0x1 TIMESTAMP SWAP2 ADD SSTORE PUSH1 0x5 PUSH1 0x20 MSTORE PUSH2 0x19B1 PUSH1 0x40 PUSH1 0x0 KECCAK256 DUP3 SLOAD SWAP1 PUSH2 0x2447 JUMP JUMPDEST DUP4 PUSH2 0x18A9 JUMP JUMPDEST CALLVALUE PUSH2 0x240 JUMPI PUSH1 0x0 CALLDATASIZE PUSH1 0x3 NOT ADD SLT PUSH2 0x240 JUMPI PUSH1 0x0 SLOAD PUSH1 0xFF SWAP1 PUSH2 0x19E2 PUSH1 0x1 PUSH1 0x1 PUSH1 0xA0 SHL SUB DUP3 AND CALLER EQ PUSH2 0x1D5E JUMP JUMPDEST PUSH1 0xA0 SHR AND ISZERO PUSH2 0x19F0 DUP2 PUSH2 0x1E03 JUMP JUMPDEST PUSH1 0xFF PUSH1 0xC SLOAD AND PUSH2 0x1AE5 JUMPI PUSH2 0x1A12 PUSH2 0x1A08 PUSH1 0x6 SLOAD PUSH2 0x1E85 JUMP JUMPDEST SWAP2 DUP3 PUSH1 0x6 SSTORE PUSH2 0x1E03 JUMP JUMPDEST DUP1 PUSH1 0x0 MSTORE PUSH1 0x2 PUSH1 0x20 MSTORE PUSH1 0x40 PUSH1 0x0 KECCAK256 PUSH4 0xFFFFFFFF TIMESTAMP AND PUSH1 0x9 DUP3 ADD SWAP2 DUP3 SLOAD SWAP2 DUP1 PUSH4 0xFFFFFFFF NOT DUP5 AND OR DUP5 SSTORE PUSH8 0xFFFFFFFF00000000 PUSH2 0x1A50 PUSH1 0x9 SLOAD TIMESTAMP PUSH2 0x1E94 JUMP JUMPDEST PUSH1 0x20 SHL AND SWAP1 DUP2 DUP2 PUSH8 0xFFFFFFFFFFFFFFFF NOT DUP7 AND OR OR DUP6 SSTORE PUSH1 0x9 SLOAD PUSH1 0x1 DUP1 PUSH1 0xFF SHL SUB DUP2 AND DUP2 SUB PUSH2 0xA2E JUMPI PUSH4 0xFFFFFFFF PUSH1 0x40 SHL PUSH2 0x1A8F DUP9 SWAP3 PUSH1 0x1 SHL TIMESTAMP PUSH2 0x1E94 JUMP JUMPDEST PUSH1 0x40 SHL AND SWAP4 SSTORE PUSH1 0x1 PUSH1 0x60 SHL SWAP4 PUSH13 0xFFFFFFFFFFFFFFFFFFFFFFFFFF NOT AND OR OR OR OR SWAP1 SSTORE PUSH32 0x33A701182892FD888ED152CA2AC23771A32E814469B7CD255965471E1AF3A659 PUSH1 0x0 DUP1 LOG2 PUSH1 0xC DUP1 SLOAD PUSH1 0xFF NOT AND PUSH1 0x1 OR SWAP1 SSTORE STOP JUMPDEST PUSH1 0x64 PUSH1 0x40 MLOAD PUSH3 0x461BCD PUSH1 0xE5 SHL DUP2 MSTORE PUSH1 0x20 PUSH1 0x4 DUP3 ADD MSTORE PUSH1 0x20 PUSH1 0x24 DUP3 ADD MSTORE PUSH32 0x53746172742066756E6374696F6E2063616E206F6E6C792072756E206F6E6365 PUSH1 0x44 DUP3 ADD MSTORE REVERT JUMPDEST CALLVALUE PUSH2 0x240 JUMPI PUSH1 0x20 CALLDATASIZE PUSH1 0x3 NOT ADD SLT PUSH2 0x240 JUMPI PUSH2 0x1B4F PUSH1 0x1 DUP1 PUSH1 0xA0 SHL SUB PUSH1 0x0 SLOAD AND CALLER EQ PUSH2 0x1D5E JUMP JUMPDEST PUSH1 0x4 CALLDATALOAD PUSH1 0x8 SSTORE STOP JUMPDEST CALLVALUE PUSH2 0x240 JUMPI PUSH1 0x0 CALLDATASIZE PUSH1 0x3 NOT ADD SLT PUSH2 0x240 JUMPI PUSH1 0x20 PUSH1 0xD SLOAD PUSH1 0x40 MLOAD SWAP1 DUP2 MSTORE RETURN JUMPDEST CALLVALUE PUSH2 0x240 JUMPI PUSH1 0x0 CALLDATASIZE PUSH1 0x3 NOT ADD SLT PUSH2 0x240 JUMPI PUSH1 0x20 SELFBALANCE PUSH1 0x40 MLOAD SWAP1 DUP2 MSTORE RETURN JUMPDEST CALLVALUE PUSH2 0x240 JUMPI PUSH1 0x0 CALLDATASIZE PUSH1 0x3 NOT ADD SLT PUSH2 0x240 JUMPI PUSH1 0x0 SLOAD PUSH1 0xA0 SHR PUSH1 0xFF AND PUSH2 0x1C12 JUMPI PUSH2 0x1BBE PUSH1 0x6 SLOAD PUSH1 0x7 SLOAD SWAP1 PUSH2 0x1ECB JUMP JUMPDEST PUSH1 0x6 SLOAD PUSH1 0x0 NOT SWAP1 DUP2 DUP2 ADD SWAP1 DUP2 GT PUSH2 0xA2E JUMPI PUSH1 0x7 SLOAD PUSH2 0x1BDB SWAP2 PUSH2 0x2095 JUMP JUMPDEST PUSH1 0x6 SLOAD SWAP1 DUP2 ADD SWAP1 DUP2 GT PUSH2 0xA2E JUMPI PUSH2 0x1BF1 SWAP1 PUSH2 0x21F3 JUMP JUMPDEST PUSH2 0x1BFC PUSH1 0x6 SLOAD PUSH2 0x1E85 JUMP JUMPDEST DUP1 PUSH1 0x6 SSTORE PUSH2 0x968 PUSH1 0xFF PUSH1 0x0 SLOAD PUSH1 0xA0 SHR AND ISZERO PUSH2 0x1E03 JUMP JUMPDEST PUSH2 0x1C21 PUSH1 0x6 SLOAD PUSH1 0x7 SLOAD SWAP1 PUSH2 0x1ECB JUMP JUMPDEST PUSH1 0x6 SLOAD PUSH1 0x0 NOT SWAP1 DUP2 DUP2 ADD DUP2 DUP2 GT PUSH2 0xA2E JUMPI PUSH1 0x0 MSTORE PUSH1 0x2 PUSH1 0x20 MSTORE PUSH1 0xFF PUSH1 0x9 PUSH1 0x40 PUSH1 0x0 KECCAK256 ADD SLOAD PUSH1 0x70 SHR AND ISZERO PUSH1 0x0 EQ PUSH2 0x1C81 JUMPI POP PUSH1 0x6 SLOAD DUP2 DUP2 ADD SWAP1 DUP2 GT PUSH2 0xA2E JUMPI PUSH1 0x7 SLOAD PUSH2 0x1C6B SWAP2 PUSH2 0x2095 JUMP JUMPDEST PUSH1 0x6 SLOAD SWAP1 DUP2 ADD SWAP1 DUP2 GT PUSH2 0xA2E JUMPI PUSH2 0x1B SWAP1 PUSH2 0x21F3 JUMP JUMPDEST PUSH1 0x7 SLOAD PUSH2 0x1C8D SWAP2 PUSH2 0x2095 JUMP JUMPDEST PUSH2 0x1C6B JUMP JUMPDEST CALLVALUE PUSH2 0x240 JUMPI PUSH1 0x0 CALLDATASIZE PUSH1 0x3 NOT ADD SLT PUSH2 0x240 JUMPI PUSH1 0x20 SWAP1 PUSH1 0x7 SLOAD DUP2 MSTORE RETURN JUMPDEST PUSH1 0x4 CALLDATALOAD SWAP1 PUSH1 0x1 PUSH1 0x1 PUSH1 0xA0 SHL SUB DUP3 AND DUP3 SUB PUSH2 0x240 JUMPI JUMP JUMPDEST PUSH1 0x24 CALLDATALOAD SWAP1 PUSH1 0x1 PUSH1 0x1 PUSH1 0xA0 SHL SUB DUP3 AND DUP3 SUB PUSH2 0x240 JUMPI JUMP JUMPDEST SWAP1 PUSH1 0x2 DUP3 LT ISZERO PUSH2 0x1CE6 JUMPI MSTORE JUMP JUMPDEST PUSH4 0x4E487B71 PUSH1 0xE0 SHL PUSH1 0x0 MSTORE PUSH1 0x21 PUSH1 0x4 MSTORE PUSH1 0x24 PUSH1 0x0 REVERT JUMPDEST SWAP1 DUP2 MLOAD DUP1 DUP3 MSTORE PUSH1 0x20 DUP1 DUP1 SWAP4 ADD SWAP4 ADD SWAP2 PUSH1 0x0 JUMPDEST DUP3 DUP2 LT PUSH2 0x1D1C JUMPI POP POP POP POP SWAP1 JUMP JUMPDEST DUP4 MLOAD DUP6 MSTORE SWAP4 DUP2 ADD SWAP4 SWAP3 DUP2 ADD SWAP3 PUSH1 0x1 ADD PUSH2 0x1D0E JUMP JUMPDEST DUP1 SLOAD DUP3 LT ISZERO PUSH2 0x1D48 JUMPI PUSH1 0x0 MSTORE PUSH1 0x20 PUSH1 0x0 KECCAK256 ADD SWAP1 PUSH1 0x0 SWAP1 JUMP JUMPDEST PUSH4 0x4E487B71 PUSH1 0xE0 SHL PUSH1 0x0 MSTORE PUSH1 0x32 PUSH1 0x4 MSTORE PUSH1 0x24 PUSH1 0x0 REVERT JUMPDEST ISZERO PUSH2 0x1D65 JUMPI JUMP JUMPDEST PUSH1 0x64 PUSH1 0x40 MLOAD PUSH3 0x461BCD PUSH1 0xE5 SHL DUP2 MSTORE PUSH1 0x20 PUSH1 0x4 DUP3 ADD MSTORE PUSH1 0x20 PUSH1 0x24 DUP3 ADD MSTORE PUSH32 0x4F776E61626C653A2063616C6C6572206973206E6F7420746865206F776E6572 PUSH1 0x44 DUP3 ADD MSTORE REVERT JUMPDEST PUSH1 0x0 MSTORE PUSH1 0x2 PUSH1 0x20 MSTORE PUSH1 0x9 PUSH1 0x40 PUSH1 0x0 KECCAK256 ADD SLOAD PUSH4 0xFFFFFFFF DUP1 DUP3 AND SWAP2 DUP3 ISZERO ISZERO SWAP3 DUP4 PUSH2 0x1DF3 JUMPI JUMPDEST DUP4 PUSH2 0x1DE9 JUMPI JUMPDEST POP DUP3 PUSH2 0x1DDE JUMPI POP POP SWAP1 JUMP JUMPDEST PUSH1 0x20 SHR AND TIMESTAMP LT SWAP2 SWAP1 POP JUMP JUMPDEST TIMESTAMP GT SWAP3 POP CODESIZE PUSH2 0x1DD3 JUMP JUMPDEST SWAP3 POP DUP2 DUP2 PUSH1 0x20 SHR AND ISZERO ISZERO SWAP3 PUSH2 0x1DCD JUMP JUMPDEST ISZERO PUSH2 0x1E0A JUMPI JUMP JUMPDEST PUSH1 0x40 MLOAD PUSH3 0x461BCD PUSH1 0xE5 SHL DUP2 MSTORE PUSH1 0x20 PUSH1 0x4 DUP3 ADD MSTORE PUSH1 0x10 PUSH1 0x24 DUP3 ADD MSTORE PUSH16 0x14185D5CD8589B194E881C185D5CD959 PUSH1 0x82 SHL PUSH1 0x44 DUP3 ADD MSTORE PUSH1 0x64 SWAP1 REVERT JUMPDEST ISZERO PUSH2 0x1E49 JUMPI JUMP JUMPDEST PUSH1 0x40 MLOAD PUSH3 0x461BCD PUSH1 0xE5 SHL DUP2 MSTORE PUSH1 0x20 PUSH1 0x4 DUP3 ADD MSTORE PUSH1 0x14 PUSH1 0x24 DUP3 ADD MSTORE PUSH20 0x14185D5CD8589B194E881B9BDD081C185D5CD959 PUSH1 0x62 SHL PUSH1 0x44 DUP3 ADD MSTORE PUSH1 0x64 SWAP1 REVERT JUMPDEST PUSH1 0x0 NOT DUP2 EQ PUSH2 0xA2E JUMPI PUSH1 0x1 ADD SWAP1 JUMP JUMPDEST SWAP2 SWAP1 DUP3 ADD DUP1 SWAP3 GT PUSH2 0xA2E JUMPI JUMP JUMPDEST SWAP1 PUSH2 0x3E8 SWAP2 DUP3 DUP2 MUL SWAP3 DUP2 DUP5 DIV EQ SWAP1 ISZERO OR ISZERO PUSH2 0xA2E JUMPI JUMP JUMPDEST DUP2 DUP2 MUL SWAP3 SWAP2 DUP2 ISZERO SWAP2 DUP5 DIV EQ OR ISZERO PUSH2 0xA2E JUMPI JUMP JUMPDEST SWAP2 SWAP1 SWAP2 PUSH1 0x0 SWAP3 DUP2 DUP5 MSTORE PUSH1 0x20 SWAP1 PUSH1 0x2 DUP3 MSTORE PUSH1 0x40 SWAP5 PUSH1 0x9 DUP7 DUP3 KECCAK256 ADD SLOAD PUSH1 0xFF DUP2 PUSH1 0x68 SHR AND ISZERO PUSH1 0x0 EQ PUSH2 0x207F JUMPI PUSH4 0xFFFFFFFF DUP1 SWAP2 AND ISZERO PUSH2 0x2027 JUMPI DUP5 DUP3 MSTORE PUSH1 0x2 DUP5 MSTORE DUP1 PUSH1 0x9 DUP9 DUP5 KECCAK256 ADD SLOAD DUP6 SHR AND TIMESTAMP LT PUSH2 0x1FD2 JUMPI DUP5 DUP3 MSTORE PUSH1 0x2 DUP5 MSTORE PUSH1 0x9 DUP8 DUP4 KECCAK256 ADD SLOAD DUP8 SHR AND TIMESTAMP GT PUSH2 0x1F83 JUMPI DUP4 DUP2 MSTORE PUSH1 0x2 DUP4 MSTORE DUP6 SWAP1 KECCAK256 PUSH1 0x7 DUP2 ADD DUP3 SWAP1 SSTORE PUSH1 0x9 ADD DUP1 SLOAD PUSH1 0xFF PUSH1 0x68 SHL NOT AND PUSH1 0x1 PUSH1 0x68 SHL OR SWAP1 SSTORE SWAP4 MLOAD SWAP4 DUP5 MSTORE SWAP2 SWAP3 SWAP1 SWAP2 PUSH32 0x1BAA8618187C16370C93561B721A291ED3182B22390099D67E81167F97FBDD3A SWAP2 LOG2 JUMP JUMPDEST DUP6 MLOAD PUSH3 0x461BCD PUSH1 0xE5 SHL DUP2 MSTORE PUSH1 0x4 DUP2 ADD DUP5 SWAP1 MSTORE PUSH1 0x22 PUSH1 0x24 DUP3 ADD MSTORE PUSH32 0x43616E206F6E6C79206C6F636B206265666F726520656E642074696D65737461 PUSH1 0x44 DUP3 ADD MSTORE PUSH2 0x6D7 PUSH1 0xF4 SHL PUSH1 0x64 DUP3 ADD MSTORE PUSH1 0x84 SWAP1 REVERT JUMPDEST DUP7 MLOAD PUSH3 0x461BCD PUSH1 0xE5 SHL DUP2 MSTORE PUSH1 0x4 DUP2 ADD DUP6 SWAP1 MSTORE PUSH1 0x28 PUSH1 0x24 DUP3 ADD MSTORE PUSH32 0x43616E206F6E6C79206C6F636B20726F756E64206166746572206C6F636B2074 PUSH1 0x44 DUP3 ADD MSTORE PUSH8 0x696D657374616D7 PUSH1 0xC4 SHL PUSH1 0x64 DUP3 ADD MSTORE PUSH1 0x84 SWAP1 REVERT JUMPDEST DUP7 MLOAD PUSH3 0x461BCD PUSH1 0xE5 SHL DUP2 MSTORE PUSH1 0x4 DUP2 ADD DUP6 SWAP1 MSTORE PUSH1 0x2B PUSH1 0x24 DUP3 ADD MSTORE PUSH32 0x43616E206F6E6C79206C6F636B20726F756E6420616674657220726F756E6420 PUSH1 0x44 DUP3 ADD MSTORE PUSH11 0x1A185CC81CDD185C9D1959 PUSH1 0xAA SHL PUSH1 0x64 DUP3 ADD MSTORE PUSH1 0x84 SWAP1 REVERT JUMPDEST POP POP POP POP POP SWAP1 POP JUMP JUMPDEST SWAP2 SWAP1 DUP3 SUB SWAP2 DUP3 GT PUSH2 0xA2E JUMPI JUMP JUMPDEST SWAP2 SWAP1 SWAP2 PUSH1 0x0 SWAP3 DUP2 DUP5 MSTORE PUSH1 0x20 SWAP1 PUSH1 0x2 DUP3 MSTORE PUSH4 0xFFFFFFFF SWAP5 PUSH1 0x40 SWAP6 DUP1 PUSH1 0x9 DUP9 DUP5 KECCAK256 ADD SLOAD DUP6 SHR AND ISZERO PUSH2 0x217D JUMPI DUP5 DUP3 MSTORE PUSH1 0x2 DUP5 MSTORE PUSH1 0x9 DUP8 DUP4 KECCAK256 ADD SLOAD DUP8 SHR AND TIMESTAMP LT PUSH2 0x2128 JUMPI DUP4 DUP2 MSTORE PUSH1 0x2 DUP4 MSTORE DUP6 SWAP1 KECCAK256 PUSH1 0x8 DUP2 ADD DUP3 SWAP1 SSTORE PUSH1 0x9 ADD DUP1 SLOAD PUSH1 0xFF PUSH1 0x70 SHL NOT AND PUSH1 0x1 PUSH1 0x70 SHL OR SWAP1 SSTORE SWAP4 MLOAD SWAP4 DUP5 MSTORE SWAP2 SWAP3 SWAP1 SWAP2 PUSH32 0x8868888CC18628A149BC88CC32A91976AB30E2CD9AECECB0CFE184A73FE551F9 SWAP2 LOG2 JUMP JUMPDEST DUP6 MLOAD PUSH3 0x461BCD PUSH1 0xE5 SHL DUP2 MSTORE PUSH1 0x4 DUP2 ADD DUP5 SWAP1 MSTORE PUSH1 0x28 PUSH1 0x24 DUP3 ADD MSTORE PUSH32 0x43616E206F6E6C7920656E6420726F756E6420616674657220636C6F73652074 PUSH1 0x44 DUP3 ADD MSTORE PUSH8 0x696D657374616D7 PUSH1 0xC4 SHL PUSH1 0x64 DUP3 ADD MSTORE PUSH1 0x84 SWAP1 REVERT JUMPDEST DUP7 MLOAD PUSH3 0x461BCD PUSH1 0xE5 SHL DUP2 MSTORE PUSH1 0x4 DUP2 ADD DUP6 SWAP1 MSTORE PUSH1 0x29 PUSH1 0x24 DUP3 ADD MSTORE PUSH32 0x43616E206F6E6C7920656E6420726F756E6420616674657220726F756E642068 PUSH1 0x44 DUP3 ADD MSTORE PUSH9 0x185CC81B1BD8DAD959 PUSH1 0xBA SHL PUSH1 0x64 DUP3 ADD MSTORE PUSH1 0x84 SWAP1 REVERT JUMPDEST DUP2 ISZERO PUSH2 0x21DD JUMPI DIV SWAP1 JUMP JUMPDEST PUSH4 0x4E487B71 PUSH1 0xE0 SHL PUSH1 0x0 MSTORE PUSH1 0x12 PUSH1 0x4 MSTORE PUSH1 0x24 PUSH1 0x0 REVERT JUMPDEST PUSH1 0x0 SWAP1 PUSH1 0x1 DUP1 PUSH1 0xA0 SHL SUB DUP3 SLOAD AND SWAP1 DUP1 DUP4 MSTORE PUSH1 0x2 PUSH1 0x20 MSTORE PUSH1 0x40 DUP4 KECCAK256 PUSH1 0x3 DUP2 ADD SLOAD ISZERO SWAP1 DUP2 PUSH2 0x2369 JUMPI JUMPDEST POP ISZERO PUSH2 0x2324 JUMPI DUP3 MSTORE PUSH1 0x2 PUSH1 0x20 MSTORE PUSH1 0x40 DUP3 KECCAK256 SWAP1 DUP3 DUP1 SWAP2 PUSH1 0x1 DUP5 ADD DUP1 SLOAD SWAP4 PUSH1 0x2 DUP7 ADD SWAP7 DUP8 SLOAD PUSH2 0x2247 DUP2 DUP9 PUSH2 0x1E94 JUMP JUMPDEST PUSH1 0x8 DUP10 ADD SLOAD PUSH1 0x7 DUP11 ADD SLOAD SWAP2 SWAP9 SWAP2 GT DUP1 PUSH2 0x22BC JUMPI POP POP POP POP POP PUSH2 0x2270 PUSH1 0x64 SWAP2 SLOAD SWAP5 PUSH1 0x8 SLOAD SWAP1 PUSH2 0x1EB8 JUMP JUMPDEST DIV SWAP5 DUP4 ISZERO PUSH2 0x228A JUMPI JUMPDEST POP POP POP SWAP1 PUSH1 0x4 SWAP2 JUMPDEST PUSH1 0x3 DUP3 ADD SSTORE ADD SSTORE JUMP JUMPDEST DUP3 DUP1 DUP1 SWAP4 DUP2 SWAP4 SLOAD SWAP1 DUP3 DUP3 ISZERO PUSH2 0x22B3 JUMPI JUMPDEST CALL ISZERO PUSH2 0x22A7 JUMPI DUP1 DUP1 PUSH2 0x2279 JUMP JUMPDEST PUSH1 0x40 MLOAD SWAP1 RETURNDATASIZE SWAP1 DUP3 RETURNDATACOPY RETURNDATASIZE SWAP1 REVERT JUMPDEST POP PUSH2 0x8FC PUSH2 0x229A JUMP JUMPDEST SWAP2 SWAP7 SWAP5 POP SWAP3 SWAP9 POP SWAP6 SWAP4 SWAP1 SWAP6 PUSH2 0x22DA JUMPI JUMPDEST POP POP POP POP POP SWAP1 PUSH1 0x4 SWAP2 PUSH2 0x2281 JUMP JUMPDEST SWAP2 SWAP4 SWAP7 POP SWAP2 SWAP4 POP PUSH1 0x64 PUSH2 0x22F1 DUP8 SWAP6 PUSH1 0x8 SLOAD SWAP1 PUSH2 0x1EB8 JUMP JUMPDEST DIV SWAP6 ISZERO PUSH2 0x2300 JUMPI JUMPDEST DUP1 DUP1 PUSH2 0x22CC JUMP JUMPDEST DUP3 DUP1 DUP1 SWAP4 DUP2 SWAP4 DUP3 DUP3 ISZERO PUSH2 0x231B JUMPI JUMPDEST CALL ISZERO PUSH2 0x22A7 JUMPI DUP1 DUP1 PUSH2 0x22F9 JUMP JUMPDEST POP PUSH2 0x8FC PUSH2 0x230E JUMP JUMPDEST PUSH1 0x40 MLOAD PUSH3 0x461BCD PUSH1 0xE5 SHL DUP2 MSTORE PUSH1 0x20 PUSH1 0x4 DUP3 ADD MSTORE PUSH1 0x1A PUSH1 0x24 DUP3 ADD MSTORE PUSH32 0x526577617264732063616C63756C6174656420616C7265616479000000000000 PUSH1 0x44 DUP3 ADD MSTORE PUSH1 0x64 SWAP1 REVERT JUMPDEST PUSH1 0x4 SWAP2 POP ADD SLOAD ISZERO CODESIZE PUSH2 0x221A JUMP JUMPDEST ISZERO PUSH2 0x237D JUMPI JUMP JUMPDEST PUSH1 0x40 MLOAD PUSH3 0x461BCD PUSH1 0xE5 SHL DUP2 MSTORE PUSH1 0x20 PUSH1 0x4 DUP3 ADD MSTORE PUSH1 0x15 PUSH1 0x24 DUP3 ADD MSTORE PUSH21 0x10DBDB9D1C9858DD1CC81B9BDD08185B1B1BDDD959 PUSH1 0x5A SHL PUSH1 0x44 DUP3 ADD MSTORE PUSH1 0x64 SWAP1 REVERT JUMPDEST ISZERO PUSH2 0x23C1 JUMPI JUMP JUMPDEST PUSH1 0x40 MLOAD PUSH3 0x461BCD PUSH1 0xE5 SHL DUP2 MSTORE PUSH1 0x20 PUSH1 0x4 DUP3 ADD MSTORE PUSH1 0x1B PUSH1 0x24 DUP3 ADD MSTORE PUSH32 0x50726F787920636F6E747261637473206E6F7420616C6C6F7765640000000000 PUSH1 0x44 DUP3 ADD MSTORE PUSH1 0x64 SWAP1 REVERT JUMPDEST ISZERO PUSH2 0x240D JUMPI JUMP JUMPDEST PUSH1 0x40 MLOAD PUSH3 0x461BCD PUSH1 0xE5 SHL DUP2 MSTORE PUSH1 0x20 PUSH1 0x4 DUP3 ADD MSTORE PUSH1 0x12 PUSH1 0x24 DUP3 ADD MSTORE PUSH18 0x526F756E64206E6F74206265747461626C65 PUSH1 0x70 SHL PUSH1 0x44 DUP3 ADD MSTORE PUSH1 0x64 SWAP1 REVERT JUMPDEST DUP1 SLOAD PUSH1 0x1 PUSH1 0x40 SHL DUP2 LT ISZERO PUSH2 0xEBE JUMPI PUSH2 0x2464 SWAP2 PUSH1 0x1 DUP3 ADD DUP2 SSTORE PUSH2 0x1D30 JUMP JUMPDEST DUP2 SWAP3 SWAP2 SLOAD SWAP1 PUSH1 0x3 SHL SWAP2 DUP3 SHL SWAP2 PUSH1 0x0 NOT SWAP1 SHL NOT AND OR SWAP1 SSTORE JUMP JUMPDEST ISZERO PUSH2 0x2483 JUMPI JUMP JUMPDEST PUSH1 0x40 MLOAD PUSH3 0x461BCD PUSH1 0xE5 SHL DUP2 MSTORE PUSH1 0x20 PUSH1 0x4 DUP3 ADD MSTORE PUSH1 0x1F PUSH1 0x24 DUP3 ADD MSTORE PUSH32 0x5265656E7472616E637947756172643A207265656E7472616E742063616C6C00 PUSH1 0x44 DUP3 ADD MSTORE PUSH1 0x64 SWAP1 REVERT JUMPDEST ISZERO PUSH2 0x24CF JUMPI JUMP JUMPDEST PUSH1 0x40 MLOAD PUSH3 0x461BCD PUSH1 0xE5 SHL DUP2 MSTORE PUSH1 0x20 PUSH1 0x4 DUP3 ADD MSTORE PUSH1 0x15 PUSH1 0x24 DUP3 ADD MSTORE PUSH21 0x42657420697320746F6F206561726C792F6C617465 PUSH1 0x58 SHL PUSH1 0x44 DUP3 ADD MSTORE PUSH1 0x64 SWAP1 REVERT JUMPDEST ISZERO PUSH2 0x2513 JUMPI JUMP JUMPDEST PUSH1 0x40 MLOAD PUSH3 0x461BCD PUSH1 0xE5 SHL DUP2 MSTORE PUSH1 0x20 PUSH1 0x4 DUP3 ADD MSTORE PUSH1 0x2E PUSH1 0x24 DUP3 ADD MSTORE PUSH32 0x42657420616D6F756E74206D7573742062652067726561746572207468616E20 PUSH1 0x44 DUP3 ADD MSTORE PUSH14 0x1B5A5B9A5B5D5B48185B5BDD5B9D PUSH1 0x92 SHL PUSH1 0x64 DUP3 ADD MSTORE PUSH1 0x84 SWAP1 REVERT JUMPDEST ISZERO PUSH2 0x2576 JUMPI JUMP JUMPDEST PUSH1 0x40 MLOAD PUSH3 0x461BCD PUSH1 0xE5 SHL DUP2 MSTORE PUSH1 0x20 PUSH1 0x4 DUP3 ADD MSTORE PUSH1 0x1B PUSH1 0x24 DUP3 ADD MSTORE PUSH32 0x43616E206F6E6C7920626574206F6E63652070657220726F756E640000000000 PUSH1 0x44 DUP3 ADD MSTORE PUSH1 0x64 SWAP1 REVERT JUMPDEST PUSH1 0xA0 DUP2 ADD SWAP1 DUP2 LT PUSH8 0xFFFFFFFFFFFFFFFF DUP3 GT OR PUSH2 0xEBE JUMPI PUSH1 0x40 MSTORE JUMP JUMPDEST PUSH2 0x260 DUP2 ADD SWAP1 DUP2 LT PUSH8 0xFFFFFFFFFFFFFFFF DUP3 GT OR PUSH2 0xEBE JUMPI PUSH1 0x40 MSTORE JUMP JUMPDEST PUSH1 0x80 DUP2 ADD SWAP1 DUP2 LT PUSH8 0xFFFFFFFFFFFFFFFF DUP3 GT OR PUSH2 0xEBE JUMPI PUSH1 0x40 MSTORE JUMP JUMPDEST SWAP1 PUSH1 0x1F DUP1 NOT SWAP2 ADD AND DUP2 ADD SWAP1 DUP2 LT PUSH8 0xFFFFFFFFFFFFFFFF DUP3 GT OR PUSH2 0xEBE JUMPI PUSH1 0x40 MSTORE JUMP JUMPDEST PUSH1 0x40 MLOAD SWAP1 PUSH2 0x263F DUP3 PUSH2 0x25F4 JUMP JUMPDEST PUSH1 0x0 PUSH1 0x60 DUP4 DUP3 DUP2 MSTORE DUP3 PUSH1 0x20 DUP3 ADD MSTORE DUP3 PUSH1 0x40 DUP3 ADD MSTORE ADD MSTORE JUMP JUMPDEST PUSH1 0x2 DUP3 LT ISZERO PUSH2 0x1CE6 JUMPI MSTORE JUMP JUMPDEST DUP1 SLOAD SWAP1 PUSH1 0x1 PUSH1 0x40 SHL DUP3 LT ISZERO PUSH2 0xEBE JUMPI PUSH1 0x1 DUP3 ADD DUP1 DUP3 SSTORE DUP3 LT ISZERO PUSH2 0x1D48 JUMPI PUSH1 0x0 MSTORE PUSH1 0x3 PUSH1 0x20 PUSH1 0x0 KECCAK256 SWAP2 MUL ADD SWAP1 PUSH1 0x1 DUP1 PUSH1 0xA0 SHL SUB DUP2 MLOAD AND SWAP1 DUP3 SLOAD SWAP1 PUSH1 0x20 DUP2 ADD MLOAD SWAP2 PUSH1 0x2 DUP4 LT ISZERO PUSH2 0x1CE6 JUMPI PUSH1 0x1 PUSH1 0x1 PUSH1 0xA8 SHL SUB NOT AND SWAP1 SWAP3 OR PUSH1 0xA0 SWAP2 SWAP1 SWAP2 SHL PUSH1 0xFF PUSH1 0xA0 SHL AND OR DUP3 SSTORE PUSH1 0x40 DUP2 ADD MLOAD PUSH1 0x1 DUP4 ADD SSTORE PUSH1 0x60 ADD MLOAD PUSH1 0x2 SWAP2 SWAP1 SWAP2 ADD SSTORE JUMP JUMPDEST SWAP1 DUP2 PUSH1 0x0 MSTORE PUSH1 0x2 PUSH1 0x20 MSTORE PUSH1 0xB PUSH1 0x40 PUSH1 0x0 KECCAK256 PUSH2 0x2726 PUSH2 0x2721 PUSH1 0x2 DUP4 ADD SLOAD PUSH2 0x271C PUSH2 0x270C PUSH1 0x1 DUP7 ADD SLOAD DUP1 SWAP4 PUSH2 0x1E94 JUMP JUMPDEST SWAP2 PUSH2 0x271C PUSH1 0x5 DUP8 ADD SLOAD SWAP4 DUP5 PUSH2 0x1EB8 JUMP JUMPDEST PUSH2 0x21D3 JUMP JUMPDEST PUSH2 0x1EA1 JUMP JUMPDEST PUSH1 0xA DUP3 ADD SSTORE ADD SLOAD PUSH2 0x2735 JUMPI POP POP JUMP JUMPDEST PUSH2 0x273E SWAP2 PUSH2 0x2740 JUMP JUMPDEST JUMP JUMPDEST SWAP1 DUP2 PUSH1 0x0 MSTORE PUSH1 0x2 PUSH1 0x20 MSTORE PUSH1 0xA PUSH1 0x40 PUSH1 0x0 KECCAK256 PUSH2 0x277D PUSH2 0x2721 PUSH1 0x2 DUP4 ADD SLOAD PUSH2 0x271C PUSH2 0x276D PUSH1 0x1 DUP7 ADD SLOAD DUP4 PUSH2 0x1E94 JUMP JUMPDEST SWAP2 PUSH2 0x271C PUSH1 0x6 DUP8 ADD SLOAD SWAP4 DUP5 PUSH2 0x1EB8 JUMP JUMPDEST PUSH1 0xB DUP3 ADD SSTORE ADD SLOAD PUSH2 0x278C JUMPI POP POP JUMP JUMPDEST PUSH2 0x273E SWAP2 PUSH2 0x26DE JUMP JUMPDEST PUSH8 0xFFFFFFFFFFFFFFFF DUP2 GT PUSH2 0xEBE JUMPI PUSH1 0x5 SHL PUSH1 0x20 ADD SWAP1 JUMP JUMPDEST SWAP1 DUP2 SLOAD PUSH2 0x27B9 DUP2 PUSH2 0x2795 JUMP JUMPDEST SWAP3 PUSH1 0x40 SWAP4 PUSH2 0x27C9 DUP6 MLOAD SWAP2 DUP3 PUSH2 0x2610 JUMP JUMPDEST DUP3 DUP2 MSTORE DUP1 SWAP5 PUSH1 0x20 DUP1 SWAP3 ADD SWAP3 PUSH1 0x0 MSTORE DUP2 PUSH1 0x0 KECCAK256 SWAP1 PUSH1 0x0 SWAP4 JUMPDEST DUP6 DUP6 LT PUSH2 0x27EF JUMPI POP POP POP POP POP POP JUMP JUMPDEST PUSH1 0x3 DUP5 PUSH1 0x1 SWAP3 DUP5 MLOAD PUSH2 0x2800 DUP2 PUSH2 0x25F4 JUMP JUMPDEST PUSH2 0x281D PUSH1 0xFF DUP9 SLOAD DUP8 DUP1 PUSH1 0xA0 SHL SUB DUP2 AND DUP5 MSTORE PUSH1 0xA0 SHR AND DUP5 DUP4 ADD PUSH2 0x2657 JUMP JUMPDEST DUP5 DUP8 ADD SLOAD DUP7 DUP3 ADD MSTORE PUSH1 0x2 DUP8 ADD SLOAD PUSH1 0x60 DUP3 ADD MSTORE DUP2 MSTORE ADD SWAP4 ADD SWAP5 ADD SWAP4 SWAP2 PUSH2 0x27E0 JUMP JUMPDEST DUP1 MLOAD DUP3 LT ISZERO PUSH2 0x1D48 JUMPI PUSH1 0x20 SWAP2 PUSH1 0x5 SHL ADD ADD SWAP1 JUMP JUMPDEST SWAP1 PUSH1 0x0 SWAP1 DUP3 DUP3 MSTORE PUSH1 0x20 SWAP2 PUSH1 0x3 DUP4 MSTORE PUSH1 0x40 SWAP2 DUP3 DUP3 KECCAK256 SWAP1 PUSH1 0x1 DUP1 PUSH1 0xA0 SHL SUB AND DUP3 MSTORE DUP4 MSTORE PUSH1 0x4 DUP3 DUP3 KECCAK256 SWAP3 DUP1 MLOAD SWAP4 PUSH2 0x2884 DUP6 PUSH2 0x25BB JUMP JUMPDEST PUSH1 0xFF SWAP3 DUP2 PUSH2 0x2896 DUP6 DUP1 SWAP5 SLOAD AND DUP9 PUSH2 0x2657 JUMP JUMPDEST PUSH1 0x1 DUP2 ADD SLOAD DUP9 DUP9 ADD MSTORE PUSH1 0x2 DUP2 ADD SLOAD DUP5 DUP9 ADD MSTORE PUSH1 0x3 DUP2 ADD SLOAD PUSH1 0x60 DUP9 ADD MSTORE ADD SLOAD AND SWAP6 PUSH1 0x80 DUP6 ADD SWAP7 ISZERO ISZERO DUP8 MSTORE DUP4 MSTORE PUSH1 0x2 DUP6 MSTORE DUP1 DUP4 KECCAK256 PUSH2 0x240 PUSH2 0x29B4 PUSH1 0xD DUP5 MLOAD SWAP4 PUSH2 0x28DC DUP6 PUSH2 0x25D7 JUMP JUMPDEST DUP1 SLOAD DUP6 MSTORE PUSH1 0x1 DUP2 ADD SLOAD DUP11 DUP7 ADD MSTORE PUSH1 0x2 DUP2 ADD SLOAD DUP7 DUP7 ADD MSTORE PUSH1 0x3 DUP2 ADD SLOAD PUSH1 0x60 DUP7 ADD MSTORE PUSH1 0x4 DUP2 ADD SLOAD PUSH1 0x80 DUP7 ADD MSTORE PUSH1 0x5 DUP2 ADD SLOAD PUSH1 0xA0 DUP7 ADD MSTORE PUSH1 0x6 DUP2 ADD SLOAD PUSH1 0xC0 DUP7 ADD MSTORE PUSH1 0x7 DUP2 ADD SLOAD SWAP7 PUSH1 0xE0 DUP7 ADD SWAP8 DUP9 MSTORE PUSH1 0x8 DUP3 ADD SLOAD SWAP11 PUSH2 0x100 DUP8 ADD SWAP12 DUP13 MSTORE PUSH1 0x9 DUP4 ADD SLOAD DUP1 SWAP9 DUP2 SWAP3 PUSH4 0xFFFFFFFF SWAP4 DUP5 SWAP2 DUP3 DUP3 AND PUSH2 0x120 DUP14 ADD MSTORE SHR AND PUSH2 0x140 DUP11 ADD MSTORE SHR AND PUSH2 0x160 DUP8 ADD MSTORE DUP1 DUP8 PUSH1 0x60 SHR AND ISZERO ISZERO PUSH2 0x180 DUP8 ADD MSTORE DUP1 DUP8 PUSH1 0x68 SHR AND ISZERO ISZERO PUSH2 0x1A0 DUP8 ADD MSTORE DUP1 PUSH2 0x1C0 DUP8 ADD SWAP8 PUSH1 0x70 SHR AND ISZERO ISZERO DUP8 MSTORE PUSH1 0xA DUP3 ADD SLOAD PUSH2 0x1E0 DUP8 ADD MSTORE PUSH1 0xB DUP3 ADD SLOAD PUSH2 0x200 DUP8 ADD MSTORE PUSH1 0xC DUP3 ADD SLOAD AND ISZERO ISZERO PUSH2 0x220 DUP7 ADD MSTORE ADD PUSH2 0x27AD JUMP JUMPDEST SWAP2 ADD MSTORE DUP2 MLOAD SWAP1 DUP6 MLOAD SWAP1 DUP2 DUP4 EQ PUSH2 0x2A77 JUMPI MLOAD ISZERO ISZERO SWAP7 DUP8 PUSH2 0x2A6D JUMPI JUMPDEST POP DUP7 PUSH2 0x29DE JUMPI JUMPDEST POP POP POP POP POP POP SWAP1 JUMP JUMPDEST GT SWAP5 POP SWAP2 SWAP3 SWAP1 SWAP2 SWAP1 DUP5 PUSH2 0x2A45 JUMPI JUMPDEST DUP5 ISZERO PUSH2 0x2A02 JUMPI JUMPDEST POP POP POP POP CODESIZE DUP1 DUP1 DUP1 DUP1 DUP1 PUSH2 0x29D5 JUMP JUMPDEST MLOAD SWAP1 MLOAD GT SWAP3 POP SWAP1 DUP3 PUSH2 0x2A1A JUMPI JUMPDEST POP POP CODESIZE DUP1 DUP1 DUP1 PUSH2 0x29F3 JUMP JUMPDEST MLOAD SWAP2 POP PUSH1 0x2 DUP3 LT ISZERO PUSH2 0x2A31 JUMPI POP PUSH1 0x1 EQ CODESIZE DUP1 PUSH2 0x2A0F JUMP JUMPDEST PUSH4 0x4E487B71 PUSH1 0xE0 SHL DUP2 MSTORE PUSH1 0x21 PUSH1 0x4 MSTORE PUSH1 0x24 SWAP1 REVERT JUMPDEST SWAP4 POP DUP3 MLOAD PUSH1 0x2 DUP2 LT ISZERO PUSH2 0x2A59 JUMPI ISZERO SWAP4 PUSH2 0x29EC JUMP JUMPDEST PUSH4 0x4E487B71 PUSH1 0xE0 SHL DUP4 MSTORE PUSH1 0x21 PUSH1 0x4 MSTORE PUSH1 0x24 DUP4 REVERT JUMPDEST MLOAD ISZERO SWAP7 POP CODESIZE PUSH2 0x29CE JUMP JUMPDEST POP POP POP POP SWAP3 POP POP POP SWAP1 JUMP INVALID LOG2 PUSH5 0x6970667358 0x22 SLT KECCAK256 0xE4 BLOCKHASH LOG0 DUP12 0xAE 0xD 0xDB GASPRICE 0x2F 0xB9 SAR TIMESTAMP LOG0 PUSH12 0x709F3E79D787B77F378A5E9D DUP13 CODESIZE 0xD5 SLT DUP7 EXTCODESIZE PUSH5 0x736F6C6343 STOP ADDMOD SGT STOP CALLER "},"methodIdentifiers":{"BetBear(uint256)":"bd776d8a","BetBull(uint256)":"bb434f28","BetHouse(uint256,uint256)":"1fa52d91","Bets(uint256,address)":"3977b381","Claim(uint256[])":"8f9fa51b","OwnershipRenounce()":"fd5bab23","OwnershipTransfer(address)":"dfc39691","Pause()":"6985a022","Resume()":"490d6d11","RoundExecute()":"0e7db6bc","RoundLock()":"b3e560eb","RoundStart()":"1f713cae","Rounds(uint256)":"d5df9d23","SetMinBetAmount(uint256)":"48894f0d","SetPriceSource(uint256)":"edeeb28f","SetRewardRate(uint256)":"1946fb78","SetRoundDuration(uint256)":"36f56ba0","UserBets(address,uint256)":"cf48098e","Users(address)":"99b956a0","_bettable(uint256)":"ba4f6737","_paused()":"16c61ccc","bullBetsCount()":"13493444","claimable(uint256,address)":"a0c7f71c","currentEpoch()":"76671808","getBalance()":"12065fe0","getPriceSource()":"048de381","getRoundPlayers(uint256)":"776e11dd","getStats()":"c59d4847","getUserParticipatedRounds(address)":"8843013b","getUserRounds(address,uint256,uint256)":"951fd600","getUserRoundsLength(address)":"273867d4","lockOnce()":"6a42c87b","minBetAmount()":"fa968eea","owner()":"8da5cb5b","paused()":"5c975abb","priceSource()":"20531bc9","refundable(uint256,address)":"7bf41254","rewardRate()":"7b0a47ee","roundDuration()":"f7cb789a","startOnce()":"381a5478"}}}}}